{
  "contractName": "Event",
  "abi": [
    {
      "inputs": [],
      "stateMutability": "nonpayable",
      "type": "constructor"
    },
    {
      "anonymous": false,
      "inputs": [
        {
          "indexed": true,
          "internalType": "address",
          "name": "_admin",
          "type": "address"
        },
        {
          "indexed": false,
          "internalType": "uint256",
          "name": "_event_id",
          "type": "uint256"
        },
        {
          "indexed": false,
          "internalType": "string",
          "name": "_name",
          "type": "string"
        },
        {
          "indexed": false,
          "internalType": "string",
          "name": "_description",
          "type": "string"
        },
        {
          "indexed": false,
          "internalType": "string",
          "name": "_venue_address",
          "type": "string"
        },
        {
          "indexed": false,
          "internalType": "uint256",
          "name": "_start_datetime",
          "type": "uint256"
        },
        {
          "indexed": false,
          "internalType": "uint256",
          "name": "_end_datetime",
          "type": "uint256"
        }
      ],
      "name": "EventCreated",
      "type": "event"
    },
    {
      "anonymous": false,
      "inputs": [
        {
          "indexed": true,
          "internalType": "address",
          "name": "previousOwner",
          "type": "address"
        },
        {
          "indexed": true,
          "internalType": "address",
          "name": "newOwner",
          "type": "address"
        }
      ],
      "name": "OwnershipTransferred",
      "type": "event"
    },
    {
      "inputs": [
        {
          "internalType": "address",
          "name": "",
          "type": "address"
        },
        {
          "internalType": "uint256",
          "name": "",
          "type": "uint256"
        }
      ],
      "name": "events",
      "outputs": [
        {
          "internalType": "string",
          "name": "name",
          "type": "string"
        },
        {
          "internalType": "string",
          "name": "description",
          "type": "string"
        },
        {
          "internalType": "string",
          "name": "venue_address",
          "type": "string"
        },
        {
          "internalType": "uint256",
          "name": "start_datetime",
          "type": "uint256"
        },
        {
          "internalType": "uint256",
          "name": "end_datetime",
          "type": "uint256"
        },
        {
          "internalType": "bool",
          "name": "is_set",
          "type": "bool"
        }
      ],
      "stateMutability": "view",
      "type": "function"
    },
    {
      "inputs": [],
      "name": "owner",
      "outputs": [
        {
          "internalType": "address",
          "name": "",
          "type": "address"
        }
      ],
      "stateMutability": "view",
      "type": "function"
    },
    {
      "inputs": [],
      "name": "renounceOwnership",
      "outputs": [],
      "stateMutability": "nonpayable",
      "type": "function"
    },
    {
      "inputs": [
        {
          "internalType": "address",
          "name": "newOwner",
          "type": "address"
        }
      ],
      "name": "transferOwnership",
      "outputs": [],
      "stateMutability": "nonpayable",
      "type": "function"
    },
    {
      "inputs": [
        {
          "internalType": "address",
          "name": "_organizer_contract",
          "type": "address"
        },
        {
          "internalType": "string",
          "name": "_name",
          "type": "string"
        },
        {
          "internalType": "string",
          "name": "_description",
          "type": "string"
        },
        {
          "internalType": "string",
          "name": "_venue_address",
          "type": "string"
        },
        {
          "internalType": "uint256",
          "name": "_start_datetime",
          "type": "uint256"
        },
        {
          "internalType": "uint256",
          "name": "_end_datetime",
          "type": "uint256"
        }
      ],
      "name": "create_event",
      "outputs": [],
      "stateMutability": "nonpayable",
      "type": "function"
    },
    {
      "inputs": [
        {
          "internalType": "address",
          "name": "_organizer_address",
          "type": "address"
        },
        {
          "internalType": "uint256",
          "name": "_event_id",
          "type": "uint256"
        }
      ],
      "name": "is_event",
      "outputs": [
        {
          "internalType": "bool",
          "name": "",
          "type": "bool"
        }
      ],
      "stateMutability": "view",
      "type": "function"
    }
  ],
  "bytecode": "0x608060405234801561001057600080fd5b5061002d61002261003260201b60201c565b61003a60201b60201c565b6100fe565b600033905090565b60008060009054906101000a900473ffffffffffffffffffffffffffffffffffffffff169050816000806101000a81548173ffffffffffffffffffffffffffffffffffffffff021916908373ffffffffffffffffffffffffffffffffffffffff1602179055508173ffffffffffffffffffffffffffffffffffffffff168173ffffffffffffffffffffffffffffffffffffffff167f8be0079c531659141344cd1fd0a4f28419497f9722a3daafe3b4186f6b6457e060405160405180910390a35050565b6112878061010d6000396000f3fe608060405234801561001057600080fd5b50600436106100625760003560e01c80632d9d4ed114610067578063715018a61461008357806374dcdc631461008d5780638da5cb5b146100c2578063c8ff5bf9146100e0578063f2fde38b14610110575b600080fd5b610081600480360381019061007c9190610a1c565b61012c565b005b61008b6103a7565b005b6100a760048036038101906100a29190610afd565b6103bb565b6040516100b996959493929190610be6565b60405180910390f35b6100ca6105a9565b6040516100d79190610c6b565b60405180910390f35b6100fa60048036038101906100f59190610afd565b6105d2565b6040516101079190610c86565b60405180910390f35b61012a60048036038101906101259190610ca1565b61063d565b005b8573ffffffffffffffffffffffffffffffffffffffff1663ee23e2be336040518263ffffffff1660e01b81526004016101659190610c6b565b602060405180830381865afa158015610182573d6000803e3d6000fd5b505050506040513d601f19601f820116820180604052508101906101a69190610cfa565b6101e5576040517f08c379a00000000000000000000000000000000000000000000000000000000081526004016101dc90610d73565b60405180910390fd5b80821080156101f357504281105b610232576040517f08c379a000000000000000000000000000000000000000000000000000000000815260040161022990610ddf565b60405180910390fd5b6040518060c0016040528086815260200185815260200184815260200183815260200182815260200160011515815250600260003373ffffffffffffffffffffffffffffffffffffffff1673ffffffffffffffffffffffffffffffffffffffff16815260200190815260200160002060006102ad60016106c0565b815260200190815260200160002060008201518160000190816102d0919061100b565b5060208201518160010190816102e6919061100b565b5060408201518160020190816102fc919061100b565b50606082015181600301556080820151816004015560a08201518160050160006101000a81548160ff0219169083151502179055509050503373ffffffffffffffffffffffffffffffffffffffff167fcab55701765438bf4f8ae72b3c5a07b057f35cade38b2ea35def8cc568630efc61037660016106c0565b878787878760405161038d969594939291906110dd565b60405180910390a261039f60016106ce565b505050505050565b6103af6106e4565b6103b96000610762565b565b6002602052816000526040600020602052806000526040600020600091509150508060000180546103eb90610e2e565b80601f016020809104026020016040519081016040528092919081815260200182805461041790610e2e565b80156104645780601f1061043957610100808354040283529160200191610464565b820191906000526020600020905b81548152906001019060200180831161044757829003601f168201915b50505050509080600101805461047990610e2e565b80601f01602080910402602001604051908101604052809291908181526020018280546104a590610e2e565b80156104f25780601f106104c7576101008083540402835291602001916104f2565b820191906000526020600020905b8154815290600101906020018083116104d557829003601f168201915b50505050509080600201805461050790610e2e565b80601f016020809104026020016040519081016040528092919081815260200182805461053390610e2e565b80156105805780601f1061055557610100808354040283529160200191610580565b820191906000526020600020905b81548152906001019060200180831161056357829003601f168201915b5050505050908060030154908060040154908060050160009054906101000a900460ff16905086565b60008060009054906101000a900473ffffffffffffffffffffffffffffffffffffffff16905090565b6000600260008473ffffffffffffffffffffffffffffffffffffffff1673ffffffffffffffffffffffffffffffffffffffff168152602001908152602001600020600083815260200190815260200160002060050160009054906101000a900460ff16905092915050565b6106456106e4565b600073ffffffffffffffffffffffffffffffffffffffff168173ffffffffffffffffffffffffffffffffffffffff16036106b4576040517f08c379a00000000000000000000000000000000000000000000000000000000081526004016106ab906111c5565b60405180910390fd5b6106bd81610762565b50565b600081600001549050919050565b6001816000016000828254019250508190555050565b6106ec610826565b73ffffffffffffffffffffffffffffffffffffffff1661070a6105a9565b73ffffffffffffffffffffffffffffffffffffffff1614610760576040517f08c379a000000000000000000000000000000000000000000000000000000000815260040161075790611231565b60405180910390fd5b565b60008060009054906101000a900473ffffffffffffffffffffffffffffffffffffffff169050816000806101000a81548173ffffffffffffffffffffffffffffffffffffffff021916908373ffffffffffffffffffffffffffffffffffffffff1602179055508173ffffffffffffffffffffffffffffffffffffffff168173ffffffffffffffffffffffffffffffffffffffff167f8be0079c531659141344cd1fd0a4f28419497f9722a3daafe3b4186f6b6457e060405160405180910390a35050565b600033905090565b6000604051905090565b600080fd5b600080fd5b600073ffffffffffffffffffffffffffffffffffffffff82169050919050565b600061086d82610842565b9050919050565b61087d81610862565b811461088857600080fd5b50565b60008135905061089a81610874565b92915050565b600080fd5b600080fd5b6000601f19601f8301169050919050565b7f4e487b7100000000000000000000000000000000000000000000000000000000600052604160045260246000fd5b6108f3826108aa565b810181811067ffffffffffffffff82111715610912576109116108bb565b5b80604052505050565b600061092561082e565b905061093182826108ea565b919050565b600067ffffffffffffffff821115610951576109506108bb565b5b61095a826108aa565b9050602081019050919050565b82818337600083830152505050565b600061098961098484610936565b61091b565b9050828152602081018484840111156109a5576109a46108a5565b5b6109b0848285610967565b509392505050565b600082601f8301126109cd576109cc6108a0565b5b81356109dd848260208601610976565b91505092915050565b6000819050919050565b6109f9816109e6565b8114610a0457600080fd5b50565b600081359050610a16816109f0565b92915050565b60008060008060008060c08789031215610a3957610a38610838565b5b6000610a4789828a0161088b565b965050602087013567ffffffffffffffff811115610a6857610a6761083d565b5b610a7489828a016109b8565b955050604087013567ffffffffffffffff811115610a9557610a9461083d565b5b610aa189828a016109b8565b945050606087013567ffffffffffffffff811115610ac257610ac161083d565b5b610ace89828a016109b8565b9350506080610adf89828a01610a07565b92505060a0610af089828a01610a07565b9150509295509295509295565b60008060408385031215610b1457610b13610838565b5b6000610b228582860161088b565b9250506020610b3385828601610a07565b9150509250929050565b600081519050919050565b600082825260208201905092915050565b60005b83811015610b77578082015181840152602081019050610b5c565b60008484015250505050565b6000610b8e82610b3d565b610b988185610b48565b9350610ba8818560208601610b59565b610bb1816108aa565b840191505092915050565b610bc5816109e6565b82525050565b60008115159050919050565b610be081610bcb565b82525050565b600060c0820190508181036000830152610c008189610b83565b90508181036020830152610c148188610b83565b90508181036040830152610c288187610b83565b9050610c376060830186610bbc565b610c446080830185610bbc565b610c5160a0830184610bd7565b979650505050505050565b610c6581610862565b82525050565b6000602082019050610c806000830184610c5c565b92915050565b6000602082019050610c9b6000830184610bd7565b92915050565b600060208284031215610cb757610cb6610838565b5b6000610cc58482850161088b565b91505092915050565b610cd781610bcb565b8114610ce257600080fd5b50565b600081519050610cf481610cce565b92915050565b600060208284031215610d1057610d0f610838565b5b6000610d1e84828501610ce5565b91505092915050565b7f4f7267616e697a657220646f6573206e6f742065786973740000000000000000600082015250565b6000610d5d601883610b48565b9150610d6882610d27565b602082019050919050565b60006020820190508181036000830152610d8c81610d50565b9050919050565b7f57726f6e67206461746574696d65207061737365640000000000000000000000600082015250565b6000610dc9601583610b48565b9150610dd482610d93565b602082019050919050565b60006020820190508181036000830152610df881610dbc565b9050919050565b7f4e487b7100000000000000000000000000000000000000000000000000000000600052602260045260246000fd5b60006002820490506001821680610e4657607f821691505b602082108103610e5957610e58610dff565b5b50919050565b60008190508160005260206000209050919050565b60006020601f8301049050919050565b600082821b905092915050565b600060088302610ec17fffffffffffffffffffffffffffffffffffffffffffffffffffffffffffffffff82610e84565b610ecb8683610e84565b95508019841693508086168417925050509392505050565b6000819050919050565b6000610f08610f03610efe846109e6565b610ee3565b6109e6565b9050919050565b6000819050919050565b610f2283610eed565b610f36610f2e82610f0f565b848454610e91565b825550505050565b600090565b610f4b610f3e565b610f56818484610f19565b505050565b5b81811015610f7a57610f6f600082610f43565b600181019050610f5c565b5050565b601f821115610fbf57610f9081610e5f565b610f9984610e74565b81016020851015610fa8578190505b610fbc610fb485610e74565b830182610f5b565b50505b505050565b600082821c905092915050565b6000610fe260001984600802610fc4565b1980831691505092915050565b6000610ffb8383610fd1565b9150826002028217905092915050565b61101482610b3d565b67ffffffffffffffff81111561102d5761102c6108bb565b5b6110378254610e2e565b611042828285610f7e565b600060209050601f8311600181146110755760008415611063578287015190505b61106d8582610fef565b8655506110d5565b601f19841661108386610e5f565b60005b828110156110ab57848901518255600182019150602085019450602081019050611086565b868310156110c857848901516110c4601f891682610fd1565b8355505b6001600288020188555050505b505050505050565b600060c0820190506110f26000830189610bbc565b81810360208301526111048188610b83565b905081810360408301526111188187610b83565b9050818103606083015261112c8186610b83565b905061113b6080830185610bbc565b61114860a0830184610bbc565b979650505050505050565b7f4f776e61626c653a206e6577206f776e657220697320746865207a65726f206160008201527f6464726573730000000000000000000000000000000000000000000000000000602082015250565b60006111af602683610b48565b91506111ba82611153565b604082019050919050565b600060208201905081810360008301526111de816111a2565b9050919050565b7f4f776e61626c653a2063616c6c6572206973206e6f7420746865206f776e6572600082015250565b600061121b602083610b48565b9150611226826111e5565b602082019050919050565b6000602082019050818103600083015261124a8161120e565b905091905056fea26469706673582212204f5d513feba4decc53c77af11660bed3b3573ccc32e64191a85f4d7e9ae2bb7764736f6c63430008110033",
  "immutableReferences": {},
  "source": "// SPDX-License-Identifier: MIT\npragma solidity ^0.8.17;\n\nimport \"@openzeppelin/contracts/access/Ownable.sol\";\nimport \"@openzeppelin/contracts/utils/Counters.sol\";\nimport \"./Organizer.sol\";\n\ninterface EventInterface {\n    struct EventStruct {\n        string name;\n        string description;\n        string venue_address;\n        uint256 start_datetime;\n        uint256 end_datetime;\n        bool is_set;\n    }\n\n    function create_event(\n        address _organizer_contract,\n        string memory _name,\n        string memory _description,\n        string memory _venue_address,\n        uint256 _start_datetime,\n        uint256 _end_datetime\n    ) external;\n\n    function is_event(address _organizer_address, uint256 _event_id)\n        external\n        view\n        returns (bool);\n}\n\ncontract Event is EventInterface, Ownable {\n    Counters.Counter event_id;\n    mapping(address => mapping(uint256 => EventStruct)) public events;\n\n    event EventCreated(\n        address indexed _admin,\n        uint256 _event_id,\n        string _name,\n        string _description,\n        string _venue_address,\n        uint256 _start_datetime,\n        uint256 _end_datetime\n    );\n\n    constructor() {}\n\n    // Functions\n    function create_event(\n        address _organizer_contract,\n        string memory _name,\n        string memory _description,\n        string memory _venue_address,\n        uint256 _start_datetime,\n        uint256 _end_datetime\n    ) external {\n        require(\n            OrganizerInterface(_organizer_contract).is_organizer(msg.sender),\n            \"Organizer does not exist\"\n        );\n        require(\n            _start_datetime < _end_datetime && _end_datetime < block.timestamp,\n            \"Wrong datetime passed\"\n        );\n        events[msg.sender][Counters.current(event_id)] = EventStruct(\n            _name,\n            _description,\n            _venue_address,\n            _start_datetime,\n            _end_datetime,\n            true\n        );\n        emit EventCreated(\n            msg.sender,\n            Counters.current(event_id),\n            _name,\n            _description,\n            _venue_address,\n            _start_datetime,\n            _end_datetime\n        );\n        Counters.increment(event_id);\n    }\n\n    function is_event(address _organizer_address, uint256 _event_id)\n        external\n        view\n        returns (bool)\n    {\n        return events[_organizer_address][_event_id].is_set;\n    }\n}\n",
  "sourcePath": "/home/flaprimo/Development/decentralized-ticket-sales/backend/contracts/Event.sol",
  "compiler": {
    "name": "solc",
    "version": "0.8.17+commit.8df45f5f.Emscripten.clang"
  },
  "schemaVersion": "3.4.10",
  "updatedAt": "2023-01-21T02:41:40.153Z",
  "devdoc": {
    "kind": "dev",
    "methods": {
      "owner()": {
        "details": "Returns the address of the current owner."
      },
      "renounceOwnership()": {
        "details": "Leaves the contract without owner. It will not be possible to call `onlyOwner` functions anymore. Can only be called by the current owner. NOTE: Renouncing ownership will leave the contract without an owner, thereby removing any functionality that is only available to the owner."
      },
      "transferOwnership(address)": {
        "details": "Transfers ownership of the contract to a new account (`newOwner`). Can only be called by the current owner."
      }
    },
    "version": 1
  },
  "userdoc": {
    "kind": "user",
    "methods": {},
    "version": 1
  }
}