{
  "contractName": "Event",
  "abi": [
    {
      "anonymous": false,
      "inputs": [
        {
          "indexed": true,
          "internalType": "address",
          "name": "_admin",
          "type": "address"
        },
        {
          "indexed": false,
          "internalType": "uint256",
          "name": "_event_id",
          "type": "uint256"
        },
        {
          "indexed": false,
          "internalType": "string",
          "name": "_name",
          "type": "string"
        },
        {
          "indexed": false,
          "internalType": "string",
          "name": "_description",
          "type": "string"
        },
        {
          "indexed": false,
          "internalType": "string",
          "name": "_venue_address",
          "type": "string"
        },
        {
          "indexed": false,
          "internalType": "uint256",
          "name": "_start_datetime",
          "type": "uint256"
        },
        {
          "indexed": false,
          "internalType": "uint256",
          "name": "_end_datetime",
          "type": "uint256"
        }
      ],
      "name": "EventCreated",
      "type": "event"
    },
    {
      "anonymous": false,
      "inputs": [
        {
          "indexed": false,
          "internalType": "uint8",
          "name": "version",
          "type": "uint8"
        }
      ],
      "name": "Initialized",
      "type": "event"
    },
    {
      "anonymous": false,
      "inputs": [
        {
          "indexed": true,
          "internalType": "address",
          "name": "previousOwner",
          "type": "address"
        },
        {
          "indexed": true,
          "internalType": "address",
          "name": "newOwner",
          "type": "address"
        }
      ],
      "name": "OwnershipTransferred",
      "type": "event"
    },
    {
      "inputs": [
        {
          "internalType": "uint256",
          "name": "",
          "type": "uint256"
        }
      ],
      "name": "event_list",
      "outputs": [
        {
          "internalType": "uint256",
          "name": "",
          "type": "uint256"
        }
      ],
      "stateMutability": "view",
      "type": "function",
      "constant": true
    },
    {
      "inputs": [
        {
          "internalType": "address",
          "name": "",
          "type": "address"
        },
        {
          "internalType": "uint256",
          "name": "",
          "type": "uint256"
        }
      ],
      "name": "events",
      "outputs": [
        {
          "internalType": "address",
          "name": "organizer_address",
          "type": "address"
        },
        {
          "internalType": "uint256",
          "name": "event_id",
          "type": "uint256"
        },
        {
          "internalType": "string",
          "name": "name",
          "type": "string"
        },
        {
          "internalType": "string",
          "name": "description",
          "type": "string"
        },
        {
          "internalType": "string",
          "name": "venue_address",
          "type": "string"
        },
        {
          "internalType": "uint256",
          "name": "start_datetime",
          "type": "uint256"
        },
        {
          "internalType": "uint256",
          "name": "end_datetime",
          "type": "uint256"
        },
        {
          "internalType": "bool",
          "name": "is_set",
          "type": "bool"
        }
      ],
      "stateMutability": "view",
      "type": "function",
      "constant": true
    },
    {
      "inputs": [],
      "name": "owner",
      "outputs": [
        {
          "internalType": "address",
          "name": "",
          "type": "address"
        }
      ],
      "stateMutability": "view",
      "type": "function",
      "constant": true
    },
    {
      "inputs": [],
      "name": "renounceOwnership",
      "outputs": [],
      "stateMutability": "nonpayable",
      "type": "function"
    },
    {
      "inputs": [
        {
          "internalType": "address",
          "name": "newOwner",
          "type": "address"
        }
      ],
      "name": "transferOwnership",
      "outputs": [],
      "stateMutability": "nonpayable",
      "type": "function"
    },
    {
      "inputs": [
        {
          "internalType": "address",
          "name": "_organizer_contract",
          "type": "address"
        }
      ],
      "name": "initialize",
      "outputs": [],
      "stateMutability": "nonpayable",
      "type": "function"
    },
    {
      "inputs": [
        {
          "internalType": "string",
          "name": "_name",
          "type": "string"
        },
        {
          "internalType": "string",
          "name": "_description",
          "type": "string"
        },
        {
          "internalType": "string",
          "name": "_venue_address",
          "type": "string"
        },
        {
          "internalType": "uint256",
          "name": "_start_datetime",
          "type": "uint256"
        },
        {
          "internalType": "uint256",
          "name": "_end_datetime",
          "type": "uint256"
        }
      ],
      "name": "create_event",
      "outputs": [
        {
          "internalType": "uint256",
          "name": "",
          "type": "uint256"
        }
      ],
      "stateMutability": "nonpayable",
      "type": "function"
    },
    {
      "inputs": [
        {
          "internalType": "address",
          "name": "_organizer_address",
          "type": "address"
        },
        {
          "internalType": "uint256",
          "name": "_event_id",
          "type": "uint256"
        }
      ],
      "name": "is_event",
      "outputs": [
        {
          "internalType": "bool",
          "name": "",
          "type": "bool"
        }
      ],
      "stateMutability": "view",
      "type": "function",
      "constant": true
    },
    {
      "inputs": [],
      "name": "events_length",
      "outputs": [
        {
          "internalType": "uint256",
          "name": "",
          "type": "uint256"
        }
      ],
      "stateMutability": "view",
      "type": "function",
      "constant": true
    }
  ],
  "bytecode": "0x608060405234801561001057600080fd5b5061173d806100206000396000f3fe608060405234801561001057600080fd5b50600436106100935760003560e01c8063c4d66de811610066578063c4d66de814610127578063c8ff5bf914610143578063e0ce1c5a14610173578063f0ad964f14610191578063f2fde38b146101c157610093565b8063715018a61461009857806374dcdc63146100a25780638d9a3cdb146100d95780638da5cb5b14610109575b600080fd5b6100a06101dd565b005b6100bc60048036038101906100b79190610c44565b6101f1565b6040516100d0989796959493929190610d4d565b60405180910390f35b6100f360048036038101906100ee9190610de0565b61040b565b6040516101009190610e0d565b60405180910390f35b61011161042f565b60405161011e9190610e28565b60405180910390f35b610141600480360381019061013c9190610e43565b610459565b005b61015d60048036038101906101589190610c44565b6105d1565b60405161016a9190610e70565b60405180910390f35b61017b61063c565b6040516101889190610e0d565b60405180910390f35b6101ab60048036038101906101a69190610fc0565b610649565b6040516101b89190610e0d565b60405180910390f35b6101db60048036038101906101d69190610e43565b610986565b005b6101e5610a09565b6101ef6000610a87565b565b6066602052816000526040600020602052806000526040600020600091509150508060000160009054906101000a900473ffffffffffffffffffffffffffffffffffffffff169080600101549080600201805461024d906110be565b80601f0160208091040260200160405190810160405280929190818152602001828054610279906110be565b80156102c65780601f1061029b576101008083540402835291602001916102c6565b820191906000526020600020905b8154815290600101906020018083116102a957829003601f168201915b5050505050908060030180546102db906110be565b80601f0160208091040260200160405190810160405280929190818152602001828054610307906110be565b80156103545780601f1061032957610100808354040283529160200191610354565b820191906000526020600020905b81548152906001019060200180831161033757829003601f168201915b505050505090806004018054610369906110be565b80601f0160208091040260200160405190810160405280929190818152602001828054610395906110be565b80156103e25780601f106103b7576101008083540402835291602001916103e2565b820191906000526020600020905b8154815290600101906020018083116103c557829003601f168201915b5050505050908060050154908060060154908060070160009054906101000a900460ff16905088565b6067818154811061041b57600080fd5b906000526020600020016000915090505481565b6000603360009054906101000a900473ffffffffffffffffffffffffffffffffffffffff16905090565b60008060019054906101000a900460ff1615905080801561048a5750600160008054906101000a900460ff1660ff16105b806104b7575061049930610b4d565b1580156104b65750600160008054906101000a900460ff1660ff16145b5b6104f6576040517f08c379a00000000000000000000000000000000000000000000000000000000081526004016104ed90611161565b60405180910390fd5b60016000806101000a81548160ff021916908360ff1602179055508015610533576001600060016101000a81548160ff0219169083151502179055505b81606860006101000a81548173ffffffffffffffffffffffffffffffffffffffff021916908373ffffffffffffffffffffffffffffffffffffffff16021790555080156105cd5760008060016101000a81548160ff0219169083151502179055507f7f26b83ff96e1f2b6a682f133852f6798a09c465da95921460cefb384740249860016040516105c491906111d3565b60405180910390a15b5050565b6000606660008473ffffffffffffffffffffffffffffffffffffffff1673ffffffffffffffffffffffffffffffffffffffff168152602001908152602001600020600083815260200190815260200160002060070160009054906101000a900460ff16905092915050565b6000606780549050905090565b6000606860009054906101000a900473ffffffffffffffffffffffffffffffffffffffff1673ffffffffffffffffffffffffffffffffffffffff1663ee23e2be336040518263ffffffff1660e01b81526004016106a69190610e28565b602060405180830381865afa1580156106c3573d6000803e3d6000fd5b505050506040513d601f19601f820116820180604052508101906106e7919061121a565b610726576040517f08c379a000000000000000000000000000000000000000000000000000000000815260040161071d90611293565b60405180910390fd5b818310801561073457504282105b610773576040517f08c379a000000000000000000000000000000000000000000000000000000000815260040161076a906112ff565b60405180910390fd5b600061077f6065610b70565b90506040518061010001604052803373ffffffffffffffffffffffffffffffffffffffff16815260200182815260200188815260200187815260200186815260200185815260200184815260200160011515815250606660003373ffffffffffffffffffffffffffffffffffffffff1673ffffffffffffffffffffffffffffffffffffffff168152602001908152602001600020600083815260200190815260200160002060008201518160000160006101000a81548173ffffffffffffffffffffffffffffffffffffffff021916908373ffffffffffffffffffffffffffffffffffffffff16021790555060208201518160010155604082015181600201908161088a91906114c1565b5060608201518160030190816108a091906114c1565b5060808201518160040190816108b691906114c1565b5060a0820151816005015560c0820151816006015560e08201518160070160006101000a81548160ff02191690831515021790555090505060678190806001815401808255809150506001900390600052602060002001600090919091909150553373ffffffffffffffffffffffffffffffffffffffff167fcab55701765438bf4f8ae72b3c5a07b057f35cade38b2ea35def8cc568630efc82898989898960405161096796959493929190611593565b60405180910390a26109796065610b7e565b8091505095945050505050565b61098e610a09565b600073ffffffffffffffffffffffffffffffffffffffff168173ffffffffffffffffffffffffffffffffffffffff16036109fd576040517f08c379a00000000000000000000000000000000000000000000000000000000081526004016109f49061167b565b60405180910390fd5b610a0681610a87565b50565b610a11610b94565b73ffffffffffffffffffffffffffffffffffffffff16610a2f61042f565b73ffffffffffffffffffffffffffffffffffffffff1614610a85576040517f08c379a0000000000000000000000000000000000000000000000000000000008152600401610a7c906116e7565b60405180910390fd5b565b6000603360009054906101000a900473ffffffffffffffffffffffffffffffffffffffff16905081603360006101000a81548173ffffffffffffffffffffffffffffffffffffffff021916908373ffffffffffffffffffffffffffffffffffffffff1602179055508173ffffffffffffffffffffffffffffffffffffffff168173ffffffffffffffffffffffffffffffffffffffff167f8be0079c531659141344cd1fd0a4f28419497f9722a3daafe3b4186f6b6457e060405160405180910390a35050565b6000808273ffffffffffffffffffffffffffffffffffffffff163b119050919050565b600081600001549050919050565b6001816000016000828254019250508190555050565b600033905090565b6000604051905090565b600080fd5b600080fd5b600073ffffffffffffffffffffffffffffffffffffffff82169050919050565b6000610bdb82610bb0565b9050919050565b610beb81610bd0565b8114610bf657600080fd5b50565b600081359050610c0881610be2565b92915050565b6000819050919050565b610c2181610c0e565b8114610c2c57600080fd5b50565b600081359050610c3e81610c18565b92915050565b60008060408385031215610c5b57610c5a610ba6565b5b6000610c6985828601610bf9565b9250506020610c7a85828601610c2f565b9150509250929050565b610c8d81610bd0565b82525050565b610c9c81610c0e565b82525050565b600081519050919050565b600082825260208201905092915050565b60005b83811015610cdc578082015181840152602081019050610cc1565b60008484015250505050565b6000601f19601f8301169050919050565b6000610d0482610ca2565b610d0e8185610cad565b9350610d1e818560208601610cbe565b610d2781610ce8565b840191505092915050565b60008115159050919050565b610d4781610d32565b82525050565b600061010082019050610d63600083018b610c84565b610d70602083018a610c93565b8181036040830152610d828189610cf9565b90508181036060830152610d968188610cf9565b90508181036080830152610daa8187610cf9565b9050610db960a0830186610c93565b610dc660c0830185610c93565b610dd360e0830184610d3e565b9998505050505050505050565b600060208284031215610df657610df5610ba6565b5b6000610e0484828501610c2f565b91505092915050565b6000602082019050610e226000830184610c93565b92915050565b6000602082019050610e3d6000830184610c84565b92915050565b600060208284031215610e5957610e58610ba6565b5b6000610e6784828501610bf9565b91505092915050565b6000602082019050610e856000830184610d3e565b92915050565b600080fd5b600080fd5b7f4e487b7100000000000000000000000000000000000000000000000000000000600052604160045260246000fd5b610ecd82610ce8565b810181811067ffffffffffffffff82111715610eec57610eeb610e95565b5b80604052505050565b6000610eff610b9c565b9050610f0b8282610ec4565b919050565b600067ffffffffffffffff821115610f2b57610f2a610e95565b5b610f3482610ce8565b9050602081019050919050565b82818337600083830152505050565b6000610f63610f5e84610f10565b610ef5565b905082815260208101848484011115610f7f57610f7e610e90565b5b610f8a848285610f41565b509392505050565b600082601f830112610fa757610fa6610e8b565b5b8135610fb7848260208601610f50565b91505092915050565b600080600080600060a08688031215610fdc57610fdb610ba6565b5b600086013567ffffffffffffffff811115610ffa57610ff9610bab565b5b61100688828901610f92565b955050602086013567ffffffffffffffff81111561102757611026610bab565b5b61103388828901610f92565b945050604086013567ffffffffffffffff81111561105457611053610bab565b5b61106088828901610f92565b935050606061107188828901610c2f565b925050608061108288828901610c2f565b9150509295509295909350565b7f4e487b7100000000000000000000000000000000000000000000000000000000600052602260045260246000fd5b600060028204905060018216806110d657607f821691505b6020821081036110e9576110e861108f565b5b50919050565b7f496e697469616c697a61626c653a20636f6e747261637420697320616c72656160008201527f647920696e697469616c697a6564000000000000000000000000000000000000602082015250565b600061114b602e83610cad565b9150611156826110ef565b604082019050919050565b6000602082019050818103600083015261117a8161113e565b9050919050565b6000819050919050565b600060ff82169050919050565b6000819050919050565b60006111bd6111b86111b384611181565b611198565b61118b565b9050919050565b6111cd816111a2565b82525050565b60006020820190506111e860008301846111c4565b92915050565b6111f781610d32565b811461120257600080fd5b50565b600081519050611214816111ee565b92915050565b6000602082840312156112305761122f610ba6565b5b600061123e84828501611205565b91505092915050565b7f4f7267616e697a657220646f6573206e6f742065786973740000000000000000600082015250565b600061127d601883610cad565b915061128882611247565b602082019050919050565b600060208201905081810360008301526112ac81611270565b9050919050565b7f57726f6e67206461746574696d65207061737365640000000000000000000000600082015250565b60006112e9601583610cad565b91506112f4826112b3565b602082019050919050565b60006020820190508181036000830152611318816112dc565b9050919050565b60008190508160005260206000209050919050565b60006020601f8301049050919050565b600082821b905092915050565b6000600883026113817fffffffffffffffffffffffffffffffffffffffffffffffffffffffffffffffff82611344565b61138b8683611344565b95508019841693508086168417925050509392505050565b60006113be6113b96113b484610c0e565b611198565b610c0e565b9050919050565b6000819050919050565b6113d8836113a3565b6113ec6113e4826113c5565b848454611351565b825550505050565b600090565b6114016113f4565b61140c8184846113cf565b505050565b5b81811015611430576114256000826113f9565b600181019050611412565b5050565b601f821115611475576114468161131f565b61144f84611334565b8101602085101561145e578190505b61147261146a85611334565b830182611411565b50505b505050565b600082821c905092915050565b60006114986000198460080261147a565b1980831691505092915050565b60006114b18383611487565b9150826002028217905092915050565b6114ca82610ca2565b67ffffffffffffffff8111156114e3576114e2610e95565b5b6114ed82546110be565b6114f8828285611434565b600060209050601f83116001811461152b5760008415611519578287015190505b61152385826114a5565b86555061158b565b601f1984166115398661131f565b60005b828110156115615784890151825560018201915060208501945060208101905061153c565b8683101561157e578489015161157a601f891682611487565b8355505b6001600288020188555050505b505050505050565b600060c0820190506115a86000830189610c93565b81810360208301526115ba8188610cf9565b905081810360408301526115ce8187610cf9565b905081810360608301526115e28186610cf9565b90506115f16080830185610c93565b6115fe60a0830184610c93565b979650505050505050565b7f4f776e61626c653a206e6577206f776e657220697320746865207a65726f206160008201527f6464726573730000000000000000000000000000000000000000000000000000602082015250565b6000611665602683610cad565b915061167082611609565b604082019050919050565b6000602082019050818103600083015261169481611658565b9050919050565b7f4f776e61626c653a2063616c6c6572206973206e6f7420746865206f776e6572600082015250565b60006116d1602083610cad565b91506116dc8261169b565b602082019050919050565b60006020820190508181036000830152611700816116c4565b905091905056fea264697066735822122052c2a54ce72c4531debe8c2b08b5ea243b25884b12cb522ad541decd00d12b7e64736f6c63430008110033",
  "immutableReferences": {},
  "source": "// SPDX-License-Identifier: MIT\npragma solidity ^0.8.17;\n\nimport \"@openzeppelin/contracts-upgradeable/access/OwnableUpgradeable.sol\";\nimport \"@openzeppelin/contracts-upgradeable/utils/CountersUpgradeable.sol\";\nimport \"./Organizer.sol\";\n\ninterface IEvent {\n    struct EventStruct {\n        address organizer_address;\n        uint256 event_id;\n        string name;\n        string description;\n        string venue_address;\n        uint256 start_datetime;\n        uint256 end_datetime;\n        bool is_set;\n    }\n\n    function create_event(\n        string memory _name,\n        string memory _description,\n        string memory _venue_address,\n        uint256 _start_datetime,\n        uint256 _end_datetime\n    ) external returns (uint256);\n\n    function is_event(address _organizer_address, uint256 _event_id)\n        external\n        view\n        returns (bool);\n\n    function events_length() external view returns (uint256);\n}\n\ncontract Event is Initializable, OwnableUpgradeable, IEvent {\n    CountersUpgradeable.Counter event_id;\n    mapping(address => mapping(uint256 => EventStruct)) public events;\n    uint256[] public event_list;\n    IOrganizer private organizer_contract;\n\n    event EventCreated(\n        address indexed _admin,\n        uint256 _event_id,\n        string _name,\n        string _description,\n        string _venue_address,\n        uint256 _start_datetime,\n        uint256 _end_datetime\n    );\n\n    function initialize(address _organizer_contract) public initializer {\n        organizer_contract = IOrganizer(_organizer_contract);\n    }\n\n    // Functions\n    function create_event(\n        string memory _name,\n        string memory _description,\n        string memory _venue_address,\n        uint256 _start_datetime,\n        uint256 _end_datetime\n    ) external returns (uint256) {\n        require(\n            organizer_contract.is_organizer(msg.sender),\n            \"Organizer does not exist\"\n        );\n        require(\n            _start_datetime < _end_datetime && _end_datetime < block.timestamp,\n            \"Wrong datetime passed\"\n        );\n        uint256 current_event_id = CountersUpgradeable.current(event_id);\n        events[msg.sender][current_event_id] = EventStruct(\n            msg.sender,\n            current_event_id,\n            _name,\n            _description,\n            _venue_address,\n            _start_datetime,\n            _end_datetime,\n            true\n        );\n        event_list.push(current_event_id);\n        emit EventCreated(\n            msg.sender,\n            current_event_id,\n            _name,\n            _description,\n            _venue_address,\n            _start_datetime,\n            _end_datetime\n        );\n        CountersUpgradeable.increment(event_id);\n\n        return current_event_id;\n    }\n\n    function is_event(address _organizer_address, uint256 _event_id)\n        external\n        view\n        returns (bool)\n    {\n        return events[_organizer_address][_event_id].is_set;\n    }\n\n    function events_length() external view returns (uint256) {\n        return event_list.length;\n    }\n}\n",
  "sourcePath": "/home/flaprimo/Development/decentralized-ticket-sales/backend/contracts/Event.sol",
  "compiler": {
    "name": "solc",
    "version": "0.8.17+commit.8df45f5f.Emscripten.clang"
  },
  "schemaVersion": "3.4.10",
  "updatedAt": "2023-01-29T10:47:27.974Z",
  "networkType": "ethereum",
  "devdoc": {
    "kind": "dev",
    "methods": {
      "owner()": {
        "details": "Returns the address of the current owner."
      },
      "renounceOwnership()": {
        "details": "Leaves the contract without owner. It will not be possible to call `onlyOwner` functions anymore. Can only be called by the current owner. NOTE: Renouncing ownership will leave the contract without an owner, thereby removing any functionality that is only available to the owner."
      },
      "transferOwnership(address)": {
        "details": "Transfers ownership of the contract to a new account (`newOwner`). Can only be called by the current owner."
      }
    },
    "version": 1
  },
  "userdoc": {
    "kind": "user",
    "methods": {},
    "version": 1
  }
}