{
  "contractName": "Event",
  "abi": [
    {
      "anonymous": false,
      "inputs": [
        {
          "indexed": true,
          "internalType": "address",
          "name": "_admin",
          "type": "address"
        },
        {
          "indexed": false,
          "internalType": "uint256",
          "name": "_event_id",
          "type": "uint256"
        },
        {
          "indexed": false,
          "internalType": "string",
          "name": "_name",
          "type": "string"
        },
        {
          "indexed": false,
          "internalType": "string",
          "name": "_description",
          "type": "string"
        },
        {
          "indexed": false,
          "internalType": "string",
          "name": "_venue_address",
          "type": "string"
        },
        {
          "indexed": false,
          "internalType": "uint256",
          "name": "_start_datetime",
          "type": "uint256"
        },
        {
          "indexed": false,
          "internalType": "uint256",
          "name": "_end_datetime",
          "type": "uint256"
        }
      ],
      "name": "EventCreated",
      "type": "event"
    },
    {
      "anonymous": false,
      "inputs": [
        {
          "indexed": false,
          "internalType": "uint8",
          "name": "version",
          "type": "uint8"
        }
      ],
      "name": "Initialized",
      "type": "event"
    },
    {
      "anonymous": false,
      "inputs": [
        {
          "indexed": true,
          "internalType": "address",
          "name": "previousOwner",
          "type": "address"
        },
        {
          "indexed": true,
          "internalType": "address",
          "name": "newOwner",
          "type": "address"
        }
      ],
      "name": "OwnershipTransferred",
      "type": "event"
    },
    {
      "inputs": [
        {
          "internalType": "uint256",
          "name": "",
          "type": "uint256"
        }
      ],
      "name": "event_list",
      "outputs": [
        {
          "internalType": "uint256",
          "name": "",
          "type": "uint256"
        }
      ],
      "stateMutability": "view",
      "type": "function"
    },
    {
      "inputs": [
        {
          "internalType": "address",
          "name": "",
          "type": "address"
        },
        {
          "internalType": "uint256",
          "name": "",
          "type": "uint256"
        }
      ],
      "name": "events",
      "outputs": [
        {
          "internalType": "address",
          "name": "organizer_address",
          "type": "address"
        },
        {
          "internalType": "uint256",
          "name": "event_id",
          "type": "uint256"
        },
        {
          "internalType": "string",
          "name": "name",
          "type": "string"
        },
        {
          "internalType": "string",
          "name": "description",
          "type": "string"
        },
        {
          "internalType": "string",
          "name": "venue_address",
          "type": "string"
        },
        {
          "internalType": "uint256",
          "name": "start_datetime",
          "type": "uint256"
        },
        {
          "internalType": "uint256",
          "name": "end_datetime",
          "type": "uint256"
        },
        {
          "internalType": "bool",
          "name": "is_set",
          "type": "bool"
        }
      ],
      "stateMutability": "view",
      "type": "function"
    },
    {
      "inputs": [],
      "name": "owner",
      "outputs": [
        {
          "internalType": "address",
          "name": "",
          "type": "address"
        }
      ],
      "stateMutability": "view",
      "type": "function"
    },
    {
      "inputs": [],
      "name": "renounceOwnership",
      "outputs": [],
      "stateMutability": "nonpayable",
      "type": "function"
    },
    {
      "inputs": [
        {
          "internalType": "address",
          "name": "newOwner",
          "type": "address"
        }
      ],
      "name": "transferOwnership",
      "outputs": [],
      "stateMutability": "nonpayable",
      "type": "function"
    },
    {
      "inputs": [
        {
          "internalType": "address",
          "name": "_organizer_contract",
          "type": "address"
        },
        {
          "internalType": "string",
          "name": "_name",
          "type": "string"
        },
        {
          "internalType": "string",
          "name": "_description",
          "type": "string"
        },
        {
          "internalType": "string",
          "name": "_venue_address",
          "type": "string"
        },
        {
          "internalType": "uint256",
          "name": "_start_datetime",
          "type": "uint256"
        },
        {
          "internalType": "uint256",
          "name": "_end_datetime",
          "type": "uint256"
        }
      ],
      "name": "create_event",
      "outputs": [
        {
          "internalType": "uint256",
          "name": "",
          "type": "uint256"
        }
      ],
      "stateMutability": "nonpayable",
      "type": "function"
    },
    {
      "inputs": [
        {
          "internalType": "address",
          "name": "_organizer_address",
          "type": "address"
        },
        {
          "internalType": "uint256",
          "name": "_event_id",
          "type": "uint256"
        }
      ],
      "name": "is_event",
      "outputs": [
        {
          "internalType": "bool",
          "name": "",
          "type": "bool"
        }
      ],
      "stateMutability": "view",
      "type": "function"
    },
    {
      "inputs": [],
      "name": "events_length",
      "outputs": [
        {
          "internalType": "uint256",
          "name": "",
          "type": "uint256"
        }
      ],
      "stateMutability": "view",
      "type": "function"
    }
  ],
  "bytecode": "0x608060405234801561001057600080fd5b50611477806100206000396000f3fe608060405234801561001057600080fd5b50600436106100885760003560e01c80638da5cb5b1161005b5780638da5cb5b1461012e578063c8ff5bf91461014c578063e0ce1c5a1461017c578063f2fde38b1461019a57610088565b80632d9d4ed11461008d578063715018a6146100bd57806374dcdc63146100c75780638d9a3cdb146100fe575b600080fd5b6100a760048036038101906100a29190610ba7565b6101b6565b6040516100b49190610c97565b60405180910390f35b6100c56104d2565b005b6100e160048036038101906100dc9190610cb2565b6104e6565b6040516100f5989796959493929190610d9b565b60405180910390f35b61011860048036038101906101139190610e2e565b610700565b6040516101259190610c97565b60405180910390f35b610136610724565b6040516101439190610e5b565b60405180910390f35b61016660048036038101906101619190610cb2565b61074e565b6040516101739190610e76565b60405180910390f35b6101846107b9565b6040516101919190610c97565b60405180910390f35b6101b460048036038101906101af9190610e91565b6107c6565b005b60008673ffffffffffffffffffffffffffffffffffffffff1663ee23e2be336040518263ffffffff1660e01b81526004016101f19190610e5b565b602060405180830381865afa15801561020e573d6000803e3d6000fd5b505050506040513d601f19601f820116820180604052508101906102329190610eea565b610271576040517f08c379a000000000000000000000000000000000000000000000000000000000815260040161026890610f63565b60405180910390fd5b818310801561027f57504282105b6102be576040517f08c379a00000000000000000000000000000000000000000000000000000000081526004016102b590610fcf565b60405180910390fd5b60006102ca6065610849565b90506040518061010001604052803373ffffffffffffffffffffffffffffffffffffffff16815260200182815260200188815260200187815260200186815260200185815260200184815260200160011515815250606660003373ffffffffffffffffffffffffffffffffffffffff1673ffffffffffffffffffffffffffffffffffffffff168152602001908152602001600020600083815260200190815260200160002060008201518160000160006101000a81548173ffffffffffffffffffffffffffffffffffffffff021916908373ffffffffffffffffffffffffffffffffffffffff1602179055506020820151816001015560408201518160020190816103d591906111fb565b5060608201518160030190816103eb91906111fb565b50608082015181600401908161040191906111fb565b5060a0820151816005015560c0820151816006015560e08201518160070160006101000a81548160ff02191690831515021790555090505060678190806001815401808255809150506001900390600052602060002001600090919091909150553373ffffffffffffffffffffffffffffffffffffffff167fcab55701765438bf4f8ae72b3c5a07b057f35cade38b2ea35def8cc568630efc8289898989896040516104b2969594939291906112cd565b60405180910390a26104c46065610857565b809150509695505050505050565b6104da61086d565b6104e460006108eb565b565b6066602052816000526040600020602052806000526040600020600091509150508060000160009054906101000a900473ffffffffffffffffffffffffffffffffffffffff16908060010154908060020180546105429061101e565b80601f016020809104026020016040519081016040528092919081815260200182805461056e9061101e565b80156105bb5780601f10610590576101008083540402835291602001916105bb565b820191906000526020600020905b81548152906001019060200180831161059e57829003601f168201915b5050505050908060030180546105d09061101e565b80601f01602080910402602001604051908101604052809291908181526020018280546105fc9061101e565b80156106495780601f1061061e57610100808354040283529160200191610649565b820191906000526020600020905b81548152906001019060200180831161062c57829003601f168201915b50505050509080600401805461065e9061101e565b80601f016020809104026020016040519081016040528092919081815260200182805461068a9061101e565b80156106d75780601f106106ac576101008083540402835291602001916106d7565b820191906000526020600020905b8154815290600101906020018083116106ba57829003601f168201915b5050505050908060050154908060060154908060070160009054906101000a900460ff16905088565b6067818154811061071057600080fd5b906000526020600020016000915090505481565b6000603360009054906101000a900473ffffffffffffffffffffffffffffffffffffffff16905090565b6000606660008473ffffffffffffffffffffffffffffffffffffffff1673ffffffffffffffffffffffffffffffffffffffff168152602001908152602001600020600083815260200190815260200160002060070160009054906101000a900460ff16905092915050565b6000606780549050905090565b6107ce61086d565b600073ffffffffffffffffffffffffffffffffffffffff168173ffffffffffffffffffffffffffffffffffffffff160361083d576040517f08c379a0000000000000000000000000000000000000000000000000000000008152600401610834906113b5565b60405180910390fd5b610846816108eb565b50565b600081600001549050919050565b6001816000016000828254019250508190555050565b6108756109b1565b73ffffffffffffffffffffffffffffffffffffffff16610893610724565b73ffffffffffffffffffffffffffffffffffffffff16146108e9576040517f08c379a00000000000000000000000000000000000000000000000000000000081526004016108e090611421565b60405180910390fd5b565b6000603360009054906101000a900473ffffffffffffffffffffffffffffffffffffffff16905081603360006101000a81548173ffffffffffffffffffffffffffffffffffffffff021916908373ffffffffffffffffffffffffffffffffffffffff1602179055508173ffffffffffffffffffffffffffffffffffffffff168173ffffffffffffffffffffffffffffffffffffffff167f8be0079c531659141344cd1fd0a4f28419497f9722a3daafe3b4186f6b6457e060405160405180910390a35050565b600033905090565b6000604051905090565b600080fd5b600080fd5b600073ffffffffffffffffffffffffffffffffffffffff82169050919050565b60006109f8826109cd565b9050919050565b610a08816109ed565b8114610a1357600080fd5b50565b600081359050610a25816109ff565b92915050565b600080fd5b600080fd5b6000601f19601f8301169050919050565b7f4e487b7100000000000000000000000000000000000000000000000000000000600052604160045260246000fd5b610a7e82610a35565b810181811067ffffffffffffffff82111715610a9d57610a9c610a46565b5b80604052505050565b6000610ab06109b9565b9050610abc8282610a75565b919050565b600067ffffffffffffffff821115610adc57610adb610a46565b5b610ae582610a35565b9050602081019050919050565b82818337600083830152505050565b6000610b14610b0f84610ac1565b610aa6565b905082815260208101848484011115610b3057610b2f610a30565b5b610b3b848285610af2565b509392505050565b600082601f830112610b5857610b57610a2b565b5b8135610b68848260208601610b01565b91505092915050565b6000819050919050565b610b8481610b71565b8114610b8f57600080fd5b50565b600081359050610ba181610b7b565b92915050565b60008060008060008060c08789031215610bc457610bc36109c3565b5b6000610bd289828a01610a16565b965050602087013567ffffffffffffffff811115610bf357610bf26109c8565b5b610bff89828a01610b43565b955050604087013567ffffffffffffffff811115610c2057610c1f6109c8565b5b610c2c89828a01610b43565b945050606087013567ffffffffffffffff811115610c4d57610c4c6109c8565b5b610c5989828a01610b43565b9350506080610c6a89828a01610b92565b92505060a0610c7b89828a01610b92565b9150509295509295509295565b610c9181610b71565b82525050565b6000602082019050610cac6000830184610c88565b92915050565b60008060408385031215610cc957610cc86109c3565b5b6000610cd785828601610a16565b9250506020610ce885828601610b92565b9150509250929050565b610cfb816109ed565b82525050565b600081519050919050565b600082825260208201905092915050565b60005b83811015610d3b578082015181840152602081019050610d20565b60008484015250505050565b6000610d5282610d01565b610d5c8185610d0c565b9350610d6c818560208601610d1d565b610d7581610a35565b840191505092915050565b60008115159050919050565b610d9581610d80565b82525050565b600061010082019050610db1600083018b610cf2565b610dbe602083018a610c88565b8181036040830152610dd08189610d47565b90508181036060830152610de48188610d47565b90508181036080830152610df88187610d47565b9050610e0760a0830186610c88565b610e1460c0830185610c88565b610e2160e0830184610d8c565b9998505050505050505050565b600060208284031215610e4457610e436109c3565b5b6000610e5284828501610b92565b91505092915050565b6000602082019050610e706000830184610cf2565b92915050565b6000602082019050610e8b6000830184610d8c565b92915050565b600060208284031215610ea757610ea66109c3565b5b6000610eb584828501610a16565b91505092915050565b610ec781610d80565b8114610ed257600080fd5b50565b600081519050610ee481610ebe565b92915050565b600060208284031215610f0057610eff6109c3565b5b6000610f0e84828501610ed5565b91505092915050565b7f4f7267616e697a657220646f6573206e6f742065786973740000000000000000600082015250565b6000610f4d601883610d0c565b9150610f5882610f17565b602082019050919050565b60006020820190508181036000830152610f7c81610f40565b9050919050565b7f57726f6e67206461746574696d65207061737365640000000000000000000000600082015250565b6000610fb9601583610d0c565b9150610fc482610f83565b602082019050919050565b60006020820190508181036000830152610fe881610fac565b9050919050565b7f4e487b7100000000000000000000000000000000000000000000000000000000600052602260045260246000fd5b6000600282049050600182168061103657607f821691505b60208210810361104957611048610fef565b5b50919050565b60008190508160005260206000209050919050565b60006020601f8301049050919050565b600082821b905092915050565b6000600883026110b17fffffffffffffffffffffffffffffffffffffffffffffffffffffffffffffffff82611074565b6110bb8683611074565b95508019841693508086168417925050509392505050565b6000819050919050565b60006110f86110f36110ee84610b71565b6110d3565b610b71565b9050919050565b6000819050919050565b611112836110dd565b61112661111e826110ff565b848454611081565b825550505050565b600090565b61113b61112e565b611146818484611109565b505050565b5b8181101561116a5761115f600082611133565b60018101905061114c565b5050565b601f8211156111af576111808161104f565b61118984611064565b81016020851015611198578190505b6111ac6111a485611064565b83018261114b565b50505b505050565b600082821c905092915050565b60006111d2600019846008026111b4565b1980831691505092915050565b60006111eb83836111c1565b9150826002028217905092915050565b61120482610d01565b67ffffffffffffffff81111561121d5761121c610a46565b5b611227825461101e565b61123282828561116e565b600060209050601f8311600181146112655760008415611253578287015190505b61125d85826111df565b8655506112c5565b601f1984166112738661104f565b60005b8281101561129b57848901518255600182019150602085019450602081019050611276565b868310156112b857848901516112b4601f8916826111c1565b8355505b6001600288020188555050505b505050505050565b600060c0820190506112e26000830189610c88565b81810360208301526112f48188610d47565b905081810360408301526113088187610d47565b9050818103606083015261131c8186610d47565b905061132b6080830185610c88565b61133860a0830184610c88565b979650505050505050565b7f4f776e61626c653a206e6577206f776e657220697320746865207a65726f206160008201527f6464726573730000000000000000000000000000000000000000000000000000602082015250565b600061139f602683610d0c565b91506113aa82611343565b604082019050919050565b600060208201905081810360008301526113ce81611392565b9050919050565b7f4f776e61626c653a2063616c6c6572206973206e6f7420746865206f776e6572600082015250565b600061140b602083610d0c565b9150611416826113d5565b602082019050919050565b6000602082019050818103600083015261143a816113fe565b905091905056fea26469706673582212203b47c2cbcb0501e747ffd51d60b150a07107b3a75d63a727674d725794c79f0264736f6c63430008110033",
  "immutableReferences": {},
  "source": "// SPDX-License-Identifier: MIT\npragma solidity ^0.8.17;\n\nimport \"@openzeppelin/contracts-upgradeable/access/OwnableUpgradeable.sol\";\nimport \"@openzeppelin/contracts-upgradeable/utils/CountersUpgradeable.sol\";\nimport \"./Organizer.sol\";\n\ninterface IEvent {\n    struct EventStruct {\n        address organizer_address;\n        uint256 event_id;\n        string name;\n        string description;\n        string venue_address;\n        uint256 start_datetime;\n        uint256 end_datetime;\n        bool is_set;\n    }\n\n    function create_event(\n        address _organizer_contract,\n        string memory _name,\n        string memory _description,\n        string memory _venue_address,\n        uint256 _start_datetime,\n        uint256 _end_datetime\n    ) external returns (uint256);\n\n    function is_event(address _organizer_address, uint256 _event_id)\n        external\n        view\n        returns (bool);\n\n    function events_length() external view returns (uint256);\n}\n\ncontract Event is IEvent, OwnableUpgradeable {\n    CountersUpgradeable.Counter event_id;\n    mapping(address => mapping(uint256 => EventStruct)) public events;\n    uint256[] public event_list;\n\n    event EventCreated(\n        address indexed _admin,\n        uint256 _event_id,\n        string _name,\n        string _description,\n        string _venue_address,\n        uint256 _start_datetime,\n        uint256 _end_datetime\n    );\n\n    // constructor() {}\n\n    // Functions\n    function create_event(\n        address _organizer_contract,\n        string memory _name,\n        string memory _description,\n        string memory _venue_address,\n        uint256 _start_datetime,\n        uint256 _end_datetime\n    ) external returns (uint256) {\n        require(\n            IOrganizer(_organizer_contract).is_organizer(msg.sender),\n            \"Organizer does not exist\"\n        );\n        require(\n            _start_datetime < _end_datetime && _end_datetime < block.timestamp,\n            \"Wrong datetime passed\"\n        );\n        uint256 current_event_id = CountersUpgradeable.current(event_id);\n        events[msg.sender][current_event_id] = EventStruct(\n            msg.sender,\n            current_event_id,\n            _name,\n            _description,\n            _venue_address,\n            _start_datetime,\n            _end_datetime,\n            true\n        );\n        event_list.push(current_event_id);\n        emit EventCreated(\n            msg.sender,\n            current_event_id,\n            _name,\n            _description,\n            _venue_address,\n            _start_datetime,\n            _end_datetime\n        );\n        CountersUpgradeable.increment(event_id);\n\n        return current_event_id;\n    }\n\n    function is_event(address _organizer_address, uint256 _event_id)\n        external\n        view\n        returns (bool)\n    {\n        return events[_organizer_address][_event_id].is_set;\n    }\n\n    function events_length() external view returns (uint256) {\n        return event_list.length;\n    }\n}\n",
  "sourcePath": "/home/flaprimo/Development/decentralized-ticket-sales/backend/contracts/Event.sol",
  "compiler": {
    "name": "solc",
    "version": "0.8.17+commit.8df45f5f.Emscripten.clang"
  },
  "schemaVersion": "3.4.10",
  "updatedAt": "2023-01-23T12:21:50.129Z",
  "devdoc": {
    "kind": "dev",
    "methods": {
      "owner()": {
        "details": "Returns the address of the current owner."
      },
      "renounceOwnership()": {
        "details": "Leaves the contract without owner. It will not be possible to call `onlyOwner` functions anymore. Can only be called by the current owner. NOTE: Renouncing ownership will leave the contract without an owner, thereby removing any functionality that is only available to the owner."
      },
      "transferOwnership(address)": {
        "details": "Transfers ownership of the contract to a new account (`newOwner`). Can only be called by the current owner."
      }
    },
    "version": 1
  },
  "userdoc": {
    "kind": "user",
    "methods": {},
    "version": 1
  }
}