{
  "contractName": "Event",
  "abi": [
    {
      "anonymous": false,
      "inputs": [
        {
          "indexed": true,
          "internalType": "address",
          "name": "_admin",
          "type": "address"
        },
        {
          "indexed": false,
          "internalType": "uint256",
          "name": "_event_id",
          "type": "uint256"
        },
        {
          "indexed": false,
          "internalType": "string",
          "name": "_name",
          "type": "string"
        },
        {
          "indexed": false,
          "internalType": "string",
          "name": "_description",
          "type": "string"
        },
        {
          "indexed": false,
          "internalType": "string",
          "name": "_venue_address",
          "type": "string"
        },
        {
          "indexed": false,
          "internalType": "uint256",
          "name": "_start_datetime",
          "type": "uint256"
        },
        {
          "indexed": false,
          "internalType": "uint256",
          "name": "_end_datetime",
          "type": "uint256"
        }
      ],
      "name": "EventCreated",
      "type": "event"
    },
    {
      "anonymous": false,
      "inputs": [
        {
          "indexed": false,
          "internalType": "uint8",
          "name": "version",
          "type": "uint8"
        }
      ],
      "name": "Initialized",
      "type": "event"
    },
    {
      "anonymous": false,
      "inputs": [
        {
          "indexed": true,
          "internalType": "address",
          "name": "previousOwner",
          "type": "address"
        },
        {
          "indexed": true,
          "internalType": "address",
          "name": "newOwner",
          "type": "address"
        }
      ],
      "name": "OwnershipTransferred",
      "type": "event"
    },
    {
      "inputs": [
        {
          "internalType": "uint256",
          "name": "",
          "type": "uint256"
        }
      ],
      "name": "event_list",
      "outputs": [
        {
          "internalType": "uint256",
          "name": "",
          "type": "uint256"
        }
      ],
      "stateMutability": "view",
      "type": "function",
      "constant": true
    },
    {
      "inputs": [
        {
          "internalType": "address",
          "name": "",
          "type": "address"
        },
        {
          "internalType": "uint256",
          "name": "",
          "type": "uint256"
        }
      ],
      "name": "events",
      "outputs": [
        {
          "internalType": "string",
          "name": "name",
          "type": "string"
        },
        {
          "internalType": "string",
          "name": "description",
          "type": "string"
        },
        {
          "internalType": "string",
          "name": "venue_address",
          "type": "string"
        },
        {
          "internalType": "uint256",
          "name": "start_datetime",
          "type": "uint256"
        },
        {
          "internalType": "uint256",
          "name": "end_datetime",
          "type": "uint256"
        },
        {
          "internalType": "bool",
          "name": "is_set",
          "type": "bool"
        }
      ],
      "stateMutability": "view",
      "type": "function",
      "constant": true
    },
    {
      "inputs": [],
      "name": "owner",
      "outputs": [
        {
          "internalType": "address",
          "name": "",
          "type": "address"
        }
      ],
      "stateMutability": "view",
      "type": "function",
      "constant": true
    },
    {
      "inputs": [],
      "name": "renounceOwnership",
      "outputs": [],
      "stateMutability": "nonpayable",
      "type": "function"
    },
    {
      "inputs": [
        {
          "internalType": "address",
          "name": "newOwner",
          "type": "address"
        }
      ],
      "name": "transferOwnership",
      "outputs": [],
      "stateMutability": "nonpayable",
      "type": "function"
    },
    {
      "inputs": [
        {
          "internalType": "address",
          "name": "_organizer_contract",
          "type": "address"
        },
        {
          "internalType": "string",
          "name": "_name",
          "type": "string"
        },
        {
          "internalType": "string",
          "name": "_description",
          "type": "string"
        },
        {
          "internalType": "string",
          "name": "_venue_address",
          "type": "string"
        },
        {
          "internalType": "uint256",
          "name": "_start_datetime",
          "type": "uint256"
        },
        {
          "internalType": "uint256",
          "name": "_end_datetime",
          "type": "uint256"
        }
      ],
      "name": "create_event",
      "outputs": [],
      "stateMutability": "nonpayable",
      "type": "function"
    },
    {
      "inputs": [
        {
          "internalType": "address",
          "name": "_organizer_address",
          "type": "address"
        },
        {
          "internalType": "uint256",
          "name": "_event_id",
          "type": "uint256"
        }
      ],
      "name": "is_event",
      "outputs": [
        {
          "internalType": "bool",
          "name": "",
          "type": "bool"
        }
      ],
      "stateMutability": "view",
      "type": "function",
      "constant": true
    }
  ],
  "bytecode": "0x608060405234801561001057600080fd5b50611373806100206000396000f3fe608060405234801561001057600080fd5b506004361061007d5760003560e01c80638d9a3cdb1161005b5780638d9a3cdb146100dd5780638da5cb5b1461010d578063c8ff5bf91461012b578063f2fde38b1461015b5761007d565b80632d9d4ed114610082578063715018a61461009e57806374dcdc63146100a8575b600080fd5b61009c60048036038101906100979190610ac0565b610177565b005b6100a6610424565b005b6100c260048036038101906100bd9190610ba1565b610438565b6040516100d496959493929190610c8a565b60405180910390f35b6100f760048036038101906100f29190610d00565b610626565b6040516101049190610d2d565b60405180910390f35b61011561064a565b6040516101229190610d57565b60405180910390f35b61014560048036038101906101409190610ba1565b610674565b6040516101529190610d72565b60405180910390f35b61017560048036038101906101709190610d8d565b6106df565b005b8573ffffffffffffffffffffffffffffffffffffffff1663ee23e2be336040518263ffffffff1660e01b81526004016101b09190610d57565b602060405180830381865afa1580156101cd573d6000803e3d6000fd5b505050506040513d601f19601f820116820180604052508101906101f19190610de6565b610230576040517f08c379a000000000000000000000000000000000000000000000000000000000815260040161022790610e5f565b60405180910390fd5b808210801561023e57504281105b61027d576040517f08c379a000000000000000000000000000000000000000000000000000000000815260040161027490610ecb565b60405180910390fd5b6040518060c0016040528086815260200185815260200184815260200183815260200182815260200160011515815250606660003373ffffffffffffffffffffffffffffffffffffffff1673ffffffffffffffffffffffffffffffffffffffff16815260200190815260200160002060006102f86065610762565b8152602001908152602001600020600082015181600001908161031b91906110f7565b50602082015181600101908161033191906110f7565b50604082015181600201908161034791906110f7565b50606082015181600301556080820151816004015560a08201518160050160006101000a81548160ff021916908315150217905550905050606761038b6065610762565b90806001815401808255809150506001900390600052602060002001600090919091909150553373ffffffffffffffffffffffffffffffffffffffff167fcab55701765438bf4f8ae72b3c5a07b057f35cade38b2ea35def8cc568630efc6103f36065610762565b878787878760405161040a969594939291906111c9565b60405180910390a261041c6065610770565b505050505050565b61042c610786565b6104366000610804565b565b60666020528160005260406000206020528060005260406000206000915091505080600001805461046890610f1a565b80601f016020809104026020016040519081016040528092919081815260200182805461049490610f1a565b80156104e15780601f106104b6576101008083540402835291602001916104e1565b820191906000526020600020905b8154815290600101906020018083116104c457829003601f168201915b5050505050908060010180546104f690610f1a565b80601f016020809104026020016040519081016040528092919081815260200182805461052290610f1a565b801561056f5780601f106105445761010080835404028352916020019161056f565b820191906000526020600020905b81548152906001019060200180831161055257829003601f168201915b50505050509080600201805461058490610f1a565b80601f01602080910402602001604051908101604052809291908181526020018280546105b090610f1a565b80156105fd5780601f106105d2576101008083540402835291602001916105fd565b820191906000526020600020905b8154815290600101906020018083116105e057829003601f168201915b5050505050908060030154908060040154908060050160009054906101000a900460ff16905086565b6067818154811061063657600080fd5b906000526020600020016000915090505481565b6000603360009054906101000a900473ffffffffffffffffffffffffffffffffffffffff16905090565b6000606660008473ffffffffffffffffffffffffffffffffffffffff1673ffffffffffffffffffffffffffffffffffffffff168152602001908152602001600020600083815260200190815260200160002060050160009054906101000a900460ff16905092915050565b6106e7610786565b600073ffffffffffffffffffffffffffffffffffffffff168173ffffffffffffffffffffffffffffffffffffffff1603610756576040517f08c379a000000000000000000000000000000000000000000000000000000000815260040161074d906112b1565b60405180910390fd5b61075f81610804565b50565b600081600001549050919050565b6001816000016000828254019250508190555050565b61078e6108ca565b73ffffffffffffffffffffffffffffffffffffffff166107ac61064a565b73ffffffffffffffffffffffffffffffffffffffff1614610802576040517f08c379a00000000000000000000000000000000000000000000000000000000081526004016107f99061131d565b60405180910390fd5b565b6000603360009054906101000a900473ffffffffffffffffffffffffffffffffffffffff16905081603360006101000a81548173ffffffffffffffffffffffffffffffffffffffff021916908373ffffffffffffffffffffffffffffffffffffffff1602179055508173ffffffffffffffffffffffffffffffffffffffff168173ffffffffffffffffffffffffffffffffffffffff167f8be0079c531659141344cd1fd0a4f28419497f9722a3daafe3b4186f6b6457e060405160405180910390a35050565b600033905090565b6000604051905090565b600080fd5b600080fd5b600073ffffffffffffffffffffffffffffffffffffffff82169050919050565b6000610911826108e6565b9050919050565b61092181610906565b811461092c57600080fd5b50565b60008135905061093e81610918565b92915050565b600080fd5b600080fd5b6000601f19601f8301169050919050565b7f4e487b7100000000000000000000000000000000000000000000000000000000600052604160045260246000fd5b6109978261094e565b810181811067ffffffffffffffff821117156109b6576109b561095f565b5b80604052505050565b60006109c96108d2565b90506109d5828261098e565b919050565b600067ffffffffffffffff8211156109f5576109f461095f565b5b6109fe8261094e565b9050602081019050919050565b82818337600083830152505050565b6000610a2d610a28846109da565b6109bf565b905082815260208101848484011115610a4957610a48610949565b5b610a54848285610a0b565b509392505050565b600082601f830112610a7157610a70610944565b5b8135610a81848260208601610a1a565b91505092915050565b6000819050919050565b610a9d81610a8a565b8114610aa857600080fd5b50565b600081359050610aba81610a94565b92915050565b60008060008060008060c08789031215610add57610adc6108dc565b5b6000610aeb89828a0161092f565b965050602087013567ffffffffffffffff811115610b0c57610b0b6108e1565b5b610b1889828a01610a5c565b955050604087013567ffffffffffffffff811115610b3957610b386108e1565b5b610b4589828a01610a5c565b945050606087013567ffffffffffffffff811115610b6657610b656108e1565b5b610b7289828a01610a5c565b9350506080610b8389828a01610aab565b92505060a0610b9489828a01610aab565b9150509295509295509295565b60008060408385031215610bb857610bb76108dc565b5b6000610bc68582860161092f565b9250506020610bd785828601610aab565b9150509250929050565b600081519050919050565b600082825260208201905092915050565b60005b83811015610c1b578082015181840152602081019050610c00565b60008484015250505050565b6000610c3282610be1565b610c3c8185610bec565b9350610c4c818560208601610bfd565b610c558161094e565b840191505092915050565b610c6981610a8a565b82525050565b60008115159050919050565b610c8481610c6f565b82525050565b600060c0820190508181036000830152610ca48189610c27565b90508181036020830152610cb88188610c27565b90508181036040830152610ccc8187610c27565b9050610cdb6060830186610c60565b610ce86080830185610c60565b610cf560a0830184610c7b565b979650505050505050565b600060208284031215610d1657610d156108dc565b5b6000610d2484828501610aab565b91505092915050565b6000602082019050610d426000830184610c60565b92915050565b610d5181610906565b82525050565b6000602082019050610d6c6000830184610d48565b92915050565b6000602082019050610d876000830184610c7b565b92915050565b600060208284031215610da357610da26108dc565b5b6000610db18482850161092f565b91505092915050565b610dc381610c6f565b8114610dce57600080fd5b50565b600081519050610de081610dba565b92915050565b600060208284031215610dfc57610dfb6108dc565b5b6000610e0a84828501610dd1565b91505092915050565b7f4f7267616e697a657220646f6573206e6f742065786973740000000000000000600082015250565b6000610e49601883610bec565b9150610e5482610e13565b602082019050919050565b60006020820190508181036000830152610e7881610e3c565b9050919050565b7f57726f6e67206461746574696d65207061737365640000000000000000000000600082015250565b6000610eb5601583610bec565b9150610ec082610e7f565b602082019050919050565b60006020820190508181036000830152610ee481610ea8565b9050919050565b7f4e487b7100000000000000000000000000000000000000000000000000000000600052602260045260246000fd5b60006002820490506001821680610f3257607f821691505b602082108103610f4557610f44610eeb565b5b50919050565b60008190508160005260206000209050919050565b60006020601f8301049050919050565b600082821b905092915050565b600060088302610fad7fffffffffffffffffffffffffffffffffffffffffffffffffffffffffffffffff82610f70565b610fb78683610f70565b95508019841693508086168417925050509392505050565b6000819050919050565b6000610ff4610fef610fea84610a8a565b610fcf565b610a8a565b9050919050565b6000819050919050565b61100e83610fd9565b61102261101a82610ffb565b848454610f7d565b825550505050565b600090565b61103761102a565b611042818484611005565b505050565b5b818110156110665761105b60008261102f565b600181019050611048565b5050565b601f8211156110ab5761107c81610f4b565b61108584610f60565b81016020851015611094578190505b6110a86110a085610f60565b830182611047565b50505b505050565b600082821c905092915050565b60006110ce600019846008026110b0565b1980831691505092915050565b60006110e783836110bd565b9150826002028217905092915050565b61110082610be1565b67ffffffffffffffff8111156111195761111861095f565b5b6111238254610f1a565b61112e82828561106a565b600060209050601f831160018114611161576000841561114f578287015190505b61115985826110db565b8655506111c1565b601f19841661116f86610f4b565b60005b8281101561119757848901518255600182019150602085019450602081019050611172565b868310156111b457848901516111b0601f8916826110bd565b8355505b6001600288020188555050505b505050505050565b600060c0820190506111de6000830189610c60565b81810360208301526111f08188610c27565b905081810360408301526112048187610c27565b905081810360608301526112188186610c27565b90506112276080830185610c60565b61123460a0830184610c60565b979650505050505050565b7f4f776e61626c653a206e6577206f776e657220697320746865207a65726f206160008201527f6464726573730000000000000000000000000000000000000000000000000000602082015250565b600061129b602683610bec565b91506112a68261123f565b604082019050919050565b600060208201905081810360008301526112ca8161128e565b9050919050565b7f4f776e61626c653a2063616c6c6572206973206e6f7420746865206f776e6572600082015250565b6000611307602083610bec565b9150611312826112d1565b602082019050919050565b60006020820190508181036000830152611336816112fa565b905091905056fea264697066735822122039a19da0e31136929021422ae0be1424c952559fedc540bed83b5261c4f20f2064736f6c63430008110033",
  "immutableReferences": {},
  "source": "// SPDX-License-Identifier: MIT\npragma solidity ^0.8.17;\n\nimport \"@openzeppelin/contracts-upgradeable/access/OwnableUpgradeable.sol\";\nimport \"@openzeppelin/contracts-upgradeable/utils/CountersUpgradeable.sol\";\nimport \"./Organizer.sol\";\n\ninterface IEvent {\n    struct EventStruct {\n        string name;\n        string description;\n        string venue_address;\n        uint256 start_datetime;\n        uint256 end_datetime;\n        bool is_set;\n    }\n\n    function create_event(\n        address _organizer_contract,\n        string memory _name,\n        string memory _description,\n        string memory _venue_address,\n        uint256 _start_datetime,\n        uint256 _end_datetime\n    ) external;\n\n    function is_event(address _organizer_address, uint256 _event_id)\n        external\n        view\n        returns (bool);\n}\n\ncontract Event is IEvent, OwnableUpgradeable {\n    CountersUpgradeable.Counter event_id;\n    mapping(address => mapping(uint256 => EventStruct)) public events;\n    uint256[] public event_list;\n\n    event EventCreated(\n        address indexed _admin,\n        uint256 _event_id,\n        string _name,\n        string _description,\n        string _venue_address,\n        uint256 _start_datetime,\n        uint256 _end_datetime\n    );\n\n    // constructor() {}\n\n    // Functions\n    function create_event(\n        address _organizer_contract,\n        string memory _name,\n        string memory _description,\n        string memory _venue_address,\n        uint256 _start_datetime,\n        uint256 _end_datetime\n    ) external {\n        require(\n            IOrganizer(_organizer_contract).is_organizer(msg.sender),\n            \"Organizer does not exist\"\n        );\n        require(\n            _start_datetime < _end_datetime && _end_datetime < block.timestamp,\n            \"Wrong datetime passed\"\n        );\n        events[msg.sender][CountersUpgradeable.current(event_id)] = EventStruct(\n            _name,\n            _description,\n            _venue_address,\n            _start_datetime,\n            _end_datetime,\n            true\n        );\n        event_list.push(CountersUpgradeable.current(event_id));\n        emit EventCreated(\n            msg.sender,\n            CountersUpgradeable.current(event_id),\n            _name,\n            _description,\n            _venue_address,\n            _start_datetime,\n            _end_datetime\n        );\n        CountersUpgradeable.increment(event_id);\n    }\n\n    function is_event(address _organizer_address, uint256 _event_id)\n        external\n        view\n        returns (bool)\n    {\n        return events[_organizer_address][_event_id].is_set;\n    }\n}\n",
  "sourcePath": "/home/flaprimo/Development/decentralized-ticket-sales/backend/contracts/Event.sol",
  "compiler": {
    "name": "solc",
    "version": "0.8.17+commit.8df45f5f.Emscripten.clang"
  },
  "schemaVersion": "3.4.10",
  "updatedAt": "2023-01-21T14:06:12.599Z",
  "networkType": "ethereum",
  "devdoc": {
    "kind": "dev",
    "methods": {
      "owner()": {
        "details": "Returns the address of the current owner."
      },
      "renounceOwnership()": {
        "details": "Leaves the contract without owner. It will not be possible to call `onlyOwner` functions anymore. Can only be called by the current owner. NOTE: Renouncing ownership will leave the contract without an owner, thereby removing any functionality that is only available to the owner."
      },
      "transferOwnership(address)": {
        "details": "Transfers ownership of the contract to a new account (`newOwner`). Can only be called by the current owner."
      }
    },
    "version": 1
  },
  "userdoc": {
    "kind": "user",
    "methods": {},
    "version": 1
  }
}