{
  "contractName": "Event",
  "abi": [
    {
      "inputs": [],
      "stateMutability": "nonpayable",
      "type": "constructor"
    },
    {
      "anonymous": false,
      "inputs": [
        {
          "indexed": true,
          "internalType": "address",
          "name": "_admin",
          "type": "address"
        },
        {
          "indexed": false,
          "internalType": "uint256",
          "name": "_event_id",
          "type": "uint256"
        },
        {
          "indexed": false,
          "internalType": "string",
          "name": "_name",
          "type": "string"
        },
        {
          "indexed": false,
          "internalType": "string",
          "name": "_description",
          "type": "string"
        },
        {
          "indexed": false,
          "internalType": "string",
          "name": "_venue_address",
          "type": "string"
        },
        {
          "indexed": false,
          "internalType": "uint256",
          "name": "_start_datetime",
          "type": "uint256"
        },
        {
          "indexed": false,
          "internalType": "uint256",
          "name": "_end_datetime",
          "type": "uint256"
        }
      ],
      "name": "EventCreated",
      "type": "event"
    },
    {
      "anonymous": false,
      "inputs": [
        {
          "indexed": true,
          "internalType": "address",
          "name": "previousOwner",
          "type": "address"
        },
        {
          "indexed": true,
          "internalType": "address",
          "name": "newOwner",
          "type": "address"
        }
      ],
      "name": "OwnershipTransferred",
      "type": "event"
    },
    {
      "inputs": [
        {
          "internalType": "uint256",
          "name": "",
          "type": "uint256"
        }
      ],
      "name": "event_list",
      "outputs": [
        {
          "internalType": "uint256",
          "name": "",
          "type": "uint256"
        }
      ],
      "stateMutability": "view",
      "type": "function"
    },
    {
      "inputs": [
        {
          "internalType": "address",
          "name": "",
          "type": "address"
        },
        {
          "internalType": "uint256",
          "name": "",
          "type": "uint256"
        }
      ],
      "name": "events",
      "outputs": [
        {
          "internalType": "string",
          "name": "name",
          "type": "string"
        },
        {
          "internalType": "string",
          "name": "description",
          "type": "string"
        },
        {
          "internalType": "string",
          "name": "venue_address",
          "type": "string"
        },
        {
          "internalType": "uint256",
          "name": "start_datetime",
          "type": "uint256"
        },
        {
          "internalType": "uint256",
          "name": "end_datetime",
          "type": "uint256"
        },
        {
          "internalType": "bool",
          "name": "is_set",
          "type": "bool"
        }
      ],
      "stateMutability": "view",
      "type": "function"
    },
    {
      "inputs": [],
      "name": "owner",
      "outputs": [
        {
          "internalType": "address",
          "name": "",
          "type": "address"
        }
      ],
      "stateMutability": "view",
      "type": "function"
    },
    {
      "inputs": [],
      "name": "renounceOwnership",
      "outputs": [],
      "stateMutability": "nonpayable",
      "type": "function"
    },
    {
      "inputs": [
        {
          "internalType": "address",
          "name": "newOwner",
          "type": "address"
        }
      ],
      "name": "transferOwnership",
      "outputs": [],
      "stateMutability": "nonpayable",
      "type": "function"
    },
    {
      "inputs": [
        {
          "internalType": "address",
          "name": "_organizer_contract",
          "type": "address"
        },
        {
          "internalType": "string",
          "name": "_name",
          "type": "string"
        },
        {
          "internalType": "string",
          "name": "_description",
          "type": "string"
        },
        {
          "internalType": "string",
          "name": "_venue_address",
          "type": "string"
        },
        {
          "internalType": "uint256",
          "name": "_start_datetime",
          "type": "uint256"
        },
        {
          "internalType": "uint256",
          "name": "_end_datetime",
          "type": "uint256"
        }
      ],
      "name": "create_event",
      "outputs": [],
      "stateMutability": "nonpayable",
      "type": "function"
    },
    {
      "inputs": [
        {
          "internalType": "address",
          "name": "_organizer_address",
          "type": "address"
        },
        {
          "internalType": "uint256",
          "name": "_event_id",
          "type": "uint256"
        }
      ],
      "name": "is_event",
      "outputs": [
        {
          "internalType": "bool",
          "name": "",
          "type": "bool"
        }
      ],
      "stateMutability": "view",
      "type": "function"
    }
  ],
  "bytecode": "0x608060405234801561001057600080fd5b5061002d61002261003260201b60201c565b61003a60201b60201c565b6100fe565b600033905090565b60008060009054906101000a900473ffffffffffffffffffffffffffffffffffffffff169050816000806101000a81548173ffffffffffffffffffffffffffffffffffffffff021916908373ffffffffffffffffffffffffffffffffffffffff1602179055508173ffffffffffffffffffffffffffffffffffffffff168173ffffffffffffffffffffffffffffffffffffffff167f8be0079c531659141344cd1fd0a4f28419497f9722a3daafe3b4186f6b6457e060405160405180910390a35050565b6113708061010d6000396000f3fe608060405234801561001057600080fd5b506004361061007d5760003560e01c80638d9a3cdb1161005b5780638d9a3cdb146100dd5780638da5cb5b1461010d578063c8ff5bf91461012b578063f2fde38b1461015b5761007d565b80632d9d4ed114610082578063715018a61461009e57806374dcdc63146100a8575b600080fd5b61009c60048036038101906100979190610abd565b610177565b005b6100a6610424565b005b6100c260048036038101906100bd9190610b9e565b610438565b6040516100d496959493929190610c87565b60405180910390f35b6100f760048036038101906100f29190610cfd565b610626565b6040516101049190610d2a565b60405180910390f35b61011561064a565b6040516101229190610d54565b60405180910390f35b61014560048036038101906101409190610b9e565b610673565b6040516101529190610d6f565b60405180910390f35b61017560048036038101906101709190610d8a565b6106de565b005b8573ffffffffffffffffffffffffffffffffffffffff1663ee23e2be336040518263ffffffff1660e01b81526004016101b09190610d54565b602060405180830381865afa1580156101cd573d6000803e3d6000fd5b505050506040513d601f19601f820116820180604052508101906101f19190610de3565b610230576040517f08c379a000000000000000000000000000000000000000000000000000000000815260040161022790610e5c565b60405180910390fd5b808210801561023e57504281105b61027d576040517f08c379a000000000000000000000000000000000000000000000000000000000815260040161027490610ec8565b60405180910390fd5b6040518060c0016040528086815260200185815260200184815260200183815260200182815260200160011515815250600260003373ffffffffffffffffffffffffffffffffffffffff1673ffffffffffffffffffffffffffffffffffffffff16815260200190815260200160002060006102f86001610761565b8152602001908152602001600020600082015181600001908161031b91906110f4565b50602082015181600101908161033191906110f4565b50604082015181600201908161034791906110f4565b50606082015181600301556080820151816004015560a08201518160050160006101000a81548160ff021916908315150217905550905050600361038b6001610761565b90806001815401808255809150506001900390600052602060002001600090919091909150553373ffffffffffffffffffffffffffffffffffffffff167fcab55701765438bf4f8ae72b3c5a07b057f35cade38b2ea35def8cc568630efc6103f36001610761565b878787878760405161040a969594939291906111c6565b60405180910390a261041c600161076f565b505050505050565b61042c610785565b6104366000610803565b565b60026020528160005260406000206020528060005260406000206000915091505080600001805461046890610f17565b80601f016020809104026020016040519081016040528092919081815260200182805461049490610f17565b80156104e15780601f106104b6576101008083540402835291602001916104e1565b820191906000526020600020905b8154815290600101906020018083116104c457829003601f168201915b5050505050908060010180546104f690610f17565b80601f016020809104026020016040519081016040528092919081815260200182805461052290610f17565b801561056f5780601f106105445761010080835404028352916020019161056f565b820191906000526020600020905b81548152906001019060200180831161055257829003601f168201915b50505050509080600201805461058490610f17565b80601f01602080910402602001604051908101604052809291908181526020018280546105b090610f17565b80156105fd5780601f106105d2576101008083540402835291602001916105fd565b820191906000526020600020905b8154815290600101906020018083116105e057829003601f168201915b5050505050908060030154908060040154908060050160009054906101000a900460ff16905086565b6003818154811061063657600080fd5b906000526020600020016000915090505481565b60008060009054906101000a900473ffffffffffffffffffffffffffffffffffffffff16905090565b6000600260008473ffffffffffffffffffffffffffffffffffffffff1673ffffffffffffffffffffffffffffffffffffffff168152602001908152602001600020600083815260200190815260200160002060050160009054906101000a900460ff16905092915050565b6106e6610785565b600073ffffffffffffffffffffffffffffffffffffffff168173ffffffffffffffffffffffffffffffffffffffff1603610755576040517f08c379a000000000000000000000000000000000000000000000000000000000815260040161074c906112ae565b60405180910390fd5b61075e81610803565b50565b600081600001549050919050565b6001816000016000828254019250508190555050565b61078d6108c7565b73ffffffffffffffffffffffffffffffffffffffff166107ab61064a565b73ffffffffffffffffffffffffffffffffffffffff1614610801576040517f08c379a00000000000000000000000000000000000000000000000000000000081526004016107f89061131a565b60405180910390fd5b565b60008060009054906101000a900473ffffffffffffffffffffffffffffffffffffffff169050816000806101000a81548173ffffffffffffffffffffffffffffffffffffffff021916908373ffffffffffffffffffffffffffffffffffffffff1602179055508173ffffffffffffffffffffffffffffffffffffffff168173ffffffffffffffffffffffffffffffffffffffff167f8be0079c531659141344cd1fd0a4f28419497f9722a3daafe3b4186f6b6457e060405160405180910390a35050565b600033905090565b6000604051905090565b600080fd5b600080fd5b600073ffffffffffffffffffffffffffffffffffffffff82169050919050565b600061090e826108e3565b9050919050565b61091e81610903565b811461092957600080fd5b50565b60008135905061093b81610915565b92915050565b600080fd5b600080fd5b6000601f19601f8301169050919050565b7f4e487b7100000000000000000000000000000000000000000000000000000000600052604160045260246000fd5b6109948261094b565b810181811067ffffffffffffffff821117156109b3576109b261095c565b5b80604052505050565b60006109c66108cf565b90506109d2828261098b565b919050565b600067ffffffffffffffff8211156109f2576109f161095c565b5b6109fb8261094b565b9050602081019050919050565b82818337600083830152505050565b6000610a2a610a25846109d7565b6109bc565b905082815260208101848484011115610a4657610a45610946565b5b610a51848285610a08565b509392505050565b600082601f830112610a6e57610a6d610941565b5b8135610a7e848260208601610a17565b91505092915050565b6000819050919050565b610a9a81610a87565b8114610aa557600080fd5b50565b600081359050610ab781610a91565b92915050565b60008060008060008060c08789031215610ada57610ad96108d9565b5b6000610ae889828a0161092c565b965050602087013567ffffffffffffffff811115610b0957610b086108de565b5b610b1589828a01610a59565b955050604087013567ffffffffffffffff811115610b3657610b356108de565b5b610b4289828a01610a59565b945050606087013567ffffffffffffffff811115610b6357610b626108de565b5b610b6f89828a01610a59565b9350506080610b8089828a01610aa8565b92505060a0610b9189828a01610aa8565b9150509295509295509295565b60008060408385031215610bb557610bb46108d9565b5b6000610bc38582860161092c565b9250506020610bd485828601610aa8565b9150509250929050565b600081519050919050565b600082825260208201905092915050565b60005b83811015610c18578082015181840152602081019050610bfd565b60008484015250505050565b6000610c2f82610bde565b610c398185610be9565b9350610c49818560208601610bfa565b610c528161094b565b840191505092915050565b610c6681610a87565b82525050565b60008115159050919050565b610c8181610c6c565b82525050565b600060c0820190508181036000830152610ca18189610c24565b90508181036020830152610cb58188610c24565b90508181036040830152610cc98187610c24565b9050610cd86060830186610c5d565b610ce56080830185610c5d565b610cf260a0830184610c78565b979650505050505050565b600060208284031215610d1357610d126108d9565b5b6000610d2184828501610aa8565b91505092915050565b6000602082019050610d3f6000830184610c5d565b92915050565b610d4e81610903565b82525050565b6000602082019050610d696000830184610d45565b92915050565b6000602082019050610d846000830184610c78565b92915050565b600060208284031215610da057610d9f6108d9565b5b6000610dae8482850161092c565b91505092915050565b610dc081610c6c565b8114610dcb57600080fd5b50565b600081519050610ddd81610db7565b92915050565b600060208284031215610df957610df86108d9565b5b6000610e0784828501610dce565b91505092915050565b7f4f7267616e697a657220646f6573206e6f742065786973740000000000000000600082015250565b6000610e46601883610be9565b9150610e5182610e10565b602082019050919050565b60006020820190508181036000830152610e7581610e39565b9050919050565b7f57726f6e67206461746574696d65207061737365640000000000000000000000600082015250565b6000610eb2601583610be9565b9150610ebd82610e7c565b602082019050919050565b60006020820190508181036000830152610ee181610ea5565b9050919050565b7f4e487b7100000000000000000000000000000000000000000000000000000000600052602260045260246000fd5b60006002820490506001821680610f2f57607f821691505b602082108103610f4257610f41610ee8565b5b50919050565b60008190508160005260206000209050919050565b60006020601f8301049050919050565b600082821b905092915050565b600060088302610faa7fffffffffffffffffffffffffffffffffffffffffffffffffffffffffffffffff82610f6d565b610fb48683610f6d565b95508019841693508086168417925050509392505050565b6000819050919050565b6000610ff1610fec610fe784610a87565b610fcc565b610a87565b9050919050565b6000819050919050565b61100b83610fd6565b61101f61101782610ff8565b848454610f7a565b825550505050565b600090565b611034611027565b61103f818484611002565b505050565b5b818110156110635761105860008261102c565b600181019050611045565b5050565b601f8211156110a85761107981610f48565b61108284610f5d565b81016020851015611091578190505b6110a561109d85610f5d565b830182611044565b50505b505050565b600082821c905092915050565b60006110cb600019846008026110ad565b1980831691505092915050565b60006110e483836110ba565b9150826002028217905092915050565b6110fd82610bde565b67ffffffffffffffff8111156111165761111561095c565b5b6111208254610f17565b61112b828285611067565b600060209050601f83116001811461115e576000841561114c578287015190505b61115685826110d8565b8655506111be565b601f19841661116c86610f48565b60005b828110156111945784890151825560018201915060208501945060208101905061116f565b868310156111b157848901516111ad601f8916826110ba565b8355505b6001600288020188555050505b505050505050565b600060c0820190506111db6000830189610c5d565b81810360208301526111ed8188610c24565b905081810360408301526112018187610c24565b905081810360608301526112158186610c24565b90506112246080830185610c5d565b61123160a0830184610c5d565b979650505050505050565b7f4f776e61626c653a206e6577206f776e657220697320746865207a65726f206160008201527f6464726573730000000000000000000000000000000000000000000000000000602082015250565b6000611298602683610be9565b91506112a38261123c565b604082019050919050565b600060208201905081810360008301526112c78161128b565b9050919050565b7f4f776e61626c653a2063616c6c6572206973206e6f7420746865206f776e6572600082015250565b6000611304602083610be9565b915061130f826112ce565b602082019050919050565b60006020820190508181036000830152611333816112f7565b905091905056fea2646970667358221220a070e8b18c5d9b282f9b03dd841f9c5be4d03c5857986b0a862a5965a8a4baec64736f6c63430008110033",
  "immutableReferences": {},
  "source": "// SPDX-License-Identifier: MIT\npragma solidity ^0.8.17;\n\nimport \"@openzeppelin/contracts/access/Ownable.sol\";\nimport \"@openzeppelin/contracts/utils/Counters.sol\";\nimport \"./Organizer.sol\";\n\ninterface IEvent {\n    struct EventStruct {\n        string name;\n        string description;\n        string venue_address;\n        uint256 start_datetime;\n        uint256 end_datetime;\n        bool is_set;\n    }\n\n    function create_event(\n        address _organizer_contract,\n        string memory _name,\n        string memory _description,\n        string memory _venue_address,\n        uint256 _start_datetime,\n        uint256 _end_datetime\n    ) external;\n\n    function is_event(address _organizer_address, uint256 _event_id)\n        external\n        view\n        returns (bool);\n}\n\ncontract Event is IEvent, Ownable {\n    Counters.Counter event_id;\n    mapping(address => mapping(uint256 => EventStruct)) public events;\n    uint256[] public event_list;\n\n    event EventCreated(\n        address indexed _admin,\n        uint256 _event_id,\n        string _name,\n        string _description,\n        string _venue_address,\n        uint256 _start_datetime,\n        uint256 _end_datetime\n    );\n\n    constructor() {}\n\n    // Functions\n    function create_event(\n        address _organizer_contract,\n        string memory _name,\n        string memory _description,\n        string memory _venue_address,\n        uint256 _start_datetime,\n        uint256 _end_datetime\n    ) external {\n        require(\n            IOrganizer(_organizer_contract).is_organizer(msg.sender),\n            \"Organizer does not exist\"\n        );\n        require(\n            _start_datetime < _end_datetime && _end_datetime < block.timestamp,\n            \"Wrong datetime passed\"\n        );\n        events[msg.sender][Counters.current(event_id)] = EventStruct(\n            _name,\n            _description,\n            _venue_address,\n            _start_datetime,\n            _end_datetime,\n            true\n        );\n        event_list.push(Counters.current(event_id));\n        emit EventCreated(\n            msg.sender,\n            Counters.current(event_id),\n            _name,\n            _description,\n            _venue_address,\n            _start_datetime,\n            _end_datetime\n        );\n        Counters.increment(event_id);\n    }\n\n    function is_event(address _organizer_address, uint256 _event_id)\n        external\n        view\n        returns (bool)\n    {\n        return events[_organizer_address][_event_id].is_set;\n    }\n}\n",
  "sourcePath": "/home/flaprimo/Development/decentralized-ticket-sales/backend/contracts/Event.sol",
  "compiler": {
    "name": "solc",
    "version": "0.8.17+commit.8df45f5f.Emscripten.clang"
  },
  "schemaVersion": "3.4.10",
  "updatedAt": "2023-01-21T13:40:39.187Z",
  "devdoc": {
    "kind": "dev",
    "methods": {
      "owner()": {
        "details": "Returns the address of the current owner."
      },
      "renounceOwnership()": {
        "details": "Leaves the contract without owner. It will not be possible to call `onlyOwner` functions anymore. Can only be called by the current owner. NOTE: Renouncing ownership will leave the contract without an owner, thereby removing any functionality that is only available to the owner."
      },
      "transferOwnership(address)": {
        "details": "Transfers ownership of the contract to a new account (`newOwner`). Can only be called by the current owner."
      }
    },
    "version": 1
  },
  "userdoc": {
    "kind": "user",
    "methods": {},
    "version": 1
  }
}