{
  "contractName": "Event",
  "abi": [
    {
      "inputs": [
        {
          "internalType": "address",
          "name": "_organizer",
          "type": "address"
        },
        {
          "internalType": "string",
          "name": "_name",
          "type": "string"
        },
        {
          "internalType": "string",
          "name": "_description",
          "type": "string"
        },
        {
          "internalType": "string",
          "name": "_venue_address",
          "type": "string"
        },
        {
          "internalType": "uint256",
          "name": "_start_datetime",
          "type": "uint256"
        },
        {
          "internalType": "uint256",
          "name": "_end_datetime",
          "type": "uint256"
        }
      ],
      "stateMutability": "nonpayable",
      "type": "constructor"
    },
    {
      "anonymous": false,
      "inputs": [
        {
          "indexed": true,
          "internalType": "address",
          "name": "previousOwner",
          "type": "address"
        },
        {
          "indexed": true,
          "internalType": "address",
          "name": "newOwner",
          "type": "address"
        }
      ],
      "name": "OwnershipTransferred",
      "type": "event"
    },
    {
      "inputs": [],
      "name": "description",
      "outputs": [
        {
          "internalType": "string",
          "name": "",
          "type": "string"
        }
      ],
      "stateMutability": "view",
      "type": "function"
    },
    {
      "inputs": [],
      "name": "end_datetime",
      "outputs": [
        {
          "internalType": "uint256",
          "name": "",
          "type": "uint256"
        }
      ],
      "stateMutability": "view",
      "type": "function"
    },
    {
      "inputs": [],
      "name": "name",
      "outputs": [
        {
          "internalType": "string",
          "name": "",
          "type": "string"
        }
      ],
      "stateMutability": "view",
      "type": "function"
    },
    {
      "inputs": [],
      "name": "owner",
      "outputs": [
        {
          "internalType": "address",
          "name": "",
          "type": "address"
        }
      ],
      "stateMutability": "view",
      "type": "function"
    },
    {
      "inputs": [],
      "name": "renounceOwnership",
      "outputs": [],
      "stateMutability": "nonpayable",
      "type": "function"
    },
    {
      "inputs": [],
      "name": "start_datetime",
      "outputs": [
        {
          "internalType": "uint256",
          "name": "",
          "type": "uint256"
        }
      ],
      "stateMutability": "view",
      "type": "function"
    },
    {
      "inputs": [
        {
          "internalType": "address",
          "name": "newOwner",
          "type": "address"
        }
      ],
      "name": "transferOwnership",
      "outputs": [],
      "stateMutability": "nonpayable",
      "type": "function"
    },
    {
      "inputs": [],
      "name": "venue_address",
      "outputs": [
        {
          "internalType": "string",
          "name": "",
          "type": "string"
        }
      ],
      "stateMutability": "view",
      "type": "function"
    },
    {
      "inputs": [
        {
          "internalType": "uint256",
          "name": "_quantity",
          "type": "uint256"
        }
      ],
      "name": "create_ticket",
      "outputs": [],
      "stateMutability": "nonpayable",
      "type": "function"
    },
    {
      "inputs": [],
      "name": "delete_event",
      "outputs": [],
      "stateMutability": "nonpayable",
      "type": "function"
    }
  ],
  "bytecode": "0x60806040523480156200001157600080fd5b50604051620054f7380380620054f78339818101604052810190620000379190620003e7565b620000576200004b620000e860201b60201c565b620000f060201b60201c565b85600160006101000a81548173ffffffffffffffffffffffffffffffffffffffff021916908373ffffffffffffffffffffffffffffffffffffffff1602179055508460029081620000a9919062000721565b508360039081620000bb919062000721565b508260049081620000cd919062000721565b50816005819055508060068190555050505050505062000808565b600033905090565b60008060009054906101000a900473ffffffffffffffffffffffffffffffffffffffff169050816000806101000a81548173ffffffffffffffffffffffffffffffffffffffff021916908373ffffffffffffffffffffffffffffffffffffffff1602179055508173ffffffffffffffffffffffffffffffffffffffff168173ffffffffffffffffffffffffffffffffffffffff167f8be0079c531659141344cd1fd0a4f28419497f9722a3daafe3b4186f6b6457e060405160405180910390a35050565b6000604051905090565b600080fd5b600080fd5b600073ffffffffffffffffffffffffffffffffffffffff82169050919050565b6000620001f582620001c8565b9050919050565b6200020781620001e8565b81146200021357600080fd5b50565b6000815190506200022781620001fc565b92915050565b600080fd5b600080fd5b6000601f19601f8301169050919050565b7f4e487b7100000000000000000000000000000000000000000000000000000000600052604160045260246000fd5b620002828262000237565b810181811067ffffffffffffffff82111715620002a457620002a362000248565b5b80604052505050565b6000620002b9620001b4565b9050620002c7828262000277565b919050565b600067ffffffffffffffff821115620002ea57620002e962000248565b5b620002f58262000237565b9050602081019050919050565b60005b838110156200032257808201518184015260208101905062000305565b60008484015250505050565b6000620003456200033f84620002cc565b620002ad565b90508281526020810184848401111562000364576200036362000232565b5b6200037184828562000302565b509392505050565b600082601f8301126200039157620003906200022d565b5b8151620003a38482602086016200032e565b91505092915050565b6000819050919050565b620003c181620003ac565b8114620003cd57600080fd5b50565b600081519050620003e181620003b6565b92915050565b60008060008060008060c08789031215620004075762000406620001be565b5b60006200041789828a0162000216565b965050602087015167ffffffffffffffff8111156200043b576200043a620001c3565b5b6200044989828a0162000379565b955050604087015167ffffffffffffffff8111156200046d576200046c620001c3565b5b6200047b89828a0162000379565b945050606087015167ffffffffffffffff8111156200049f576200049e620001c3565b5b620004ad89828a0162000379565b9350506080620004c089828a01620003d0565b92505060a0620004d389828a01620003d0565b9150509295509295509295565b600081519050919050565b7f4e487b7100000000000000000000000000000000000000000000000000000000600052602260045260246000fd5b600060028204905060018216806200053357607f821691505b602082108103620005495762000548620004eb565b5b50919050565b60008190508160005260206000209050919050565b60006020601f8301049050919050565b600082821b905092915050565b600060088302620005b37fffffffffffffffffffffffffffffffffffffffffffffffffffffffffffffffff8262000574565b620005bf868362000574565b95508019841693508086168417925050509392505050565b6000819050919050565b600062000602620005fc620005f684620003ac565b620005d7565b620003ac565b9050919050565b6000819050919050565b6200061e83620005e1565b620006366200062d8262000609565b84845462000581565b825550505050565b600090565b6200064d6200063e565b6200065a81848462000613565b505050565b5b8181101562000682576200067660008262000643565b60018101905062000660565b5050565b601f821115620006d1576200069b816200054f565b620006a68462000564565b81016020851015620006b6578190505b620006ce620006c58562000564565b8301826200065f565b50505b505050565b600082821c905092915050565b6000620006f660001984600802620006d6565b1980831691505092915050565b6000620007118383620006e3565b9150826002028217905092915050565b6200072c82620004e0565b67ffffffffffffffff81111562000748576200074762000248565b5b6200075482546200051a565b6200076182828562000686565b600060209050601f83116001811462000799576000841562000784578287015190505b62000790858262000703565b86555062000800565b601f198416620007a9866200054f565b60005b82811015620007d357848901518255600182019150602085019450602081019050620007ac565b86831015620007f35784890151620007ef601f891682620006e3565b8355505b6001600288020188555050505b505050505050565b614cdf80620008186000396000f3fe60806040523480156200001157600080fd5b5060043610620000ac5760003560e01c80637284e416116200006f5780637284e41614620001435780637e4238be14620001655780638da5cb5b14620001715780639df918ae1462000193578063f2fde38b14620001b557620000ac565b806306fdde0314620000b15780631975086514620000d35780632b521eec14620000f35780632d308f101462000115578063715018a61462000137575b600080fd5b620000bb620001d5565b604051620000ca91906200076f565b60405180910390f35b620000f16004803603810190620000eb9190620007d3565b6200026b565b005b620000fd62000318565b6040516200010c91906200076f565b60405180910390f35b6200011f620003ae565b6040516200012e919062000816565b60405180910390f35b62000141620003b4565b005b6200014d620003cc565b6040516200015c91906200076f565b60405180910390f35b6200016f62000462565b005b6200017b620004bd565b6040516200018a919062000878565b60405180910390f35b6200019d620004e6565b604051620001ac919062000816565b60405180910390f35b620001d36004803603810190620001cd9190620008c6565b620004ec565b005b60028054620001e49062000927565b80601f0160208091040260200160405190810160405280929190818152602001828054620002129062000927565b8015620002635780601f10620002375761010080835404028352916020019162000263565b820191906000526020600020905b8154815290600101906020018083116200024557829003601f168201915b505050505081565b6200027562000576565b6060600782826040516200028990620006c7565b6200029692919062000a2a565b604051809103906000f080158015620002b3573d6000803e3d6000fd5b509080600181540180825580915050600190039060005260206000200160009091909190916101000a81548173ffffffffffffffffffffffffffffffffffffffff021916908373ffffffffffffffffffffffffffffffffffffffff1602179055505050565b60048054620003279062000927565b80601f0160208091040260200160405190810160405280929190818152602001828054620003559062000927565b8015620003a65780601f106200037a57610100808354040283529160200191620003a6565b820191906000526020600020905b8154815290600101906020018083116200038857829003601f168201915b505050505081565b60055481565b620003be62000576565b620003ca6000620005fb565b565b60038054620003db9062000927565b80601f0160208091040260200160405190810160405280929190818152602001828054620004099062000927565b80156200045a5780601f106200042e576101008083540402835291602001916200045a565b820191906000526020600020905b8154815290600101906020018083116200043c57829003601f168201915b505050505081565b6200046c62000576565b600160009054906101000a900473ffffffffffffffffffffffffffffffffffffffff1673ffffffffffffffffffffffffffffffffffffffff1673ffffffffffffffffffffffffffffffffffffffff16ff5b60008060009054906101000a900473ffffffffffffffffffffffffffffffffffffffff16905090565b60065481565b620004f662000576565b600073ffffffffffffffffffffffffffffffffffffffff168173ffffffffffffffffffffffffffffffffffffffff160362000568576040517f08c379a00000000000000000000000000000000000000000000000000000000081526004016200055f9062000ad4565b60405180910390fd5b6200057381620005fb565b50565b62000580620006bf565b73ffffffffffffffffffffffffffffffffffffffff16620005a0620004bd565b73ffffffffffffffffffffffffffffffffffffffff1614620005f9576040517f08c379a0000000000000000000000000000000000000000000000000000000008152600401620005f09062000b46565b60405180910390fd5b565b60008060009054906101000a900473ffffffffffffffffffffffffffffffffffffffff169050816000806101000a81548173ffffffffffffffffffffffffffffffffffffffff021916908373ffffffffffffffffffffffffffffffffffffffff1602179055508173ffffffffffffffffffffffffffffffffffffffff168173ffffffffffffffffffffffffffffffffffffffff167f8be0079c531659141344cd1fd0a4f28419497f9722a3daafe3b4186f6b6457e060405160405180910390a35050565b600033905090565b6141418062000b6983390190565b600081519050919050565b600082825260208201905092915050565b60005b8381101562000711578082015181840152602081019050620006f4565b60008484015250505050565b6000601f19601f8301169050919050565b60006200073b82620006d5565b620007478185620006e0565b935062000759818560208601620006f1565b62000764816200071d565b840191505092915050565b600060208201905081810360008301526200078b81846200072e565b905092915050565b600080fd5b6000819050919050565b620007ad8162000798565b8114620007b957600080fd5b50565b600081359050620007cd81620007a2565b92915050565b600060208284031215620007ec57620007eb62000793565b5b6000620007fc84828501620007bc565b91505092915050565b620008108162000798565b82525050565b60006020820190506200082d600083018462000805565b92915050565b600073ffffffffffffffffffffffffffffffffffffffff82169050919050565b6000620008608262000833565b9050919050565b620008728162000853565b82525050565b60006020820190506200088f600083018462000867565b92915050565b620008a08162000853565b8114620008ac57600080fd5b50565b600081359050620008c08162000895565b92915050565b600060208284031215620008df57620008de62000793565b5b6000620008ef84828501620008af565b91505092915050565b7f4e487b7100000000000000000000000000000000000000000000000000000000600052602260045260246000fd5b600060028204905060018216806200094057607f821691505b602082108103620009565762000955620008f8565b5b50919050565b600081519050919050565b600082825260208201905092915050565b6000819050602082019050919050565b620009938162000853565b82525050565b6000620009a7838362000988565b60208301905092915050565b6000602082019050919050565b6000620009cd826200095c565b620009d9818562000967565b9350620009e68362000978565b8060005b8381101562000a1d57815162000a01888262000999565b975062000a0e83620009b3565b925050600181019050620009ea565b5085935050505092915050565b600060408201905062000a41600083018562000805565b818103602083015262000a558184620009c0565b90509392505050565b7f4f776e61626c653a206e6577206f776e657220697320746865207a65726f206160008201527f6464726573730000000000000000000000000000000000000000000000000000602082015250565b600062000abc602683620006e0565b915062000ac98262000a5e565b604082019050919050565b6000602082019050818103600083015262000aef8162000aad565b9050919050565b7f4f776e61626c653a2063616c6c6572206973206e6f7420746865206f776e6572600082015250565b600062000b2e602083620006e0565b915062000b3b8262000af6565b602082019050919050565b6000602082019050818103600083015262000b618162000b1f565b905091905056fe60806040523480156200001157600080fd5b506040516200414138038062004141833981810160405281019062000037919062000b36565b6040518060400160405280600681526020017f5469636b657400000000000000000000000000000000000000000000000000008152506040518060400160405280600381526020017f544b540000000000000000000000000000000000000000000000000000000000815250828260029081620000b5919062000ddd565b508160039081620000c7919062000ddd565b508060049080519060200190620000e09291906200085f565b5060005b815181101562000179576001600560008484815181106200010a576200010962000ec4565b5b602002602001015173ffffffffffffffffffffffffffffffffffffffff1673ffffffffffffffffffffffffffffffffffffffff16815260200190815260200160002060006101000a81548160ff0219169083151502179055508080620001709062000f22565b915050620000e4565b50731820a4b7618bde71dce8cdc73aab6c95905fad2473ffffffffffffffffffffffffffffffffffffffff166329965a1d307fac7fbab5f54a3ca8194167523c6753bfeb96a445279294b6125b68cce2177054306040518463ffffffff1660e01b8152600401620001ed9392919062000f9b565b600060405180830381600087803b1580156200020857600080fd5b505af11580156200021d573d6000803e3d6000fd5b50505050731820a4b7618bde71dce8cdc73aab6c95905fad2473ffffffffffffffffffffffffffffffffffffffff166329965a1d307faea199e31a596269b42cdafd93407f14436db6e4cad65417994c2eb37381e05a306040518463ffffffff1660e01b8152600401620002949392919062000f9b565b600060405180830381600087803b158015620002af57600080fd5b505af1158015620002c4573d6000803e3d6000fd5b50505050505050620002eb620002df6200033460201b60201c565b6200033c60201b60201c565b6200032c620002ff6200040260201b60201c565b8360405180602001604052806000815250604051806020016040528060008152506200042c60201b60201c565b505062001330565b600033905090565b6000600960009054906101000a900473ffffffffffffffffffffffffffffffffffffffff16905081600960006101000a81548173ffffffffffffffffffffffffffffffffffffffff021916908373ffffffffffffffffffffffffffffffffffffffff1602179055508173ffffffffffffffffffffffffffffffffffffffff168173ffffffffffffffffffffffffffffffffffffffff167f8be0079c531659141344cd1fd0a4f28419497f9722a3daafe3b4186f6b6457e060405160405180910390a35050565b6000600960009054906101000a900473ffffffffffffffffffffffffffffffffffffffff16905090565b620004428484848460016200044860201b60201c565b50505050565b600073ffffffffffffffffffffffffffffffffffffffff168573ffffffffffffffffffffffffffffffffffffffff1603620004ba576040517f08c379a0000000000000000000000000000000000000000000000000000000008152600401620004b19062001039565b60405180910390fd5b6000620004cc6200033460201b60201c565b9050620004e381600088886200064860201b60201c565b8460016000828254620004f791906200105b565b92505081905550846000808873ffffffffffffffffffffffffffffffffffffffff1673ffffffffffffffffffffffffffffffffffffffff16815260200190815260200160002060008282546200054e91906200105b565b925050819055506200056d81600088888888886200064e60201b60201c565b8573ffffffffffffffffffffffffffffffffffffffff168173ffffffffffffffffffffffffffffffffffffffff167f2fe5be0146f74c5bce36c0b80911af6c7d86ff27e89d5cfa61fc681327954e5d878787604051620005d09392919062001130565b60405180910390a38573ffffffffffffffffffffffffffffffffffffffff16600073ffffffffffffffffffffffffffffffffffffffff167fddf252ad1be2c89b69c2b068fc378daa952ba7f163c4a11628f55a4df523b3ef876040516200063891906200117b565b60405180910390a3505050505050565b50505050565b6000731820a4b7618bde71dce8cdc73aab6c95905fad2473ffffffffffffffffffffffffffffffffffffffff1663aabbb8ca877fb281fc8c12954d22544db45de3159a39272895b169a852b314f9cc762e44c53b6040518363ffffffff1660e01b8152600401620006c192919062001198565b602060405180830381865afa158015620006df573d6000803e3d6000fd5b505050506040513d601f19601f82011682018060405250810190620007059190620011c5565b9050600073ffffffffffffffffffffffffffffffffffffffff168173ffffffffffffffffffffffffffffffffffffffff1614620007ba578073ffffffffffffffffffffffffffffffffffffffff166223de298989898989896040518763ffffffff1660e01b81526004016200078096959493929190620011f7565b600060405180830381600087803b1580156200079b57600080fd5b505af1158015620007b0573d6000803e3d6000fd5b5050505062000832565b81156200083157620007ed8673ffffffffffffffffffffffffffffffffffffffff166200083c60201b62000f971760201c565b1562000830576040517f08c379a000000000000000000000000000000000000000000000000000000000815260040162000827906200130e565b60405180910390fd5b5b5b5050505050505050565b6000808273ffffffffffffffffffffffffffffffffffffffff163b119050919050565b828054828255906000526020600020908101928215620008db579160200282015b82811115620008da5782518260006101000a81548173ffffffffffffffffffffffffffffffffffffffff021916908373ffffffffffffffffffffffffffffffffffffffff1602179055509160200191906001019062000880565b5b509050620008ea9190620008ee565b5090565b5b8082111562000909576000816000905550600101620008ef565b5090565b6000604051905090565b600080fd5b600080fd5b6000819050919050565b620009368162000921565b81146200094257600080fd5b50565b60008151905062000956816200092b565b92915050565b600080fd5b6000601f19601f8301169050919050565b7f4e487b7100000000000000000000000000000000000000000000000000000000600052604160045260246000fd5b620009ac8262000961565b810181811067ffffffffffffffff82111715620009ce57620009cd62000972565b5b80604052505050565b6000620009e36200090d565b9050620009f18282620009a1565b919050565b600067ffffffffffffffff82111562000a145762000a1362000972565b5b602082029050602081019050919050565b600080fd5b600073ffffffffffffffffffffffffffffffffffffffff82169050919050565b600062000a578262000a2a565b9050919050565b62000a698162000a4a565b811462000a7557600080fd5b50565b60008151905062000a898162000a5e565b92915050565b600062000aa662000aa084620009f6565b620009d7565b9050808382526020820190506020840283018581111562000acc5762000acb62000a25565b5b835b8181101562000af9578062000ae4888262000a78565b84526020840193505060208101905062000ace565b5050509392505050565b600082601f83011262000b1b5762000b1a6200095c565b5b815162000b2d84826020860162000a8f565b91505092915050565b6000806040838503121562000b505762000b4f62000917565b5b600062000b608582860162000945565b925050602083015167ffffffffffffffff81111562000b845762000b836200091c565b5b62000b928582860162000b03565b9150509250929050565b600081519050919050565b7f4e487b7100000000000000000000000000000000000000000000000000000000600052602260045260246000fd5b6000600282049050600182168062000bef57607f821691505b60208210810362000c055762000c0462000ba7565b5b50919050565b60008190508160005260206000209050919050565b60006020601f8301049050919050565b600082821b905092915050565b60006008830262000c6f7fffffffffffffffffffffffffffffffffffffffffffffffffffffffffffffffff8262000c30565b62000c7b868362000c30565b95508019841693508086168417925050509392505050565b6000819050919050565b600062000cbe62000cb862000cb28462000921565b62000c93565b62000921565b9050919050565b6000819050919050565b62000cda8362000c9d565b62000cf262000ce98262000cc5565b84845462000c3d565b825550505050565b600090565b62000d0962000cfa565b62000d1681848462000ccf565b505050565b5b8181101562000d3e5762000d3260008262000cff565b60018101905062000d1c565b5050565b601f82111562000d8d5762000d578162000c0b565b62000d628462000c20565b8101602085101562000d72578190505b62000d8a62000d818562000c20565b83018262000d1b565b50505b505050565b600082821c905092915050565b600062000db26000198460080262000d92565b1980831691505092915050565b600062000dcd838362000d9f565b9150826002028217905092915050565b62000de88262000b9c565b67ffffffffffffffff81111562000e045762000e0362000972565b5b62000e10825462000bd6565b62000e1d82828562000d42565b600060209050601f83116001811462000e55576000841562000e40578287015190505b62000e4c858262000dbf565b86555062000ebc565b601f19841662000e658662000c0b565b60005b8281101562000e8f5784890151825560018201915060208501945060208101905062000e68565b8683101562000eaf578489015162000eab601f89168262000d9f565b8355505b6001600288020188555050505b505050505050565b7f4e487b7100000000000000000000000000000000000000000000000000000000600052603260045260246000fd5b7f4e487b7100000000000000000000000000000000000000000000000000000000600052601160045260246000fd5b600062000f2f8262000921565b91507fffffffffffffffffffffffffffffffffffffffffffffffffffffffffffffffff820362000f645762000f6362000ef3565b5b600182019050919050565b62000f7a8162000a4a565b82525050565b6000819050919050565b62000f958162000f80565b82525050565b600060608201905062000fb2600083018662000f6f565b62000fc1602083018562000f8a565b62000fd0604083018462000f6f565b949350505050565b600082825260208201905092915050565b7f4552433737373a206d696e7420746f20746865207a65726f2061646472657373600082015250565b60006200102160208362000fd8565b91506200102e8262000fe9565b602082019050919050565b60006020820190508181036000830152620010548162001012565b9050919050565b6000620010688262000921565b9150620010758362000921565b925082820190508082111562001090576200108f62000ef3565b5b92915050565b620010a18162000921565b82525050565b600081519050919050565b600082825260208201905092915050565b60005b83811015620010e3578082015181840152602081019050620010c6565b60008484015250505050565b6000620010fc82620010a7565b620011088185620010b2565b93506200111a818560208601620010c3565b620011258162000961565b840191505092915050565b600060608201905062001147600083018662001096565b81810360208301526200115b8185620010ef565b90508181036040830152620011718184620010ef565b9050949350505050565b600060208201905062001192600083018462001096565b92915050565b6000604082019050620011af600083018562000f6f565b620011be602083018462000f8a565b9392505050565b600060208284031215620011de57620011dd62000917565b5b6000620011ee8482850162000a78565b91505092915050565b600060c0820190506200120e600083018962000f6f565b6200121d602083018862000f6f565b6200122c604083018762000f6f565b6200123b606083018662001096565b81810360808301526200124f8185620010ef565b905081810360a0830152620012658184620010ef565b9050979650505050505050565b7f4552433737373a20746f6b656e20726563697069656e7420636f6e747261637460008201527f20686173206e6f20696d706c656d656e74657220666f7220455243373737546f60208201527f6b656e73526563697069656e7400000000000000000000000000000000000000604082015250565b6000620012f6604d8362000fd8565b9150620013038262001272565b606082019050919050565b600060208201905081810360008301526200132981620012e7565b9050919050565b612e0180620013406000396000f3fe608060405234801561001057600080fd5b50600436106101375760003560e01c80638da5cb5b116100b8578063d95b63711161007c578063d95b63711461032c578063dd62ed3e1461035c578063f2fde38b1461038c578063fad8b32a146103a8578063fc673c4f146103c4578063fe9d9303146103e057610137565b80638da5cb5b14610288578063959b8c3f146102a657806395d89b41146102c25780639bd9bbc6146102e0578063a9059cbb146102fc57610137565b8063313ce567116100ff578063313ce567146101f6578063556f0dc71461021457806362ad1b831461023257806370a082311461024e578063715018a61461027e57610137565b806306e485381461013c57806306fdde031461015a578063095ea7b31461017857806318160ddd146101a857806323b872dd146101c6575b600080fd5b6101446103fc565b6040516101519190611d14565b60405180910390f35b61016261048a565b60405161016f9190611dc6565b60405180910390f35b610192600480360381019061018d9190611e5e565b61051c565b60405161019f9190611eb9565b60405180910390f35b6101b061053f565b6040516101bd9190611ee3565b60405180910390f35b6101e060048036038101906101db9190611efe565b610549565b6040516101ed9190611eb9565b60405180910390f35b6101fe61059a565b60405161020b9190611f6d565b60405180910390f35b61021c6105a3565b6040516102299190611ee3565b60405180910390f35b61024c600480360381019061024791906120bd565b6105ac565b005b61026860048036038101906102639190612170565b610612565b6040516102759190611ee3565b60405180910390f35b61028661065a565b005b61029061066e565b60405161029d91906121ac565b60405180910390f35b6102c060048036038101906102bb9190612170565b610698565b005b6102ca6108f8565b6040516102d79190611dc6565b60405180910390f35b6102fa60048036038101906102f591906121c7565b61098a565b005b61031660048036038101906103119190611e5e565b6109b4565b6040516103239190611eb9565b60405180910390f35b61034660048036038101906103419190612236565b6109f4565b6040516103539190611eb9565b60405180910390f35b61037660048036038101906103719190612236565b610ba5565b6040516103839190611ee3565b60405180910390f35b6103a660048036038101906103a19190612170565b610c2c565b005b6103c260048036038101906103bd9190612170565b610caf565b005b6103de60048036038101906103d99190612276565b610f0f565b005b6103fa60048036038101906103f59190612315565b610f71565b005b6060600480548060200260200160405190810160405280929190818152602001828054801561048057602002820191906000526020600020905b8160009054906101000a900473ffffffffffffffffffffffffffffffffffffffff1673ffffffffffffffffffffffffffffffffffffffff1681526020019060010190808311610436575b5050505050905090565b606060028054610499906123a0565b80601f01602080910402602001604051908101604052809291908181526020018280546104c5906123a0565b80156105125780601f106104e757610100808354040283529160200191610512565b820191906000526020600020905b8154815290600101906020018083116104f557829003601f168201915b5050505050905090565b600080610527610fba565b9050610534818585610fc2565b600191505092915050565b6000600154905090565b600080610554610fba565b905061056185828561118b565b61058e85858560405180602001604052806000815250604051806020016040528060008152506000611217565b60019150509392505050565b60006012905090565b60006001905090565b6105bd6105b7610fba565b866109f4565b6105fc576040517f08c379a00000000000000000000000000000000000000000000000000000000081526004016105f390612443565b60405180910390fd5b61060b85858585856001611217565b5050505050565b60008060008373ffffffffffffffffffffffffffffffffffffffff1673ffffffffffffffffffffffffffffffffffffffff168152602001908152602001600020549050919050565b610662611335565b61066c60006113b3565b565b6000600960009054906101000a900473ffffffffffffffffffffffffffffffffffffffff16905090565b8073ffffffffffffffffffffffffffffffffffffffff166106b7610fba565b73ffffffffffffffffffffffffffffffffffffffff160361070d576040517f08c379a0000000000000000000000000000000000000000000000000000000008152600401610704906124d5565b60405180910390fd5b600560008273ffffffffffffffffffffffffffffffffffffffff1673ffffffffffffffffffffffffffffffffffffffff16815260200190815260200160002060009054906101000a900460ff16156107f7576007600061076b610fba565b73ffffffffffffffffffffffffffffffffffffffff1673ffffffffffffffffffffffffffffffffffffffff16815260200190815260200160002060008273ffffffffffffffffffffffffffffffffffffffff1673ffffffffffffffffffffffffffffffffffffffff16815260200190815260200160002060006101000a81549060ff0219169055610894565b600160066000610805610fba565b73ffffffffffffffffffffffffffffffffffffffff1673ffffffffffffffffffffffffffffffffffffffff16815260200190815260200160002060008373ffffffffffffffffffffffffffffffffffffffff1673ffffffffffffffffffffffffffffffffffffffff16815260200190815260200160002060006101000a81548160ff0219169083151502179055505b61089c610fba565b73ffffffffffffffffffffffffffffffffffffffff168173ffffffffffffffffffffffffffffffffffffffff167ff4caeb2d6ca8932a215a353d0703c326ec2d81fc68170f320eb2ab49e9df61f960405160405180910390a350565b606060038054610907906123a0565b80601f0160208091040260200160405190810160405280929190818152602001828054610933906123a0565b80156109805780601f1061095557610100808354040283529160200191610980565b820191906000526020600020905b81548152906001019060200180831161096357829003601f168201915b5050505050905090565b6109af610995610fba565b848484604051806020016040528060008152506001611217565b505050565b60006109ea6109c1610fba565b848460405180602001604052806000815250604051806020016040528060008152506000611217565b6001905092915050565b60008173ffffffffffffffffffffffffffffffffffffffff168373ffffffffffffffffffffffffffffffffffffffff161480610b0c5750600560008473ffffffffffffffffffffffffffffffffffffffff1673ffffffffffffffffffffffffffffffffffffffff16815260200190815260200160002060009054906101000a900460ff168015610b0b5750600760008373ffffffffffffffffffffffffffffffffffffffff1673ffffffffffffffffffffffffffffffffffffffff16815260200190815260200160002060008473ffffffffffffffffffffffffffffffffffffffff1673ffffffffffffffffffffffffffffffffffffffff16815260200190815260200160002060009054906101000a900460ff16155b5b80610b9d5750600660008373ffffffffffffffffffffffffffffffffffffffff1673ffffffffffffffffffffffffffffffffffffffff16815260200190815260200160002060008473ffffffffffffffffffffffffffffffffffffffff1673ffffffffffffffffffffffffffffffffffffffff16815260200190815260200160002060009054906101000a900460ff165b905092915050565b6000600860008473ffffffffffffffffffffffffffffffffffffffff1673ffffffffffffffffffffffffffffffffffffffff16815260200190815260200160002060008373ffffffffffffffffffffffffffffffffffffffff1673ffffffffffffffffffffffffffffffffffffffff16815260200190815260200160002054905092915050565b610c34611335565b600073ffffffffffffffffffffffffffffffffffffffff168173ffffffffffffffffffffffffffffffffffffffff1603610ca3576040517f08c379a0000000000000000000000000000000000000000000000000000000008152600401610c9a90612567565b60405180910390fd5b610cac816113b3565b50565b610cb7610fba565b73ffffffffffffffffffffffffffffffffffffffff168173ffffffffffffffffffffffffffffffffffffffff1603610d24576040517f08c379a0000000000000000000000000000000000000000000000000000000008152600401610d1b906125f9565b60405180910390fd5b600560008273ffffffffffffffffffffffffffffffffffffffff1673ffffffffffffffffffffffffffffffffffffffff16815260200190815260200160002060009054906101000a900460ff1615610e1757600160076000610d84610fba565b73ffffffffffffffffffffffffffffffffffffffff1673ffffffffffffffffffffffffffffffffffffffff16815260200190815260200160002060008373ffffffffffffffffffffffffffffffffffffffff1673ffffffffffffffffffffffffffffffffffffffff16815260200190815260200160002060006101000a81548160ff021916908315150217905550610eab565b60066000610e23610fba565b73ffffffffffffffffffffffffffffffffffffffff1673ffffffffffffffffffffffffffffffffffffffff16815260200190815260200160002060008273ffffffffffffffffffffffffffffffffffffffff1673ffffffffffffffffffffffffffffffffffffffff16815260200190815260200160002060006101000a81549060ff02191690555b610eb3610fba565b73ffffffffffffffffffffffffffffffffffffffff168173ffffffffffffffffffffffffffffffffffffffff167f50546e66e5f44d728365dc3908c63bc5cfeeab470722c1677e3073a6ac294aa160405160405180910390a350565b610f20610f1a610fba565b856109f4565b610f5f576040517f08c379a0000000000000000000000000000000000000000000000000000000008152600401610f5690612443565b60405180910390fd5b610f6b84848484611479565b50505050565b610f93610f7c610fba565b838360405180602001604052806000815250611479565b5050565b6000808273ffffffffffffffffffffffffffffffffffffffff163b119050919050565b600033905090565b600073ffffffffffffffffffffffffffffffffffffffff168373ffffffffffffffffffffffffffffffffffffffff1603611031576040517f08c379a00000000000000000000000000000000000000000000000000000000081526004016110289061268b565b60405180910390fd5b600073ffffffffffffffffffffffffffffffffffffffff168273ffffffffffffffffffffffffffffffffffffffff16036110a0576040517f08c379a00000000000000000000000000000000000000000000000000000000081526004016110979061271d565b60405180910390fd5b80600860008573ffffffffffffffffffffffffffffffffffffffff1673ffffffffffffffffffffffffffffffffffffffff16815260200190815260200160002060008473ffffffffffffffffffffffffffffffffffffffff1673ffffffffffffffffffffffffffffffffffffffff168152602001908152602001600020819055508173ffffffffffffffffffffffffffffffffffffffff168373ffffffffffffffffffffffffffffffffffffffff167f8c5be1e5ebec7d5bd14f71427d1e84f3dd0314c0f7b2291e5b200ac8c7c3b9258360405161117e9190611ee3565b60405180910390a3505050565b60006111978484610ba5565b90507fffffffffffffffffffffffffffffffffffffffffffffffffffffffffffffffff81146112115781811015611203576040517f08c379a00000000000000000000000000000000000000000000000000000000081526004016111fa90612789565b60405180910390fd5b6112108484848403610fc2565b5b50505050565b600073ffffffffffffffffffffffffffffffffffffffff168673ffffffffffffffffffffffffffffffffffffffff1603611286576040517f08c379a000000000000000000000000000000000000000000000000000000000815260040161127d9061281b565b60405180910390fd5b600073ffffffffffffffffffffffffffffffffffffffff168573ffffffffffffffffffffffffffffffffffffffff16036112f5576040517f08c379a00000000000000000000000000000000000000000000000000000000081526004016112ec906128ad565b60405180910390fd5b60006112ff610fba565b905061130f8188888888886116cb565b61131d818888888888611832565b61132c81888888888888611a4c565b50505050505050565b61133d610fba565b73ffffffffffffffffffffffffffffffffffffffff1661135b61066e565b73ffffffffffffffffffffffffffffffffffffffff16146113b1576040517f08c379a00000000000000000000000000000000000000000000000000000000081526004016113a890612919565b60405180910390fd5b565b6000600960009054906101000a900473ffffffffffffffffffffffffffffffffffffffff16905081600960006101000a81548173ffffffffffffffffffffffffffffffffffffffff021916908373ffffffffffffffffffffffffffffffffffffffff1602179055508173ffffffffffffffffffffffffffffffffffffffff168173ffffffffffffffffffffffffffffffffffffffff167f8be0079c531659141344cd1fd0a4f28419497f9722a3daafe3b4186f6b6457e060405160405180910390a35050565b600073ffffffffffffffffffffffffffffffffffffffff168473ffffffffffffffffffffffffffffffffffffffff16036114e8576040517f08c379a00000000000000000000000000000000000000000000000000000000081526004016114df906129ab565b60405180910390fd5b60006114f2610fba565b9050611503818660008787876116cb565b6115108186600087611c1e565b60008060008773ffffffffffffffffffffffffffffffffffffffff1673ffffffffffffffffffffffffffffffffffffffff16815260200190815260200160002054905084811015611596576040517f08c379a000000000000000000000000000000000000000000000000000000000815260040161158d90612a3d565b60405180910390fd5b8481036000808873ffffffffffffffffffffffffffffffffffffffff1673ffffffffffffffffffffffffffffffffffffffff1681526020019081526020016000208190555084600160008282546115ed9190612a8c565b925050819055508573ffffffffffffffffffffffffffffffffffffffff168273ffffffffffffffffffffffffffffffffffffffff167fa78a9be3a7b862d26933ad85fb11d80ef66b8f972d7cbba06621d583943a409887878760405161165593929190612b15565b60405180910390a3600073ffffffffffffffffffffffffffffffffffffffff168673ffffffffffffffffffffffffffffffffffffffff167fddf252ad1be2c89b69c2b068fc378daa952ba7f163c4a11628f55a4df523b3ef876040516116bb9190611ee3565b60405180910390a3505050505050565b6000731820a4b7618bde71dce8cdc73aab6c95905fad2473ffffffffffffffffffffffffffffffffffffffff1663aabbb8ca877f29ddb589b1fb5fc7cf394961c1adf5f8c6454761adf795e67fe149f658abe8956040518363ffffffff1660e01b815260040161173c929190612b73565b602060405180830381865afa158015611759573d6000803e3d6000fd5b505050506040513d601f19601f8201168201806040525081019061177d9190612bb1565b9050600073ffffffffffffffffffffffffffffffffffffffff168173ffffffffffffffffffffffffffffffffffffffff1614611829578073ffffffffffffffffffffffffffffffffffffffff166375ab97828888888888886040518763ffffffff1660e01b81526004016117f696959493929190612bde565b600060405180830381600087803b15801561181057600080fd5b505af1158015611824573d6000803e3d6000fd5b505050505b50505050505050565b61183e86868686611c1e565b60008060008773ffffffffffffffffffffffffffffffffffffffff1673ffffffffffffffffffffffffffffffffffffffff168152602001908152602001600020549050838110156118c4576040517f08c379a00000000000000000000000000000000000000000000000000000000081526004016118bb90612cbf565b60405180910390fd5b8381036000808873ffffffffffffffffffffffffffffffffffffffff1673ffffffffffffffffffffffffffffffffffffffff16815260200190815260200160002081905550836000808773ffffffffffffffffffffffffffffffffffffffff1673ffffffffffffffffffffffffffffffffffffffff16815260200190815260200160002060008282546119579190612cdf565b925050819055508473ffffffffffffffffffffffffffffffffffffffff168673ffffffffffffffffffffffffffffffffffffffff168873ffffffffffffffffffffffffffffffffffffffff167f06b541ddaa720db2b10a4d0cdac39b8d360425fc073085fac19bc826146779878787876040516119d693929190612b15565b60405180910390a48473ffffffffffffffffffffffffffffffffffffffff168673ffffffffffffffffffffffffffffffffffffffff167fddf252ad1be2c89b69c2b068fc378daa952ba7f163c4a11628f55a4df523b3ef86604051611a3b9190611ee3565b60405180910390a350505050505050565b6000731820a4b7618bde71dce8cdc73aab6c95905fad2473ffffffffffffffffffffffffffffffffffffffff1663aabbb8ca877fb281fc8c12954d22544db45de3159a39272895b169a852b314f9cc762e44c53b6040518363ffffffff1660e01b8152600401611abd929190612b73565b602060405180830381865afa158015611ada573d6000803e3d6000fd5b505050506040513d601f19601f82011682018060405250810190611afe9190612bb1565b9050600073ffffffffffffffffffffffffffffffffffffffff168173ffffffffffffffffffffffffffffffffffffffff1614611bad578073ffffffffffffffffffffffffffffffffffffffff166223de298989898989896040518763ffffffff1660e01b8152600401611b7696959493929190612bde565b600060405180830381600087803b158015611b9057600080fd5b505af1158015611ba4573d6000803e3d6000fd5b50505050611c14565b8115611c1357611bd28673ffffffffffffffffffffffffffffffffffffffff16610f97565b15611c12576040517f08c379a0000000000000000000000000000000000000000000000000000000008152600401611c0990612dab565b60405180910390fd5b5b5b5050505050505050565b50505050565b600081519050919050565b600082825260208201905092915050565b6000819050602082019050919050565b600073ffffffffffffffffffffffffffffffffffffffff82169050919050565b6000611c7b82611c50565b9050919050565b611c8b81611c70565b82525050565b6000611c9d8383611c82565b60208301905092915050565b6000602082019050919050565b6000611cc182611c24565b611ccb8185611c2f565b9350611cd683611c40565b8060005b83811015611d07578151611cee8882611c91565b9750611cf983611ca9565b925050600181019050611cda565b5085935050505092915050565b60006020820190508181036000830152611d2e8184611cb6565b905092915050565b600081519050919050565b600082825260208201905092915050565b60005b83811015611d70578082015181840152602081019050611d55565b60008484015250505050565b6000601f19601f8301169050919050565b6000611d9882611d36565b611da28185611d41565b9350611db2818560208601611d52565b611dbb81611d7c565b840191505092915050565b60006020820190508181036000830152611de08184611d8d565b905092915050565b6000604051905090565b600080fd5b600080fd5b611e0581611c70565b8114611e1057600080fd5b50565b600081359050611e2281611dfc565b92915050565b6000819050919050565b611e3b81611e28565b8114611e4657600080fd5b50565b600081359050611e5881611e32565b92915050565b60008060408385031215611e7557611e74611df2565b5b6000611e8385828601611e13565b9250506020611e9485828601611e49565b9150509250929050565b60008115159050919050565b611eb381611e9e565b82525050565b6000602082019050611ece6000830184611eaa565b92915050565b611edd81611e28565b82525050565b6000602082019050611ef86000830184611ed4565b92915050565b600080600060608486031215611f1757611f16611df2565b5b6000611f2586828701611e13565b9350506020611f3686828701611e13565b9250506040611f4786828701611e49565b9150509250925092565b600060ff82169050919050565b611f6781611f51565b82525050565b6000602082019050611f826000830184611f5e565b92915050565b600080fd5b600080fd5b7f4e487b7100000000000000000000000000000000000000000000000000000000600052604160045260246000fd5b611fca82611d7c565b810181811067ffffffffffffffff82111715611fe957611fe8611f92565b5b80604052505050565b6000611ffc611de8565b90506120088282611fc1565b919050565b600067ffffffffffffffff82111561202857612027611f92565b5b61203182611d7c565b9050602081019050919050565b82818337600083830152505050565b600061206061205b8461200d565b611ff2565b90508281526020810184848401111561207c5761207b611f8d565b5b61208784828561203e565b509392505050565b600082601f8301126120a4576120a3611f88565b5b81356120b484826020860161204d565b91505092915050565b600080600080600060a086880312156120d9576120d8611df2565b5b60006120e788828901611e13565b95505060206120f888828901611e13565b945050604061210988828901611e49565b935050606086013567ffffffffffffffff81111561212a57612129611df7565b5b6121368882890161208f565b925050608086013567ffffffffffffffff81111561215757612156611df7565b5b6121638882890161208f565b9150509295509295909350565b60006020828403121561218657612185611df2565b5b600061219484828501611e13565b91505092915050565b6121a681611c70565b82525050565b60006020820190506121c1600083018461219d565b92915050565b6000806000606084860312156121e0576121df611df2565b5b60006121ee86828701611e13565b93505060206121ff86828701611e49565b925050604084013567ffffffffffffffff8111156122205761221f611df7565b5b61222c8682870161208f565b9150509250925092565b6000806040838503121561224d5761224c611df2565b5b600061225b85828601611e13565b925050602061226c85828601611e13565b9150509250929050565b600080600080608085870312156122905761228f611df2565b5b600061229e87828801611e13565b94505060206122af87828801611e49565b935050604085013567ffffffffffffffff8111156122d0576122cf611df7565b5b6122dc8782880161208f565b925050606085013567ffffffffffffffff8111156122fd576122fc611df7565b5b6123098782880161208f565b91505092959194509250565b6000806040838503121561232c5761232b611df2565b5b600061233a85828601611e49565b925050602083013567ffffffffffffffff81111561235b5761235a611df7565b5b6123678582860161208f565b9150509250929050565b7f4e487b7100000000000000000000000000000000000000000000000000000000600052602260045260246000fd5b600060028204905060018216806123b857607f821691505b6020821081036123cb576123ca612371565b5b50919050565b7f4552433737373a2063616c6c6572206973206e6f7420616e206f70657261746f60008201527f7220666f7220686f6c6465720000000000000000000000000000000000000000602082015250565b600061242d602c83611d41565b9150612438826123d1565b604082019050919050565b6000602082019050818103600083015261245c81612420565b9050919050565b7f4552433737373a20617574686f72697a696e672073656c66206173206f70657260008201527f61746f7200000000000000000000000000000000000000000000000000000000602082015250565b60006124bf602483611d41565b91506124ca82612463565b604082019050919050565b600060208201905081810360008301526124ee816124b2565b9050919050565b7f4f776e61626c653a206e6577206f776e657220697320746865207a65726f206160008201527f6464726573730000000000000000000000000000000000000000000000000000602082015250565b6000612551602683611d41565b915061255c826124f5565b604082019050919050565b6000602082019050818103600083015261258081612544565b9050919050565b7f4552433737373a207265766f6b696e672073656c66206173206f70657261746f60008201527f7200000000000000000000000000000000000000000000000000000000000000602082015250565b60006125e3602183611d41565b91506125ee82612587565b604082019050919050565b60006020820190508181036000830152612612816125d6565b9050919050565b7f4552433737373a20617070726f76652066726f6d20746865207a65726f20616460008201527f6472657373000000000000000000000000000000000000000000000000000000602082015250565b6000612675602583611d41565b915061268082612619565b604082019050919050565b600060208201905081810360008301526126a481612668565b9050919050565b7f4552433737373a20617070726f766520746f20746865207a65726f206164647260008201527f6573730000000000000000000000000000000000000000000000000000000000602082015250565b6000612707602383611d41565b9150612712826126ab565b604082019050919050565b60006020820190508181036000830152612736816126fa565b9050919050565b7f4552433737373a20696e73756666696369656e7420616c6c6f77616e63650000600082015250565b6000612773601e83611d41565b915061277e8261273d565b602082019050919050565b600060208201905081810360008301526127a281612766565b9050919050565b7f4552433737373a207472616e736665722066726f6d20746865207a65726f206160008201527f6464726573730000000000000000000000000000000000000000000000000000602082015250565b6000612805602683611d41565b9150612810826127a9565b604082019050919050565b60006020820190508181036000830152612834816127f8565b9050919050565b7f4552433737373a207472616e7366657220746f20746865207a65726f2061646460008201527f7265737300000000000000000000000000000000000000000000000000000000602082015250565b6000612897602483611d41565b91506128a28261283b565b604082019050919050565b600060208201905081810360008301526128c68161288a565b9050919050565b7f4f776e61626c653a2063616c6c6572206973206e6f7420746865206f776e6572600082015250565b6000612903602083611d41565b915061290e826128cd565b602082019050919050565b60006020820190508181036000830152612932816128f6565b9050919050565b7f4552433737373a206275726e2066726f6d20746865207a65726f20616464726560008201527f7373000000000000000000000000000000000000000000000000000000000000602082015250565b6000612995602283611d41565b91506129a082612939565b604082019050919050565b600060208201905081810360008301526129c481612988565b9050919050565b7f4552433737373a206275726e20616d6f756e7420657863656564732062616c6160008201527f6e63650000000000000000000000000000000000000000000000000000000000602082015250565b6000612a27602383611d41565b9150612a32826129cb565b604082019050919050565b60006020820190508181036000830152612a5681612a1a565b9050919050565b7f4e487b7100000000000000000000000000000000000000000000000000000000600052601160045260246000fd5b6000612a9782611e28565b9150612aa283611e28565b9250828203905081811115612aba57612ab9612a5d565b5b92915050565b600081519050919050565b600082825260208201905092915050565b6000612ae782612ac0565b612af18185612acb565b9350612b01818560208601611d52565b612b0a81611d7c565b840191505092915050565b6000606082019050612b2a6000830186611ed4565b8181036020830152612b3c8185612adc565b90508181036040830152612b508184612adc565b9050949350505050565b6000819050919050565b612b6d81612b5a565b82525050565b6000604082019050612b88600083018561219d565b612b956020830184612b64565b9392505050565b600081519050612bab81611dfc565b92915050565b600060208284031215612bc757612bc6611df2565b5b6000612bd584828501612b9c565b91505092915050565b600060c082019050612bf3600083018961219d565b612c00602083018861219d565b612c0d604083018761219d565b612c1a6060830186611ed4565b8181036080830152612c2c8185612adc565b905081810360a0830152612c408184612adc565b9050979650505050505050565b7f4552433737373a207472616e7366657220616d6f756e7420657863656564732060008201527f62616c616e636500000000000000000000000000000000000000000000000000602082015250565b6000612ca9602783611d41565b9150612cb482612c4d565b604082019050919050565b60006020820190508181036000830152612cd881612c9c565b9050919050565b6000612cea82611e28565b9150612cf583611e28565b9250828201905080821115612d0d57612d0c612a5d565b5b92915050565b7f4552433737373a20746f6b656e20726563697069656e7420636f6e747261637460008201527f20686173206e6f20696d706c656d656e74657220666f7220455243373737546f60208201527f6b656e73526563697069656e7400000000000000000000000000000000000000604082015250565b6000612d95604d83611d41565b9150612da082612d13565b606082019050919050565b60006020820190508181036000830152612dc481612d88565b905091905056fea2646970667358221220f8582629d2d635c5d87ce1085e7fcdcc73f11630ab16f9bb6d440de33dd24b8864736f6c63430008110033a26469706673582212208585faafbd92bdf6aae4ce180888de0190d987b7fc21f6c13544b6679f7b0c7164736f6c63430008110033",
  "immutableReferences": {},
  "source": "// SPDX-License-Identifier: MIT\npragma solidity ^0.8.17;\n\nimport \"@openzeppelin/contracts/access/Ownable.sol\";\nimport \"./Organizer.sol\";\nimport \"./Ticket.sol\";\n\ncontract Event is Ownable {\n    Organizer organizer;\n    string public name;\n    string public description;\n    string public venue_address;\n    uint256 public start_datetime;\n    uint256 public end_datetime;\n    Ticket[] tickets;\n\n    constructor(\n        address _organizer,\n        string memory _name,\n        string memory _description,\n        string memory _venue_address,\n        uint256 _start_datetime,\n        uint256 _end_datetime\n    ) {\n        organizer = Organizer(_organizer);\n        name = _name;\n        description = _description;\n        venue_address = _venue_address;\n        start_datetime = _start_datetime;\n        end_datetime = _end_datetime;\n    }\n\n    function create_ticket(\n        // string memory _name,\n        // uint256 _price,\n        uint256 _quantity\n    ) public onlyOwner {\n        address[] memory defaultOperators;\n        tickets.push(new Ticket(_quantity, defaultOperators));\n    }\n\n    function delete_event() public onlyOwner {\n        // TODO: first reimburse ticket owners\n        selfdestruct(payable(organizer.account.address));\n    }\n}\n",
  "sourcePath": "/home/flaprimo/Development/decentralized-ticket-sales/backend/contracts/Event.sol",
  "compiler": {
    "name": "solc",
    "version": "0.8.17+commit.8df45f5f.Emscripten.clang"
  },
  "schemaVersion": "3.4.10",
  "updatedAt": "2023-01-16T08:26:46.225Z",
  "devdoc": {
    "kind": "dev",
    "methods": {
      "owner()": {
        "details": "Returns the address of the current owner."
      },
      "renounceOwnership()": {
        "details": "Leaves the contract without owner. It will not be possible to call `onlyOwner` functions anymore. Can only be called by the current owner. NOTE: Renouncing ownership will leave the contract without an owner, thereby removing any functionality that is only available to the owner."
      },
      "transferOwnership(address)": {
        "details": "Transfers ownership of the contract to a new account (`newOwner`). Can only be called by the current owner."
      }
    },
    "version": 1
  },
  "userdoc": {
    "kind": "user",
    "methods": {},
    "version": 1
  }
}