{
  "contractName": "Organizer",
  "abi": [
    {
      "inputs": [],
      "stateMutability": "nonpayable",
      "type": "constructor"
    },
    {
      "anonymous": false,
      "inputs": [
        {
          "indexed": true,
          "internalType": "address",
          "name": "_admin",
          "type": "address"
        },
        {
          "indexed": false,
          "internalType": "string",
          "name": "_name",
          "type": "string"
        },
        {
          "indexed": false,
          "internalType": "string",
          "name": "_description",
          "type": "string"
        }
      ],
      "name": "OrganizerCreated",
      "type": "event"
    },
    {
      "anonymous": false,
      "inputs": [
        {
          "indexed": true,
          "internalType": "address",
          "name": "previousOwner",
          "type": "address"
        },
        {
          "indexed": true,
          "internalType": "address",
          "name": "newOwner",
          "type": "address"
        }
      ],
      "name": "OwnershipTransferred",
      "type": "event"
    },
    {
      "inputs": [
        {
          "internalType": "uint256",
          "name": "",
          "type": "uint256"
        }
      ],
      "name": "organizer_list",
      "outputs": [
        {
          "internalType": "address",
          "name": "",
          "type": "address"
        }
      ],
      "stateMutability": "view",
      "type": "function"
    },
    {
      "inputs": [
        {
          "internalType": "address",
          "name": "",
          "type": "address"
        }
      ],
      "name": "organizers",
      "outputs": [
        {
          "internalType": "string",
          "name": "name",
          "type": "string"
        },
        {
          "internalType": "string",
          "name": "description",
          "type": "string"
        },
        {
          "internalType": "bool",
          "name": "is_set",
          "type": "bool"
        }
      ],
      "stateMutability": "view",
      "type": "function"
    },
    {
      "inputs": [],
      "name": "owner",
      "outputs": [
        {
          "internalType": "address",
          "name": "",
          "type": "address"
        }
      ],
      "stateMutability": "view",
      "type": "function"
    },
    {
      "inputs": [],
      "name": "renounceOwnership",
      "outputs": [],
      "stateMutability": "nonpayable",
      "type": "function"
    },
    {
      "inputs": [
        {
          "internalType": "address",
          "name": "newOwner",
          "type": "address"
        }
      ],
      "name": "transferOwnership",
      "outputs": [],
      "stateMutability": "nonpayable",
      "type": "function"
    },
    {
      "inputs": [
        {
          "internalType": "string",
          "name": "_name",
          "type": "string"
        },
        {
          "internalType": "string",
          "name": "_description",
          "type": "string"
        }
      ],
      "name": "create_organizer",
      "outputs": [],
      "stateMutability": "nonpayable",
      "type": "function"
    },
    {
      "inputs": [
        {
          "internalType": "address",
          "name": "_organizer_address",
          "type": "address"
        }
      ],
      "name": "is_organizer",
      "outputs": [
        {
          "internalType": "bool",
          "name": "",
          "type": "bool"
        }
      ],
      "stateMutability": "view",
      "type": "function"
    }
  ],
  "bytecode": "0x608060405234801561001057600080fd5b5061002d61002261003260201b60201c565b61003a60201b60201c565b6100fe565b600033905090565b60008060009054906101000a900473ffffffffffffffffffffffffffffffffffffffff169050816000806101000a81548173ffffffffffffffffffffffffffffffffffffffff021916908373ffffffffffffffffffffffffffffffffffffffff1602179055508173ffffffffffffffffffffffffffffffffffffffff168173ffffffffffffffffffffffffffffffffffffffff167f8be0079c531659141344cd1fd0a4f28419497f9722a3daafe3b4186f6b6457e060405160405180910390a35050565b610fe88061010d6000396000f3fe608060405234801561001057600080fd5b506004361061007c5760003560e01c80638da5cb5b1161005b5780638da5cb5b146100d9578063cdd25a28146100f7578063ee23e2be14610127578063f2fde38b146101575761007c565b80626e4c85146100815780630544c5b91461009d578063715018a6146100cf575b600080fd5b61009b600480360381019061009691906108a9565b610173565b005b6100b760048036038101906100b2919061097f565b610366565b6040516100c693929190610a46565b60405180910390f35b6100d76104ad565b005b6100e16104c1565b6040516100ee9190610a9a565b60405180910390f35b610111600480360381019061010c9190610aeb565b6104ea565b60405161011e9190610a9a565b60405180910390f35b610141600480360381019061013c919061097f565b610529565b60405161014e9190610b18565b60405180910390f35b610171600480360381019061016c919061097f565b610582565b005b600160003373ffffffffffffffffffffffffffffffffffffffff1673ffffffffffffffffffffffffffffffffffffffff16815260200190815260200160002060020160009054906101000a900460ff1615610203576040517f08c379a00000000000000000000000000000000000000000000000000000000081526004016101fa90610b7f565b60405180910390fd5b604051806060016040528083815260200182815260200160011515815250600160003373ffffffffffffffffffffffffffffffffffffffff1673ffffffffffffffffffffffffffffffffffffffff16815260200190815260200160002060008201518160000190816102759190610dab565b50602082015181600101908161028b9190610dab565b5060408201518160020160006101000a81548160ff0219169083151502179055509050506002339080600181540180825580915050600190039060005260206000200160009091909190916101000a81548173ffffffffffffffffffffffffffffffffffffffff021916908373ffffffffffffffffffffffffffffffffffffffff1602179055503373ffffffffffffffffffffffffffffffffffffffff167f53d3042b99dbed472c43c3db1f8e52b67f4190a208f45ee664b70cbadad21188838360405161035a929190610e7d565b60405180910390a25050565b600160205280600052604060002060009150905080600001805461038990610bce565b80601f01602080910402602001604051908101604052809291908181526020018280546103b590610bce565b80156104025780601f106103d757610100808354040283529160200191610402565b820191906000526020600020905b8154815290600101906020018083116103e557829003601f168201915b50505050509080600101805461041790610bce565b80601f016020809104026020016040519081016040528092919081815260200182805461044390610bce565b80156104905780601f1061046557610100808354040283529160200191610490565b820191906000526020600020905b81548152906001019060200180831161047357829003601f168201915b5050505050908060020160009054906101000a900460ff16905083565b6104b5610605565b6104bf6000610683565b565b60008060009054906101000a900473ffffffffffffffffffffffffffffffffffffffff16905090565b600281815481106104fa57600080fd5b906000526020600020016000915054906101000a900473ffffffffffffffffffffffffffffffffffffffff1681565b6000600160008373ffffffffffffffffffffffffffffffffffffffff1673ffffffffffffffffffffffffffffffffffffffff16815260200190815260200160002060020160009054906101000a900460ff169050919050565b61058a610605565b600073ffffffffffffffffffffffffffffffffffffffff168173ffffffffffffffffffffffffffffffffffffffff16036105f9576040517f08c379a00000000000000000000000000000000000000000000000000000000081526004016105f090610f26565b60405180910390fd5b61060281610683565b50565b61060d610747565b73ffffffffffffffffffffffffffffffffffffffff1661062b6104c1565b73ffffffffffffffffffffffffffffffffffffffff1614610681576040517f08c379a000000000000000000000000000000000000000000000000000000000815260040161067890610f92565b60405180910390fd5b565b60008060009054906101000a900473ffffffffffffffffffffffffffffffffffffffff169050816000806101000a81548173ffffffffffffffffffffffffffffffffffffffff021916908373ffffffffffffffffffffffffffffffffffffffff1602179055508173ffffffffffffffffffffffffffffffffffffffff168173ffffffffffffffffffffffffffffffffffffffff167f8be0079c531659141344cd1fd0a4f28419497f9722a3daafe3b4186f6b6457e060405160405180910390a35050565b600033905090565b6000604051905090565b600080fd5b600080fd5b600080fd5b600080fd5b6000601f19601f8301169050919050565b7f4e487b7100000000000000000000000000000000000000000000000000000000600052604160045260246000fd5b6107b68261076d565b810181811067ffffffffffffffff821117156107d5576107d461077e565b5b80604052505050565b60006107e861074f565b90506107f482826107ad565b919050565b600067ffffffffffffffff8211156108145761081361077e565b5b61081d8261076d565b9050602081019050919050565b82818337600083830152505050565b600061084c610847846107f9565b6107de565b90508281526020810184848401111561086857610867610768565b5b61087384828561082a565b509392505050565b600082601f8301126108905761088f610763565b5b81356108a0848260208601610839565b91505092915050565b600080604083850312156108c0576108bf610759565b5b600083013567ffffffffffffffff8111156108de576108dd61075e565b5b6108ea8582860161087b565b925050602083013567ffffffffffffffff81111561090b5761090a61075e565b5b6109178582860161087b565b9150509250929050565b600073ffffffffffffffffffffffffffffffffffffffff82169050919050565b600061094c82610921565b9050919050565b61095c81610941565b811461096757600080fd5b50565b60008135905061097981610953565b92915050565b60006020828403121561099557610994610759565b5b60006109a38482850161096a565b91505092915050565b600081519050919050565b600082825260208201905092915050565b60005b838110156109e65780820151818401526020810190506109cb565b60008484015250505050565b60006109fd826109ac565b610a0781856109b7565b9350610a178185602086016109c8565b610a208161076d565b840191505092915050565b60008115159050919050565b610a4081610a2b565b82525050565b60006060820190508181036000830152610a6081866109f2565b90508181036020830152610a7481856109f2565b9050610a836040830184610a37565b949350505050565b610a9481610941565b82525050565b6000602082019050610aaf6000830184610a8b565b92915050565b6000819050919050565b610ac881610ab5565b8114610ad357600080fd5b50565b600081359050610ae581610abf565b92915050565b600060208284031215610b0157610b00610759565b5b6000610b0f84828501610ad6565b91505092915050565b6000602082019050610b2d6000830184610a37565b92915050565b7f53656e64657220697320616c726561647920616e206f7267616e697a65720000600082015250565b6000610b69601e836109b7565b9150610b7482610b33565b602082019050919050565b60006020820190508181036000830152610b9881610b5c565b9050919050565b7f4e487b7100000000000000000000000000000000000000000000000000000000600052602260045260246000fd5b60006002820490506001821680610be657607f821691505b602082108103610bf957610bf8610b9f565b5b50919050565b60008190508160005260206000209050919050565b60006020601f8301049050919050565b600082821b905092915050565b600060088302610c617fffffffffffffffffffffffffffffffffffffffffffffffffffffffffffffffff82610c24565b610c6b8683610c24565b95508019841693508086168417925050509392505050565b6000819050919050565b6000610ca8610ca3610c9e84610ab5565b610c83565b610ab5565b9050919050565b6000819050919050565b610cc283610c8d565b610cd6610cce82610caf565b848454610c31565b825550505050565b600090565b610ceb610cde565b610cf6818484610cb9565b505050565b5b81811015610d1a57610d0f600082610ce3565b600181019050610cfc565b5050565b601f821115610d5f57610d3081610bff565b610d3984610c14565b81016020851015610d48578190505b610d5c610d5485610c14565b830182610cfb565b50505b505050565b600082821c905092915050565b6000610d8260001984600802610d64565b1980831691505092915050565b6000610d9b8383610d71565b9150826002028217905092915050565b610db4826109ac565b67ffffffffffffffff811115610dcd57610dcc61077e565b5b610dd78254610bce565b610de2828285610d1e565b600060209050601f831160018114610e155760008415610e03578287015190505b610e0d8582610d8f565b865550610e75565b601f198416610e2386610bff565b60005b82811015610e4b57848901518255600182019150602085019450602081019050610e26565b86831015610e685784890151610e64601f891682610d71565b8355505b6001600288020188555050505b505050505050565b60006040820190508181036000830152610e9781856109f2565b90508181036020830152610eab81846109f2565b90509392505050565b7f4f776e61626c653a206e6577206f776e657220697320746865207a65726f206160008201527f6464726573730000000000000000000000000000000000000000000000000000602082015250565b6000610f106026836109b7565b9150610f1b82610eb4565b604082019050919050565b60006020820190508181036000830152610f3f81610f03565b9050919050565b7f4f776e61626c653a2063616c6c6572206973206e6f7420746865206f776e6572600082015250565b6000610f7c6020836109b7565b9150610f8782610f46565b602082019050919050565b60006020820190508181036000830152610fab81610f6f565b905091905056fea26469706673582212206c027f4f2a360896a43ba850d176a1902c1676d1d251ead94e0a352ddf2f424f64736f6c63430008110033",
  "immutableReferences": {},
  "source": "// SPDX-License-Identifier: MIT\npragma solidity ^0.8.17;\n\nimport \"@openzeppelin/contracts/access/Ownable.sol\";\n\ninterface IOrganizer {\n    struct OrganizerStruct {\n        string name;\n        string description;\n        bool is_set;\n    }\n\n    function create_organizer(string memory _name, string memory _description)\n        external;\n\n    function is_organizer(address _organizer_address)\n        external\n        view\n        returns (bool);\n}\n\ncontract Organizer is IOrganizer, Ownable {\n    mapping(address => OrganizerStruct) public organizers;\n    address[] public organizer_list;\n\n    event OrganizerCreated(\n        address indexed _admin,\n        string _name,\n        string _description\n    );\n\n    constructor() {}\n\n    modifier organizerNotExists() {\n        require(\n            !organizers[msg.sender].is_set,\n            \"Sender is already an organizer\"\n        );\n        _;\n    }\n\n    // Functions\n    function create_organizer(string memory _name, string memory _description)\n        external\n        organizerNotExists\n    {\n        organizers[msg.sender] = OrganizerStruct(_name, _description, true);\n        organizer_list.push(msg.sender);\n        emit OrganizerCreated(msg.sender, _name, _description);\n    }\n\n    function is_organizer(address _organizer_address)\n        external\n        view\n        returns (bool)\n    {\n        return organizers[_organizer_address].is_set;\n    }\n}\n",
  "sourcePath": "/home/flaprimo/Development/decentralized-ticket-sales/backend/contracts/Organizer.sol",
  "compiler": {
    "name": "solc",
    "version": "0.8.17+commit.8df45f5f.Emscripten.clang"
  },
  "schemaVersion": "3.4.10",
  "updatedAt": "2023-01-21T13:40:39.191Z",
  "devdoc": {
    "kind": "dev",
    "methods": {
      "owner()": {
        "details": "Returns the address of the current owner."
      },
      "renounceOwnership()": {
        "details": "Leaves the contract without owner. It will not be possible to call `onlyOwner` functions anymore. Can only be called by the current owner. NOTE: Renouncing ownership will leave the contract without an owner, thereby removing any functionality that is only available to the owner."
      },
      "transferOwnership(address)": {
        "details": "Transfers ownership of the contract to a new account (`newOwner`). Can only be called by the current owner."
      }
    },
    "version": 1
  },
  "userdoc": {
    "kind": "user",
    "methods": {},
    "version": 1
  }
}