{
  "contractName": "Organizer",
  "abi": [
    {
      "anonymous": false,
      "inputs": [
        {
          "indexed": false,
          "internalType": "uint8",
          "name": "version",
          "type": "uint8"
        }
      ],
      "name": "Initialized",
      "type": "event"
    },
    {
      "anonymous": false,
      "inputs": [
        {
          "indexed": true,
          "internalType": "address",
          "name": "_admin",
          "type": "address"
        },
        {
          "indexed": false,
          "internalType": "string",
          "name": "_name",
          "type": "string"
        },
        {
          "indexed": false,
          "internalType": "string",
          "name": "_description",
          "type": "string"
        }
      ],
      "name": "OrganizerCreated",
      "type": "event"
    },
    {
      "anonymous": false,
      "inputs": [
        {
          "indexed": true,
          "internalType": "address",
          "name": "previousOwner",
          "type": "address"
        },
        {
          "indexed": true,
          "internalType": "address",
          "name": "newOwner",
          "type": "address"
        }
      ],
      "name": "OwnershipTransferred",
      "type": "event"
    },
    {
      "inputs": [
        {
          "internalType": "uint256",
          "name": "",
          "type": "uint256"
        }
      ],
      "name": "organizer_list",
      "outputs": [
        {
          "internalType": "address",
          "name": "",
          "type": "address"
        }
      ],
      "stateMutability": "view",
      "type": "function",
      "constant": true
    },
    {
      "inputs": [
        {
          "internalType": "address",
          "name": "",
          "type": "address"
        }
      ],
      "name": "organizers",
      "outputs": [
        {
          "internalType": "string",
          "name": "name",
          "type": "string"
        },
        {
          "internalType": "string",
          "name": "description",
          "type": "string"
        },
        {
          "internalType": "bool",
          "name": "is_set",
          "type": "bool"
        }
      ],
      "stateMutability": "view",
      "type": "function",
      "constant": true
    },
    {
      "inputs": [],
      "name": "owner",
      "outputs": [
        {
          "internalType": "address",
          "name": "",
          "type": "address"
        }
      ],
      "stateMutability": "view",
      "type": "function",
      "constant": true
    },
    {
      "inputs": [],
      "name": "renounceOwnership",
      "outputs": [],
      "stateMutability": "nonpayable",
      "type": "function"
    },
    {
      "inputs": [
        {
          "internalType": "address",
          "name": "newOwner",
          "type": "address"
        }
      ],
      "name": "transferOwnership",
      "outputs": [],
      "stateMutability": "nonpayable",
      "type": "function"
    },
    {
      "inputs": [
        {
          "internalType": "string",
          "name": "_name",
          "type": "string"
        },
        {
          "internalType": "string",
          "name": "_description",
          "type": "string"
        }
      ],
      "name": "create_organizer",
      "outputs": [],
      "stateMutability": "nonpayable",
      "type": "function"
    },
    {
      "inputs": [
        {
          "internalType": "address",
          "name": "_organizer_address",
          "type": "address"
        }
      ],
      "name": "is_organizer",
      "outputs": [
        {
          "internalType": "bool",
          "name": "",
          "type": "bool"
        }
      ],
      "stateMutability": "view",
      "type": "function",
      "constant": true
    },
    {
      "inputs": [],
      "name": "organizers_length",
      "outputs": [
        {
          "internalType": "uint256",
          "name": "",
          "type": "uint256"
        }
      ],
      "stateMutability": "view",
      "type": "function",
      "constant": true
    }
  ],
  "bytecode": "0x608060405234801561001057600080fd5b5061104b806100206000396000f3fe608060405234801561001057600080fd5b50600436106100875760003560e01c80638da5cb5b1161005b5780638da5cb5b14610102578063cdd25a2814610120578063ee23e2be14610150578063f2fde38b1461018057610087565b80626e4c851461008c5780630544c5b9146100a8578063715018a6146100da5780637b2cb8e6146100e4575b600080fd5b6100a660048036038101906100a191906108e2565b61019c565b005b6100c260048036038101906100bd91906109b8565b61038f565b6040516100d193929190610a7f565b60405180910390f35b6100e26104d6565b005b6100ec6104ea565b6040516100f99190610add565b60405180910390f35b61010a6104f7565b6040516101179190610b07565b60405180910390f35b61013a60048036038101906101359190610b4e565b610521565b6040516101479190610b07565b60405180910390f35b61016a600480360381019061016591906109b8565b610560565b6040516101779190610b7b565b60405180910390f35b61019a600480360381019061019591906109b8565b6105b9565b005b606560003373ffffffffffffffffffffffffffffffffffffffff1673ffffffffffffffffffffffffffffffffffffffff16815260200190815260200160002060020160009054906101000a900460ff161561022c576040517f08c379a000000000000000000000000000000000000000000000000000000000815260040161022390610be2565b60405180910390fd5b604051806060016040528083815260200182815260200160011515815250606560003373ffffffffffffffffffffffffffffffffffffffff1673ffffffffffffffffffffffffffffffffffffffff168152602001908152602001600020600082015181600001908161029e9190610e0e565b5060208201518160010190816102b49190610e0e565b5060408201518160020160006101000a81548160ff0219169083151502179055509050506066339080600181540180825580915050600190039060005260206000200160009091909190916101000a81548173ffffffffffffffffffffffffffffffffffffffff021916908373ffffffffffffffffffffffffffffffffffffffff1602179055503373ffffffffffffffffffffffffffffffffffffffff167f53d3042b99dbed472c43c3db1f8e52b67f4190a208f45ee664b70cbadad211888383604051610383929190610ee0565b60405180910390a25050565b60656020528060005260406000206000915090508060000180546103b290610c31565b80601f01602080910402602001604051908101604052809291908181526020018280546103de90610c31565b801561042b5780601f106104005761010080835404028352916020019161042b565b820191906000526020600020905b81548152906001019060200180831161040e57829003601f168201915b50505050509080600101805461044090610c31565b80601f016020809104026020016040519081016040528092919081815260200182805461046c90610c31565b80156104b95780601f1061048e576101008083540402835291602001916104b9565b820191906000526020600020905b81548152906001019060200180831161049c57829003601f168201915b5050505050908060020160009054906101000a900460ff16905083565b6104de61063c565b6104e860006106ba565b565b6000606680549050905090565b6000603360009054906101000a900473ffffffffffffffffffffffffffffffffffffffff16905090565b6066818154811061053157600080fd5b906000526020600020016000915054906101000a900473ffffffffffffffffffffffffffffffffffffffff1681565b6000606560008373ffffffffffffffffffffffffffffffffffffffff1673ffffffffffffffffffffffffffffffffffffffff16815260200190815260200160002060020160009054906101000a900460ff169050919050565b6105c161063c565b600073ffffffffffffffffffffffffffffffffffffffff168173ffffffffffffffffffffffffffffffffffffffff1603610630576040517f08c379a000000000000000000000000000000000000000000000000000000000815260040161062790610f89565b60405180910390fd5b610639816106ba565b50565b610644610780565b73ffffffffffffffffffffffffffffffffffffffff166106626104f7565b73ffffffffffffffffffffffffffffffffffffffff16146106b8576040517f08c379a00000000000000000000000000000000000000000000000000000000081526004016106af90610ff5565b60405180910390fd5b565b6000603360009054906101000a900473ffffffffffffffffffffffffffffffffffffffff16905081603360006101000a81548173ffffffffffffffffffffffffffffffffffffffff021916908373ffffffffffffffffffffffffffffffffffffffff1602179055508173ffffffffffffffffffffffffffffffffffffffff168173ffffffffffffffffffffffffffffffffffffffff167f8be0079c531659141344cd1fd0a4f28419497f9722a3daafe3b4186f6b6457e060405160405180910390a35050565b600033905090565b6000604051905090565b600080fd5b600080fd5b600080fd5b600080fd5b6000601f19601f8301169050919050565b7f4e487b7100000000000000000000000000000000000000000000000000000000600052604160045260246000fd5b6107ef826107a6565b810181811067ffffffffffffffff8211171561080e5761080d6107b7565b5b80604052505050565b6000610821610788565b905061082d82826107e6565b919050565b600067ffffffffffffffff82111561084d5761084c6107b7565b5b610856826107a6565b9050602081019050919050565b82818337600083830152505050565b600061088561088084610832565b610817565b9050828152602081018484840111156108a1576108a06107a1565b5b6108ac848285610863565b509392505050565b600082601f8301126108c9576108c861079c565b5b81356108d9848260208601610872565b91505092915050565b600080604083850312156108f9576108f8610792565b5b600083013567ffffffffffffffff81111561091757610916610797565b5b610923858286016108b4565b925050602083013567ffffffffffffffff81111561094457610943610797565b5b610950858286016108b4565b9150509250929050565b600073ffffffffffffffffffffffffffffffffffffffff82169050919050565b60006109858261095a565b9050919050565b6109958161097a565b81146109a057600080fd5b50565b6000813590506109b28161098c565b92915050565b6000602082840312156109ce576109cd610792565b5b60006109dc848285016109a3565b91505092915050565b600081519050919050565b600082825260208201905092915050565b60005b83811015610a1f578082015181840152602081019050610a04565b60008484015250505050565b6000610a36826109e5565b610a4081856109f0565b9350610a50818560208601610a01565b610a59816107a6565b840191505092915050565b60008115159050919050565b610a7981610a64565b82525050565b60006060820190508181036000830152610a998186610a2b565b90508181036020830152610aad8185610a2b565b9050610abc6040830184610a70565b949350505050565b6000819050919050565b610ad781610ac4565b82525050565b6000602082019050610af26000830184610ace565b92915050565b610b018161097a565b82525050565b6000602082019050610b1c6000830184610af8565b92915050565b610b2b81610ac4565b8114610b3657600080fd5b50565b600081359050610b4881610b22565b92915050565b600060208284031215610b6457610b63610792565b5b6000610b7284828501610b39565b91505092915050565b6000602082019050610b906000830184610a70565b92915050565b7f53656e64657220697320616c726561647920616e206f7267616e697a65720000600082015250565b6000610bcc601e836109f0565b9150610bd782610b96565b602082019050919050565b60006020820190508181036000830152610bfb81610bbf565b9050919050565b7f4e487b7100000000000000000000000000000000000000000000000000000000600052602260045260246000fd5b60006002820490506001821680610c4957607f821691505b602082108103610c5c57610c5b610c02565b5b50919050565b60008190508160005260206000209050919050565b60006020601f8301049050919050565b600082821b905092915050565b600060088302610cc47fffffffffffffffffffffffffffffffffffffffffffffffffffffffffffffffff82610c87565b610cce8683610c87565b95508019841693508086168417925050509392505050565b6000819050919050565b6000610d0b610d06610d0184610ac4565b610ce6565b610ac4565b9050919050565b6000819050919050565b610d2583610cf0565b610d39610d3182610d12565b848454610c94565b825550505050565b600090565b610d4e610d41565b610d59818484610d1c565b505050565b5b81811015610d7d57610d72600082610d46565b600181019050610d5f565b5050565b601f821115610dc257610d9381610c62565b610d9c84610c77565b81016020851015610dab578190505b610dbf610db785610c77565b830182610d5e565b50505b505050565b600082821c905092915050565b6000610de560001984600802610dc7565b1980831691505092915050565b6000610dfe8383610dd4565b9150826002028217905092915050565b610e17826109e5565b67ffffffffffffffff811115610e3057610e2f6107b7565b5b610e3a8254610c31565b610e45828285610d81565b600060209050601f831160018114610e785760008415610e66578287015190505b610e708582610df2565b865550610ed8565b601f198416610e8686610c62565b60005b82811015610eae57848901518255600182019150602085019450602081019050610e89565b86831015610ecb5784890151610ec7601f891682610dd4565b8355505b6001600288020188555050505b505050505050565b60006040820190508181036000830152610efa8185610a2b565b90508181036020830152610f0e8184610a2b565b90509392505050565b7f4f776e61626c653a206e6577206f776e657220697320746865207a65726f206160008201527f6464726573730000000000000000000000000000000000000000000000000000602082015250565b6000610f736026836109f0565b9150610f7e82610f17565b604082019050919050565b60006020820190508181036000830152610fa281610f66565b9050919050565b7f4f776e61626c653a2063616c6c6572206973206e6f7420746865206f776e6572600082015250565b6000610fdf6020836109f0565b9150610fea82610fa9565b602082019050919050565b6000602082019050818103600083015261100e81610fd2565b905091905056fea2646970667358221220fda4fa0724ecb6ddd2537007b198199aff3ab05122d7e56ab0d4d72b1b8b5d5064736f6c63430008110033",
  "immutableReferences": {},
  "source": "// SPDX-License-Identifier: MIT\npragma solidity ^0.8.17;\n\nimport \"@openzeppelin/contracts-upgradeable/access/OwnableUpgradeable.sol\";\n\ninterface IOrganizer {\n    struct OrganizerStruct {\n        string name;\n        string description;\n        bool is_set;\n    }\n\n    function create_organizer(string memory _name, string memory _description)\n        external;\n\n    function is_organizer(address _organizer_address)\n        external\n        view\n        returns (bool);\n\n    function organizers_length() external view returns (uint256);\n}\n\ncontract Organizer is IOrganizer, OwnableUpgradeable {\n    mapping(address => OrganizerStruct) public organizers;\n    address[] public organizer_list;\n\n    event OrganizerCreated(\n        address indexed _admin,\n        string _name,\n        string _description\n    );\n\n    // constructor() {}\n\n    modifier organizerNotExists() {\n        require(\n            !organizers[msg.sender].is_set,\n            \"Sender is already an organizer\"\n        );\n        _;\n    }\n\n    // Functions\n    function create_organizer(string memory _name, string memory _description)\n        external\n        organizerNotExists\n    {\n        organizers[msg.sender] = OrganizerStruct(_name, _description, true);\n        organizer_list.push(msg.sender);\n        emit OrganizerCreated(msg.sender, _name, _description);\n    }\n\n    function is_organizer(address _organizer_address)\n        external\n        view\n        returns (bool)\n    {\n        return organizers[_organizer_address].is_set;\n    }\n\n    function organizers_length() external view returns (uint256) {\n        return organizer_list.length;\n    }\n}\n",
  "sourcePath": "/home/flaprimo/Development/decentralized-ticket-sales/backend/contracts/Organizer.sol",
  "compiler": {
    "name": "solc",
    "version": "0.8.17+commit.8df45f5f.Emscripten.clang"
  },
  "schemaVersion": "3.4.10",
  "updatedAt": "2023-01-28T15:53:21.027Z",
  "networkType": "ethereum",
  "devdoc": {
    "kind": "dev",
    "methods": {
      "owner()": {
        "details": "Returns the address of the current owner."
      },
      "renounceOwnership()": {
        "details": "Leaves the contract without owner. It will not be possible to call `onlyOwner` functions anymore. Can only be called by the current owner. NOTE: Renouncing ownership will leave the contract without an owner, thereby removing any functionality that is only available to the owner."
      },
      "transferOwnership(address)": {
        "details": "Transfers ownership of the contract to a new account (`newOwner`). Can only be called by the current owner."
      }
    },
    "version": 1
  },
  "userdoc": {
    "kind": "user",
    "methods": {},
    "version": 1
  }
}