{
  "contractName": "Organizer",
  "abi": [
    {
      "inputs": [],
      "stateMutability": "nonpayable",
      "type": "constructor"
    },
    {
      "anonymous": false,
      "inputs": [
        {
          "indexed": true,
          "internalType": "address",
          "name": "_admin",
          "type": "address"
        },
        {
          "indexed": false,
          "internalType": "string",
          "name": "_name",
          "type": "string"
        },
        {
          "indexed": false,
          "internalType": "string",
          "name": "_description",
          "type": "string"
        }
      ],
      "name": "OrganizerCreated",
      "type": "event"
    },
    {
      "anonymous": false,
      "inputs": [
        {
          "indexed": true,
          "internalType": "address",
          "name": "previousOwner",
          "type": "address"
        },
        {
          "indexed": true,
          "internalType": "address",
          "name": "newOwner",
          "type": "address"
        }
      ],
      "name": "OwnershipTransferred",
      "type": "event"
    },
    {
      "inputs": [
        {
          "internalType": "address",
          "name": "",
          "type": "address"
        }
      ],
      "name": "organizers",
      "outputs": [
        {
          "internalType": "string",
          "name": "name",
          "type": "string"
        },
        {
          "internalType": "string",
          "name": "description",
          "type": "string"
        },
        {
          "internalType": "bool",
          "name": "is_set",
          "type": "bool"
        }
      ],
      "stateMutability": "view",
      "type": "function"
    },
    {
      "inputs": [],
      "name": "owner",
      "outputs": [
        {
          "internalType": "address",
          "name": "",
          "type": "address"
        }
      ],
      "stateMutability": "view",
      "type": "function"
    },
    {
      "inputs": [],
      "name": "renounceOwnership",
      "outputs": [],
      "stateMutability": "nonpayable",
      "type": "function"
    },
    {
      "inputs": [
        {
          "internalType": "address",
          "name": "newOwner",
          "type": "address"
        }
      ],
      "name": "transferOwnership",
      "outputs": [],
      "stateMutability": "nonpayable",
      "type": "function"
    },
    {
      "inputs": [
        {
          "internalType": "string",
          "name": "_name",
          "type": "string"
        },
        {
          "internalType": "string",
          "name": "_description",
          "type": "string"
        }
      ],
      "name": "create_organizer",
      "outputs": [],
      "stateMutability": "nonpayable",
      "type": "function"
    },
    {
      "inputs": [
        {
          "internalType": "address",
          "name": "_organizer_address",
          "type": "address"
        }
      ],
      "name": "is_organizer",
      "outputs": [
        {
          "internalType": "bool",
          "name": "",
          "type": "bool"
        }
      ],
      "stateMutability": "view",
      "type": "function"
    }
  ],
  "bytecode": "0x608060405234801561001057600080fd5b5061002d61002261003260201b60201c565b61003a60201b60201c565b6100fe565b600033905090565b60008060009054906101000a900473ffffffffffffffffffffffffffffffffffffffff169050816000806101000a81548173ffffffffffffffffffffffffffffffffffffffff021916908373ffffffffffffffffffffffffffffffffffffffff1602179055508173ffffffffffffffffffffffffffffffffffffffff168173ffffffffffffffffffffffffffffffffffffffff167f8be0079c531659141344cd1fd0a4f28419497f9722a3daafe3b4186f6b6457e060405160405180910390a35050565b610ea28061010d6000396000f3fe608060405234801561001057600080fd5b50600436106100615760003560e01c80626e4c85146100665780630544c5b914610082578063715018a6146100b45780638da5cb5b146100be578063ee23e2be146100dc578063f2fde38b1461010c575b600080fd5b610080600480360381019061007b91906107bc565b610128565b005b61009c60048036038101906100979190610892565b6102b8565b6040516100ab93929190610959565b60405180910390f35b6100bc6103ff565b005b6100c6610413565b6040516100d391906109ad565b60405180910390f35b6100f660048036038101906100f19190610892565b61043c565b60405161010391906109c8565b60405180910390f35b61012660048036038101906101219190610892565b610495565b005b600160003373ffffffffffffffffffffffffffffffffffffffff1673ffffffffffffffffffffffffffffffffffffffff16815260200190815260200160002060020160009054906101000a900460ff16156101b8576040517f08c379a00000000000000000000000000000000000000000000000000000000081526004016101af90610a2f565b60405180910390fd5b604051806060016040528083815260200182815260200160011515815250600160003373ffffffffffffffffffffffffffffffffffffffff1673ffffffffffffffffffffffffffffffffffffffff168152602001908152602001600020600082015181600001908161022a9190610c65565b5060208201518160010190816102409190610c65565b5060408201518160020160006101000a81548160ff0219169083151502179055509050503373ffffffffffffffffffffffffffffffffffffffff167f53d3042b99dbed472c43c3db1f8e52b67f4190a208f45ee664b70cbadad2118883836040516102ac929190610d37565b60405180910390a25050565b60016020528060005260406000206000915090508060000180546102db90610a7e565b80601f016020809104026020016040519081016040528092919081815260200182805461030790610a7e565b80156103545780601f1061032957610100808354040283529160200191610354565b820191906000526020600020905b81548152906001019060200180831161033757829003601f168201915b50505050509080600101805461036990610a7e565b80601f016020809104026020016040519081016040528092919081815260200182805461039590610a7e565b80156103e25780601f106103b7576101008083540402835291602001916103e2565b820191906000526020600020905b8154815290600101906020018083116103c557829003601f168201915b5050505050908060020160009054906101000a900460ff16905083565b610407610518565b6104116000610596565b565b60008060009054906101000a900473ffffffffffffffffffffffffffffffffffffffff16905090565b6000600160008373ffffffffffffffffffffffffffffffffffffffff1673ffffffffffffffffffffffffffffffffffffffff16815260200190815260200160002060020160009054906101000a900460ff169050919050565b61049d610518565b600073ffffffffffffffffffffffffffffffffffffffff168173ffffffffffffffffffffffffffffffffffffffff160361050c576040517f08c379a000000000000000000000000000000000000000000000000000000000815260040161050390610de0565b60405180910390fd5b61051581610596565b50565b61052061065a565b73ffffffffffffffffffffffffffffffffffffffff1661053e610413565b73ffffffffffffffffffffffffffffffffffffffff1614610594576040517f08c379a000000000000000000000000000000000000000000000000000000000815260040161058b90610e4c565b60405180910390fd5b565b60008060009054906101000a900473ffffffffffffffffffffffffffffffffffffffff169050816000806101000a81548173ffffffffffffffffffffffffffffffffffffffff021916908373ffffffffffffffffffffffffffffffffffffffff1602179055508173ffffffffffffffffffffffffffffffffffffffff168173ffffffffffffffffffffffffffffffffffffffff167f8be0079c531659141344cd1fd0a4f28419497f9722a3daafe3b4186f6b6457e060405160405180910390a35050565b600033905090565b6000604051905090565b600080fd5b600080fd5b600080fd5b600080fd5b6000601f19601f8301169050919050565b7f4e487b7100000000000000000000000000000000000000000000000000000000600052604160045260246000fd5b6106c982610680565b810181811067ffffffffffffffff821117156106e8576106e7610691565b5b80604052505050565b60006106fb610662565b905061070782826106c0565b919050565b600067ffffffffffffffff82111561072757610726610691565b5b61073082610680565b9050602081019050919050565b82818337600083830152505050565b600061075f61075a8461070c565b6106f1565b90508281526020810184848401111561077b5761077a61067b565b5b61078684828561073d565b509392505050565b600082601f8301126107a3576107a2610676565b5b81356107b384826020860161074c565b91505092915050565b600080604083850312156107d3576107d261066c565b5b600083013567ffffffffffffffff8111156107f1576107f0610671565b5b6107fd8582860161078e565b925050602083013567ffffffffffffffff81111561081e5761081d610671565b5b61082a8582860161078e565b9150509250929050565b600073ffffffffffffffffffffffffffffffffffffffff82169050919050565b600061085f82610834565b9050919050565b61086f81610854565b811461087a57600080fd5b50565b60008135905061088c81610866565b92915050565b6000602082840312156108a8576108a761066c565b5b60006108b68482850161087d565b91505092915050565b600081519050919050565b600082825260208201905092915050565b60005b838110156108f95780820151818401526020810190506108de565b60008484015250505050565b6000610910826108bf565b61091a81856108ca565b935061092a8185602086016108db565b61093381610680565b840191505092915050565b60008115159050919050565b6109538161093e565b82525050565b600060608201905081810360008301526109738186610905565b905081810360208301526109878185610905565b9050610996604083018461094a565b949350505050565b6109a781610854565b82525050565b60006020820190506109c2600083018461099e565b92915050565b60006020820190506109dd600083018461094a565b92915050565b7f53656e64657220697320616c726561647920616e206f7267616e697a65720000600082015250565b6000610a19601e836108ca565b9150610a24826109e3565b602082019050919050565b60006020820190508181036000830152610a4881610a0c565b9050919050565b7f4e487b7100000000000000000000000000000000000000000000000000000000600052602260045260246000fd5b60006002820490506001821680610a9657607f821691505b602082108103610aa957610aa8610a4f565b5b50919050565b60008190508160005260206000209050919050565b60006020601f8301049050919050565b600082821b905092915050565b600060088302610b117fffffffffffffffffffffffffffffffffffffffffffffffffffffffffffffffff82610ad4565b610b1b8683610ad4565b95508019841693508086168417925050509392505050565b6000819050919050565b6000819050919050565b6000610b62610b5d610b5884610b33565b610b3d565b610b33565b9050919050565b6000819050919050565b610b7c83610b47565b610b90610b8882610b69565b848454610ae1565b825550505050565b600090565b610ba5610b98565b610bb0818484610b73565b505050565b5b81811015610bd457610bc9600082610b9d565b600181019050610bb6565b5050565b601f821115610c1957610bea81610aaf565b610bf384610ac4565b81016020851015610c02578190505b610c16610c0e85610ac4565b830182610bb5565b50505b505050565b600082821c905092915050565b6000610c3c60001984600802610c1e565b1980831691505092915050565b6000610c558383610c2b565b9150826002028217905092915050565b610c6e826108bf565b67ffffffffffffffff811115610c8757610c86610691565b5b610c918254610a7e565b610c9c828285610bd8565b600060209050601f831160018114610ccf5760008415610cbd578287015190505b610cc78582610c49565b865550610d2f565b601f198416610cdd86610aaf565b60005b82811015610d0557848901518255600182019150602085019450602081019050610ce0565b86831015610d225784890151610d1e601f891682610c2b565b8355505b6001600288020188555050505b505050505050565b60006040820190508181036000830152610d518185610905565b90508181036020830152610d658184610905565b90509392505050565b7f4f776e61626c653a206e6577206f776e657220697320746865207a65726f206160008201527f6464726573730000000000000000000000000000000000000000000000000000602082015250565b6000610dca6026836108ca565b9150610dd582610d6e565b604082019050919050565b60006020820190508181036000830152610df981610dbd565b9050919050565b7f4f776e61626c653a2063616c6c6572206973206e6f7420746865206f776e6572600082015250565b6000610e366020836108ca565b9150610e4182610e00565b602082019050919050565b60006020820190508181036000830152610e6581610e29565b905091905056fea264697066735822122030cec17cae2a6e7261d9f21c348d2e667906e9a0a9e5f5df36503bfe9400e22b64736f6c63430008110033",
  "immutableReferences": {},
  "source": "// SPDX-License-Identifier: MIT\npragma solidity ^0.8.17;\n\nimport \"@openzeppelin/contracts/access/Ownable.sol\";\n\ninterface OrganizerInterface {\n    struct OrganizerStruct {\n        string name;\n        string description;\n        bool is_set;\n    }\n\n    function create_organizer(string memory _name, string memory _description)\n        external;\n\n    function is_organizer(address _organizer_address)\n        external\n        view\n        returns (bool);\n}\n\ncontract Organizer is OrganizerInterface, Ownable {\n    mapping(address => OrganizerStruct) public organizers;\n\n    event OrganizerCreated(\n        address indexed _admin,\n        string _name,\n        string _description\n    );\n\n    constructor() {}\n\n    modifier organizerNotExists() {\n        require(\n            !organizers[msg.sender].is_set,\n            \"Sender is already an organizer\"\n        );\n        _;\n    }\n\n    // Functions\n    function create_organizer(string memory _name, string memory _description)\n        external\n        organizerNotExists\n    {\n        organizers[msg.sender] = OrganizerStruct(_name, _description, true);\n        emit OrganizerCreated(msg.sender, _name, _description);\n    }\n\n    function is_organizer(address _organizer_address)\n        external\n        view\n        returns (bool)\n    {\n        return organizers[_organizer_address].is_set;\n    }\n}\n",
  "sourcePath": "/home/flaprimo/Development/decentralized-ticket-sales/backend/contracts/Organizer.sol",
  "compiler": {
    "name": "solc",
    "version": "0.8.17+commit.8df45f5f.Emscripten.clang"
  },
  "schemaVersion": "3.4.10",
  "updatedAt": "2023-01-21T02:41:40.157Z",
  "devdoc": {
    "kind": "dev",
    "methods": {
      "owner()": {
        "details": "Returns the address of the current owner."
      },
      "renounceOwnership()": {
        "details": "Leaves the contract without owner. It will not be possible to call `onlyOwner` functions anymore. Can only be called by the current owner. NOTE: Renouncing ownership will leave the contract without an owner, thereby removing any functionality that is only available to the owner."
      },
      "transferOwnership(address)": {
        "details": "Transfers ownership of the contract to a new account (`newOwner`). Can only be called by the current owner."
      }
    },
    "version": 1
  },
  "userdoc": {
    "kind": "user",
    "methods": {},
    "version": 1
  }
}