{
  "contractName": "Organizer",
  "abi": [
    {
      "anonymous": false,
      "inputs": [
        {
          "indexed": false,
          "internalType": "uint8",
          "name": "version",
          "type": "uint8"
        }
      ],
      "name": "Initialized",
      "type": "event"
    },
    {
      "anonymous": false,
      "inputs": [
        {
          "indexed": true,
          "internalType": "address",
          "name": "_admin",
          "type": "address"
        },
        {
          "indexed": false,
          "internalType": "string",
          "name": "_name",
          "type": "string"
        },
        {
          "indexed": false,
          "internalType": "string",
          "name": "_description",
          "type": "string"
        }
      ],
      "name": "OrganizerCreated",
      "type": "event"
    },
    {
      "anonymous": false,
      "inputs": [
        {
          "indexed": true,
          "internalType": "address",
          "name": "previousOwner",
          "type": "address"
        },
        {
          "indexed": true,
          "internalType": "address",
          "name": "newOwner",
          "type": "address"
        }
      ],
      "name": "OwnershipTransferred",
      "type": "event"
    },
    {
      "inputs": [
        {
          "internalType": "uint256",
          "name": "",
          "type": "uint256"
        }
      ],
      "name": "organizer_list",
      "outputs": [
        {
          "internalType": "address",
          "name": "",
          "type": "address"
        }
      ],
      "stateMutability": "view",
      "type": "function",
      "constant": true
    },
    {
      "inputs": [
        {
          "internalType": "address",
          "name": "",
          "type": "address"
        }
      ],
      "name": "organizers",
      "outputs": [
        {
          "internalType": "string",
          "name": "name",
          "type": "string"
        },
        {
          "internalType": "string",
          "name": "description",
          "type": "string"
        },
        {
          "internalType": "bool",
          "name": "is_set",
          "type": "bool"
        }
      ],
      "stateMutability": "view",
      "type": "function",
      "constant": true
    },
    {
      "inputs": [],
      "name": "owner",
      "outputs": [
        {
          "internalType": "address",
          "name": "",
          "type": "address"
        }
      ],
      "stateMutability": "view",
      "type": "function",
      "constant": true
    },
    {
      "inputs": [],
      "name": "renounceOwnership",
      "outputs": [],
      "stateMutability": "nonpayable",
      "type": "function"
    },
    {
      "inputs": [
        {
          "internalType": "address",
          "name": "newOwner",
          "type": "address"
        }
      ],
      "name": "transferOwnership",
      "outputs": [],
      "stateMutability": "nonpayable",
      "type": "function"
    },
    {
      "inputs": [
        {
          "internalType": "string",
          "name": "_name",
          "type": "string"
        },
        {
          "internalType": "string",
          "name": "_description",
          "type": "string"
        }
      ],
      "name": "create_organizer",
      "outputs": [],
      "stateMutability": "nonpayable",
      "type": "function"
    },
    {
      "inputs": [
        {
          "internalType": "address",
          "name": "_organizer_address",
          "type": "address"
        }
      ],
      "name": "is_organizer",
      "outputs": [
        {
          "internalType": "bool",
          "name": "",
          "type": "bool"
        }
      ],
      "stateMutability": "view",
      "type": "function",
      "constant": true
    }
  ],
  "bytecode": "0x608060405234801561001057600080fd5b50610feb806100206000396000f3fe608060405234801561001057600080fd5b506004361061007c5760003560e01c80638da5cb5b1161005b5780638da5cb5b146100d9578063cdd25a28146100f7578063ee23e2be14610127578063f2fde38b146101575761007c565b80626e4c85146100815780630544c5b91461009d578063715018a6146100cf575b600080fd5b61009b600480360381019061009691906108ac565b610173565b005b6100b760048036038101906100b29190610982565b610366565b6040516100c693929190610a49565b60405180910390f35b6100d76104ad565b005b6100e16104c1565b6040516100ee9190610a9d565b60405180910390f35b610111600480360381019061010c9190610aee565b6104eb565b60405161011e9190610a9d565b60405180910390f35b610141600480360381019061013c9190610982565b61052a565b60405161014e9190610b1b565b60405180910390f35b610171600480360381019061016c9190610982565b610583565b005b606560003373ffffffffffffffffffffffffffffffffffffffff1673ffffffffffffffffffffffffffffffffffffffff16815260200190815260200160002060020160009054906101000a900460ff1615610203576040517f08c379a00000000000000000000000000000000000000000000000000000000081526004016101fa90610b82565b60405180910390fd5b604051806060016040528083815260200182815260200160011515815250606560003373ffffffffffffffffffffffffffffffffffffffff1673ffffffffffffffffffffffffffffffffffffffff16815260200190815260200160002060008201518160000190816102759190610dae565b50602082015181600101908161028b9190610dae565b5060408201518160020160006101000a81548160ff0219169083151502179055509050506066339080600181540180825580915050600190039060005260206000200160009091909190916101000a81548173ffffffffffffffffffffffffffffffffffffffff021916908373ffffffffffffffffffffffffffffffffffffffff1602179055503373ffffffffffffffffffffffffffffffffffffffff167f53d3042b99dbed472c43c3db1f8e52b67f4190a208f45ee664b70cbadad21188838360405161035a929190610e80565b60405180910390a25050565b606560205280600052604060002060009150905080600001805461038990610bd1565b80601f01602080910402602001604051908101604052809291908181526020018280546103b590610bd1565b80156104025780601f106103d757610100808354040283529160200191610402565b820191906000526020600020905b8154815290600101906020018083116103e557829003601f168201915b50505050509080600101805461041790610bd1565b80601f016020809104026020016040519081016040528092919081815260200182805461044390610bd1565b80156104905780601f1061046557610100808354040283529160200191610490565b820191906000526020600020905b81548152906001019060200180831161047357829003601f168201915b5050505050908060020160009054906101000a900460ff16905083565b6104b5610606565b6104bf6000610684565b565b6000603360009054906101000a900473ffffffffffffffffffffffffffffffffffffffff16905090565b606681815481106104fb57600080fd5b906000526020600020016000915054906101000a900473ffffffffffffffffffffffffffffffffffffffff1681565b6000606560008373ffffffffffffffffffffffffffffffffffffffff1673ffffffffffffffffffffffffffffffffffffffff16815260200190815260200160002060020160009054906101000a900460ff169050919050565b61058b610606565b600073ffffffffffffffffffffffffffffffffffffffff168173ffffffffffffffffffffffffffffffffffffffff16036105fa576040517f08c379a00000000000000000000000000000000000000000000000000000000081526004016105f190610f29565b60405180910390fd5b61060381610684565b50565b61060e61074a565b73ffffffffffffffffffffffffffffffffffffffff1661062c6104c1565b73ffffffffffffffffffffffffffffffffffffffff1614610682576040517f08c379a000000000000000000000000000000000000000000000000000000000815260040161067990610f95565b60405180910390fd5b565b6000603360009054906101000a900473ffffffffffffffffffffffffffffffffffffffff16905081603360006101000a81548173ffffffffffffffffffffffffffffffffffffffff021916908373ffffffffffffffffffffffffffffffffffffffff1602179055508173ffffffffffffffffffffffffffffffffffffffff168173ffffffffffffffffffffffffffffffffffffffff167f8be0079c531659141344cd1fd0a4f28419497f9722a3daafe3b4186f6b6457e060405160405180910390a35050565b600033905090565b6000604051905090565b600080fd5b600080fd5b600080fd5b600080fd5b6000601f19601f8301169050919050565b7f4e487b7100000000000000000000000000000000000000000000000000000000600052604160045260246000fd5b6107b982610770565b810181811067ffffffffffffffff821117156107d8576107d7610781565b5b80604052505050565b60006107eb610752565b90506107f782826107b0565b919050565b600067ffffffffffffffff82111561081757610816610781565b5b61082082610770565b9050602081019050919050565b82818337600083830152505050565b600061084f61084a846107fc565b6107e1565b90508281526020810184848401111561086b5761086a61076b565b5b61087684828561082d565b509392505050565b600082601f83011261089357610892610766565b5b81356108a384826020860161083c565b91505092915050565b600080604083850312156108c3576108c261075c565b5b600083013567ffffffffffffffff8111156108e1576108e0610761565b5b6108ed8582860161087e565b925050602083013567ffffffffffffffff81111561090e5761090d610761565b5b61091a8582860161087e565b9150509250929050565b600073ffffffffffffffffffffffffffffffffffffffff82169050919050565b600061094f82610924565b9050919050565b61095f81610944565b811461096a57600080fd5b50565b60008135905061097c81610956565b92915050565b6000602082840312156109985761099761075c565b5b60006109a68482850161096d565b91505092915050565b600081519050919050565b600082825260208201905092915050565b60005b838110156109e95780820151818401526020810190506109ce565b60008484015250505050565b6000610a00826109af565b610a0a81856109ba565b9350610a1a8185602086016109cb565b610a2381610770565b840191505092915050565b60008115159050919050565b610a4381610a2e565b82525050565b60006060820190508181036000830152610a6381866109f5565b90508181036020830152610a7781856109f5565b9050610a866040830184610a3a565b949350505050565b610a9781610944565b82525050565b6000602082019050610ab26000830184610a8e565b92915050565b6000819050919050565b610acb81610ab8565b8114610ad657600080fd5b50565b600081359050610ae881610ac2565b92915050565b600060208284031215610b0457610b0361075c565b5b6000610b1284828501610ad9565b91505092915050565b6000602082019050610b306000830184610a3a565b92915050565b7f53656e64657220697320616c726561647920616e206f7267616e697a65720000600082015250565b6000610b6c601e836109ba565b9150610b7782610b36565b602082019050919050565b60006020820190508181036000830152610b9b81610b5f565b9050919050565b7f4e487b7100000000000000000000000000000000000000000000000000000000600052602260045260246000fd5b60006002820490506001821680610be957607f821691505b602082108103610bfc57610bfb610ba2565b5b50919050565b60008190508160005260206000209050919050565b60006020601f8301049050919050565b600082821b905092915050565b600060088302610c647fffffffffffffffffffffffffffffffffffffffffffffffffffffffffffffffff82610c27565b610c6e8683610c27565b95508019841693508086168417925050509392505050565b6000819050919050565b6000610cab610ca6610ca184610ab8565b610c86565b610ab8565b9050919050565b6000819050919050565b610cc583610c90565b610cd9610cd182610cb2565b848454610c34565b825550505050565b600090565b610cee610ce1565b610cf9818484610cbc565b505050565b5b81811015610d1d57610d12600082610ce6565b600181019050610cff565b5050565b601f821115610d6257610d3381610c02565b610d3c84610c17565b81016020851015610d4b578190505b610d5f610d5785610c17565b830182610cfe565b50505b505050565b600082821c905092915050565b6000610d8560001984600802610d67565b1980831691505092915050565b6000610d9e8383610d74565b9150826002028217905092915050565b610db7826109af565b67ffffffffffffffff811115610dd057610dcf610781565b5b610dda8254610bd1565b610de5828285610d21565b600060209050601f831160018114610e185760008415610e06578287015190505b610e108582610d92565b865550610e78565b601f198416610e2686610c02565b60005b82811015610e4e57848901518255600182019150602085019450602081019050610e29565b86831015610e6b5784890151610e67601f891682610d74565b8355505b6001600288020188555050505b505050505050565b60006040820190508181036000830152610e9a81856109f5565b90508181036020830152610eae81846109f5565b90509392505050565b7f4f776e61626c653a206e6577206f776e657220697320746865207a65726f206160008201527f6464726573730000000000000000000000000000000000000000000000000000602082015250565b6000610f136026836109ba565b9150610f1e82610eb7565b604082019050919050565b60006020820190508181036000830152610f4281610f06565b9050919050565b7f4f776e61626c653a2063616c6c6572206973206e6f7420746865206f776e6572600082015250565b6000610f7f6020836109ba565b9150610f8a82610f49565b602082019050919050565b60006020820190508181036000830152610fae81610f72565b905091905056fea2646970667358221220c7b240fd1e82c55e8283c805fa57ed28536ebab57671b49ee41102bd2a1c3b0a64736f6c63430008110033",
  "immutableReferences": {},
  "source": "// SPDX-License-Identifier: MIT\npragma solidity ^0.8.17;\n\nimport \"@openzeppelin/contracts-upgradeable/access/OwnableUpgradeable.sol\";\n\ninterface IOrganizer {\n    struct OrganizerStruct {\n        string name;\n        string description;\n        bool is_set;\n    }\n\n    function create_organizer(string memory _name, string memory _description)\n        external;\n\n    function is_organizer(address _organizer_address)\n        external\n        view\n        returns (bool);\n}\n\ncontract Organizer is IOrganizer, OwnableUpgradeable {\n    mapping(address => OrganizerStruct) public organizers;\n    address[] public organizer_list;\n\n    event OrganizerCreated(\n        address indexed _admin,\n        string _name,\n        string _description\n    );\n\n    // constructor() {}\n\n    modifier organizerNotExists() {\n        require(\n            !organizers[msg.sender].is_set,\n            \"Sender is already an organizer\"\n        );\n        _;\n    }\n\n    // Functions\n    function create_organizer(string memory _name, string memory _description)\n        external\n        organizerNotExists\n    {\n        organizers[msg.sender] = OrganizerStruct(_name, _description, true);\n        organizer_list.push(msg.sender);\n        emit OrganizerCreated(msg.sender, _name, _description);\n    }\n\n    function is_organizer(address _organizer_address)\n        external\n        view\n        returns (bool)\n    {\n        return organizers[_organizer_address].is_set;\n    }\n}\n",
  "sourcePath": "/home/flaprimo/Development/decentralized-ticket-sales/backend/contracts/Organizer.sol",
  "compiler": {
    "name": "solc",
    "version": "0.8.17+commit.8df45f5f.Emscripten.clang"
  },
  "schemaVersion": "3.4.10",
  "updatedAt": "2023-01-21T14:06:10.214Z",
  "networkType": "ethereum",
  "devdoc": {
    "kind": "dev",
    "methods": {
      "owner()": {
        "details": "Returns the address of the current owner."
      },
      "renounceOwnership()": {
        "details": "Leaves the contract without owner. It will not be possible to call `onlyOwner` functions anymore. Can only be called by the current owner. NOTE: Renouncing ownership will leave the contract without an owner, thereby removing any functionality that is only available to the owner."
      },
      "transferOwnership(address)": {
        "details": "Transfers ownership of the contract to a new account (`newOwner`). Can only be called by the current owner."
      }
    },
    "version": 1
  },
  "userdoc": {
    "kind": "user",
    "methods": {},
    "version": 1
  }
}