{
  "contractName": "Ticket",
  "abi": [
    {
      "inputs": [],
      "stateMutability": "nonpayable",
      "type": "constructor"
    },
    {
      "anonymous": false,
      "inputs": [
        {
          "indexed": true,
          "internalType": "address",
          "name": "account",
          "type": "address"
        },
        {
          "indexed": true,
          "internalType": "address",
          "name": "operator",
          "type": "address"
        },
        {
          "indexed": false,
          "internalType": "bool",
          "name": "approved",
          "type": "bool"
        }
      ],
      "name": "ApprovalForAll",
      "type": "event"
    },
    {
      "anonymous": false,
      "inputs": [
        {
          "indexed": true,
          "internalType": "address",
          "name": "previousOwner",
          "type": "address"
        },
        {
          "indexed": true,
          "internalType": "address",
          "name": "newOwner",
          "type": "address"
        }
      ],
      "name": "OwnershipTransferred",
      "type": "event"
    },
    {
      "anonymous": false,
      "inputs": [
        {
          "indexed": true,
          "internalType": "address",
          "name": "_buyer",
          "type": "address"
        },
        {
          "indexed": false,
          "internalType": "uint256",
          "name": "_ticket_id",
          "type": "uint256"
        },
        {
          "indexed": false,
          "internalType": "uint256",
          "name": "_quantity",
          "type": "uint256"
        },
        {
          "indexed": false,
          "internalType": "uint256",
          "name": "_price",
          "type": "uint256"
        }
      ],
      "name": "TicketBought",
      "type": "event"
    },
    {
      "anonymous": false,
      "inputs": [
        {
          "indexed": true,
          "internalType": "address",
          "name": "_admin",
          "type": "address"
        },
        {
          "indexed": false,
          "internalType": "uint256",
          "name": "_ticket_id",
          "type": "uint256"
        },
        {
          "indexed": false,
          "internalType": "string",
          "name": "_name",
          "type": "string"
        },
        {
          "indexed": false,
          "internalType": "uint256",
          "name": "_quantity",
          "type": "uint256"
        },
        {
          "indexed": false,
          "internalType": "uint256",
          "name": "_price",
          "type": "uint256"
        }
      ],
      "name": "TicketCreated",
      "type": "event"
    },
    {
      "anonymous": false,
      "inputs": [
        {
          "indexed": true,
          "internalType": "address",
          "name": "operator",
          "type": "address"
        },
        {
          "indexed": true,
          "internalType": "address",
          "name": "from",
          "type": "address"
        },
        {
          "indexed": true,
          "internalType": "address",
          "name": "to",
          "type": "address"
        },
        {
          "indexed": false,
          "internalType": "uint256[]",
          "name": "ids",
          "type": "uint256[]"
        },
        {
          "indexed": false,
          "internalType": "uint256[]",
          "name": "values",
          "type": "uint256[]"
        }
      ],
      "name": "TransferBatch",
      "type": "event"
    },
    {
      "anonymous": false,
      "inputs": [
        {
          "indexed": true,
          "internalType": "address",
          "name": "operator",
          "type": "address"
        },
        {
          "indexed": true,
          "internalType": "address",
          "name": "from",
          "type": "address"
        },
        {
          "indexed": true,
          "internalType": "address",
          "name": "to",
          "type": "address"
        },
        {
          "indexed": false,
          "internalType": "uint256",
          "name": "id",
          "type": "uint256"
        },
        {
          "indexed": false,
          "internalType": "uint256",
          "name": "value",
          "type": "uint256"
        }
      ],
      "name": "TransferSingle",
      "type": "event"
    },
    {
      "anonymous": false,
      "inputs": [
        {
          "indexed": false,
          "internalType": "string",
          "name": "value",
          "type": "string"
        },
        {
          "indexed": true,
          "internalType": "uint256",
          "name": "id",
          "type": "uint256"
        }
      ],
      "name": "URI",
      "type": "event"
    },
    {
      "inputs": [
        {
          "internalType": "address",
          "name": "account",
          "type": "address"
        },
        {
          "internalType": "uint256",
          "name": "id",
          "type": "uint256"
        }
      ],
      "name": "balanceOf",
      "outputs": [
        {
          "internalType": "uint256",
          "name": "",
          "type": "uint256"
        }
      ],
      "stateMutability": "view",
      "type": "function"
    },
    {
      "inputs": [
        {
          "internalType": "address[]",
          "name": "accounts",
          "type": "address[]"
        },
        {
          "internalType": "uint256[]",
          "name": "ids",
          "type": "uint256[]"
        }
      ],
      "name": "balanceOfBatch",
      "outputs": [
        {
          "internalType": "uint256[]",
          "name": "",
          "type": "uint256[]"
        }
      ],
      "stateMutability": "view",
      "type": "function"
    },
    {
      "inputs": [
        {
          "internalType": "address",
          "name": "account",
          "type": "address"
        },
        {
          "internalType": "address",
          "name": "operator",
          "type": "address"
        }
      ],
      "name": "isApprovedForAll",
      "outputs": [
        {
          "internalType": "bool",
          "name": "",
          "type": "bool"
        }
      ],
      "stateMutability": "view",
      "type": "function"
    },
    {
      "inputs": [],
      "name": "owner",
      "outputs": [
        {
          "internalType": "address",
          "name": "",
          "type": "address"
        }
      ],
      "stateMutability": "view",
      "type": "function"
    },
    {
      "inputs": [],
      "name": "renounceOwnership",
      "outputs": [],
      "stateMutability": "nonpayable",
      "type": "function"
    },
    {
      "inputs": [
        {
          "internalType": "address",
          "name": "from",
          "type": "address"
        },
        {
          "internalType": "address",
          "name": "to",
          "type": "address"
        },
        {
          "internalType": "uint256[]",
          "name": "ids",
          "type": "uint256[]"
        },
        {
          "internalType": "uint256[]",
          "name": "amounts",
          "type": "uint256[]"
        },
        {
          "internalType": "bytes",
          "name": "data",
          "type": "bytes"
        }
      ],
      "name": "safeBatchTransferFrom",
      "outputs": [],
      "stateMutability": "nonpayable",
      "type": "function"
    },
    {
      "inputs": [
        {
          "internalType": "address",
          "name": "from",
          "type": "address"
        },
        {
          "internalType": "address",
          "name": "to",
          "type": "address"
        },
        {
          "internalType": "uint256",
          "name": "id",
          "type": "uint256"
        },
        {
          "internalType": "uint256",
          "name": "amount",
          "type": "uint256"
        },
        {
          "internalType": "bytes",
          "name": "data",
          "type": "bytes"
        }
      ],
      "name": "safeTransferFrom",
      "outputs": [],
      "stateMutability": "nonpayable",
      "type": "function"
    },
    {
      "inputs": [
        {
          "internalType": "address",
          "name": "operator",
          "type": "address"
        },
        {
          "internalType": "bool",
          "name": "approved",
          "type": "bool"
        }
      ],
      "name": "setApprovalForAll",
      "outputs": [],
      "stateMutability": "nonpayable",
      "type": "function"
    },
    {
      "inputs": [
        {
          "internalType": "bytes4",
          "name": "interfaceId",
          "type": "bytes4"
        }
      ],
      "name": "supportsInterface",
      "outputs": [
        {
          "internalType": "bool",
          "name": "",
          "type": "bool"
        }
      ],
      "stateMutability": "view",
      "type": "function"
    },
    {
      "inputs": [
        {
          "internalType": "address",
          "name": "",
          "type": "address"
        },
        {
          "internalType": "uint256",
          "name": "",
          "type": "uint256"
        },
        {
          "internalType": "uint256",
          "name": "",
          "type": "uint256"
        }
      ],
      "name": "tickets",
      "outputs": [
        {
          "internalType": "string",
          "name": "name",
          "type": "string"
        },
        {
          "internalType": "uint256",
          "name": "price",
          "type": "uint256"
        },
        {
          "internalType": "bool",
          "name": "is_set",
          "type": "bool"
        }
      ],
      "stateMutability": "view",
      "type": "function"
    },
    {
      "inputs": [
        {
          "internalType": "address",
          "name": "newOwner",
          "type": "address"
        }
      ],
      "name": "transferOwnership",
      "outputs": [],
      "stateMutability": "nonpayable",
      "type": "function"
    },
    {
      "inputs": [
        {
          "internalType": "uint256",
          "name": "",
          "type": "uint256"
        }
      ],
      "name": "uri",
      "outputs": [
        {
          "internalType": "string",
          "name": "",
          "type": "string"
        }
      ],
      "stateMutability": "view",
      "type": "function"
    },
    {
      "inputs": [
        {
          "internalType": "address",
          "name": "_event_contract",
          "type": "address"
        },
        {
          "internalType": "uint256",
          "name": "_event_id",
          "type": "uint256"
        },
        {
          "internalType": "string",
          "name": "_name",
          "type": "string"
        },
        {
          "internalType": "uint256",
          "name": "_quantity",
          "type": "uint256"
        },
        {
          "internalType": "uint256",
          "name": "_price",
          "type": "uint256"
        }
      ],
      "name": "create_ticket",
      "outputs": [],
      "stateMutability": "nonpayable",
      "type": "function"
    },
    {
      "inputs": [
        {
          "internalType": "address",
          "name": "_organizer_address",
          "type": "address"
        },
        {
          "internalType": "uint256",
          "name": "_event_id",
          "type": "uint256"
        },
        {
          "internalType": "uint256",
          "name": "_ticket_id",
          "type": "uint256"
        },
        {
          "internalType": "uint256",
          "name": "_quantity",
          "type": "uint256"
        }
      ],
      "name": "buy_ticket",
      "outputs": [],
      "stateMutability": "payable",
      "type": "function"
    },
    {
      "inputs": [
        {
          "internalType": "uint256",
          "name": "_ticket_id",
          "type": "uint256"
        }
      ],
      "name": "available_tickets",
      "outputs": [
        {
          "internalType": "uint256",
          "name": "",
          "type": "uint256"
        }
      ],
      "stateMutability": "view",
      "type": "function"
    }
  ],
  "bytecode": "0x60806040523480156200001157600080fd5b506040518060200160405280600081525062000033816200005a60201b60201c565b5062000054620000486200006f60201b60201c565b6200007760201b60201c565b6200049e565b80600290816200006b9190620003b7565b5050565b600033905090565b6000600360009054906101000a900473ffffffffffffffffffffffffffffffffffffffff16905081600360006101000a81548173ffffffffffffffffffffffffffffffffffffffff021916908373ffffffffffffffffffffffffffffffffffffffff1602179055508173ffffffffffffffffffffffffffffffffffffffff168173ffffffffffffffffffffffffffffffffffffffff167f8be0079c531659141344cd1fd0a4f28419497f9722a3daafe3b4186f6b6457e060405160405180910390a35050565b600081519050919050565b7f4e487b7100000000000000000000000000000000000000000000000000000000600052604160045260246000fd5b7f4e487b7100000000000000000000000000000000000000000000000000000000600052602260045260246000fd5b60006002820490506001821680620001bf57607f821691505b602082108103620001d557620001d462000177565b5b50919050565b60008190508160005260206000209050919050565b60006020601f8301049050919050565b600082821b905092915050565b6000600883026200023f7fffffffffffffffffffffffffffffffffffffffffffffffffffffffffffffffff8262000200565b6200024b868362000200565b95508019841693508086168417925050509392505050565b6000819050919050565b6000819050919050565b600062000298620002926200028c8462000263565b6200026d565b62000263565b9050919050565b6000819050919050565b620002b48362000277565b620002cc620002c3826200029f565b8484546200020d565b825550505050565b600090565b620002e3620002d4565b620002f0818484620002a9565b505050565b5b8181101562000318576200030c600082620002d9565b600181019050620002f6565b5050565b601f82111562000367576200033181620001db565b6200033c84620001f0565b810160208510156200034c578190505b620003646200035b85620001f0565b830182620002f5565b50505b505050565b600082821c905092915050565b60006200038c600019846008026200036c565b1980831691505092915050565b6000620003a7838362000379565b9150826002028217905092915050565b620003c2826200013d565b67ffffffffffffffff811115620003de57620003dd62000148565b5b620003ea8254620001a6565b620003f78282856200031c565b600060209050601f8311600181146200042f57600084156200041a578287015190505b62000426858262000399565b86555062000496565b601f1984166200043f86620001db565b60005b82811015620004695784890151825560018201915060208501945060208101905062000442565b8683101562000489578489015162000485601f89168262000379565b8355505b6001600288020188555050505b505050505050565b613a1c80620004ae6000396000f3fe6080604052600436106100e75760003560e01c8063715018a61161008a578063e985e9c511610059578063e985e9c5146102f8578063f088b38114610335578063f242432a14610372578063f2fde38b1461039b576100e7565b8063715018a61461026457806386dd044a1461027b5780638da5cb5b146102a4578063a22cb465146102cf576100e7565b80632115f4d1116100c65780632115f4d1146101a35780632eb2c2d6146101e25780634e1273f41461020b57806353f59cac14610248576100e7565b8062fdd58e146100ec57806301ffc9a7146101295780630e89341c14610166575b600080fd5b3480156100f857600080fd5b50610113600480360381019061010e9190611f03565b6103c4565b6040516101209190611f52565b60405180910390f35b34801561013557600080fd5b50610150600480360381019061014b9190611fc5565b61048c565b60405161015d919061200d565b60405180910390f35b34801561017257600080fd5b5061018d60048036038101906101889190612028565b61056e565b60405161019a91906120e5565b60405180910390f35b3480156101af57600080fd5b506101ca60048036038101906101c59190612107565b610602565b6040516101d99392919061215a565b60405180910390f35b3480156101ee57600080fd5b5061020960048036038101906102049190612395565b6106db565b005b34801561021757600080fd5b50610232600480360381019061022d9190612527565b61077c565b60405161023f919061265d565b60405180910390f35b610262600480360381019061025d919061267f565b610895565b005b34801561027057600080fd5b50610279610b17565b005b34801561028757600080fd5b506102a2600480360381019061029d9190612787565b610b2b565b005b3480156102b057600080fd5b506102b9610d43565b6040516102c6919061282d565b60405180910390f35b3480156102db57600080fd5b506102f660048036038101906102f19190612874565b610d6d565b005b34801561030457600080fd5b5061031f600480360381019061031a91906128b4565b610d83565b60405161032c919061200d565b60405180910390f35b34801561034157600080fd5b5061035c60048036038101906103579190612028565b610e17565b6040516103699190611f52565b60405180910390f35b34801561037e57600080fd5b50610399600480360381019061039491906128f4565b610e2a565b005b3480156103a757600080fd5b506103c260048036038101906103bd919061298b565b610ecb565b005b60008073ffffffffffffffffffffffffffffffffffffffff168373ffffffffffffffffffffffffffffffffffffffff1603610434576040517f08c379a000000000000000000000000000000000000000000000000000000000815260040161042b90612a2a565b60405180910390fd5b60008083815260200190815260200160002060008473ffffffffffffffffffffffffffffffffffffffff1673ffffffffffffffffffffffffffffffffffffffff16815260200190815260200160002054905092915050565b60007fd9b67a26000000000000000000000000000000000000000000000000000000007bffffffffffffffffffffffffffffffffffffffffffffffffffffffff1916827bffffffffffffffffffffffffffffffffffffffffffffffffffffffff1916148061055757507f0e89341c000000000000000000000000000000000000000000000000000000007bffffffffffffffffffffffffffffffffffffffffffffffffffffffff1916827bffffffffffffffffffffffffffffffffffffffffffffffffffffffff1916145b80610567575061056682610f4e565b5b9050919050565b60606002805461057d90612a79565b80601f01602080910402602001604051908101604052809291908181526020018280546105a990612a79565b80156105f65780601f106105cb576101008083540402835291602001916105f6565b820191906000526020600020905b8154815290600101906020018083116105d957829003601f168201915b50505050509050919050565b6005602052826000526040600020602052816000526040600020602052806000526040600020600092509250505080600001805461063f90612a79565b80601f016020809104026020016040519081016040528092919081815260200182805461066b90612a79565b80156106b85780601f1061068d576101008083540402835291602001916106b8565b820191906000526020600020905b81548152906001019060200180831161069b57829003601f168201915b5050505050908060010154908060020160009054906101000a900460ff16905083565b6106e3610fb8565b73ffffffffffffffffffffffffffffffffffffffff168573ffffffffffffffffffffffffffffffffffffffff161480610729575061072885610723610fb8565b610d83565b5b610768576040517f08c379a000000000000000000000000000000000000000000000000000000000815260040161075f90612b1c565b60405180910390fd5b6107758585858585610fc0565b5050505050565b606081518351146107c2576040517f08c379a00000000000000000000000000000000000000000000000000000000081526004016107b990612bae565b60405180910390fd5b6000835167ffffffffffffffff8111156107df576107de61219d565b5b60405190808252806020026020018201604052801561080d5781602001602082028036833780820191505090505b50905060005b845181101561088a5761085a85828151811061083257610831612bce565b5b602002602001015185838151811061084d5761084c612bce565b5b60200260200101516103c4565b82828151811061086d5761086c612bce565b5b6020026020010181815250508061088390612c2c565b9050610813565b508091505092915050565b600560008573ffffffffffffffffffffffffffffffffffffffff1673ffffffffffffffffffffffffffffffffffffffff1681526020019081526020016000206000848152602001908152602001600020600083815260200190815260200160002060020160009054906101000a900460ff16610946576040517f08c379a000000000000000000000000000000000000000000000000000000000815260040161093d90612cc0565b60405180910390fd5b600061095230846103c4565b11610992576040517f08c379a000000000000000000000000000000000000000000000000000000000815260040161098990612d2c565b60405180910390fd5b6000600560008673ffffffffffffffffffffffffffffffffffffffff1673ffffffffffffffffffffffffffffffffffffffff168152602001908152602001600020600085815260200190815260200160002060008481526020019081526020016000206001015482610a049190612d4c565b9050803373ffffffffffffffffffffffffffffffffffffffff16311015610a60576040517f08c379a0000000000000000000000000000000000000000000000000000000008152600401610a5790612dda565b60405180910390fd5b803414610aa2576040517f08c379a0000000000000000000000000000000000000000000000000000000008152600401610a9990612e46565b60405180910390fd5b610abe30338585604051806020016040528060008152506112e1565b3373ffffffffffffffffffffffffffffffffffffffff167f46cdbf90977f71f605a85b7c00f0d4d71f3d811fb25fad2d3ed3d15f0f84a5d7848484604051610b0893929190612e66565b60405180910390a25050505050565b610b1f61157c565b610b2960006115fa565b565b8473ffffffffffffffffffffffffffffffffffffffff1663c8ff5bf933866040518363ffffffff1660e01b8152600401610b66929190612e9d565b602060405180830381865afa158015610b83573d6000803e3d6000fd5b505050506040513d601f19601f82011682018060405250810190610ba79190612edb565b610be6576040517f08c379a0000000000000000000000000000000000000000000000000000000008152600401610bdd90612f54565b60405180910390fd5b604051806060016040528084815260200182815260200160011515815250600560003373ffffffffffffffffffffffffffffffffffffffff1673ffffffffffffffffffffffffffffffffffffffff16815260200190815260200160002060008681526020019081526020016000206000610c6060046116c0565b81526020019081526020016000206000820151816000019081610c839190613120565b506020820151816001015560408201518160020160006101000a81548160ff021916908315150217905550905050610cd530610cbf60046116c0565b84604051806020016040528060008152506116ce565b3373ffffffffffffffffffffffffffffffffffffffff167fec09b4dfb989318a264039a7d0a2f5a1f63fe13419bcd361f27ff0d6def8a5eb610d1760046116c0565b858585604051610d2a94939291906131f2565b60405180910390a2610d3c600461187e565b5050505050565b6000600360009054906101000a900473ffffffffffffffffffffffffffffffffffffffff16905090565b610d7f610d78610fb8565b8383611894565b5050565b6000600160008473ffffffffffffffffffffffffffffffffffffffff1673ffffffffffffffffffffffffffffffffffffffff16815260200190815260200160002060008373ffffffffffffffffffffffffffffffffffffffff1673ffffffffffffffffffffffffffffffffffffffff16815260200190815260200160002060009054906101000a900460ff16905092915050565b6000610e2330836103c4565b9050919050565b610e32610fb8565b73ffffffffffffffffffffffffffffffffffffffff168573ffffffffffffffffffffffffffffffffffffffff161480610e785750610e7785610e72610fb8565b610d83565b5b610eb7576040517f08c379a0000000000000000000000000000000000000000000000000000000008152600401610eae90612b1c565b60405180910390fd5b610ec485858585856112e1565b5050505050565b610ed361157c565b600073ffffffffffffffffffffffffffffffffffffffff168173ffffffffffffffffffffffffffffffffffffffff1603610f42576040517f08c379a0000000000000000000000000000000000000000000000000000000008152600401610f39906132b0565b60405180910390fd5b610f4b816115fa565b50565b60007f01ffc9a7000000000000000000000000000000000000000000000000000000007bffffffffffffffffffffffffffffffffffffffffffffffffffffffff1916827bffffffffffffffffffffffffffffffffffffffffffffffffffffffff1916149050919050565b600033905090565b8151835114611004576040517f08c379a0000000000000000000000000000000000000000000000000000000008152600401610ffb90613342565b60405180910390fd5b600073ffffffffffffffffffffffffffffffffffffffff168473ffffffffffffffffffffffffffffffffffffffff1603611073576040517f08c379a000000000000000000000000000000000000000000000000000000000815260040161106a906133d4565b60405180910390fd5b600061107d610fb8565b905061108d818787878787611a00565b60005b845181101561123e5760008582815181106110ae576110ad612bce565b5b6020026020010151905060008583815181106110cd576110cc612bce565b5b60200260200101519050600080600084815260200190815260200160002060008b73ffffffffffffffffffffffffffffffffffffffff1673ffffffffffffffffffffffffffffffffffffffff1681526020019081526020016000205490508181101561116e576040517f08c379a000000000000000000000000000000000000000000000000000000000815260040161116590613466565b60405180910390fd5b81810360008085815260200190815260200160002060008c73ffffffffffffffffffffffffffffffffffffffff1673ffffffffffffffffffffffffffffffffffffffff168152602001908152602001600020819055508160008085815260200190815260200160002060008b73ffffffffffffffffffffffffffffffffffffffff1673ffffffffffffffffffffffffffffffffffffffff16815260200190815260200160002060008282546112239190613486565b925050819055505050508061123790612c2c565b9050611090565b508473ffffffffffffffffffffffffffffffffffffffff168673ffffffffffffffffffffffffffffffffffffffff168273ffffffffffffffffffffffffffffffffffffffff167f4a39dc06d4c0dbc64b70af90fd698a233a518aa5d07e595d983b8c0526c8f7fb87876040516112b59291906134ba565b60405180910390a46112cb818787878787611a08565b6112d9818787878787611a10565b505050505050565b600073ffffffffffffffffffffffffffffffffffffffff168473ffffffffffffffffffffffffffffffffffffffff1603611350576040517f08c379a0000000000000000000000000000000000000000000000000000000008152600401611347906133d4565b60405180910390fd5b600061135a610fb8565b9050600061136785611be7565b9050600061137485611be7565b9050611384838989858589611a00565b600080600088815260200190815260200160002060008a73ffffffffffffffffffffffffffffffffffffffff1673ffffffffffffffffffffffffffffffffffffffff1681526020019081526020016000205490508581101561141b576040517f08c379a000000000000000000000000000000000000000000000000000000000815260040161141290613466565b60405180910390fd5b85810360008089815260200190815260200160002060008b73ffffffffffffffffffffffffffffffffffffffff1673ffffffffffffffffffffffffffffffffffffffff168152602001908152602001600020819055508560008089815260200190815260200160002060008a73ffffffffffffffffffffffffffffffffffffffff1673ffffffffffffffffffffffffffffffffffffffff16815260200190815260200160002060008282546114d09190613486565b925050819055508773ffffffffffffffffffffffffffffffffffffffff168973ffffffffffffffffffffffffffffffffffffffff168573ffffffffffffffffffffffffffffffffffffffff167fc3d58168c5ae7397731d063d5bbf3d657854427343f4c083240f7aacaa2d0f628a8a60405161154d9291906134f1565b60405180910390a4611563848a8a86868a611a08565b611571848a8a8a8a8a611c61565b505050505050505050565b611584610fb8565b73ffffffffffffffffffffffffffffffffffffffff166115a2610d43565b73ffffffffffffffffffffffffffffffffffffffff16146115f8576040517f08c379a00000000000000000000000000000000000000000000000000000000081526004016115ef90613566565b60405180910390fd5b565b6000600360009054906101000a900473ffffffffffffffffffffffffffffffffffffffff16905081600360006101000a81548173ffffffffffffffffffffffffffffffffffffffff021916908373ffffffffffffffffffffffffffffffffffffffff1602179055508173ffffffffffffffffffffffffffffffffffffffff168173ffffffffffffffffffffffffffffffffffffffff167f8be0079c531659141344cd1fd0a4f28419497f9722a3daafe3b4186f6b6457e060405160405180910390a35050565b600081600001549050919050565b600073ffffffffffffffffffffffffffffffffffffffff168473ffffffffffffffffffffffffffffffffffffffff160361173d576040517f08c379a0000000000000000000000000000000000000000000000000000000008152600401611734906135f8565b60405180910390fd5b6000611747610fb8565b9050600061175485611be7565b9050600061176185611be7565b905061177283600089858589611a00565b8460008088815260200190815260200160002060008973ffffffffffffffffffffffffffffffffffffffff1673ffffffffffffffffffffffffffffffffffffffff16815260200190815260200160002060008282546117d19190613486565b925050819055508673ffffffffffffffffffffffffffffffffffffffff16600073ffffffffffffffffffffffffffffffffffffffff168473ffffffffffffffffffffffffffffffffffffffff167fc3d58168c5ae7397731d063d5bbf3d657854427343f4c083240f7aacaa2d0f62898960405161184f9291906134f1565b60405180910390a461186683600089858589611a08565b61187583600089898989611c61565b50505050505050565b6001816000016000828254019250508190555050565b8173ffffffffffffffffffffffffffffffffffffffff168373ffffffffffffffffffffffffffffffffffffffff1603611902576040517f08c379a00000000000000000000000000000000000000000000000000000000081526004016118f99061368a565b60405180910390fd5b80600160008573ffffffffffffffffffffffffffffffffffffffff1673ffffffffffffffffffffffffffffffffffffffff16815260200190815260200160002060008473ffffffffffffffffffffffffffffffffffffffff1673ffffffffffffffffffffffffffffffffffffffff16815260200190815260200160002060006101000a81548160ff0219169083151502179055508173ffffffffffffffffffffffffffffffffffffffff168373ffffffffffffffffffffffffffffffffffffffff167f17307eab39ab6107e8899845ad3d59bd9653f200f220920489ca2b5937696c31836040516119f3919061200d565b60405180910390a3505050565b505050505050565b505050505050565b611a2f8473ffffffffffffffffffffffffffffffffffffffff16611e38565b15611bdf578373ffffffffffffffffffffffffffffffffffffffff1663bc197c8187878686866040518663ffffffff1660e01b8152600401611a759594939291906136ff565b6020604051808303816000875af1925050508015611ab157506040513d601f19601f82011682018060405250810190611aae919061377c565b60015b611b5657611abd6137b6565b806308c379a003611b195750611ad16137d8565b80611adc5750611b1b565b806040517f08c379a0000000000000000000000000000000000000000000000000000000008152600401611b1091906120e5565b60405180910390fd5b505b6040517f08c379a0000000000000000000000000000000000000000000000000000000008152600401611b4d906138da565b60405180910390fd5b63bc197c8160e01b7bffffffffffffffffffffffffffffffffffffffffffffffffffffffff1916817bffffffffffffffffffffffffffffffffffffffffffffffffffffffff191614611bdd576040517f08c379a0000000000000000000000000000000000000000000000000000000008152600401611bd49061396c565b60405180910390fd5b505b505050505050565b60606000600167ffffffffffffffff811115611c0657611c0561219d565b5b604051908082528060200260200182016040528015611c345781602001602082028036833780820191505090505b5090508281600081518110611c4c57611c4b612bce565b5b60200260200101818152505080915050919050565b611c808473ffffffffffffffffffffffffffffffffffffffff16611e38565b15611e30578373ffffffffffffffffffffffffffffffffffffffff1663f23a6e6187878686866040518663ffffffff1660e01b8152600401611cc695949392919061398c565b6020604051808303816000875af1925050508015611d0257506040513d601f19601f82011682018060405250810190611cff919061377c565b60015b611da757611d0e6137b6565b806308c379a003611d6a5750611d226137d8565b80611d2d5750611d6c565b806040517f08c379a0000000000000000000000000000000000000000000000000000000008152600401611d6191906120e5565b60405180910390fd5b505b6040517f08c379a0000000000000000000000000000000000000000000000000000000008152600401611d9e906138da565b60405180910390fd5b63f23a6e6160e01b7bffffffffffffffffffffffffffffffffffffffffffffffffffffffff1916817bffffffffffffffffffffffffffffffffffffffffffffffffffffffff191614611e2e576040517f08c379a0000000000000000000000000000000000000000000000000000000008152600401611e259061396c565b60405180910390fd5b505b505050505050565b6000808273ffffffffffffffffffffffffffffffffffffffff163b119050919050565b6000604051905090565b600080fd5b600080fd5b600073ffffffffffffffffffffffffffffffffffffffff82169050919050565b6000611e9a82611e6f565b9050919050565b611eaa81611e8f565b8114611eb557600080fd5b50565b600081359050611ec781611ea1565b92915050565b6000819050919050565b611ee081611ecd565b8114611eeb57600080fd5b50565b600081359050611efd81611ed7565b92915050565b60008060408385031215611f1a57611f19611e65565b5b6000611f2885828601611eb8565b9250506020611f3985828601611eee565b9150509250929050565b611f4c81611ecd565b82525050565b6000602082019050611f676000830184611f43565b92915050565b60007fffffffff0000000000000000000000000000000000000000000000000000000082169050919050565b611fa281611f6d565b8114611fad57600080fd5b50565b600081359050611fbf81611f99565b92915050565b600060208284031215611fdb57611fda611e65565b5b6000611fe984828501611fb0565b91505092915050565b60008115159050919050565b61200781611ff2565b82525050565b60006020820190506120226000830184611ffe565b92915050565b60006020828403121561203e5761203d611e65565b5b600061204c84828501611eee565b91505092915050565b600081519050919050565b600082825260208201905092915050565b60005b8381101561208f578082015181840152602081019050612074565b60008484015250505050565b6000601f19601f8301169050919050565b60006120b782612055565b6120c18185612060565b93506120d1818560208601612071565b6120da8161209b565b840191505092915050565b600060208201905081810360008301526120ff81846120ac565b905092915050565b6000806000606084860312156121205761211f611e65565b5b600061212e86828701611eb8565b935050602061213f86828701611eee565b925050604061215086828701611eee565b9150509250925092565b6000606082019050818103600083015261217481866120ac565b90506121836020830185611f43565b6121906040830184611ffe565b949350505050565b600080fd5b7f4e487b7100000000000000000000000000000000000000000000000000000000600052604160045260246000fd5b6121d58261209b565b810181811067ffffffffffffffff821117156121f4576121f361219d565b5b80604052505050565b6000612207611e5b565b905061221382826121cc565b919050565b600067ffffffffffffffff8211156122335761223261219d565b5b602082029050602081019050919050565b600080fd5b600061225c61225784612218565b6121fd565b9050808382526020820190506020840283018581111561227f5761227e612244565b5b835b818110156122a857806122948882611eee565b845260208401935050602081019050612281565b5050509392505050565b600082601f8301126122c7576122c6612198565b5b81356122d7848260208601612249565b91505092915050565b600080fd5b600067ffffffffffffffff821115612300576122ff61219d565b5b6123098261209b565b9050602081019050919050565b82818337600083830152505050565b6000612338612333846122e5565b6121fd565b905082815260208101848484011115612354576123536122e0565b5b61235f848285612316565b509392505050565b600082601f83011261237c5761237b612198565b5b813561238c848260208601612325565b91505092915050565b600080600080600060a086880312156123b1576123b0611e65565b5b60006123bf88828901611eb8565b95505060206123d088828901611eb8565b945050604086013567ffffffffffffffff8111156123f1576123f0611e6a565b5b6123fd888289016122b2565b935050606086013567ffffffffffffffff81111561241e5761241d611e6a565b5b61242a888289016122b2565b925050608086013567ffffffffffffffff81111561244b5761244a611e6a565b5b61245788828901612367565b9150509295509295909350565b600067ffffffffffffffff82111561247f5761247e61219d565b5b602082029050602081019050919050565b60006124a361249e84612464565b6121fd565b905080838252602082019050602084028301858111156124c6576124c5612244565b5b835b818110156124ef57806124db8882611eb8565b8452602084019350506020810190506124c8565b5050509392505050565b600082601f83011261250e5761250d612198565b5b813561251e848260208601612490565b91505092915050565b6000806040838503121561253e5761253d611e65565b5b600083013567ffffffffffffffff81111561255c5761255b611e6a565b5b612568858286016124f9565b925050602083013567ffffffffffffffff81111561258957612588611e6a565b5b612595858286016122b2565b9150509250929050565b600081519050919050565b600082825260208201905092915050565b6000819050602082019050919050565b6125d481611ecd565b82525050565b60006125e683836125cb565b60208301905092915050565b6000602082019050919050565b600061260a8261259f565b61261481856125aa565b935061261f836125bb565b8060005b8381101561265057815161263788826125da565b9750612642836125f2565b925050600181019050612623565b5085935050505092915050565b6000602082019050818103600083015261267781846125ff565b905092915050565b6000806000806080858703121561269957612698611e65565b5b60006126a787828801611eb8565b94505060206126b887828801611eee565b93505060406126c987828801611eee565b92505060606126da87828801611eee565b91505092959194509250565b600067ffffffffffffffff8211156127015761270061219d565b5b61270a8261209b565b9050602081019050919050565b600061272a612725846126e6565b6121fd565b905082815260208101848484011115612746576127456122e0565b5b612751848285612316565b509392505050565b600082601f83011261276e5761276d612198565b5b813561277e848260208601612717565b91505092915050565b600080600080600060a086880312156127a3576127a2611e65565b5b60006127b188828901611eb8565b95505060206127c288828901611eee565b945050604086013567ffffffffffffffff8111156127e3576127e2611e6a565b5b6127ef88828901612759565b935050606061280088828901611eee565b925050608061281188828901611eee565b9150509295509295909350565b61282781611e8f565b82525050565b6000602082019050612842600083018461281e565b92915050565b61285181611ff2565b811461285c57600080fd5b50565b60008135905061286e81612848565b92915050565b6000806040838503121561288b5761288a611e65565b5b600061289985828601611eb8565b92505060206128aa8582860161285f565b9150509250929050565b600080604083850312156128cb576128ca611e65565b5b60006128d985828601611eb8565b92505060206128ea85828601611eb8565b9150509250929050565b600080600080600060a086880312156129105761290f611e65565b5b600061291e88828901611eb8565b955050602061292f88828901611eb8565b945050604061294088828901611eee565b935050606061295188828901611eee565b925050608086013567ffffffffffffffff81111561297257612971611e6a565b5b61297e88828901612367565b9150509295509295909350565b6000602082840312156129a1576129a0611e65565b5b60006129af84828501611eb8565b91505092915050565b7f455243313135353a2061646472657373207a65726f206973206e6f742061207660008201527f616c6964206f776e657200000000000000000000000000000000000000000000602082015250565b6000612a14602a83612060565b9150612a1f826129b8565b604082019050919050565b60006020820190508181036000830152612a4381612a07565b9050919050565b7f4e487b7100000000000000000000000000000000000000000000000000000000600052602260045260246000fd5b60006002820490506001821680612a9157607f821691505b602082108103612aa457612aa3612a4a565b5b50919050565b7f455243313135353a2063616c6c6572206973206e6f7420746f6b656e206f776e60008201527f6572206f7220617070726f766564000000000000000000000000000000000000602082015250565b6000612b06602e83612060565b9150612b1182612aaa565b604082019050919050565b60006020820190508181036000830152612b3581612af9565b9050919050565b7f455243313135353a206163636f756e747320616e6420696473206c656e67746860008201527f206d69736d617463680000000000000000000000000000000000000000000000602082015250565b6000612b98602983612060565b9150612ba382612b3c565b604082019050919050565b60006020820190508181036000830152612bc781612b8b565b9050919050565b7f4e487b7100000000000000000000000000000000000000000000000000000000600052603260045260246000fd5b7f4e487b7100000000000000000000000000000000000000000000000000000000600052601160045260246000fd5b6000612c3782611ecd565b91507fffffffffffffffffffffffffffffffffffffffffffffffffffffffffffffffff8203612c6957612c68612bfd565b5b600182019050919050565b7f5469636b657420646f6573206e6f742065786973740000000000000000000000600082015250565b6000612caa601583612060565b9150612cb582612c74565b602082019050919050565b60006020820190508181036000830152612cd981612c9d565b9050919050565b7f4e6f207469636b65747320617661696c61626c65000000000000000000000000600082015250565b6000612d16601483612060565b9150612d2182612ce0565b602082019050919050565b60006020820190508181036000830152612d4581612d09565b9050919050565b6000612d5782611ecd565b9150612d6283611ecd565b9250828202612d7081611ecd565b91508282048414831517612d8757612d86612bfd565b5b5092915050565b7f42757965722062616c616e636520746f6f206c6f770000000000000000000000600082015250565b6000612dc4601583612060565b9150612dcf82612d8e565b602082019050919050565b60006020820190508181036000830152612df381612db7565b9050919050565b7f57726f6e67207061796d656e7420616d6f756e74000000000000000000000000600082015250565b6000612e30601483612060565b9150612e3b82612dfa565b602082019050919050565b60006020820190508181036000830152612e5f81612e23565b9050919050565b6000606082019050612e7b6000830186611f43565b612e886020830185611f43565b612e956040830184611f43565b949350505050565b6000604082019050612eb2600083018561281e565b612ebf6020830184611f43565b9392505050565b600081519050612ed581612848565b92915050565b600060208284031215612ef157612ef0611e65565b5b6000612eff84828501612ec6565b91505092915050565b7f4576656e7420646f6573206e6f74206578697374000000000000000000000000600082015250565b6000612f3e601483612060565b9150612f4982612f08565b602082019050919050565b60006020820190508181036000830152612f6d81612f31565b9050919050565b60008190508160005260206000209050919050565b60006020601f8301049050919050565b600082821b905092915050565b600060088302612fd67fffffffffffffffffffffffffffffffffffffffffffffffffffffffffffffffff82612f99565b612fe08683612f99565b95508019841693508086168417925050509392505050565b6000819050919050565b600061301d61301861301384611ecd565b612ff8565b611ecd565b9050919050565b6000819050919050565b61303783613002565b61304b61304382613024565b848454612fa6565b825550505050565b600090565b613060613053565b61306b81848461302e565b505050565b5b8181101561308f57613084600082613058565b600181019050613071565b5050565b601f8211156130d4576130a581612f74565b6130ae84612f89565b810160208510156130bd578190505b6130d16130c985612f89565b830182613070565b50505b505050565b600082821c905092915050565b60006130f7600019846008026130d9565b1980831691505092915050565b600061311083836130e6565b9150826002028217905092915050565b61312982612055565b67ffffffffffffffff8111156131425761314161219d565b5b61314c8254612a79565b613157828285613093565b600060209050601f83116001811461318a5760008415613178578287015190505b6131828582613104565b8655506131ea565b601f19841661319886612f74565b60005b828110156131c05784890151825560018201915060208501945060208101905061319b565b868310156131dd57848901516131d9601f8916826130e6565b8355505b6001600288020188555050505b505050505050565b60006080820190506132076000830187611f43565b818103602083015261321981866120ac565b90506132286040830185611f43565b6132356060830184611f43565b95945050505050565b7f4f776e61626c653a206e6577206f776e657220697320746865207a65726f206160008201527f6464726573730000000000000000000000000000000000000000000000000000602082015250565b600061329a602683612060565b91506132a58261323e565b604082019050919050565b600060208201905081810360008301526132c98161328d565b9050919050565b7f455243313135353a2069647320616e6420616d6f756e7473206c656e6774682060008201527f6d69736d61746368000000000000000000000000000000000000000000000000602082015250565b600061332c602883612060565b9150613337826132d0565b604082019050919050565b6000602082019050818103600083015261335b8161331f565b9050919050565b7f455243313135353a207472616e7366657220746f20746865207a65726f20616460008201527f6472657373000000000000000000000000000000000000000000000000000000602082015250565b60006133be602583612060565b91506133c982613362565b604082019050919050565b600060208201905081810360008301526133ed816133b1565b9050919050565b7f455243313135353a20696e73756666696369656e742062616c616e636520666f60008201527f72207472616e7366657200000000000000000000000000000000000000000000602082015250565b6000613450602a83612060565b915061345b826133f4565b604082019050919050565b6000602082019050818103600083015261347f81613443565b9050919050565b600061349182611ecd565b915061349c83611ecd565b92508282019050808211156134b4576134b3612bfd565b5b92915050565b600060408201905081810360008301526134d481856125ff565b905081810360208301526134e881846125ff565b90509392505050565b60006040820190506135066000830185611f43565b6135136020830184611f43565b9392505050565b7f4f776e61626c653a2063616c6c6572206973206e6f7420746865206f776e6572600082015250565b6000613550602083612060565b915061355b8261351a565b602082019050919050565b6000602082019050818103600083015261357f81613543565b9050919050565b7f455243313135353a206d696e7420746f20746865207a65726f2061646472657360008201527f7300000000000000000000000000000000000000000000000000000000000000602082015250565b60006135e2602183612060565b91506135ed82613586565b604082019050919050565b60006020820190508181036000830152613611816135d5565b9050919050565b7f455243313135353a2073657474696e6720617070726f76616c2073746174757360008201527f20666f722073656c660000000000000000000000000000000000000000000000602082015250565b6000613674602983612060565b915061367f82613618565b604082019050919050565b600060208201905081810360008301526136a381613667565b9050919050565b600081519050919050565b600082825260208201905092915050565b60006136d1826136aa565b6136db81856136b5565b93506136eb818560208601612071565b6136f48161209b565b840191505092915050565b600060a082019050613714600083018861281e565b613721602083018761281e565b818103604083015261373381866125ff565b9050818103606083015261374781856125ff565b9050818103608083015261375b81846136c6565b90509695505050505050565b60008151905061377681611f99565b92915050565b60006020828403121561379257613791611e65565b5b60006137a084828501613767565b91505092915050565b60008160e01c9050919050565b600060033d11156137d55760046000803e6137d26000516137a9565b90505b90565b600060443d10613865576137ea611e5b565b60043d036004823e80513d602482011167ffffffffffffffff82111715613812575050613865565b808201805167ffffffffffffffff8111156138305750505050613865565b80602083010160043d03850181111561384d575050505050613865565b61385c826020018501866121cc565b82955050505050505b90565b7f455243313135353a207472616e7366657220746f206e6f6e2d4552433131353560008201527f526563656976657220696d706c656d656e746572000000000000000000000000602082015250565b60006138c4603483612060565b91506138cf82613868565b604082019050919050565b600060208201905081810360008301526138f3816138b7565b9050919050565b7f455243313135353a204552433131353552656365697665722072656a6563746560008201527f6420746f6b656e73000000000000000000000000000000000000000000000000602082015250565b6000613956602883612060565b9150613961826138fa565b604082019050919050565b6000602082019050818103600083015261398581613949565b9050919050565b600060a0820190506139a1600083018861281e565b6139ae602083018761281e565b6139bb6040830186611f43565b6139c86060830185611f43565b81810360808301526139da81846136c6565b9050969550505050505056fea264697066735822122061dbdc1d7c17a7fbbe421620e87e0606070ab49234f71c6a00d5ec5d3b1456c764736f6c63430008110033",
  "immutableReferences": {},
  "source": "// SPDX-License-Identifier: MIT\npragma solidity ^0.8.17;\n\nimport \"@openzeppelin/contracts/access/Ownable.sol\";\nimport \"@openzeppelin/contracts/utils/Counters.sol\";\nimport \"@openzeppelin/contracts/token/ERC1155/ERC1155.sol\";\nimport \"./Event.sol\";\n\ninterface TicketInterface {\n    struct TicketStruct {\n        string name;\n        uint256 price;\n        bool is_set;\n    }\n\n    function create_ticket(\n        address _event_contract,\n        uint256 _event_id,\n        string memory _name,\n        uint256 _quantity,\n        uint256 _price\n    ) external;\n\n    function buy_ticket(\n        address _organizer_address,\n        uint256 _event_id,\n        uint256 _ticket_id,\n        uint256 _quantity\n    ) external payable;\n\n    function available_tickets(uint256 _ticket_id)\n        external\n        view\n        returns (uint256);\n}\n\ncontract Ticket is TicketInterface, ERC1155, Ownable {\n    Counters.Counter ticket_id;\n    mapping(address => mapping(uint256 => mapping(uint256 => TicketStruct)))\n        public tickets;\n\n    event TicketCreated(\n        address indexed _admin,\n        uint256 _ticket_id,\n        string _name,\n        uint256 _quantity,\n        uint256 _price\n    );\n\n    event TicketBought(\n        address indexed _buyer,\n        uint256 _ticket_id,\n        uint256 _quantity,\n        uint256 _price\n    );\n\n    constructor() ERC1155(\"\") {}\n\n    // Functions\n    function create_ticket(\n        address _event_contract,\n        uint256 _event_id,\n        string memory _name,\n        uint256 _quantity,\n        uint256 _price\n    ) external {\n        require(\n            EventInterface(_event_contract).is_event(msg.sender, _event_id),\n            \"Event does not exist\"\n        );\n        // require(\n        //     tickets[msg.sender][_event_id].start_datetime < block.timestamp,\n        //     \"Event is passed\"\n        // );\n        tickets[msg.sender][_event_id][\n            Counters.current(ticket_id)\n        ] = TicketStruct(_name, _price, true);\n        _mint(address(this), Counters.current(ticket_id), _quantity, \"\");\n        emit TicketCreated(\n            msg.sender,\n            Counters.current(ticket_id),\n            _name,\n            _quantity,\n            _price\n        );\n        Counters.increment(ticket_id);\n    }\n\n    function buy_ticket(\n        address _organizer_address,\n        uint256 _event_id,\n        uint256 _ticket_id,\n        uint256 _quantity\n    ) external payable {\n        require(\n            tickets[_organizer_address][_event_id][_ticket_id].is_set,\n            \"Ticket does not exist\"\n        );\n        require(\n            balanceOf(address(this), _ticket_id) > 0,\n            \"No tickets available\"\n        );\n        // require(\n        //     tickets[_organizer_address][_event_id].start_datetime <\n        //         block.timestamp,\n        //     \"Event is passed\"\n        // );\n        uint256 total_price = _quantity *\n            tickets[_organizer_address][_event_id][_ticket_id].price;\n        require(msg.sender.balance >= total_price, \"Buyer balance too low\");\n        require(msg.value == total_price, \"Wrong payment amount\");\n        _safeTransferFrom(address(this), msg.sender, _ticket_id, _quantity, \"\");\n\n        emit TicketBought(msg.sender, _ticket_id, _quantity, total_price);\n    }\n\n    function available_tickets(uint256 _ticket_id)\n        external\n        view\n        returns (uint256)\n    {\n        return balanceOf(address(this), _ticket_id);\n    }\n}\n",
  "sourcePath": "/home/flaprimo/Development/decentralized-ticket-sales/backend/contracts/Ticket.sol",
  "compiler": {
    "name": "solc",
    "version": "0.8.17+commit.8df45f5f.Emscripten.clang"
  },
  "schemaVersion": "3.4.10",
  "updatedAt": "2023-01-21T02:41:40.161Z",
  "devdoc": {
    "kind": "dev",
    "methods": {
      "balanceOf(address,uint256)": {
        "details": "See {IERC1155-balanceOf}. Requirements: - `account` cannot be the zero address."
      },
      "balanceOfBatch(address[],uint256[])": {
        "details": "See {IERC1155-balanceOfBatch}. Requirements: - `accounts` and `ids` must have the same length."
      },
      "isApprovedForAll(address,address)": {
        "details": "See {IERC1155-isApprovedForAll}."
      },
      "owner()": {
        "details": "Returns the address of the current owner."
      },
      "renounceOwnership()": {
        "details": "Leaves the contract without owner. It will not be possible to call `onlyOwner` functions anymore. Can only be called by the current owner. NOTE: Renouncing ownership will leave the contract without an owner, thereby removing any functionality that is only available to the owner."
      },
      "safeBatchTransferFrom(address,address,uint256[],uint256[],bytes)": {
        "details": "See {IERC1155-safeBatchTransferFrom}."
      },
      "safeTransferFrom(address,address,uint256,uint256,bytes)": {
        "details": "See {IERC1155-safeTransferFrom}."
      },
      "setApprovalForAll(address,bool)": {
        "details": "See {IERC1155-setApprovalForAll}."
      },
      "supportsInterface(bytes4)": {
        "details": "See {IERC165-supportsInterface}."
      },
      "transferOwnership(address)": {
        "details": "Transfers ownership of the contract to a new account (`newOwner`). Can only be called by the current owner."
      },
      "uri(uint256)": {
        "details": "See {IERC1155MetadataURI-uri}. This implementation returns the same URI for *all* token types. It relies on the token type ID substitution mechanism https://eips.ethereum.org/EIPS/eip-1155#metadata[defined in the EIP]. Clients calling this function must replace the `\\{id\\}` substring with the actual token type ID."
      }
    },
    "version": 1
  },
  "userdoc": {
    "kind": "user",
    "methods": {},
    "version": 1
  }
}