{
  "contractName": "Ticket",
  "abi": [
    {
      "anonymous": false,
      "inputs": [
        {
          "indexed": true,
          "internalType": "address",
          "name": "account",
          "type": "address"
        },
        {
          "indexed": true,
          "internalType": "address",
          "name": "operator",
          "type": "address"
        },
        {
          "indexed": false,
          "internalType": "bool",
          "name": "approved",
          "type": "bool"
        }
      ],
      "name": "ApprovalForAll",
      "type": "event"
    },
    {
      "anonymous": false,
      "inputs": [
        {
          "indexed": false,
          "internalType": "uint8",
          "name": "version",
          "type": "uint8"
        }
      ],
      "name": "Initialized",
      "type": "event"
    },
    {
      "anonymous": false,
      "inputs": [
        {
          "indexed": true,
          "internalType": "address",
          "name": "previousOwner",
          "type": "address"
        },
        {
          "indexed": true,
          "internalType": "address",
          "name": "newOwner",
          "type": "address"
        }
      ],
      "name": "OwnershipTransferred",
      "type": "event"
    },
    {
      "anonymous": false,
      "inputs": [
        {
          "indexed": true,
          "internalType": "address",
          "name": "_buyer",
          "type": "address"
        },
        {
          "indexed": false,
          "internalType": "uint256",
          "name": "_ticket_id",
          "type": "uint256"
        },
        {
          "indexed": false,
          "internalType": "uint256",
          "name": "_quantity",
          "type": "uint256"
        },
        {
          "indexed": false,
          "internalType": "uint256",
          "name": "_price",
          "type": "uint256"
        }
      ],
      "name": "TicketBought",
      "type": "event"
    },
    {
      "anonymous": false,
      "inputs": [
        {
          "indexed": true,
          "internalType": "address",
          "name": "_admin",
          "type": "address"
        },
        {
          "indexed": false,
          "internalType": "uint256",
          "name": "_ticket_id",
          "type": "uint256"
        },
        {
          "indexed": false,
          "internalType": "string",
          "name": "_name",
          "type": "string"
        },
        {
          "indexed": false,
          "internalType": "uint256",
          "name": "_quantity",
          "type": "uint256"
        },
        {
          "indexed": false,
          "internalType": "uint256",
          "name": "_price",
          "type": "uint256"
        }
      ],
      "name": "TicketCreated",
      "type": "event"
    },
    {
      "anonymous": false,
      "inputs": [
        {
          "indexed": true,
          "internalType": "address",
          "name": "operator",
          "type": "address"
        },
        {
          "indexed": true,
          "internalType": "address",
          "name": "from",
          "type": "address"
        },
        {
          "indexed": true,
          "internalType": "address",
          "name": "to",
          "type": "address"
        },
        {
          "indexed": false,
          "internalType": "uint256[]",
          "name": "ids",
          "type": "uint256[]"
        },
        {
          "indexed": false,
          "internalType": "uint256[]",
          "name": "values",
          "type": "uint256[]"
        }
      ],
      "name": "TransferBatch",
      "type": "event"
    },
    {
      "anonymous": false,
      "inputs": [
        {
          "indexed": true,
          "internalType": "address",
          "name": "operator",
          "type": "address"
        },
        {
          "indexed": true,
          "internalType": "address",
          "name": "from",
          "type": "address"
        },
        {
          "indexed": true,
          "internalType": "address",
          "name": "to",
          "type": "address"
        },
        {
          "indexed": false,
          "internalType": "uint256",
          "name": "id",
          "type": "uint256"
        },
        {
          "indexed": false,
          "internalType": "uint256",
          "name": "value",
          "type": "uint256"
        }
      ],
      "name": "TransferSingle",
      "type": "event"
    },
    {
      "anonymous": false,
      "inputs": [
        {
          "indexed": false,
          "internalType": "string",
          "name": "value",
          "type": "string"
        },
        {
          "indexed": true,
          "internalType": "uint256",
          "name": "id",
          "type": "uint256"
        }
      ],
      "name": "URI",
      "type": "event"
    },
    {
      "inputs": [
        {
          "internalType": "address",
          "name": "account",
          "type": "address"
        },
        {
          "internalType": "uint256",
          "name": "id",
          "type": "uint256"
        }
      ],
      "name": "balanceOf",
      "outputs": [
        {
          "internalType": "uint256",
          "name": "",
          "type": "uint256"
        }
      ],
      "stateMutability": "view",
      "type": "function"
    },
    {
      "inputs": [
        {
          "internalType": "address[]",
          "name": "accounts",
          "type": "address[]"
        },
        {
          "internalType": "uint256[]",
          "name": "ids",
          "type": "uint256[]"
        }
      ],
      "name": "balanceOfBatch",
      "outputs": [
        {
          "internalType": "uint256[]",
          "name": "",
          "type": "uint256[]"
        }
      ],
      "stateMutability": "view",
      "type": "function"
    },
    {
      "inputs": [
        {
          "internalType": "address",
          "name": "account",
          "type": "address"
        },
        {
          "internalType": "address",
          "name": "operator",
          "type": "address"
        }
      ],
      "name": "isApprovedForAll",
      "outputs": [
        {
          "internalType": "bool",
          "name": "",
          "type": "bool"
        }
      ],
      "stateMutability": "view",
      "type": "function"
    },
    {
      "inputs": [],
      "name": "owner",
      "outputs": [
        {
          "internalType": "address",
          "name": "",
          "type": "address"
        }
      ],
      "stateMutability": "view",
      "type": "function"
    },
    {
      "inputs": [],
      "name": "renounceOwnership",
      "outputs": [],
      "stateMutability": "nonpayable",
      "type": "function"
    },
    {
      "inputs": [
        {
          "internalType": "address",
          "name": "from",
          "type": "address"
        },
        {
          "internalType": "address",
          "name": "to",
          "type": "address"
        },
        {
          "internalType": "uint256[]",
          "name": "ids",
          "type": "uint256[]"
        },
        {
          "internalType": "uint256[]",
          "name": "amounts",
          "type": "uint256[]"
        },
        {
          "internalType": "bytes",
          "name": "data",
          "type": "bytes"
        }
      ],
      "name": "safeBatchTransferFrom",
      "outputs": [],
      "stateMutability": "nonpayable",
      "type": "function"
    },
    {
      "inputs": [
        {
          "internalType": "address",
          "name": "from",
          "type": "address"
        },
        {
          "internalType": "address",
          "name": "to",
          "type": "address"
        },
        {
          "internalType": "uint256",
          "name": "id",
          "type": "uint256"
        },
        {
          "internalType": "uint256",
          "name": "amount",
          "type": "uint256"
        },
        {
          "internalType": "bytes",
          "name": "data",
          "type": "bytes"
        }
      ],
      "name": "safeTransferFrom",
      "outputs": [],
      "stateMutability": "nonpayable",
      "type": "function"
    },
    {
      "inputs": [
        {
          "internalType": "address",
          "name": "operator",
          "type": "address"
        },
        {
          "internalType": "bool",
          "name": "approved",
          "type": "bool"
        }
      ],
      "name": "setApprovalForAll",
      "outputs": [],
      "stateMutability": "nonpayable",
      "type": "function"
    },
    {
      "inputs": [
        {
          "internalType": "bytes4",
          "name": "interfaceId",
          "type": "bytes4"
        }
      ],
      "name": "supportsInterface",
      "outputs": [
        {
          "internalType": "bool",
          "name": "",
          "type": "bool"
        }
      ],
      "stateMutability": "view",
      "type": "function"
    },
    {
      "inputs": [
        {
          "internalType": "uint256",
          "name": "",
          "type": "uint256"
        }
      ],
      "name": "ticket_list",
      "outputs": [
        {
          "internalType": "uint256",
          "name": "",
          "type": "uint256"
        }
      ],
      "stateMutability": "view",
      "type": "function"
    },
    {
      "inputs": [
        {
          "internalType": "address",
          "name": "",
          "type": "address"
        },
        {
          "internalType": "uint256",
          "name": "",
          "type": "uint256"
        },
        {
          "internalType": "uint256",
          "name": "",
          "type": "uint256"
        }
      ],
      "name": "tickets",
      "outputs": [
        {
          "internalType": "string",
          "name": "name",
          "type": "string"
        },
        {
          "internalType": "uint256",
          "name": "price",
          "type": "uint256"
        },
        {
          "internalType": "bool",
          "name": "is_set",
          "type": "bool"
        }
      ],
      "stateMutability": "view",
      "type": "function"
    },
    {
      "inputs": [
        {
          "internalType": "address",
          "name": "newOwner",
          "type": "address"
        }
      ],
      "name": "transferOwnership",
      "outputs": [],
      "stateMutability": "nonpayable",
      "type": "function"
    },
    {
      "inputs": [
        {
          "internalType": "uint256",
          "name": "",
          "type": "uint256"
        }
      ],
      "name": "uri",
      "outputs": [
        {
          "internalType": "string",
          "name": "",
          "type": "string"
        }
      ],
      "stateMutability": "view",
      "type": "function"
    },
    {
      "inputs": [
        {
          "internalType": "address",
          "name": "_event_contract",
          "type": "address"
        }
      ],
      "name": "initialize",
      "outputs": [],
      "stateMutability": "nonpayable",
      "type": "function"
    },
    {
      "inputs": [
        {
          "internalType": "uint256",
          "name": "_event_id",
          "type": "uint256"
        },
        {
          "internalType": "string",
          "name": "_name",
          "type": "string"
        },
        {
          "internalType": "uint256",
          "name": "_quantity",
          "type": "uint256"
        },
        {
          "internalType": "uint256",
          "name": "_price",
          "type": "uint256"
        }
      ],
      "name": "create_ticket",
      "outputs": [],
      "stateMutability": "nonpayable",
      "type": "function"
    },
    {
      "inputs": [
        {
          "internalType": "address",
          "name": "_organizer_address",
          "type": "address"
        },
        {
          "internalType": "uint256",
          "name": "_event_id",
          "type": "uint256"
        },
        {
          "internalType": "uint256",
          "name": "_ticket_id",
          "type": "uint256"
        },
        {
          "internalType": "uint256",
          "name": "_quantity",
          "type": "uint256"
        }
      ],
      "name": "buy_ticket",
      "outputs": [],
      "stateMutability": "payable",
      "type": "function"
    },
    {
      "inputs": [
        {
          "internalType": "uint256",
          "name": "_ticket_id",
          "type": "uint256"
        }
      ],
      "name": "available_tickets",
      "outputs": [
        {
          "internalType": "uint256",
          "name": "",
          "type": "uint256"
        }
      ],
      "stateMutability": "view",
      "type": "function"
    }
  ],
  "bytecode": "0x608060405234801561001057600080fd5b50613ee3806100206000396000f3fe6080604052600436106100fd5760003560e01c8063715018a611610095578063c4d66de811610064578063c4d66de81461034b578063e985e9c514610374578063f088b381146103b1578063f242432a146103ee578063f2fde38b14610417576100fd565b8063715018a6146102b757806384843955146102ce5780638da5cb5b146102f7578063a22cb46514610322576100fd565b80632eb2c2d6116100d15780632eb2c2d6146101f857806331f648ad146102215780634e1273f41461025e57806353f59cac1461029b576100fd565b8062fdd58e1461010257806301ffc9a71461013f5780630e89341c1461017c5780632115f4d1146101b9575b600080fd5b34801561010e57600080fd5b5061012960048036038101906101249190612257565b610440565b60405161013691906122a6565b60405180910390f35b34801561014b57600080fd5b5061016660048036038101906101619190612319565b610509565b6040516101739190612361565b60405180910390f35b34801561018857600080fd5b506101a3600480360381019061019e919061237c565b6105eb565b6040516101b09190612439565b60405180910390f35b3480156101c557600080fd5b506101e060048036038101906101db919061245b565b61067f565b6040516101ef939291906124ae565b60405180910390f35b34801561020457600080fd5b5061021f600480360381019061021a91906126e9565b610758565b005b34801561022d57600080fd5b506102486004803603810190610243919061237c565b6107f9565b60405161025591906122a6565b60405180910390f35b34801561026a57600080fd5b506102856004803603810190610280919061287b565b61081d565b60405161029291906129b1565b60405180910390f35b6102b560048036038101906102b091906129d3565b610936565b005b3480156102c357600080fd5b506102cc610bb8565b005b3480156102da57600080fd5b506102f560048036038101906102f09190612adb565b610bcc565b005b34801561030357600080fd5b5061030c610e37565b6040516103199190612b6d565b60405180910390f35b34801561032e57600080fd5b5061034960048036038101906103449190612bb4565b610e61565b005b34801561035757600080fd5b50610372600480360381019061036d9190612bf4565b610e77565b005b34801561038057600080fd5b5061039b60048036038101906103969190612c21565b611007565b6040516103a89190612361565b60405180910390f35b3480156103bd57600080fd5b506103d860048036038101906103d3919061237c565b61109b565b6040516103e591906122a6565b60405180910390f35b3480156103fa57600080fd5b5061041560048036038101906104109190612c61565b6110ae565b005b34801561042357600080fd5b5061043e60048036038101906104399190612bf4565b61114f565b005b60008073ffffffffffffffffffffffffffffffffffffffff168373ffffffffffffffffffffffffffffffffffffffff16036104b0576040517f08c379a00000000000000000000000000000000000000000000000000000000081526004016104a790612d6a565b60405180910390fd5b6065600083815260200190815260200160002060008473ffffffffffffffffffffffffffffffffffffffff1673ffffffffffffffffffffffffffffffffffffffff16815260200190815260200160002054905092915050565b60007fd9b67a26000000000000000000000000000000000000000000000000000000007bffffffffffffffffffffffffffffffffffffffffffffffffffffffff1916827bffffffffffffffffffffffffffffffffffffffffffffffffffffffff191614806105d457507f0e89341c000000000000000000000000000000000000000000000000000000007bffffffffffffffffffffffffffffffffffffffffffffffffffffffff1916827bffffffffffffffffffffffffffffffffffffffffffffffffffffffff1916145b806105e457506105e3826111d2565b5b9050919050565b6060606780546105fa90612db9565b80601f016020809104026020016040519081016040528092919081815260200182805461062690612db9565b80156106735780601f1061064857610100808354040283529160200191610673565b820191906000526020600020905b81548152906001019060200180831161065657829003601f168201915b50505050509050919050565b60ca60205282600052604060002060205281600052604060002060205280600052604060002060009250925050508060000180546106bc90612db9565b80601f01602080910402602001604051908101604052809291908181526020018280546106e890612db9565b80156107355780601f1061070a57610100808354040283529160200191610735565b820191906000526020600020905b81548152906001019060200180831161071857829003601f168201915b5050505050908060010154908060020160009054906101000a900460ff16905083565b61076061123c565b73ffffffffffffffffffffffffffffffffffffffff168573ffffffffffffffffffffffffffffffffffffffff1614806107a657506107a5856107a061123c565b611007565b5b6107e5576040517f08c379a00000000000000000000000000000000000000000000000000000000081526004016107dc90612e5c565b60405180910390fd5b6107f28585858585611244565b5050505050565b60cb818154811061080957600080fd5b906000526020600020016000915090505481565b60608151835114610863576040517f08c379a000000000000000000000000000000000000000000000000000000000815260040161085a90612eee565b60405180910390fd5b6000835167ffffffffffffffff8111156108805761087f6124f1565b5b6040519080825280602002602001820160405280156108ae5781602001602082028036833780820191505090505b50905060005b845181101561092b576108fb8582815181106108d3576108d2612f0e565b5b60200260200101518583815181106108ee576108ed612f0e565b5b6020026020010151610440565b82828151811061090e5761090d612f0e565b5b6020026020010181815250508061092490612f6c565b90506108b4565b508091505092915050565b60ca60008573ffffffffffffffffffffffffffffffffffffffff1673ffffffffffffffffffffffffffffffffffffffff1681526020019081526020016000206000848152602001908152602001600020600083815260200190815260200160002060020160009054906101000a900460ff166109e7576040517f08c379a00000000000000000000000000000000000000000000000000000000081526004016109de90613000565b60405180910390fd5b60006109f33084610440565b11610a33576040517f08c379a0000000000000000000000000000000000000000000000000000000008152600401610a2a9061306c565b60405180910390fd5b600060ca60008673ffffffffffffffffffffffffffffffffffffffff1673ffffffffffffffffffffffffffffffffffffffff168152602001908152602001600020600085815260200190815260200160002060008481526020019081526020016000206001015482610aa5919061308c565b9050803373ffffffffffffffffffffffffffffffffffffffff16311015610b01576040517f08c379a0000000000000000000000000000000000000000000000000000000008152600401610af89061311a565b60405180910390fd5b803414610b43576040517f08c379a0000000000000000000000000000000000000000000000000000000008152600401610b3a90613186565b60405180910390fd5b610b5f3033858560405180602001604052806000815250611568565b3373ffffffffffffffffffffffffffffffffffffffff167f46cdbf90977f71f605a85b7c00f0d4d71f3d811fb25fad2d3ed3d15f0f84a5d7848484604051610ba9939291906131a6565b60405180910390a25050505050565b610bc0611806565b610bca6000611884565b565b60cc60009054906101000a900473ffffffffffffffffffffffffffffffffffffffff1673ffffffffffffffffffffffffffffffffffffffff1663c8ff5bf933866040518363ffffffff1660e01b8152600401610c299291906131dd565b602060405180830381865afa158015610c46573d6000803e3d6000fd5b505050506040513d601f19601f82011682018060405250810190610c6a919061321b565b610ca9576040517f08c379a0000000000000000000000000000000000000000000000000000000008152600401610ca090613294565b60405180910390fd5b60405180606001604052808481526020018281526020016001151581525060ca60003373ffffffffffffffffffffffffffffffffffffffff1673ffffffffffffffffffffffffffffffffffffffff16815260200190815260200160002060008681526020019081526020016000206000610d2360c961194a565b81526020019081526020016000206000820151816000019081610d469190613460565b506020820151816001015560408201518160020160006101000a81548160ff02191690831515021790555090505060cb610d8060c961194a565b9080600181540180825580915050600190039060005260206000200160009091909190915055610dca30610db460c961194a565b8460405180602001604052806000815250611958565b3373ffffffffffffffffffffffffffffffffffffffff167fec09b4dfb989318a264039a7d0a2f5a1f63fe13419bcd361f27ff0d6def8a5eb610e0c60c961194a565b858585604051610e1f9493929190613532565b60405180910390a2610e3160c9611b09565b50505050565b6000609760009054906101000a900473ffffffffffffffffffffffffffffffffffffffff16905090565b610e73610e6c61123c565b8383611b1f565b5050565b60008060019054906101000a900460ff16159050808015610ea85750600160008054906101000a900460ff1660ff16105b80610ed55750610eb730611c8b565b158015610ed45750600160008054906101000a900460ff1660ff16145b5b610f14576040517f08c379a0000000000000000000000000000000000000000000000000000000008152600401610f0b906135f0565b60405180910390fd5b60016000806101000a81548160ff021916908360ff1602179055508015610f51576001600060016101000a81548160ff0219169083151502179055505b8160cc60006101000a81548173ffffffffffffffffffffffffffffffffffffffff021916908373ffffffffffffffffffffffffffffffffffffffff160217905550610faa60405180602001604052806000815250611cae565b80156110035760008060016101000a81548160ff0219169083151502179055507f7f26b83ff96e1f2b6a682f133852f6798a09c465da95921460cefb38474024986001604051610ffa9190613658565b60405180910390a15b5050565b6000606660008473ffffffffffffffffffffffffffffffffffffffff1673ffffffffffffffffffffffffffffffffffffffff16815260200190815260200160002060008373ffffffffffffffffffffffffffffffffffffffff1673ffffffffffffffffffffffffffffffffffffffff16815260200190815260200160002060009054906101000a900460ff16905092915050565b60006110a73083610440565b9050919050565b6110b661123c565b73ffffffffffffffffffffffffffffffffffffffff168573ffffffffffffffffffffffffffffffffffffffff1614806110fc57506110fb856110f661123c565b611007565b5b61113b576040517f08c379a000000000000000000000000000000000000000000000000000000000815260040161113290612e5c565b60405180910390fd5b6111488585858585611568565b5050505050565b611157611806565b600073ffffffffffffffffffffffffffffffffffffffff168173ffffffffffffffffffffffffffffffffffffffff16036111c6576040517f08c379a00000000000000000000000000000000000000000000000000000000081526004016111bd906136e5565b60405180910390fd5b6111cf81611884565b50565b60007f01ffc9a7000000000000000000000000000000000000000000000000000000007bffffffffffffffffffffffffffffffffffffffffffffffffffffffff1916827bffffffffffffffffffffffffffffffffffffffffffffffffffffffff1916149050919050565b600033905090565b8151835114611288576040517f08c379a000000000000000000000000000000000000000000000000000000000815260040161127f90613777565b60405180910390fd5b600073ffffffffffffffffffffffffffffffffffffffff168473ffffffffffffffffffffffffffffffffffffffff16036112f7576040517f08c379a00000000000000000000000000000000000000000000000000000000081526004016112ee90613809565b60405180910390fd5b600061130161123c565b9050611311818787878787611d09565b60005b84518110156114c557600085828151811061133257611331612f0e565b5b60200260200101519050600085838151811061135157611350612f0e565b5b6020026020010151905060006065600084815260200190815260200160002060008b73ffffffffffffffffffffffffffffffffffffffff1673ffffffffffffffffffffffffffffffffffffffff168152602001908152602001600020549050818110156113f3576040517f08c379a00000000000000000000000000000000000000000000000000000000081526004016113ea9061389b565b60405180910390fd5b8181036065600085815260200190815260200160002060008c73ffffffffffffffffffffffffffffffffffffffff1673ffffffffffffffffffffffffffffffffffffffff16815260200190815260200160002081905550816065600085815260200190815260200160002060008b73ffffffffffffffffffffffffffffffffffffffff1673ffffffffffffffffffffffffffffffffffffffff16815260200190815260200160002060008282546114aa91906138bb565b92505081905550505050806114be90612f6c565b9050611314565b508473ffffffffffffffffffffffffffffffffffffffff168673ffffffffffffffffffffffffffffffffffffffff168273ffffffffffffffffffffffffffffffffffffffff167f4a39dc06d4c0dbc64b70af90fd698a233a518aa5d07e595d983b8c0526c8f7fb878760405161153c9291906138ef565b60405180910390a4611552818787878787611d11565b611560818787878787611d19565b505050505050565b600073ffffffffffffffffffffffffffffffffffffffff168473ffffffffffffffffffffffffffffffffffffffff16036115d7576040517f08c379a00000000000000000000000000000000000000000000000000000000081526004016115ce90613809565b60405180910390fd5b60006115e161123c565b905060006115ee85611ef0565b905060006115fb85611ef0565b905061160b838989858589611d09565b60006065600088815260200190815260200160002060008a73ffffffffffffffffffffffffffffffffffffffff1673ffffffffffffffffffffffffffffffffffffffff168152602001908152602001600020549050858110156116a3576040517f08c379a000000000000000000000000000000000000000000000000000000000815260040161169a9061389b565b60405180910390fd5b8581036065600089815260200190815260200160002060008b73ffffffffffffffffffffffffffffffffffffffff1673ffffffffffffffffffffffffffffffffffffffff16815260200190815260200160002081905550856065600089815260200190815260200160002060008a73ffffffffffffffffffffffffffffffffffffffff1673ffffffffffffffffffffffffffffffffffffffff168152602001908152602001600020600082825461175a91906138bb565b925050819055508773ffffffffffffffffffffffffffffffffffffffff168973ffffffffffffffffffffffffffffffffffffffff168573ffffffffffffffffffffffffffffffffffffffff167fc3d58168c5ae7397731d063d5bbf3d657854427343f4c083240f7aacaa2d0f628a8a6040516117d7929190613926565b60405180910390a46117ed848a8a86868a611d11565b6117fb848a8a8a8a8a611f6a565b505050505050505050565b61180e61123c565b73ffffffffffffffffffffffffffffffffffffffff1661182c610e37565b73ffffffffffffffffffffffffffffffffffffffff1614611882576040517f08c379a00000000000000000000000000000000000000000000000000000000081526004016118799061399b565b60405180910390fd5b565b6000609760009054906101000a900473ffffffffffffffffffffffffffffffffffffffff16905081609760006101000a81548173ffffffffffffffffffffffffffffffffffffffff021916908373ffffffffffffffffffffffffffffffffffffffff1602179055508173ffffffffffffffffffffffffffffffffffffffff168173ffffffffffffffffffffffffffffffffffffffff167f8be0079c531659141344cd1fd0a4f28419497f9722a3daafe3b4186f6b6457e060405160405180910390a35050565b600081600001549050919050565b600073ffffffffffffffffffffffffffffffffffffffff168473ffffffffffffffffffffffffffffffffffffffff16036119c7576040517f08c379a00000000000000000000000000000000000000000000000000000000081526004016119be90613a2d565b60405180910390fd5b60006119d161123c565b905060006119de85611ef0565b905060006119eb85611ef0565b90506119fc83600089858589611d09565b846065600088815260200190815260200160002060008973ffffffffffffffffffffffffffffffffffffffff1673ffffffffffffffffffffffffffffffffffffffff1681526020019081526020016000206000828254611a5c91906138bb565b925050819055508673ffffffffffffffffffffffffffffffffffffffff16600073ffffffffffffffffffffffffffffffffffffffff168473ffffffffffffffffffffffffffffffffffffffff167fc3d58168c5ae7397731d063d5bbf3d657854427343f4c083240f7aacaa2d0f628989604051611ada929190613926565b60405180910390a4611af183600089858589611d11565b611b0083600089898989611f6a565b50505050505050565b6001816000016000828254019250508190555050565b8173ffffffffffffffffffffffffffffffffffffffff168373ffffffffffffffffffffffffffffffffffffffff1603611b8d576040517f08c379a0000000000000000000000000000000000000000000000000000000008152600401611b8490613abf565b60405180910390fd5b80606660008573ffffffffffffffffffffffffffffffffffffffff1673ffffffffffffffffffffffffffffffffffffffff16815260200190815260200160002060008473ffffffffffffffffffffffffffffffffffffffff1673ffffffffffffffffffffffffffffffffffffffff16815260200190815260200160002060006101000a81548160ff0219169083151502179055508173ffffffffffffffffffffffffffffffffffffffff168373ffffffffffffffffffffffffffffffffffffffff167f17307eab39ab6107e8899845ad3d59bd9653f200f220920489ca2b5937696c3183604051611c7e9190612361565b60405180910390a3505050565b6000808273ffffffffffffffffffffffffffffffffffffffff163b119050919050565b600060019054906101000a900460ff16611cfd576040517f08c379a0000000000000000000000000000000000000000000000000000000008152600401611cf490613b51565b60405180910390fd5b611d0681612141565b50565b505050505050565b505050505050565b611d388473ffffffffffffffffffffffffffffffffffffffff16611c8b565b15611ee8578373ffffffffffffffffffffffffffffffffffffffff1663bc197c8187878686866040518663ffffffff1660e01b8152600401611d7e959493929190613bc6565b6020604051808303816000875af1925050508015611dba57506040513d601f19601f82011682018060405250810190611db79190613c43565b60015b611e5f57611dc6613c7d565b806308c379a003611e225750611dda613c9f565b80611de55750611e24565b806040517f08c379a0000000000000000000000000000000000000000000000000000000008152600401611e199190612439565b60405180910390fd5b505b6040517f08c379a0000000000000000000000000000000000000000000000000000000008152600401611e5690613da1565b60405180910390fd5b63bc197c8160e01b7bffffffffffffffffffffffffffffffffffffffffffffffffffffffff1916817bffffffffffffffffffffffffffffffffffffffffffffffffffffffff191614611ee6576040517f08c379a0000000000000000000000000000000000000000000000000000000008152600401611edd90613e33565b60405180910390fd5b505b505050505050565b60606000600167ffffffffffffffff811115611f0f57611f0e6124f1565b5b604051908082528060200260200182016040528015611f3d5781602001602082028036833780820191505090505b5090508281600081518110611f5557611f54612f0e565b5b60200260200101818152505080915050919050565b611f898473ffffffffffffffffffffffffffffffffffffffff16611c8b565b15612139578373ffffffffffffffffffffffffffffffffffffffff1663f23a6e6187878686866040518663ffffffff1660e01b8152600401611fcf959493929190613e53565b6020604051808303816000875af192505050801561200b57506040513d601f19601f820116820180604052508101906120089190613c43565b60015b6120b057612017613c7d565b806308c379a003612073575061202b613c9f565b806120365750612075565b806040517f08c379a000000000000000000000000000000000000000000000000000000000815260040161206a9190612439565b60405180910390fd5b505b6040517f08c379a00000000000000000000000000000000000000000000000000000000081526004016120a790613da1565b60405180910390fd5b63f23a6e6160e01b7bffffffffffffffffffffffffffffffffffffffffffffffffffffffff1916817bffffffffffffffffffffffffffffffffffffffffffffffffffffffff191614612137576040517f08c379a000000000000000000000000000000000000000000000000000000000815260040161212e90613e33565b60405180910390fd5b505b505050505050565b600060019054906101000a900460ff16612190576040517f08c379a000000000000000000000000000000000000000000000000000000000815260040161218790613b51565b60405180910390fd5b6121998161219c565b50565b80606790816121ab9190613460565b5050565b6000604051905090565b600080fd5b600080fd5b600073ffffffffffffffffffffffffffffffffffffffff82169050919050565b60006121ee826121c3565b9050919050565b6121fe816121e3565b811461220957600080fd5b50565b60008135905061221b816121f5565b92915050565b6000819050919050565b61223481612221565b811461223f57600080fd5b50565b6000813590506122518161222b565b92915050565b6000806040838503121561226e5761226d6121b9565b5b600061227c8582860161220c565b925050602061228d85828601612242565b9150509250929050565b6122a081612221565b82525050565b60006020820190506122bb6000830184612297565b92915050565b60007fffffffff0000000000000000000000000000000000000000000000000000000082169050919050565b6122f6816122c1565b811461230157600080fd5b50565b600081359050612313816122ed565b92915050565b60006020828403121561232f5761232e6121b9565b5b600061233d84828501612304565b91505092915050565b60008115159050919050565b61235b81612346565b82525050565b60006020820190506123766000830184612352565b92915050565b600060208284031215612392576123916121b9565b5b60006123a084828501612242565b91505092915050565b600081519050919050565b600082825260208201905092915050565b60005b838110156123e35780820151818401526020810190506123c8565b60008484015250505050565b6000601f19601f8301169050919050565b600061240b826123a9565b61241581856123b4565b93506124258185602086016123c5565b61242e816123ef565b840191505092915050565b600060208201905081810360008301526124538184612400565b905092915050565b600080600060608486031215612474576124736121b9565b5b60006124828682870161220c565b935050602061249386828701612242565b92505060406124a486828701612242565b9150509250925092565b600060608201905081810360008301526124c88186612400565b90506124d76020830185612297565b6124e46040830184612352565b949350505050565b600080fd5b7f4e487b7100000000000000000000000000000000000000000000000000000000600052604160045260246000fd5b612529826123ef565b810181811067ffffffffffffffff82111715612548576125476124f1565b5b80604052505050565b600061255b6121af565b90506125678282612520565b919050565b600067ffffffffffffffff821115612587576125866124f1565b5b602082029050602081019050919050565b600080fd5b60006125b06125ab8461256c565b612551565b905080838252602082019050602084028301858111156125d3576125d2612598565b5b835b818110156125fc57806125e88882612242565b8452602084019350506020810190506125d5565b5050509392505050565b600082601f83011261261b5761261a6124ec565b5b813561262b84826020860161259d565b91505092915050565b600080fd5b600067ffffffffffffffff821115612654576126536124f1565b5b61265d826123ef565b9050602081019050919050565b82818337600083830152505050565b600061268c61268784612639565b612551565b9050828152602081018484840111156126a8576126a7612634565b5b6126b384828561266a565b509392505050565b600082601f8301126126d0576126cf6124ec565b5b81356126e0848260208601612679565b91505092915050565b600080600080600060a08688031215612705576127046121b9565b5b60006127138882890161220c565b95505060206127248882890161220c565b945050604086013567ffffffffffffffff811115612745576127446121be565b5b61275188828901612606565b935050606086013567ffffffffffffffff811115612772576127716121be565b5b61277e88828901612606565b925050608086013567ffffffffffffffff81111561279f5761279e6121be565b5b6127ab888289016126bb565b9150509295509295909350565b600067ffffffffffffffff8211156127d3576127d26124f1565b5b602082029050602081019050919050565b60006127f76127f2846127b8565b612551565b9050808382526020820190506020840283018581111561281a57612819612598565b5b835b81811015612843578061282f888261220c565b84526020840193505060208101905061281c565b5050509392505050565b600082601f830112612862576128616124ec565b5b81356128728482602086016127e4565b91505092915050565b60008060408385031215612892576128916121b9565b5b600083013567ffffffffffffffff8111156128b0576128af6121be565b5b6128bc8582860161284d565b925050602083013567ffffffffffffffff8111156128dd576128dc6121be565b5b6128e985828601612606565b9150509250929050565b600081519050919050565b600082825260208201905092915050565b6000819050602082019050919050565b61292881612221565b82525050565b600061293a838361291f565b60208301905092915050565b6000602082019050919050565b600061295e826128f3565b61296881856128fe565b93506129738361290f565b8060005b838110156129a457815161298b888261292e565b975061299683612946565b925050600181019050612977565b5085935050505092915050565b600060208201905081810360008301526129cb8184612953565b905092915050565b600080600080608085870312156129ed576129ec6121b9565b5b60006129fb8782880161220c565b9450506020612a0c87828801612242565b9350506040612a1d87828801612242565b9250506060612a2e87828801612242565b91505092959194509250565b600067ffffffffffffffff821115612a5557612a546124f1565b5b612a5e826123ef565b9050602081019050919050565b6000612a7e612a7984612a3a565b612551565b905082815260208101848484011115612a9a57612a99612634565b5b612aa584828561266a565b509392505050565b600082601f830112612ac257612ac16124ec565b5b8135612ad2848260208601612a6b565b91505092915050565b60008060008060808587031215612af557612af46121b9565b5b6000612b0387828801612242565b945050602085013567ffffffffffffffff811115612b2457612b236121be565b5b612b3087828801612aad565b9350506040612b4187828801612242565b9250506060612b5287828801612242565b91505092959194509250565b612b67816121e3565b82525050565b6000602082019050612b826000830184612b5e565b92915050565b612b9181612346565b8114612b9c57600080fd5b50565b600081359050612bae81612b88565b92915050565b60008060408385031215612bcb57612bca6121b9565b5b6000612bd98582860161220c565b9250506020612bea85828601612b9f565b9150509250929050565b600060208284031215612c0a57612c096121b9565b5b6000612c188482850161220c565b91505092915050565b60008060408385031215612c3857612c376121b9565b5b6000612c468582860161220c565b9250506020612c578582860161220c565b9150509250929050565b600080600080600060a08688031215612c7d57612c7c6121b9565b5b6000612c8b8882890161220c565b9550506020612c9c8882890161220c565b9450506040612cad88828901612242565b9350506060612cbe88828901612242565b925050608086013567ffffffffffffffff811115612cdf57612cde6121be565b5b612ceb888289016126bb565b9150509295509295909350565b7f455243313135353a2061646472657373207a65726f206973206e6f742061207660008201527f616c6964206f776e657200000000000000000000000000000000000000000000602082015250565b6000612d54602a836123b4565b9150612d5f82612cf8565b604082019050919050565b60006020820190508181036000830152612d8381612d47565b9050919050565b7f4e487b7100000000000000000000000000000000000000000000000000000000600052602260045260246000fd5b60006002820490506001821680612dd157607f821691505b602082108103612de457612de3612d8a565b5b50919050565b7f455243313135353a2063616c6c6572206973206e6f7420746f6b656e206f776e60008201527f6572206f7220617070726f766564000000000000000000000000000000000000602082015250565b6000612e46602e836123b4565b9150612e5182612dea565b604082019050919050565b60006020820190508181036000830152612e7581612e39565b9050919050565b7f455243313135353a206163636f756e747320616e6420696473206c656e67746860008201527f206d69736d617463680000000000000000000000000000000000000000000000602082015250565b6000612ed86029836123b4565b9150612ee382612e7c565b604082019050919050565b60006020820190508181036000830152612f0781612ecb565b9050919050565b7f4e487b7100000000000000000000000000000000000000000000000000000000600052603260045260246000fd5b7f4e487b7100000000000000000000000000000000000000000000000000000000600052601160045260246000fd5b6000612f7782612221565b91507fffffffffffffffffffffffffffffffffffffffffffffffffffffffffffffffff8203612fa957612fa8612f3d565b5b600182019050919050565b7f5469636b657420646f6573206e6f742065786973740000000000000000000000600082015250565b6000612fea6015836123b4565b9150612ff582612fb4565b602082019050919050565b6000602082019050818103600083015261301981612fdd565b9050919050565b7f4e6f207469636b65747320617661696c61626c65000000000000000000000000600082015250565b60006130566014836123b4565b915061306182613020565b602082019050919050565b6000602082019050818103600083015261308581613049565b9050919050565b600061309782612221565b91506130a283612221565b92508282026130b081612221565b915082820484148315176130c7576130c6612f3d565b5b5092915050565b7f42757965722062616c616e636520746f6f206c6f770000000000000000000000600082015250565b60006131046015836123b4565b915061310f826130ce565b602082019050919050565b60006020820190508181036000830152613133816130f7565b9050919050565b7f57726f6e67207061796d656e7420616d6f756e74000000000000000000000000600082015250565b60006131706014836123b4565b915061317b8261313a565b602082019050919050565b6000602082019050818103600083015261319f81613163565b9050919050565b60006060820190506131bb6000830186612297565b6131c86020830185612297565b6131d56040830184612297565b949350505050565b60006040820190506131f26000830185612b5e565b6131ff6020830184612297565b9392505050565b60008151905061321581612b88565b92915050565b600060208284031215613231576132306121b9565b5b600061323f84828501613206565b91505092915050565b7f4576656e7420646f6573206e6f74206578697374000000000000000000000000600082015250565b600061327e6014836123b4565b915061328982613248565b602082019050919050565b600060208201905081810360008301526132ad81613271565b9050919050565b60008190508160005260206000209050919050565b60006020601f8301049050919050565b600082821b905092915050565b6000600883026133167fffffffffffffffffffffffffffffffffffffffffffffffffffffffffffffffff826132d9565b61332086836132d9565b95508019841693508086168417925050509392505050565b6000819050919050565b600061335d61335861335384612221565b613338565b612221565b9050919050565b6000819050919050565b61337783613342565b61338b61338382613364565b8484546132e6565b825550505050565b600090565b6133a0613393565b6133ab81848461336e565b505050565b5b818110156133cf576133c4600082613398565b6001810190506133b1565b5050565b601f821115613414576133e5816132b4565b6133ee846132c9565b810160208510156133fd578190505b613411613409856132c9565b8301826133b0565b50505b505050565b600082821c905092915050565b600061343760001984600802613419565b1980831691505092915050565b60006134508383613426565b9150826002028217905092915050565b613469826123a9565b67ffffffffffffffff811115613482576134816124f1565b5b61348c8254612db9565b6134978282856133d3565b600060209050601f8311600181146134ca57600084156134b8578287015190505b6134c28582613444565b86555061352a565b601f1984166134d8866132b4565b60005b82811015613500578489015182556001820191506020850194506020810190506134db565b8683101561351d5784890151613519601f891682613426565b8355505b6001600288020188555050505b505050505050565b60006080820190506135476000830187612297565b81810360208301526135598186612400565b90506135686040830185612297565b6135756060830184612297565b95945050505050565b7f496e697469616c697a61626c653a20636f6e747261637420697320616c72656160008201527f647920696e697469616c697a6564000000000000000000000000000000000000602082015250565b60006135da602e836123b4565b91506135e58261357e565b604082019050919050565b60006020820190508181036000830152613609816135cd565b9050919050565b6000819050919050565b600060ff82169050919050565b600061364261363d61363884613610565b613338565b61361a565b9050919050565b61365281613627565b82525050565b600060208201905061366d6000830184613649565b92915050565b7f4f776e61626c653a206e6577206f776e657220697320746865207a65726f206160008201527f6464726573730000000000000000000000000000000000000000000000000000602082015250565b60006136cf6026836123b4565b91506136da82613673565b604082019050919050565b600060208201905081810360008301526136fe816136c2565b9050919050565b7f455243313135353a2069647320616e6420616d6f756e7473206c656e6774682060008201527f6d69736d61746368000000000000000000000000000000000000000000000000602082015250565b60006137616028836123b4565b915061376c82613705565b604082019050919050565b6000602082019050818103600083015261379081613754565b9050919050565b7f455243313135353a207472616e7366657220746f20746865207a65726f20616460008201527f6472657373000000000000000000000000000000000000000000000000000000602082015250565b60006137f36025836123b4565b91506137fe82613797565b604082019050919050565b60006020820190508181036000830152613822816137e6565b9050919050565b7f455243313135353a20696e73756666696369656e742062616c616e636520666f60008201527f72207472616e7366657200000000000000000000000000000000000000000000602082015250565b6000613885602a836123b4565b915061389082613829565b604082019050919050565b600060208201905081810360008301526138b481613878565b9050919050565b60006138c682612221565b91506138d183612221565b92508282019050808211156138e9576138e8612f3d565b5b92915050565b600060408201905081810360008301526139098185612953565b9050818103602083015261391d8184612953565b90509392505050565b600060408201905061393b6000830185612297565b6139486020830184612297565b9392505050565b7f4f776e61626c653a2063616c6c6572206973206e6f7420746865206f776e6572600082015250565b60006139856020836123b4565b91506139908261394f565b602082019050919050565b600060208201905081810360008301526139b481613978565b9050919050565b7f455243313135353a206d696e7420746f20746865207a65726f2061646472657360008201527f7300000000000000000000000000000000000000000000000000000000000000602082015250565b6000613a176021836123b4565b9150613a22826139bb565b604082019050919050565b60006020820190508181036000830152613a4681613a0a565b9050919050565b7f455243313135353a2073657474696e6720617070726f76616c2073746174757360008201527f20666f722073656c660000000000000000000000000000000000000000000000602082015250565b6000613aa96029836123b4565b9150613ab482613a4d565b604082019050919050565b60006020820190508181036000830152613ad881613a9c565b9050919050565b7f496e697469616c697a61626c653a20636f6e7472616374206973206e6f74206960008201527f6e697469616c697a696e67000000000000000000000000000000000000000000602082015250565b6000613b3b602b836123b4565b9150613b4682613adf565b604082019050919050565b60006020820190508181036000830152613b6a81613b2e565b9050919050565b600081519050919050565b600082825260208201905092915050565b6000613b9882613b71565b613ba28185613b7c565b9350613bb28185602086016123c5565b613bbb816123ef565b840191505092915050565b600060a082019050613bdb6000830188612b5e565b613be86020830187612b5e565b8181036040830152613bfa8186612953565b90508181036060830152613c0e8185612953565b90508181036080830152613c228184613b8d565b90509695505050505050565b600081519050613c3d816122ed565b92915050565b600060208284031215613c5957613c586121b9565b5b6000613c6784828501613c2e565b91505092915050565b60008160e01c9050919050565b600060033d1115613c9c5760046000803e613c99600051613c70565b90505b90565b600060443d10613d2c57613cb16121af565b60043d036004823e80513d602482011167ffffffffffffffff82111715613cd9575050613d2c565b808201805167ffffffffffffffff811115613cf75750505050613d2c565b80602083010160043d038501811115613d14575050505050613d2c565b613d2382602001850186612520565b82955050505050505b90565b7f455243313135353a207472616e7366657220746f206e6f6e2d4552433131353560008201527f526563656976657220696d706c656d656e746572000000000000000000000000602082015250565b6000613d8b6034836123b4565b9150613d9682613d2f565b604082019050919050565b60006020820190508181036000830152613dba81613d7e565b9050919050565b7f455243313135353a204552433131353552656365697665722072656a6563746560008201527f6420746f6b656e73000000000000000000000000000000000000000000000000602082015250565b6000613e1d6028836123b4565b9150613e2882613dc1565b604082019050919050565b60006020820190508181036000830152613e4c81613e10565b9050919050565b600060a082019050613e686000830188612b5e565b613e756020830187612b5e565b613e826040830186612297565b613e8f6060830185612297565b8181036080830152613ea18184613b8d565b9050969550505050505056fea2646970667358221220f8324f6971a795dc58683306e9b662a57098444f237d88946f34a45336da9c1d64736f6c63430008110033",
  "immutableReferences": {},
  "source": "// SPDX-License-Identifier: MIT\npragma solidity ^0.8.17;\n\nimport \"@openzeppelin/contracts-upgradeable/access/OwnableUpgradeable.sol\";\nimport \"@openzeppelin/contracts-upgradeable/utils/CountersUpgradeable.sol\";\nimport \"@openzeppelin/contracts-upgradeable/token/ERC1155/ERC1155Upgradeable.sol\";\nimport \"@openzeppelin/contracts-upgradeable/proxy/utils/Initializable.sol\";\nimport \"./Event.sol\";\n\ninterface ITicket {\n    struct TicketStruct {\n        string name;\n        uint256 price;\n        bool is_set;\n    }\n\n    function create_ticket(\n        uint256 _event_id,\n        string memory _name,\n        uint256 _quantity,\n        uint256 _price\n    ) external;\n\n    function buy_ticket(\n        address _organizer_address,\n        uint256 _event_id,\n        uint256 _ticket_id,\n        uint256 _quantity\n    ) external payable;\n\n    function available_tickets(uint256 _ticket_id)\n        external\n        view\n        returns (uint256);\n}\n\ncontract Ticket is\n    Initializable,\n    ERC1155Upgradeable,\n    OwnableUpgradeable,\n    ITicket\n{\n    CountersUpgradeable.Counter ticket_id;\n    mapping(address => mapping(uint256 => mapping(uint256 => TicketStruct)))\n        public tickets;\n    uint256[] public ticket_list;\n    IEvent private event_contract;\n\n    event TicketCreated(\n        address indexed _admin,\n        uint256 _ticket_id,\n        string _name,\n        uint256 _quantity,\n        uint256 _price\n    );\n\n    event TicketBought(\n        address indexed _buyer,\n        uint256 _ticket_id,\n        uint256 _quantity,\n        uint256 _price\n    );\n\n    // constructor() ERC1155(\"\") {}\n\n    function initialize(address _event_contract) public initializer {\n        event_contract = IEvent(_event_contract);\n        __ERC1155_init(\"\");\n    }\n\n    // Functions\n    function create_ticket(\n        uint256 _event_id,\n        string memory _name,\n        uint256 _quantity,\n        uint256 _price\n    ) external {\n        require(\n            event_contract.is_event(msg.sender, _event_id),\n            \"Event does not exist\"\n        );\n        // require(\n        //     tickets[msg.sender][_event_id].start_datetime < block.timestamp,\n        //     \"Event is passed\"\n        // );\n        tickets[msg.sender][_event_id][\n            CountersUpgradeable.current(ticket_id)\n        ] = TicketStruct(_name, _price, true);\n        ticket_list.push(CountersUpgradeable.current(ticket_id));\n        _mint(\n            address(this),\n            CountersUpgradeable.current(ticket_id),\n            _quantity,\n            \"\"\n        );\n        emit TicketCreated(\n            msg.sender,\n            CountersUpgradeable.current(ticket_id),\n            _name,\n            _quantity,\n            _price\n        );\n        CountersUpgradeable.increment(ticket_id);\n    }\n\n    function buy_ticket(\n        address _organizer_address,\n        uint256 _event_id,\n        uint256 _ticket_id,\n        uint256 _quantity\n    ) external payable {\n        require(\n            tickets[_organizer_address][_event_id][_ticket_id].is_set,\n            \"Ticket does not exist\"\n        );\n        require(\n            balanceOf(address(this), _ticket_id) > 0,\n            \"No tickets available\"\n        );\n        // require(\n        //     tickets[_organizer_address][_event_id].start_datetime <\n        //         block.timestamp,\n        //     \"Event is passed\"\n        // );\n        uint256 total_price = _quantity *\n            tickets[_organizer_address][_event_id][_ticket_id].price;\n        require(msg.sender.balance >= total_price, \"Buyer balance too low\");\n        require(msg.value == total_price, \"Wrong payment amount\");\n        _safeTransferFrom(address(this), msg.sender, _ticket_id, _quantity, \"\");\n\n        emit TicketBought(msg.sender, _ticket_id, _quantity, total_price);\n    }\n\n    function available_tickets(uint256 _ticket_id)\n        external\n        view\n        returns (uint256)\n    {\n        return balanceOf(address(this), _ticket_id);\n    }\n}\n",
  "sourcePath": "/home/flaprimo/Development/decentralized-ticket-sales/backend/contracts/Ticket.sol",
  "compiler": {
    "name": "solc",
    "version": "0.8.17+commit.8df45f5f.Emscripten.clang"
  },
  "schemaVersion": "3.4.10",
  "updatedAt": "2023-01-24T22:36:35.837Z",
  "devdoc": {
    "kind": "dev",
    "methods": {
      "balanceOf(address,uint256)": {
        "details": "See {IERC1155-balanceOf}. Requirements: - `account` cannot be the zero address."
      },
      "balanceOfBatch(address[],uint256[])": {
        "details": "See {IERC1155-balanceOfBatch}. Requirements: - `accounts` and `ids` must have the same length."
      },
      "isApprovedForAll(address,address)": {
        "details": "See {IERC1155-isApprovedForAll}."
      },
      "owner()": {
        "details": "Returns the address of the current owner."
      },
      "renounceOwnership()": {
        "details": "Leaves the contract without owner. It will not be possible to call `onlyOwner` functions anymore. Can only be called by the current owner. NOTE: Renouncing ownership will leave the contract without an owner, thereby removing any functionality that is only available to the owner."
      },
      "safeBatchTransferFrom(address,address,uint256[],uint256[],bytes)": {
        "details": "See {IERC1155-safeBatchTransferFrom}."
      },
      "safeTransferFrom(address,address,uint256,uint256,bytes)": {
        "details": "See {IERC1155-safeTransferFrom}."
      },
      "setApprovalForAll(address,bool)": {
        "details": "See {IERC1155-setApprovalForAll}."
      },
      "supportsInterface(bytes4)": {
        "details": "See {IERC165-supportsInterface}."
      },
      "transferOwnership(address)": {
        "details": "Transfers ownership of the contract to a new account (`newOwner`). Can only be called by the current owner."
      },
      "uri(uint256)": {
        "details": "See {IERC1155MetadataURI-uri}. This implementation returns the same URI for *all* token types. It relies on the token type ID substitution mechanism https://eips.ethereum.org/EIPS/eip-1155#metadata[defined in the EIP]. Clients calling this function must replace the `\\{id\\}` substring with the actual token type ID."
      }
    },
    "version": 1
  },
  "userdoc": {
    "kind": "user",
    "methods": {},
    "version": 1
  }
}