{
  "contractName": "Ticket",
  "abi": [
    {
      "anonymous": false,
      "inputs": [
        {
          "indexed": true,
          "internalType": "address",
          "name": "account",
          "type": "address"
        },
        {
          "indexed": true,
          "internalType": "address",
          "name": "operator",
          "type": "address"
        },
        {
          "indexed": false,
          "internalType": "bool",
          "name": "approved",
          "type": "bool"
        }
      ],
      "name": "ApprovalForAll",
      "type": "event"
    },
    {
      "anonymous": false,
      "inputs": [
        {
          "indexed": false,
          "internalType": "uint8",
          "name": "version",
          "type": "uint8"
        }
      ],
      "name": "Initialized",
      "type": "event"
    },
    {
      "anonymous": false,
      "inputs": [
        {
          "indexed": true,
          "internalType": "address",
          "name": "previousOwner",
          "type": "address"
        },
        {
          "indexed": true,
          "internalType": "address",
          "name": "newOwner",
          "type": "address"
        }
      ],
      "name": "OwnershipTransferred",
      "type": "event"
    },
    {
      "anonymous": false,
      "inputs": [
        {
          "indexed": true,
          "internalType": "address",
          "name": "_buyer",
          "type": "address"
        },
        {
          "indexed": false,
          "internalType": "uint256",
          "name": "_ticket_id",
          "type": "uint256"
        },
        {
          "indexed": false,
          "internalType": "uint256",
          "name": "_quantity",
          "type": "uint256"
        },
        {
          "indexed": false,
          "internalType": "uint256",
          "name": "_price",
          "type": "uint256"
        }
      ],
      "name": "TicketBought",
      "type": "event"
    },
    {
      "anonymous": false,
      "inputs": [
        {
          "indexed": true,
          "internalType": "address",
          "name": "_admin",
          "type": "address"
        },
        {
          "indexed": false,
          "internalType": "uint256",
          "name": "_ticket_id",
          "type": "uint256"
        },
        {
          "indexed": false,
          "internalType": "string",
          "name": "_name",
          "type": "string"
        },
        {
          "indexed": false,
          "internalType": "uint256",
          "name": "_quantity",
          "type": "uint256"
        },
        {
          "indexed": false,
          "internalType": "uint256",
          "name": "_price",
          "type": "uint256"
        }
      ],
      "name": "TicketCreated",
      "type": "event"
    },
    {
      "anonymous": false,
      "inputs": [
        {
          "indexed": true,
          "internalType": "address",
          "name": "operator",
          "type": "address"
        },
        {
          "indexed": true,
          "internalType": "address",
          "name": "from",
          "type": "address"
        },
        {
          "indexed": true,
          "internalType": "address",
          "name": "to",
          "type": "address"
        },
        {
          "indexed": false,
          "internalType": "uint256[]",
          "name": "ids",
          "type": "uint256[]"
        },
        {
          "indexed": false,
          "internalType": "uint256[]",
          "name": "values",
          "type": "uint256[]"
        }
      ],
      "name": "TransferBatch",
      "type": "event"
    },
    {
      "anonymous": false,
      "inputs": [
        {
          "indexed": true,
          "internalType": "address",
          "name": "operator",
          "type": "address"
        },
        {
          "indexed": true,
          "internalType": "address",
          "name": "from",
          "type": "address"
        },
        {
          "indexed": true,
          "internalType": "address",
          "name": "to",
          "type": "address"
        },
        {
          "indexed": false,
          "internalType": "uint256",
          "name": "id",
          "type": "uint256"
        },
        {
          "indexed": false,
          "internalType": "uint256",
          "name": "value",
          "type": "uint256"
        }
      ],
      "name": "TransferSingle",
      "type": "event"
    },
    {
      "anonymous": false,
      "inputs": [
        {
          "indexed": false,
          "internalType": "string",
          "name": "value",
          "type": "string"
        },
        {
          "indexed": true,
          "internalType": "uint256",
          "name": "id",
          "type": "uint256"
        }
      ],
      "name": "URI",
      "type": "event"
    },
    {
      "inputs": [
        {
          "internalType": "address",
          "name": "account",
          "type": "address"
        },
        {
          "internalType": "uint256",
          "name": "id",
          "type": "uint256"
        }
      ],
      "name": "balanceOf",
      "outputs": [
        {
          "internalType": "uint256",
          "name": "",
          "type": "uint256"
        }
      ],
      "stateMutability": "view",
      "type": "function",
      "constant": true
    },
    {
      "inputs": [
        {
          "internalType": "address[]",
          "name": "accounts",
          "type": "address[]"
        },
        {
          "internalType": "uint256[]",
          "name": "ids",
          "type": "uint256[]"
        }
      ],
      "name": "balanceOfBatch",
      "outputs": [
        {
          "internalType": "uint256[]",
          "name": "",
          "type": "uint256[]"
        }
      ],
      "stateMutability": "view",
      "type": "function",
      "constant": true
    },
    {
      "inputs": [
        {
          "internalType": "address",
          "name": "account",
          "type": "address"
        },
        {
          "internalType": "address",
          "name": "operator",
          "type": "address"
        }
      ],
      "name": "isApprovedForAll",
      "outputs": [
        {
          "internalType": "bool",
          "name": "",
          "type": "bool"
        }
      ],
      "stateMutability": "view",
      "type": "function",
      "constant": true
    },
    {
      "inputs": [],
      "name": "owner",
      "outputs": [
        {
          "internalType": "address",
          "name": "",
          "type": "address"
        }
      ],
      "stateMutability": "view",
      "type": "function",
      "constant": true
    },
    {
      "inputs": [],
      "name": "renounceOwnership",
      "outputs": [],
      "stateMutability": "nonpayable",
      "type": "function"
    },
    {
      "inputs": [
        {
          "internalType": "address",
          "name": "from",
          "type": "address"
        },
        {
          "internalType": "address",
          "name": "to",
          "type": "address"
        },
        {
          "internalType": "uint256[]",
          "name": "ids",
          "type": "uint256[]"
        },
        {
          "internalType": "uint256[]",
          "name": "amounts",
          "type": "uint256[]"
        },
        {
          "internalType": "bytes",
          "name": "data",
          "type": "bytes"
        }
      ],
      "name": "safeBatchTransferFrom",
      "outputs": [],
      "stateMutability": "nonpayable",
      "type": "function"
    },
    {
      "inputs": [
        {
          "internalType": "address",
          "name": "from",
          "type": "address"
        },
        {
          "internalType": "address",
          "name": "to",
          "type": "address"
        },
        {
          "internalType": "uint256",
          "name": "id",
          "type": "uint256"
        },
        {
          "internalType": "uint256",
          "name": "amount",
          "type": "uint256"
        },
        {
          "internalType": "bytes",
          "name": "data",
          "type": "bytes"
        }
      ],
      "name": "safeTransferFrom",
      "outputs": [],
      "stateMutability": "nonpayable",
      "type": "function"
    },
    {
      "inputs": [
        {
          "internalType": "address",
          "name": "operator",
          "type": "address"
        },
        {
          "internalType": "bool",
          "name": "approved",
          "type": "bool"
        }
      ],
      "name": "setApprovalForAll",
      "outputs": [],
      "stateMutability": "nonpayable",
      "type": "function"
    },
    {
      "inputs": [
        {
          "internalType": "bytes4",
          "name": "interfaceId",
          "type": "bytes4"
        }
      ],
      "name": "supportsInterface",
      "outputs": [
        {
          "internalType": "bool",
          "name": "",
          "type": "bool"
        }
      ],
      "stateMutability": "view",
      "type": "function",
      "constant": true
    },
    {
      "inputs": [
        {
          "internalType": "uint256",
          "name": "",
          "type": "uint256"
        }
      ],
      "name": "ticket_list",
      "outputs": [
        {
          "internalType": "uint256",
          "name": "",
          "type": "uint256"
        }
      ],
      "stateMutability": "view",
      "type": "function",
      "constant": true
    },
    {
      "inputs": [
        {
          "internalType": "address",
          "name": "",
          "type": "address"
        },
        {
          "internalType": "uint256",
          "name": "",
          "type": "uint256"
        },
        {
          "internalType": "uint256",
          "name": "",
          "type": "uint256"
        }
      ],
      "name": "tickets",
      "outputs": [
        {
          "internalType": "string",
          "name": "name",
          "type": "string"
        },
        {
          "internalType": "uint256",
          "name": "price",
          "type": "uint256"
        },
        {
          "internalType": "bool",
          "name": "is_set",
          "type": "bool"
        }
      ],
      "stateMutability": "view",
      "type": "function",
      "constant": true
    },
    {
      "inputs": [
        {
          "internalType": "address",
          "name": "newOwner",
          "type": "address"
        }
      ],
      "name": "transferOwnership",
      "outputs": [],
      "stateMutability": "nonpayable",
      "type": "function"
    },
    {
      "inputs": [
        {
          "internalType": "uint256",
          "name": "",
          "type": "uint256"
        }
      ],
      "name": "uri",
      "outputs": [
        {
          "internalType": "string",
          "name": "",
          "type": "string"
        }
      ],
      "stateMutability": "view",
      "type": "function",
      "constant": true
    },
    {
      "inputs": [],
      "name": "initialize",
      "outputs": [],
      "stateMutability": "nonpayable",
      "type": "function"
    },
    {
      "inputs": [
        {
          "internalType": "address",
          "name": "_event_contract",
          "type": "address"
        },
        {
          "internalType": "uint256",
          "name": "_event_id",
          "type": "uint256"
        },
        {
          "internalType": "string",
          "name": "_name",
          "type": "string"
        },
        {
          "internalType": "uint256",
          "name": "_quantity",
          "type": "uint256"
        },
        {
          "internalType": "uint256",
          "name": "_price",
          "type": "uint256"
        }
      ],
      "name": "create_ticket",
      "outputs": [],
      "stateMutability": "nonpayable",
      "type": "function"
    },
    {
      "inputs": [
        {
          "internalType": "address",
          "name": "_organizer_address",
          "type": "address"
        },
        {
          "internalType": "uint256",
          "name": "_event_id",
          "type": "uint256"
        },
        {
          "internalType": "uint256",
          "name": "_ticket_id",
          "type": "uint256"
        },
        {
          "internalType": "uint256",
          "name": "_quantity",
          "type": "uint256"
        }
      ],
      "name": "buy_ticket",
      "outputs": [],
      "stateMutability": "payable",
      "type": "function",
      "payable": true
    },
    {
      "inputs": [
        {
          "internalType": "uint256",
          "name": "_ticket_id",
          "type": "uint256"
        }
      ],
      "name": "available_tickets",
      "outputs": [
        {
          "internalType": "uint256",
          "name": "",
          "type": "uint256"
        }
      ],
      "stateMutability": "view",
      "type": "function",
      "constant": true
    }
  ],
  "bytecode": "0x608060405234801561001057600080fd5b50613e82806100206000396000f3fe6080604052600436106100fd5760003560e01c8063715018a611610095578063a22cb46511610064578063a22cb46514610339578063e985e9c514610362578063f088b3811461039f578063f242432a146103dc578063f2fde38b14610405576100fd565b8063715018a6146102b75780638129fc1c146102ce57806386dd044a146102e55780638da5cb5b1461030e576100fd565b80632eb2c2d6116100d15780632eb2c2d6146101f857806331f648ad146102215780634e1273f41461025e57806353f59cac1461029b576100fd565b8062fdd58e1461010257806301ffc9a71461013f5780630e89341c1461017c5780632115f4d1146101b9575b600080fd5b34801561010e57600080fd5b50610129600480360381019061012491906121e2565b61042e565b6040516101369190612231565b60405180910390f35b34801561014b57600080fd5b50610166600480360381019061016191906122a4565b6104f7565b60405161017391906122ec565b60405180910390f35b34801561018857600080fd5b506101a3600480360381019061019e9190612307565b6105d9565b6040516101b091906123c4565b60405180910390f35b3480156101c557600080fd5b506101e060048036038101906101db91906123e6565b61066d565b6040516101ef93929190612439565b60405180910390f35b34801561020457600080fd5b5061021f600480360381019061021a9190612674565b610746565b005b34801561022d57600080fd5b5061024860048036038101906102439190612307565b6107e7565b6040516102559190612231565b60405180910390f35b34801561026a57600080fd5b5061028560048036038101906102809190612806565b61080b565b604051610292919061293c565b60405180910390f35b6102b560048036038101906102b0919061295e565b610924565b005b3480156102c357600080fd5b506102cc610ba6565b005b3480156102da57600080fd5b506102e3610bba565b005b3480156102f157600080fd5b5061030c60048036038101906103079190612a66565b610d08565b005b34801561031a57600080fd5b50610323610f52565b6040516103309190612b0c565b60405180910390f35b34801561034557600080fd5b50610360600480360381019061035b9190612b53565b610f7c565b005b34801561036e57600080fd5b5061038960048036038101906103849190612b93565b610f92565b60405161039691906122ec565b60405180910390f35b3480156103ab57600080fd5b506103c660048036038101906103c19190612307565b611026565b6040516103d39190612231565b60405180910390f35b3480156103e857600080fd5b5061040360048036038101906103fe9190612bd3565b611039565b005b34801561041157600080fd5b5061042c60048036038101906104279190612c6a565b6110da565b005b60008073ffffffffffffffffffffffffffffffffffffffff168373ffffffffffffffffffffffffffffffffffffffff160361049e576040517f08c379a000000000000000000000000000000000000000000000000000000000815260040161049590612d09565b60405180910390fd5b6065600083815260200190815260200160002060008473ffffffffffffffffffffffffffffffffffffffff1673ffffffffffffffffffffffffffffffffffffffff16815260200190815260200160002054905092915050565b60007fd9b67a26000000000000000000000000000000000000000000000000000000007bffffffffffffffffffffffffffffffffffffffffffffffffffffffff1916827bffffffffffffffffffffffffffffffffffffffffffffffffffffffff191614806105c257507f0e89341c000000000000000000000000000000000000000000000000000000007bffffffffffffffffffffffffffffffffffffffffffffffffffffffff1916827bffffffffffffffffffffffffffffffffffffffffffffffffffffffff1916145b806105d257506105d18261115d565b5b9050919050565b6060606780546105e890612d58565b80601f016020809104026020016040519081016040528092919081815260200182805461061490612d58565b80156106615780601f1061063657610100808354040283529160200191610661565b820191906000526020600020905b81548152906001019060200180831161064457829003601f168201915b50505050509050919050565b60ca60205282600052604060002060205281600052604060002060205280600052604060002060009250925050508060000180546106aa90612d58565b80601f01602080910402602001604051908101604052809291908181526020018280546106d690612d58565b80156107235780601f106106f857610100808354040283529160200191610723565b820191906000526020600020905b81548152906001019060200180831161070657829003601f168201915b5050505050908060010154908060020160009054906101000a900460ff16905083565b61074e6111c7565b73ffffffffffffffffffffffffffffffffffffffff168573ffffffffffffffffffffffffffffffffffffffff16148061079457506107938561078e6111c7565b610f92565b5b6107d3576040517f08c379a00000000000000000000000000000000000000000000000000000000081526004016107ca90612dfb565b60405180910390fd5b6107e085858585856111cf565b5050505050565b60cb81815481106107f757600080fd5b906000526020600020016000915090505481565b60608151835114610851576040517f08c379a000000000000000000000000000000000000000000000000000000000815260040161084890612e8d565b60405180910390fd5b6000835167ffffffffffffffff81111561086e5761086d61247c565b5b60405190808252806020026020018201604052801561089c5781602001602082028036833780820191505090505b50905060005b8451811015610919576108e98582815181106108c1576108c0612ead565b5b60200260200101518583815181106108dc576108db612ead565b5b602002602001015161042e565b8282815181106108fc576108fb612ead565b5b6020026020010181815250508061091290612f0b565b90506108a2565b508091505092915050565b60ca60008573ffffffffffffffffffffffffffffffffffffffff1673ffffffffffffffffffffffffffffffffffffffff1681526020019081526020016000206000848152602001908152602001600020600083815260200190815260200160002060020160009054906101000a900460ff166109d5576040517f08c379a00000000000000000000000000000000000000000000000000000000081526004016109cc90612f9f565b60405180910390fd5b60006109e1308461042e565b11610a21576040517f08c379a0000000000000000000000000000000000000000000000000000000008152600401610a189061300b565b60405180910390fd5b600060ca60008673ffffffffffffffffffffffffffffffffffffffff1673ffffffffffffffffffffffffffffffffffffffff168152602001908152602001600020600085815260200190815260200160002060008481526020019081526020016000206001015482610a93919061302b565b9050803373ffffffffffffffffffffffffffffffffffffffff16311015610aef576040517f08c379a0000000000000000000000000000000000000000000000000000000008152600401610ae6906130b9565b60405180910390fd5b803414610b31576040517f08c379a0000000000000000000000000000000000000000000000000000000008152600401610b2890613125565b60405180910390fd5b610b4d30338585604051806020016040528060008152506114f3565b3373ffffffffffffffffffffffffffffffffffffffff167f46cdbf90977f71f605a85b7c00f0d4d71f3d811fb25fad2d3ed3d15f0f84a5d7848484604051610b9793929190613145565b60405180910390a25050505050565b610bae611791565b610bb8600061180f565b565b60008060019054906101000a900460ff16159050808015610beb5750600160008054906101000a900460ff1660ff16105b80610c185750610bfa306118d5565b158015610c175750600160008054906101000a900460ff1660ff16145b5b610c57576040517f08c379a0000000000000000000000000000000000000000000000000000000008152600401610c4e906131ee565b60405180910390fd5b60016000806101000a81548160ff021916908360ff1602179055508015610c94576001600060016101000a81548160ff0219169083151502179055505b610cac604051806020016040528060008152506118f8565b8015610d055760008060016101000a81548160ff0219169083151502179055507f7f26b83ff96e1f2b6a682f133852f6798a09c465da95921460cefb38474024986001604051610cfc9190613260565b60405180910390a15b50565b8473ffffffffffffffffffffffffffffffffffffffff1663c8ff5bf933866040518363ffffffff1660e01b8152600401610d4392919061327b565b602060405180830381865afa158015610d60573d6000803e3d6000fd5b505050506040513d601f19601f82011682018060405250810190610d8491906132b9565b610dc3576040517f08c379a0000000000000000000000000000000000000000000000000000000008152600401610dba90613332565b60405180910390fd5b60405180606001604052808481526020018281526020016001151581525060ca60003373ffffffffffffffffffffffffffffffffffffffff1673ffffffffffffffffffffffffffffffffffffffff16815260200190815260200160002060008681526020019081526020016000206000610e3d60c9611953565b81526020019081526020016000206000820151816000019081610e6091906134f4565b506020820151816001015560408201518160020160006101000a81548160ff02191690831515021790555090505060cb610e9a60c9611953565b9080600181540180825580915050600190039060005260206000200160009091909190915055610ee430610ece60c9611953565b8460405180602001604052806000815250611961565b3373ffffffffffffffffffffffffffffffffffffffff167fec09b4dfb989318a264039a7d0a2f5a1f63fe13419bcd361f27ff0d6def8a5eb610f2660c9611953565b858585604051610f3994939291906135c6565b60405180910390a2610f4b60c9611b12565b5050505050565b6000609760009054906101000a900473ffffffffffffffffffffffffffffffffffffffff16905090565b610f8e610f876111c7565b8383611b28565b5050565b6000606660008473ffffffffffffffffffffffffffffffffffffffff1673ffffffffffffffffffffffffffffffffffffffff16815260200190815260200160002060008373ffffffffffffffffffffffffffffffffffffffff1673ffffffffffffffffffffffffffffffffffffffff16815260200190815260200160002060009054906101000a900460ff16905092915050565b6000611032308361042e565b9050919050565b6110416111c7565b73ffffffffffffffffffffffffffffffffffffffff168573ffffffffffffffffffffffffffffffffffffffff1614806110875750611086856110816111c7565b610f92565b5b6110c6576040517f08c379a00000000000000000000000000000000000000000000000000000000081526004016110bd90612dfb565b60405180910390fd5b6110d385858585856114f3565b5050505050565b6110e2611791565b600073ffffffffffffffffffffffffffffffffffffffff168173ffffffffffffffffffffffffffffffffffffffff1603611151576040517f08c379a000000000000000000000000000000000000000000000000000000000815260040161114890613684565b60405180910390fd5b61115a8161180f565b50565b60007f01ffc9a7000000000000000000000000000000000000000000000000000000007bffffffffffffffffffffffffffffffffffffffffffffffffffffffff1916827bffffffffffffffffffffffffffffffffffffffffffffffffffffffff1916149050919050565b600033905090565b8151835114611213576040517f08c379a000000000000000000000000000000000000000000000000000000000815260040161120a90613716565b60405180910390fd5b600073ffffffffffffffffffffffffffffffffffffffff168473ffffffffffffffffffffffffffffffffffffffff1603611282576040517f08c379a0000000000000000000000000000000000000000000000000000000008152600401611279906137a8565b60405180910390fd5b600061128c6111c7565b905061129c818787878787611c94565b60005b84518110156114505760008582815181106112bd576112bc612ead565b5b6020026020010151905060008583815181106112dc576112db612ead565b5b6020026020010151905060006065600084815260200190815260200160002060008b73ffffffffffffffffffffffffffffffffffffffff1673ffffffffffffffffffffffffffffffffffffffff1681526020019081526020016000205490508181101561137e576040517f08c379a00000000000000000000000000000000000000000000000000000000081526004016113759061383a565b60405180910390fd5b8181036065600085815260200190815260200160002060008c73ffffffffffffffffffffffffffffffffffffffff1673ffffffffffffffffffffffffffffffffffffffff16815260200190815260200160002081905550816065600085815260200190815260200160002060008b73ffffffffffffffffffffffffffffffffffffffff1673ffffffffffffffffffffffffffffffffffffffff1681526020019081526020016000206000828254611435919061385a565b925050819055505050508061144990612f0b565b905061129f565b508473ffffffffffffffffffffffffffffffffffffffff168673ffffffffffffffffffffffffffffffffffffffff168273ffffffffffffffffffffffffffffffffffffffff167f4a39dc06d4c0dbc64b70af90fd698a233a518aa5d07e595d983b8c0526c8f7fb87876040516114c792919061388e565b60405180910390a46114dd818787878787611c9c565b6114eb818787878787611ca4565b505050505050565b600073ffffffffffffffffffffffffffffffffffffffff168473ffffffffffffffffffffffffffffffffffffffff1603611562576040517f08c379a0000000000000000000000000000000000000000000000000000000008152600401611559906137a8565b60405180910390fd5b600061156c6111c7565b9050600061157985611e7b565b9050600061158685611e7b565b9050611596838989858589611c94565b60006065600088815260200190815260200160002060008a73ffffffffffffffffffffffffffffffffffffffff1673ffffffffffffffffffffffffffffffffffffffff1681526020019081526020016000205490508581101561162e576040517f08c379a00000000000000000000000000000000000000000000000000000000081526004016116259061383a565b60405180910390fd5b8581036065600089815260200190815260200160002060008b73ffffffffffffffffffffffffffffffffffffffff1673ffffffffffffffffffffffffffffffffffffffff16815260200190815260200160002081905550856065600089815260200190815260200160002060008a73ffffffffffffffffffffffffffffffffffffffff1673ffffffffffffffffffffffffffffffffffffffff16815260200190815260200160002060008282546116e5919061385a565b925050819055508773ffffffffffffffffffffffffffffffffffffffff168973ffffffffffffffffffffffffffffffffffffffff168573ffffffffffffffffffffffffffffffffffffffff167fc3d58168c5ae7397731d063d5bbf3d657854427343f4c083240f7aacaa2d0f628a8a6040516117629291906138c5565b60405180910390a4611778848a8a86868a611c9c565b611786848a8a8a8a8a611ef5565b505050505050505050565b6117996111c7565b73ffffffffffffffffffffffffffffffffffffffff166117b7610f52565b73ffffffffffffffffffffffffffffffffffffffff161461180d576040517f08c379a00000000000000000000000000000000000000000000000000000000081526004016118049061393a565b60405180910390fd5b565b6000609760009054906101000a900473ffffffffffffffffffffffffffffffffffffffff16905081609760006101000a81548173ffffffffffffffffffffffffffffffffffffffff021916908373ffffffffffffffffffffffffffffffffffffffff1602179055508173ffffffffffffffffffffffffffffffffffffffff168173ffffffffffffffffffffffffffffffffffffffff167f8be0079c531659141344cd1fd0a4f28419497f9722a3daafe3b4186f6b6457e060405160405180910390a35050565b6000808273ffffffffffffffffffffffffffffffffffffffff163b119050919050565b600060019054906101000a900460ff16611947576040517f08c379a000000000000000000000000000000000000000000000000000000000815260040161193e906139cc565b60405180910390fd5b611950816120cc565b50565b600081600001549050919050565b600073ffffffffffffffffffffffffffffffffffffffff168473ffffffffffffffffffffffffffffffffffffffff16036119d0576040517f08c379a00000000000000000000000000000000000000000000000000000000081526004016119c790613a5e565b60405180910390fd5b60006119da6111c7565b905060006119e785611e7b565b905060006119f485611e7b565b9050611a0583600089858589611c94565b846065600088815260200190815260200160002060008973ffffffffffffffffffffffffffffffffffffffff1673ffffffffffffffffffffffffffffffffffffffff1681526020019081526020016000206000828254611a65919061385a565b925050819055508673ffffffffffffffffffffffffffffffffffffffff16600073ffffffffffffffffffffffffffffffffffffffff168473ffffffffffffffffffffffffffffffffffffffff167fc3d58168c5ae7397731d063d5bbf3d657854427343f4c083240f7aacaa2d0f628989604051611ae39291906138c5565b60405180910390a4611afa83600089858589611c9c565b611b0983600089898989611ef5565b50505050505050565b6001816000016000828254019250508190555050565b8173ffffffffffffffffffffffffffffffffffffffff168373ffffffffffffffffffffffffffffffffffffffff1603611b96576040517f08c379a0000000000000000000000000000000000000000000000000000000008152600401611b8d90613af0565b60405180910390fd5b80606660008573ffffffffffffffffffffffffffffffffffffffff1673ffffffffffffffffffffffffffffffffffffffff16815260200190815260200160002060008473ffffffffffffffffffffffffffffffffffffffff1673ffffffffffffffffffffffffffffffffffffffff16815260200190815260200160002060006101000a81548160ff0219169083151502179055508173ffffffffffffffffffffffffffffffffffffffff168373ffffffffffffffffffffffffffffffffffffffff167f17307eab39ab6107e8899845ad3d59bd9653f200f220920489ca2b5937696c3183604051611c8791906122ec565b60405180910390a3505050565b505050505050565b505050505050565b611cc38473ffffffffffffffffffffffffffffffffffffffff166118d5565b15611e73578373ffffffffffffffffffffffffffffffffffffffff1663bc197c8187878686866040518663ffffffff1660e01b8152600401611d09959493929190613b65565b6020604051808303816000875af1925050508015611d4557506040513d601f19601f82011682018060405250810190611d429190613be2565b60015b611dea57611d51613c1c565b806308c379a003611dad5750611d65613c3e565b80611d705750611daf565b806040517f08c379a0000000000000000000000000000000000000000000000000000000008152600401611da491906123c4565b60405180910390fd5b505b6040517f08c379a0000000000000000000000000000000000000000000000000000000008152600401611de190613d40565b60405180910390fd5b63bc197c8160e01b7bffffffffffffffffffffffffffffffffffffffffffffffffffffffff1916817bffffffffffffffffffffffffffffffffffffffffffffffffffffffff191614611e71576040517f08c379a0000000000000000000000000000000000000000000000000000000008152600401611e6890613dd2565b60405180910390fd5b505b505050505050565b60606000600167ffffffffffffffff811115611e9a57611e9961247c565b5b604051908082528060200260200182016040528015611ec85781602001602082028036833780820191505090505b5090508281600081518110611ee057611edf612ead565b5b60200260200101818152505080915050919050565b611f148473ffffffffffffffffffffffffffffffffffffffff166118d5565b156120c4578373ffffffffffffffffffffffffffffffffffffffff1663f23a6e6187878686866040518663ffffffff1660e01b8152600401611f5a959493929190613df2565b6020604051808303816000875af1925050508015611f9657506040513d601f19601f82011682018060405250810190611f939190613be2565b60015b61203b57611fa2613c1c565b806308c379a003611ffe5750611fb6613c3e565b80611fc15750612000565b806040517f08c379a0000000000000000000000000000000000000000000000000000000008152600401611ff591906123c4565b60405180910390fd5b505b6040517f08c379a000000000000000000000000000000000000000000000000000000000815260040161203290613d40565b60405180910390fd5b63f23a6e6160e01b7bffffffffffffffffffffffffffffffffffffffffffffffffffffffff1916817bffffffffffffffffffffffffffffffffffffffffffffffffffffffff1916146120c2576040517f08c379a00000000000000000000000000000000000000000000000000000000081526004016120b990613dd2565b60405180910390fd5b505b505050505050565b600060019054906101000a900460ff1661211b576040517f08c379a0000000000000000000000000000000000000000000000000000000008152600401612112906139cc565b60405180910390fd5b61212481612127565b50565b806067908161213691906134f4565b5050565b6000604051905090565b600080fd5b600080fd5b600073ffffffffffffffffffffffffffffffffffffffff82169050919050565b60006121798261214e565b9050919050565b6121898161216e565b811461219457600080fd5b50565b6000813590506121a681612180565b92915050565b6000819050919050565b6121bf816121ac565b81146121ca57600080fd5b50565b6000813590506121dc816121b6565b92915050565b600080604083850312156121f9576121f8612144565b5b600061220785828601612197565b9250506020612218858286016121cd565b9150509250929050565b61222b816121ac565b82525050565b60006020820190506122466000830184612222565b92915050565b60007fffffffff0000000000000000000000000000000000000000000000000000000082169050919050565b6122818161224c565b811461228c57600080fd5b50565b60008135905061229e81612278565b92915050565b6000602082840312156122ba576122b9612144565b5b60006122c88482850161228f565b91505092915050565b60008115159050919050565b6122e6816122d1565b82525050565b600060208201905061230160008301846122dd565b92915050565b60006020828403121561231d5761231c612144565b5b600061232b848285016121cd565b91505092915050565b600081519050919050565b600082825260208201905092915050565b60005b8381101561236e578082015181840152602081019050612353565b60008484015250505050565b6000601f19601f8301169050919050565b600061239682612334565b6123a0818561233f565b93506123b0818560208601612350565b6123b98161237a565b840191505092915050565b600060208201905081810360008301526123de818461238b565b905092915050565b6000806000606084860312156123ff576123fe612144565b5b600061240d86828701612197565b935050602061241e868287016121cd565b925050604061242f868287016121cd565b9150509250925092565b60006060820190508181036000830152612453818661238b565b90506124626020830185612222565b61246f60408301846122dd565b949350505050565b600080fd5b7f4e487b7100000000000000000000000000000000000000000000000000000000600052604160045260246000fd5b6124b48261237a565b810181811067ffffffffffffffff821117156124d3576124d261247c565b5b80604052505050565b60006124e661213a565b90506124f282826124ab565b919050565b600067ffffffffffffffff8211156125125761251161247c565b5b602082029050602081019050919050565b600080fd5b600061253b612536846124f7565b6124dc565b9050808382526020820190506020840283018581111561255e5761255d612523565b5b835b81811015612587578061257388826121cd565b845260208401935050602081019050612560565b5050509392505050565b600082601f8301126125a6576125a5612477565b5b81356125b6848260208601612528565b91505092915050565b600080fd5b600067ffffffffffffffff8211156125df576125de61247c565b5b6125e88261237a565b9050602081019050919050565b82818337600083830152505050565b6000612617612612846125c4565b6124dc565b905082815260208101848484011115612633576126326125bf565b5b61263e8482856125f5565b509392505050565b600082601f83011261265b5761265a612477565b5b813561266b848260208601612604565b91505092915050565b600080600080600060a086880312156126905761268f612144565b5b600061269e88828901612197565b95505060206126af88828901612197565b945050604086013567ffffffffffffffff8111156126d0576126cf612149565b5b6126dc88828901612591565b935050606086013567ffffffffffffffff8111156126fd576126fc612149565b5b61270988828901612591565b925050608086013567ffffffffffffffff81111561272a57612729612149565b5b61273688828901612646565b9150509295509295909350565b600067ffffffffffffffff82111561275e5761275d61247c565b5b602082029050602081019050919050565b600061278261277d84612743565b6124dc565b905080838252602082019050602084028301858111156127a5576127a4612523565b5b835b818110156127ce57806127ba8882612197565b8452602084019350506020810190506127a7565b5050509392505050565b600082601f8301126127ed576127ec612477565b5b81356127fd84826020860161276f565b91505092915050565b6000806040838503121561281d5761281c612144565b5b600083013567ffffffffffffffff81111561283b5761283a612149565b5b612847858286016127d8565b925050602083013567ffffffffffffffff81111561286857612867612149565b5b61287485828601612591565b9150509250929050565b600081519050919050565b600082825260208201905092915050565b6000819050602082019050919050565b6128b3816121ac565b82525050565b60006128c583836128aa565b60208301905092915050565b6000602082019050919050565b60006128e98261287e565b6128f38185612889565b93506128fe8361289a565b8060005b8381101561292f57815161291688826128b9565b9750612921836128d1565b925050600181019050612902565b5085935050505092915050565b6000602082019050818103600083015261295681846128de565b905092915050565b6000806000806080858703121561297857612977612144565b5b600061298687828801612197565b9450506020612997878288016121cd565b93505060406129a8878288016121cd565b92505060606129b9878288016121cd565b91505092959194509250565b600067ffffffffffffffff8211156129e0576129df61247c565b5b6129e98261237a565b9050602081019050919050565b6000612a09612a04846129c5565b6124dc565b905082815260208101848484011115612a2557612a246125bf565b5b612a308482856125f5565b509392505050565b600082601f830112612a4d57612a4c612477565b5b8135612a5d8482602086016129f6565b91505092915050565b600080600080600060a08688031215612a8257612a81612144565b5b6000612a9088828901612197565b9550506020612aa1888289016121cd565b945050604086013567ffffffffffffffff811115612ac257612ac1612149565b5b612ace88828901612a38565b9350506060612adf888289016121cd565b9250506080612af0888289016121cd565b9150509295509295909350565b612b068161216e565b82525050565b6000602082019050612b216000830184612afd565b92915050565b612b30816122d1565b8114612b3b57600080fd5b50565b600081359050612b4d81612b27565b92915050565b60008060408385031215612b6a57612b69612144565b5b6000612b7885828601612197565b9250506020612b8985828601612b3e565b9150509250929050565b60008060408385031215612baa57612ba9612144565b5b6000612bb885828601612197565b9250506020612bc985828601612197565b9150509250929050565b600080600080600060a08688031215612bef57612bee612144565b5b6000612bfd88828901612197565b9550506020612c0e88828901612197565b9450506040612c1f888289016121cd565b9350506060612c30888289016121cd565b925050608086013567ffffffffffffffff811115612c5157612c50612149565b5b612c5d88828901612646565b9150509295509295909350565b600060208284031215612c8057612c7f612144565b5b6000612c8e84828501612197565b91505092915050565b7f455243313135353a2061646472657373207a65726f206973206e6f742061207660008201527f616c6964206f776e657200000000000000000000000000000000000000000000602082015250565b6000612cf3602a8361233f565b9150612cfe82612c97565b604082019050919050565b60006020820190508181036000830152612d2281612ce6565b9050919050565b7f4e487b7100000000000000000000000000000000000000000000000000000000600052602260045260246000fd5b60006002820490506001821680612d7057607f821691505b602082108103612d8357612d82612d29565b5b50919050565b7f455243313135353a2063616c6c6572206973206e6f7420746f6b656e206f776e60008201527f6572206f7220617070726f766564000000000000000000000000000000000000602082015250565b6000612de5602e8361233f565b9150612df082612d89565b604082019050919050565b60006020820190508181036000830152612e1481612dd8565b9050919050565b7f455243313135353a206163636f756e747320616e6420696473206c656e67746860008201527f206d69736d617463680000000000000000000000000000000000000000000000602082015250565b6000612e7760298361233f565b9150612e8282612e1b565b604082019050919050565b60006020820190508181036000830152612ea681612e6a565b9050919050565b7f4e487b7100000000000000000000000000000000000000000000000000000000600052603260045260246000fd5b7f4e487b7100000000000000000000000000000000000000000000000000000000600052601160045260246000fd5b6000612f16826121ac565b91507fffffffffffffffffffffffffffffffffffffffffffffffffffffffffffffffff8203612f4857612f47612edc565b5b600182019050919050565b7f5469636b657420646f6573206e6f742065786973740000000000000000000000600082015250565b6000612f8960158361233f565b9150612f9482612f53565b602082019050919050565b60006020820190508181036000830152612fb881612f7c565b9050919050565b7f4e6f207469636b65747320617661696c61626c65000000000000000000000000600082015250565b6000612ff560148361233f565b915061300082612fbf565b602082019050919050565b6000602082019050818103600083015261302481612fe8565b9050919050565b6000613036826121ac565b9150613041836121ac565b925082820261304f816121ac565b9150828204841483151761306657613065612edc565b5b5092915050565b7f42757965722062616c616e636520746f6f206c6f770000000000000000000000600082015250565b60006130a360158361233f565b91506130ae8261306d565b602082019050919050565b600060208201905081810360008301526130d281613096565b9050919050565b7f57726f6e67207061796d656e7420616d6f756e74000000000000000000000000600082015250565b600061310f60148361233f565b915061311a826130d9565b602082019050919050565b6000602082019050818103600083015261313e81613102565b9050919050565b600060608201905061315a6000830186612222565b6131676020830185612222565b6131746040830184612222565b949350505050565b7f496e697469616c697a61626c653a20636f6e747261637420697320616c72656160008201527f647920696e697469616c697a6564000000000000000000000000000000000000602082015250565b60006131d8602e8361233f565b91506131e38261317c565b604082019050919050565b60006020820190508181036000830152613207816131cb565b9050919050565b6000819050919050565b600060ff82169050919050565b6000819050919050565b600061324a6132456132408461320e565b613225565b613218565b9050919050565b61325a8161322f565b82525050565b60006020820190506132756000830184613251565b92915050565b60006040820190506132906000830185612afd565b61329d6020830184612222565b9392505050565b6000815190506132b381612b27565b92915050565b6000602082840312156132cf576132ce612144565b5b60006132dd848285016132a4565b91505092915050565b7f4576656e7420646f6573206e6f74206578697374000000000000000000000000600082015250565b600061331c60148361233f565b9150613327826132e6565b602082019050919050565b6000602082019050818103600083015261334b8161330f565b9050919050565b60008190508160005260206000209050919050565b60006020601f8301049050919050565b600082821b905092915050565b6000600883026133b47fffffffffffffffffffffffffffffffffffffffffffffffffffffffffffffffff82613377565b6133be8683613377565b95508019841693508086168417925050509392505050565b60006133f16133ec6133e7846121ac565b613225565b6121ac565b9050919050565b6000819050919050565b61340b836133d6565b61341f613417826133f8565b848454613384565b825550505050565b600090565b613434613427565b61343f818484613402565b505050565b5b818110156134635761345860008261342c565b600181019050613445565b5050565b601f8211156134a85761347981613352565b61348284613367565b81016020851015613491578190505b6134a561349d85613367565b830182613444565b50505b505050565b600082821c905092915050565b60006134cb600019846008026134ad565b1980831691505092915050565b60006134e483836134ba565b9150826002028217905092915050565b6134fd82612334565b67ffffffffffffffff8111156135165761351561247c565b5b6135208254612d58565b61352b828285613467565b600060209050601f83116001811461355e576000841561354c578287015190505b61355685826134d8565b8655506135be565b601f19841661356c86613352565b60005b828110156135945784890151825560018201915060208501945060208101905061356f565b868310156135b157848901516135ad601f8916826134ba565b8355505b6001600288020188555050505b505050505050565b60006080820190506135db6000830187612222565b81810360208301526135ed818661238b565b90506135fc6040830185612222565b6136096060830184612222565b95945050505050565b7f4f776e61626c653a206e6577206f776e657220697320746865207a65726f206160008201527f6464726573730000000000000000000000000000000000000000000000000000602082015250565b600061366e60268361233f565b915061367982613612565b604082019050919050565b6000602082019050818103600083015261369d81613661565b9050919050565b7f455243313135353a2069647320616e6420616d6f756e7473206c656e6774682060008201527f6d69736d61746368000000000000000000000000000000000000000000000000602082015250565b600061370060288361233f565b915061370b826136a4565b604082019050919050565b6000602082019050818103600083015261372f816136f3565b9050919050565b7f455243313135353a207472616e7366657220746f20746865207a65726f20616460008201527f6472657373000000000000000000000000000000000000000000000000000000602082015250565b600061379260258361233f565b915061379d82613736565b604082019050919050565b600060208201905081810360008301526137c181613785565b9050919050565b7f455243313135353a20696e73756666696369656e742062616c616e636520666f60008201527f72207472616e7366657200000000000000000000000000000000000000000000602082015250565b6000613824602a8361233f565b915061382f826137c8565b604082019050919050565b6000602082019050818103600083015261385381613817565b9050919050565b6000613865826121ac565b9150613870836121ac565b925082820190508082111561388857613887612edc565b5b92915050565b600060408201905081810360008301526138a881856128de565b905081810360208301526138bc81846128de565b90509392505050565b60006040820190506138da6000830185612222565b6138e76020830184612222565b9392505050565b7f4f776e61626c653a2063616c6c6572206973206e6f7420746865206f776e6572600082015250565b600061392460208361233f565b915061392f826138ee565b602082019050919050565b6000602082019050818103600083015261395381613917565b9050919050565b7f496e697469616c697a61626c653a20636f6e7472616374206973206e6f74206960008201527f6e697469616c697a696e67000000000000000000000000000000000000000000602082015250565b60006139b6602b8361233f565b91506139c18261395a565b604082019050919050565b600060208201905081810360008301526139e5816139a9565b9050919050565b7f455243313135353a206d696e7420746f20746865207a65726f2061646472657360008201527f7300000000000000000000000000000000000000000000000000000000000000602082015250565b6000613a4860218361233f565b9150613a53826139ec565b604082019050919050565b60006020820190508181036000830152613a7781613a3b565b9050919050565b7f455243313135353a2073657474696e6720617070726f76616c2073746174757360008201527f20666f722073656c660000000000000000000000000000000000000000000000602082015250565b6000613ada60298361233f565b9150613ae582613a7e565b604082019050919050565b60006020820190508181036000830152613b0981613acd565b9050919050565b600081519050919050565b600082825260208201905092915050565b6000613b3782613b10565b613b418185613b1b565b9350613b51818560208601612350565b613b5a8161237a565b840191505092915050565b600060a082019050613b7a6000830188612afd565b613b876020830187612afd565b8181036040830152613b9981866128de565b90508181036060830152613bad81856128de565b90508181036080830152613bc18184613b2c565b90509695505050505050565b600081519050613bdc81612278565b92915050565b600060208284031215613bf857613bf7612144565b5b6000613c0684828501613bcd565b91505092915050565b60008160e01c9050919050565b600060033d1115613c3b5760046000803e613c38600051613c0f565b90505b90565b600060443d10613ccb57613c5061213a565b60043d036004823e80513d602482011167ffffffffffffffff82111715613c78575050613ccb565b808201805167ffffffffffffffff811115613c965750505050613ccb565b80602083010160043d038501811115613cb3575050505050613ccb565b613cc2826020018501866124ab565b82955050505050505b90565b7f455243313135353a207472616e7366657220746f206e6f6e2d4552433131353560008201527f526563656976657220696d706c656d656e746572000000000000000000000000602082015250565b6000613d2a60348361233f565b9150613d3582613cce565b604082019050919050565b60006020820190508181036000830152613d5981613d1d565b9050919050565b7f455243313135353a204552433131353552656365697665722072656a6563746560008201527f6420746f6b656e73000000000000000000000000000000000000000000000000602082015250565b6000613dbc60288361233f565b9150613dc782613d60565b604082019050919050565b60006020820190508181036000830152613deb81613daf565b9050919050565b600060a082019050613e076000830188612afd565b613e146020830187612afd565b613e216040830186612222565b613e2e6060830185612222565b8181036080830152613e408184613b2c565b9050969550505050505056fea264697066735822122002b75d29dc0efbe6b94fcbe4a752ec9abbb9b3100c962ebc8a3d383e9b1cec7564736f6c63430008110033",
  "immutableReferences": {},
  "source": "// SPDX-License-Identifier: MIT\npragma solidity ^0.8.17;\n\nimport \"@openzeppelin/contracts-upgradeable/access/OwnableUpgradeable.sol\";\nimport \"@openzeppelin/contracts-upgradeable/utils/CountersUpgradeable.sol\";\nimport \"@openzeppelin/contracts-upgradeable/token/ERC1155/ERC1155Upgradeable.sol\";\nimport \"./Event.sol\";\n\ninterface ITicket {\n    struct TicketStruct {\n        string name;\n        uint256 price;\n        bool is_set;\n    }\n\n    function create_ticket(\n        address _event_contract,\n        uint256 _event_id,\n        string memory _name,\n        uint256 _quantity,\n        uint256 _price\n    ) external;\n\n    function buy_ticket(\n        address _organizer_address,\n        uint256 _event_id,\n        uint256 _ticket_id,\n        uint256 _quantity\n    ) external payable;\n\n    function available_tickets(uint256 _ticket_id)\n        external\n        view\n        returns (uint256);\n}\n\ncontract Ticket is ITicket, ERC1155Upgradeable, OwnableUpgradeable {\n    CountersUpgradeable.Counter ticket_id;\n    mapping(address => mapping(uint256 => mapping(uint256 => TicketStruct)))\n        public tickets;\n    uint256[] public ticket_list;\n\n    event TicketCreated(\n        address indexed _admin,\n        uint256 _ticket_id,\n        string _name,\n        uint256 _quantity,\n        uint256 _price\n    );\n\n    event TicketBought(\n        address indexed _buyer,\n        uint256 _ticket_id,\n        uint256 _quantity,\n        uint256 _price\n    );\n\n    // constructor() ERC1155(\"\") {}\n\n    function initialize() public initializer {\n        __ERC1155_init(\"\");\n    }\n\n    // Functions\n    function create_ticket(\n        address _event_contract,\n        uint256 _event_id,\n        string memory _name,\n        uint256 _quantity,\n        uint256 _price\n    ) external {\n        require(\n            IEvent(_event_contract).is_event(msg.sender, _event_id),\n            \"Event does not exist\"\n        );\n        // require(\n        //     tickets[msg.sender][_event_id].start_datetime < block.timestamp,\n        //     \"Event is passed\"\n        // );\n        tickets[msg.sender][_event_id][\n            CountersUpgradeable.current(ticket_id)\n        ] = TicketStruct(_name, _price, true);\n        ticket_list.push(CountersUpgradeable.current(ticket_id));\n        _mint(\n            address(this),\n            CountersUpgradeable.current(ticket_id),\n            _quantity,\n            \"\"\n        );\n        emit TicketCreated(\n            msg.sender,\n            CountersUpgradeable.current(ticket_id),\n            _name,\n            _quantity,\n            _price\n        );\n        CountersUpgradeable.increment(ticket_id);\n    }\n\n    function buy_ticket(\n        address _organizer_address,\n        uint256 _event_id,\n        uint256 _ticket_id,\n        uint256 _quantity\n    ) external payable {\n        require(\n            tickets[_organizer_address][_event_id][_ticket_id].is_set,\n            \"Ticket does not exist\"\n        );\n        require(\n            balanceOf(address(this), _ticket_id) > 0,\n            \"No tickets available\"\n        );\n        // require(\n        //     tickets[_organizer_address][_event_id].start_datetime <\n        //         block.timestamp,\n        //     \"Event is passed\"\n        // );\n        uint256 total_price = _quantity *\n            tickets[_organizer_address][_event_id][_ticket_id].price;\n        require(msg.sender.balance >= total_price, \"Buyer balance too low\");\n        require(msg.value == total_price, \"Wrong payment amount\");\n        _safeTransferFrom(address(this), msg.sender, _ticket_id, _quantity, \"\");\n\n        emit TicketBought(msg.sender, _ticket_id, _quantity, total_price);\n    }\n\n    function available_tickets(uint256 _ticket_id)\n        external\n        view\n        returns (uint256)\n    {\n        return balanceOf(address(this), _ticket_id);\n    }\n}\n",
  "sourcePath": "/home/flaprimo/Development/decentralized-ticket-sales/backend/contracts/Ticket.sol",
  "compiler": {
    "name": "solc",
    "version": "0.8.17+commit.8df45f5f.Emscripten.clang"
  },
  "schemaVersion": "3.4.10",
  "updatedAt": "2023-01-21T14:06:15.284Z",
  "networkType": "ethereum",
  "devdoc": {
    "kind": "dev",
    "methods": {
      "balanceOf(address,uint256)": {
        "details": "See {IERC1155-balanceOf}. Requirements: - `account` cannot be the zero address."
      },
      "balanceOfBatch(address[],uint256[])": {
        "details": "See {IERC1155-balanceOfBatch}. Requirements: - `accounts` and `ids` must have the same length."
      },
      "isApprovedForAll(address,address)": {
        "details": "See {IERC1155-isApprovedForAll}."
      },
      "owner()": {
        "details": "Returns the address of the current owner."
      },
      "renounceOwnership()": {
        "details": "Leaves the contract without owner. It will not be possible to call `onlyOwner` functions anymore. Can only be called by the current owner. NOTE: Renouncing ownership will leave the contract without an owner, thereby removing any functionality that is only available to the owner."
      },
      "safeBatchTransferFrom(address,address,uint256[],uint256[],bytes)": {
        "details": "See {IERC1155-safeBatchTransferFrom}."
      },
      "safeTransferFrom(address,address,uint256,uint256,bytes)": {
        "details": "See {IERC1155-safeTransferFrom}."
      },
      "setApprovalForAll(address,bool)": {
        "details": "See {IERC1155-setApprovalForAll}."
      },
      "supportsInterface(bytes4)": {
        "details": "See {IERC165-supportsInterface}."
      },
      "transferOwnership(address)": {
        "details": "Transfers ownership of the contract to a new account (`newOwner`). Can only be called by the current owner."
      },
      "uri(uint256)": {
        "details": "See {IERC1155MetadataURI-uri}. This implementation returns the same URI for *all* token types. It relies on the token type ID substitution mechanism https://eips.ethereum.org/EIPS/eip-1155#metadata[defined in the EIP]. Clients calling this function must replace the `\\{id\\}` substring with the actual token type ID."
      }
    },
    "version": 1
  },
  "userdoc": {
    "kind": "user",
    "methods": {},
    "version": 1
  }
}