{
  "contractName": "Ticket",
  "abi": [
    {
      "anonymous": false,
      "inputs": [
        {
          "indexed": true,
          "internalType": "address",
          "name": "account",
          "type": "address"
        },
        {
          "indexed": true,
          "internalType": "address",
          "name": "operator",
          "type": "address"
        },
        {
          "indexed": false,
          "internalType": "bool",
          "name": "approved",
          "type": "bool"
        }
      ],
      "name": "ApprovalForAll",
      "type": "event"
    },
    {
      "anonymous": false,
      "inputs": [
        {
          "indexed": false,
          "internalType": "uint8",
          "name": "version",
          "type": "uint8"
        }
      ],
      "name": "Initialized",
      "type": "event"
    },
    {
      "anonymous": false,
      "inputs": [
        {
          "indexed": true,
          "internalType": "address",
          "name": "previousOwner",
          "type": "address"
        },
        {
          "indexed": true,
          "internalType": "address",
          "name": "newOwner",
          "type": "address"
        }
      ],
      "name": "OwnershipTransferred",
      "type": "event"
    },
    {
      "anonymous": false,
      "inputs": [
        {
          "indexed": true,
          "internalType": "address",
          "name": "_buyer",
          "type": "address"
        },
        {
          "indexed": false,
          "internalType": "uint256",
          "name": "_ticket_id",
          "type": "uint256"
        },
        {
          "indexed": false,
          "internalType": "uint256",
          "name": "_quantity",
          "type": "uint256"
        },
        {
          "indexed": false,
          "internalType": "uint256",
          "name": "_price",
          "type": "uint256"
        }
      ],
      "name": "TicketBought",
      "type": "event"
    },
    {
      "anonymous": false,
      "inputs": [
        {
          "indexed": true,
          "internalType": "address",
          "name": "_admin",
          "type": "address"
        },
        {
          "indexed": false,
          "internalType": "uint256",
          "name": "_ticket_id",
          "type": "uint256"
        },
        {
          "indexed": false,
          "internalType": "string",
          "name": "_name",
          "type": "string"
        },
        {
          "indexed": false,
          "internalType": "uint256",
          "name": "_quantity",
          "type": "uint256"
        },
        {
          "indexed": false,
          "internalType": "uint256",
          "name": "_price",
          "type": "uint256"
        }
      ],
      "name": "TicketCreated",
      "type": "event"
    },
    {
      "anonymous": false,
      "inputs": [
        {
          "indexed": true,
          "internalType": "address",
          "name": "operator",
          "type": "address"
        },
        {
          "indexed": true,
          "internalType": "address",
          "name": "from",
          "type": "address"
        },
        {
          "indexed": true,
          "internalType": "address",
          "name": "to",
          "type": "address"
        },
        {
          "indexed": false,
          "internalType": "uint256[]",
          "name": "ids",
          "type": "uint256[]"
        },
        {
          "indexed": false,
          "internalType": "uint256[]",
          "name": "values",
          "type": "uint256[]"
        }
      ],
      "name": "TransferBatch",
      "type": "event"
    },
    {
      "anonymous": false,
      "inputs": [
        {
          "indexed": true,
          "internalType": "address",
          "name": "operator",
          "type": "address"
        },
        {
          "indexed": true,
          "internalType": "address",
          "name": "from",
          "type": "address"
        },
        {
          "indexed": true,
          "internalType": "address",
          "name": "to",
          "type": "address"
        },
        {
          "indexed": false,
          "internalType": "uint256",
          "name": "id",
          "type": "uint256"
        },
        {
          "indexed": false,
          "internalType": "uint256",
          "name": "value",
          "type": "uint256"
        }
      ],
      "name": "TransferSingle",
      "type": "event"
    },
    {
      "anonymous": false,
      "inputs": [
        {
          "indexed": false,
          "internalType": "string",
          "name": "value",
          "type": "string"
        },
        {
          "indexed": true,
          "internalType": "uint256",
          "name": "id",
          "type": "uint256"
        }
      ],
      "name": "URI",
      "type": "event"
    },
    {
      "inputs": [
        {
          "internalType": "address",
          "name": "account",
          "type": "address"
        },
        {
          "internalType": "uint256",
          "name": "id",
          "type": "uint256"
        }
      ],
      "name": "balanceOf",
      "outputs": [
        {
          "internalType": "uint256",
          "name": "",
          "type": "uint256"
        }
      ],
      "stateMutability": "view",
      "type": "function",
      "constant": true
    },
    {
      "inputs": [
        {
          "internalType": "address[]",
          "name": "accounts",
          "type": "address[]"
        },
        {
          "internalType": "uint256[]",
          "name": "ids",
          "type": "uint256[]"
        }
      ],
      "name": "balanceOfBatch",
      "outputs": [
        {
          "internalType": "uint256[]",
          "name": "",
          "type": "uint256[]"
        }
      ],
      "stateMutability": "view",
      "type": "function",
      "constant": true
    },
    {
      "inputs": [
        {
          "internalType": "address",
          "name": "account",
          "type": "address"
        },
        {
          "internalType": "address",
          "name": "operator",
          "type": "address"
        }
      ],
      "name": "isApprovedForAll",
      "outputs": [
        {
          "internalType": "bool",
          "name": "",
          "type": "bool"
        }
      ],
      "stateMutability": "view",
      "type": "function",
      "constant": true
    },
    {
      "inputs": [],
      "name": "owner",
      "outputs": [
        {
          "internalType": "address",
          "name": "",
          "type": "address"
        }
      ],
      "stateMutability": "view",
      "type": "function",
      "constant": true
    },
    {
      "inputs": [],
      "name": "renounceOwnership",
      "outputs": [],
      "stateMutability": "nonpayable",
      "type": "function"
    },
    {
      "inputs": [
        {
          "internalType": "address",
          "name": "from",
          "type": "address"
        },
        {
          "internalType": "address",
          "name": "to",
          "type": "address"
        },
        {
          "internalType": "uint256[]",
          "name": "ids",
          "type": "uint256[]"
        },
        {
          "internalType": "uint256[]",
          "name": "amounts",
          "type": "uint256[]"
        },
        {
          "internalType": "bytes",
          "name": "data",
          "type": "bytes"
        }
      ],
      "name": "safeBatchTransferFrom",
      "outputs": [],
      "stateMutability": "nonpayable",
      "type": "function"
    },
    {
      "inputs": [
        {
          "internalType": "address",
          "name": "from",
          "type": "address"
        },
        {
          "internalType": "address",
          "name": "to",
          "type": "address"
        },
        {
          "internalType": "uint256",
          "name": "id",
          "type": "uint256"
        },
        {
          "internalType": "uint256",
          "name": "amount",
          "type": "uint256"
        },
        {
          "internalType": "bytes",
          "name": "data",
          "type": "bytes"
        }
      ],
      "name": "safeTransferFrom",
      "outputs": [],
      "stateMutability": "nonpayable",
      "type": "function"
    },
    {
      "inputs": [
        {
          "internalType": "address",
          "name": "operator",
          "type": "address"
        },
        {
          "internalType": "bool",
          "name": "approved",
          "type": "bool"
        }
      ],
      "name": "setApprovalForAll",
      "outputs": [],
      "stateMutability": "nonpayable",
      "type": "function"
    },
    {
      "inputs": [
        {
          "internalType": "bytes4",
          "name": "interfaceId",
          "type": "bytes4"
        }
      ],
      "name": "supportsInterface",
      "outputs": [
        {
          "internalType": "bool",
          "name": "",
          "type": "bool"
        }
      ],
      "stateMutability": "view",
      "type": "function",
      "constant": true
    },
    {
      "inputs": [
        {
          "internalType": "uint256",
          "name": "",
          "type": "uint256"
        }
      ],
      "name": "ticket_list",
      "outputs": [
        {
          "internalType": "uint256",
          "name": "",
          "type": "uint256"
        }
      ],
      "stateMutability": "view",
      "type": "function",
      "constant": true
    },
    {
      "inputs": [
        {
          "internalType": "address",
          "name": "",
          "type": "address"
        },
        {
          "internalType": "uint256",
          "name": "",
          "type": "uint256"
        },
        {
          "internalType": "uint256",
          "name": "",
          "type": "uint256"
        }
      ],
      "name": "tickets",
      "outputs": [
        {
          "internalType": "string",
          "name": "name",
          "type": "string"
        },
        {
          "internalType": "uint256",
          "name": "price",
          "type": "uint256"
        },
        {
          "internalType": "bool",
          "name": "is_set",
          "type": "bool"
        }
      ],
      "stateMutability": "view",
      "type": "function",
      "constant": true
    },
    {
      "inputs": [
        {
          "internalType": "address",
          "name": "newOwner",
          "type": "address"
        }
      ],
      "name": "transferOwnership",
      "outputs": [],
      "stateMutability": "nonpayable",
      "type": "function"
    },
    {
      "inputs": [
        {
          "internalType": "uint256",
          "name": "",
          "type": "uint256"
        }
      ],
      "name": "uri",
      "outputs": [
        {
          "internalType": "string",
          "name": "",
          "type": "string"
        }
      ],
      "stateMutability": "view",
      "type": "function",
      "constant": true
    },
    {
      "inputs": [
        {
          "internalType": "address",
          "name": "_event_contract",
          "type": "address"
        }
      ],
      "name": "initialize",
      "outputs": [],
      "stateMutability": "nonpayable",
      "type": "function"
    },
    {
      "inputs": [
        {
          "internalType": "uint256",
          "name": "_event_id",
          "type": "uint256"
        },
        {
          "internalType": "string",
          "name": "_name",
          "type": "string"
        },
        {
          "internalType": "uint256",
          "name": "_quantity",
          "type": "uint256"
        },
        {
          "internalType": "uint256",
          "name": "_price",
          "type": "uint256"
        }
      ],
      "name": "create_ticket",
      "outputs": [],
      "stateMutability": "nonpayable",
      "type": "function"
    },
    {
      "inputs": [
        {
          "internalType": "address",
          "name": "_organizer_address",
          "type": "address"
        },
        {
          "internalType": "uint256",
          "name": "_event_id",
          "type": "uint256"
        },
        {
          "internalType": "uint256",
          "name": "_ticket_id",
          "type": "uint256"
        },
        {
          "internalType": "uint256",
          "name": "_quantity",
          "type": "uint256"
        }
      ],
      "name": "buy_ticket",
      "outputs": [],
      "stateMutability": "payable",
      "type": "function",
      "payable": true
    },
    {
      "inputs": [
        {
          "internalType": "address",
          "name": "_organizer_address",
          "type": "address"
        },
        {
          "internalType": "uint256",
          "name": "_ticket_id",
          "type": "uint256"
        }
      ],
      "name": "available_tickets",
      "outputs": [
        {
          "internalType": "uint256",
          "name": "",
          "type": "uint256"
        }
      ],
      "stateMutability": "view",
      "type": "function",
      "constant": true
    },
    {
      "inputs": [],
      "name": "tickets_length",
      "outputs": [
        {
          "internalType": "uint256",
          "name": "",
          "type": "uint256"
        }
      ],
      "stateMutability": "view",
      "type": "function",
      "constant": true
    }
  ],
  "bytecode": "0x608060405234801561001057600080fd5b50614027806100206000396000f3fe6080604052600436106101085760003560e01c8063715018a611610095578063af6ae12a11610064578063af6ae12a14610381578063c4d66de8146103be578063e985e9c5146103e7578063f242432a14610424578063f2fde38b1461044d57610108565b8063715018a6146102ed57806384843955146103045780638da5cb5b1461032d578063a22cb4651461035857610108565b8063238d17f2116100dc578063238d17f2146102035780632eb2c2d61461022e57806331f648ad146102575780634e1273f41461029457806353f59cac146102d157610108565b8062fdd58e1461010d57806301ffc9a71461014a5780630e89341c146101875780632115f4d1146101c4575b600080fd5b34801561011957600080fd5b50610134600480360381019061012f9190612309565b610476565b6040516101419190612358565b60405180910390f35b34801561015657600080fd5b50610171600480360381019061016c91906123cb565b61053f565b60405161017e9190612413565b60405180910390f35b34801561019357600080fd5b506101ae60048036038101906101a9919061242e565b610621565b6040516101bb91906124eb565b60405180910390f35b3480156101d057600080fd5b506101eb60048036038101906101e6919061250d565b6106b5565b6040516101fa93929190612560565b60405180910390f35b34801561020f57600080fd5b5061021861078e565b6040516102259190612358565b60405180910390f35b34801561023a57600080fd5b506102556004803603810190610250919061279b565b61079b565b005b34801561026357600080fd5b5061027e6004803603810190610279919061242e565b61083c565b60405161028b9190612358565b60405180910390f35b3480156102a057600080fd5b506102bb60048036038101906102b6919061292d565b610860565b6040516102c89190612a63565b60405180910390f35b6102eb60048036038101906102e69190612a85565b610979565b005b3480156102f957600080fd5b50610302610c69565b005b34801561031057600080fd5b5061032b60048036038101906103269190612b8d565b610c7d565b005b34801561033957600080fd5b50610342610ee8565b60405161034f9190612c1f565b60405180910390f35b34801561036457600080fd5b5061037f600480360381019061037a9190612c66565b610f12565b005b34801561038d57600080fd5b506103a860048036038101906103a39190612309565b610f28565b6040516103b59190612358565b60405180910390f35b3480156103ca57600080fd5b506103e560048036038101906103e09190612ca6565b610f3c565b005b3480156103f357600080fd5b5061040e60048036038101906104099190612cd3565b6110cc565b60405161041b9190612413565b60405180910390f35b34801561043057600080fd5b5061044b60048036038101906104469190612d13565b611160565b005b34801561045957600080fd5b50610474600480360381019061046f9190612ca6565b611201565b005b60008073ffffffffffffffffffffffffffffffffffffffff168373ffffffffffffffffffffffffffffffffffffffff16036104e6576040517f08c379a00000000000000000000000000000000000000000000000000000000081526004016104dd90612e1c565b60405180910390fd5b6097600083815260200190815260200160002060008473ffffffffffffffffffffffffffffffffffffffff1673ffffffffffffffffffffffffffffffffffffffff16815260200190815260200160002054905092915050565b60007fd9b67a26000000000000000000000000000000000000000000000000000000007bffffffffffffffffffffffffffffffffffffffffffffffffffffffff1916827bffffffffffffffffffffffffffffffffffffffffffffffffffffffff1916148061060a57507f0e89341c000000000000000000000000000000000000000000000000000000007bffffffffffffffffffffffffffffffffffffffffffffffffffffffff1916827bffffffffffffffffffffffffffffffffffffffffffffffffffffffff1916145b8061061a575061061982611284565b5b9050919050565b60606099805461063090612e6b565b80601f016020809104026020016040519081016040528092919081815260200182805461065c90612e6b565b80156106a95780601f1061067e576101008083540402835291602001916106a9565b820191906000526020600020905b81548152906001019060200180831161068c57829003601f168201915b50505050509050919050565b60ca60205282600052604060002060205281600052604060002060205280600052604060002060009250925050508060000180546106f290612e6b565b80601f016020809104026020016040519081016040528092919081815260200182805461071e90612e6b565b801561076b5780601f106107405761010080835404028352916020019161076b565b820191906000526020600020905b81548152906001019060200180831161074e57829003601f168201915b5050505050908060010154908060020160009054906101000a900460ff16905083565b600060cb80549050905090565b6107a36112ee565b73ffffffffffffffffffffffffffffffffffffffff168573ffffffffffffffffffffffffffffffffffffffff1614806107e957506107e8856107e36112ee565b6110cc565b5b610828576040517f08c379a000000000000000000000000000000000000000000000000000000000815260040161081f90612f0e565b60405180910390fd5b61083585858585856112f6565b5050505050565b60cb818154811061084c57600080fd5b906000526020600020016000915090505481565b606081518351146108a6576040517f08c379a000000000000000000000000000000000000000000000000000000000815260040161089d90612fa0565b60405180910390fd5b6000835167ffffffffffffffff8111156108c3576108c26125a3565b5b6040519080825280602002602001820160405280156108f15781602001602082028036833780820191505090505b50905060005b845181101561096e5761093e85828151811061091657610915612fc0565b5b602002602001015185838151811061093157610930612fc0565b5b6020026020010151610476565b82828151811061095157610950612fc0565b5b602002602001018181525050806109679061301e565b90506108f7565b508091505092915050565b60ca60008573ffffffffffffffffffffffffffffffffffffffff1673ffffffffffffffffffffffffffffffffffffffff1681526020019081526020016000206000848152602001908152602001600020600083815260200190815260200160002060020160009054906101000a900460ff16610a2a576040517f08c379a0000000000000000000000000000000000000000000000000000000008152600401610a21906130b2565b60405180910390fd5b6000610a368584610476565b11610a76576040517f08c379a0000000000000000000000000000000000000000000000000000000008152600401610a6d9061311e565b60405180910390fd5b8373ffffffffffffffffffffffffffffffffffffffff163373ffffffffffffffffffffffffffffffffffffffff1603610ae4576040517f08c379a0000000000000000000000000000000000000000000000000000000008152600401610adb906131b0565b60405180910390fd5b600060ca60008673ffffffffffffffffffffffffffffffffffffffff1673ffffffffffffffffffffffffffffffffffffffff168152602001908152602001600020600085815260200190815260200160002060008481526020019081526020016000206001015482610b5691906131d0565b9050803373ffffffffffffffffffffffffffffffffffffffff16311015610bb2576040517f08c379a0000000000000000000000000000000000000000000000000000000008152600401610ba99061325e565b60405180910390fd5b803414610bf4576040517f08c379a0000000000000000000000000000000000000000000000000000000008152600401610beb906132ca565b60405180910390fd5b610c10853385856040518060200160405280600081525061161a565b3373ffffffffffffffffffffffffffffffffffffffff167f46cdbf90977f71f605a85b7c00f0d4d71f3d811fb25fad2d3ed3d15f0f84a5d7848484604051610c5a939291906132ea565b60405180910390a25050505050565b610c716118b8565b610c7b6000611936565b565b60cc60009054906101000a900473ffffffffffffffffffffffffffffffffffffffff1673ffffffffffffffffffffffffffffffffffffffff1663c8ff5bf933866040518363ffffffff1660e01b8152600401610cda929190613321565b602060405180830381865afa158015610cf7573d6000803e3d6000fd5b505050506040513d601f19601f82011682018060405250810190610d1b919061335f565b610d5a576040517f08c379a0000000000000000000000000000000000000000000000000000000008152600401610d51906133d8565b60405180910390fd5b60405180606001604052808481526020018281526020016001151581525060ca60003373ffffffffffffffffffffffffffffffffffffffff1673ffffffffffffffffffffffffffffffffffffffff16815260200190815260200160002060008681526020019081526020016000206000610dd460c96119fc565b81526020019081526020016000206000820151816000019081610df791906135a4565b506020820151816001015560408201518160020160006101000a81548160ff02191690831515021790555090505060cb610e3160c96119fc565b9080600181540180825580915050600190039060005260206000200160009091909190915055610e7b33610e6560c96119fc565b8460405180602001604052806000815250611a0a565b3373ffffffffffffffffffffffffffffffffffffffff167fec09b4dfb989318a264039a7d0a2f5a1f63fe13419bcd361f27ff0d6def8a5eb610ebd60c96119fc565b858585604051610ed09493929190613676565b60405180910390a2610ee260c9611bbb565b50505050565b6000603360009054906101000a900473ffffffffffffffffffffffffffffffffffffffff16905090565b610f24610f1d6112ee565b8383611bd1565b5050565b6000610f348383610476565b905092915050565b60008060019054906101000a900460ff16159050808015610f6d5750600160008054906101000a900460ff1660ff16105b80610f9a5750610f7c30611d3d565b158015610f995750600160008054906101000a900460ff1660ff16145b5b610fd9576040517f08c379a0000000000000000000000000000000000000000000000000000000008152600401610fd090613734565b60405180910390fd5b60016000806101000a81548160ff021916908360ff1602179055508015611016576001600060016101000a81548160ff0219169083151502179055505b8160cc60006101000a81548173ffffffffffffffffffffffffffffffffffffffff021916908373ffffffffffffffffffffffffffffffffffffffff16021790555061106f60405180602001604052806000815250611d60565b80156110c85760008060016101000a81548160ff0219169083151502179055507f7f26b83ff96e1f2b6a682f133852f6798a09c465da95921460cefb384740249860016040516110bf919061379c565b60405180910390a15b5050565b6000609860008473ffffffffffffffffffffffffffffffffffffffff1673ffffffffffffffffffffffffffffffffffffffff16815260200190815260200160002060008373ffffffffffffffffffffffffffffffffffffffff1673ffffffffffffffffffffffffffffffffffffffff16815260200190815260200160002060009054906101000a900460ff16905092915050565b6111686112ee565b73ffffffffffffffffffffffffffffffffffffffff168573ffffffffffffffffffffffffffffffffffffffff1614806111ae57506111ad856111a86112ee565b6110cc565b5b6111ed576040517f08c379a00000000000000000000000000000000000000000000000000000000081526004016111e490612f0e565b60405180910390fd5b6111fa858585858561161a565b5050505050565b6112096118b8565b600073ffffffffffffffffffffffffffffffffffffffff168173ffffffffffffffffffffffffffffffffffffffff1603611278576040517f08c379a000000000000000000000000000000000000000000000000000000000815260040161126f90613829565b60405180910390fd5b61128181611936565b50565b60007f01ffc9a7000000000000000000000000000000000000000000000000000000007bffffffffffffffffffffffffffffffffffffffffffffffffffffffff1916827bffffffffffffffffffffffffffffffffffffffffffffffffffffffff1916149050919050565b600033905090565b815183511461133a576040517f08c379a0000000000000000000000000000000000000000000000000000000008152600401611331906138bb565b60405180910390fd5b600073ffffffffffffffffffffffffffffffffffffffff168473ffffffffffffffffffffffffffffffffffffffff16036113a9576040517f08c379a00000000000000000000000000000000000000000000000000000000081526004016113a09061394d565b60405180910390fd5b60006113b36112ee565b90506113c3818787878787611dbb565b60005b84518110156115775760008582815181106113e4576113e3612fc0565b5b60200260200101519050600085838151811061140357611402612fc0565b5b6020026020010151905060006097600084815260200190815260200160002060008b73ffffffffffffffffffffffffffffffffffffffff1673ffffffffffffffffffffffffffffffffffffffff168152602001908152602001600020549050818110156114a5576040517f08c379a000000000000000000000000000000000000000000000000000000000815260040161149c906139df565b60405180910390fd5b8181036097600085815260200190815260200160002060008c73ffffffffffffffffffffffffffffffffffffffff1673ffffffffffffffffffffffffffffffffffffffff16815260200190815260200160002081905550816097600085815260200190815260200160002060008b73ffffffffffffffffffffffffffffffffffffffff1673ffffffffffffffffffffffffffffffffffffffff168152602001908152602001600020600082825461155c91906139ff565b92505081905550505050806115709061301e565b90506113c6565b508473ffffffffffffffffffffffffffffffffffffffff168673ffffffffffffffffffffffffffffffffffffffff168273ffffffffffffffffffffffffffffffffffffffff167f4a39dc06d4c0dbc64b70af90fd698a233a518aa5d07e595d983b8c0526c8f7fb87876040516115ee929190613a33565b60405180910390a4611604818787878787611dc3565b611612818787878787611dcb565b505050505050565b600073ffffffffffffffffffffffffffffffffffffffff168473ffffffffffffffffffffffffffffffffffffffff1603611689576040517f08c379a00000000000000000000000000000000000000000000000000000000081526004016116809061394d565b60405180910390fd5b60006116936112ee565b905060006116a085611fa2565b905060006116ad85611fa2565b90506116bd838989858589611dbb565b60006097600088815260200190815260200160002060008a73ffffffffffffffffffffffffffffffffffffffff1673ffffffffffffffffffffffffffffffffffffffff16815260200190815260200160002054905085811015611755576040517f08c379a000000000000000000000000000000000000000000000000000000000815260040161174c906139df565b60405180910390fd5b8581036097600089815260200190815260200160002060008b73ffffffffffffffffffffffffffffffffffffffff1673ffffffffffffffffffffffffffffffffffffffff16815260200190815260200160002081905550856097600089815260200190815260200160002060008a73ffffffffffffffffffffffffffffffffffffffff1673ffffffffffffffffffffffffffffffffffffffff168152602001908152602001600020600082825461180c91906139ff565b925050819055508773ffffffffffffffffffffffffffffffffffffffff168973ffffffffffffffffffffffffffffffffffffffff168573ffffffffffffffffffffffffffffffffffffffff167fc3d58168c5ae7397731d063d5bbf3d657854427343f4c083240f7aacaa2d0f628a8a604051611889929190613a6a565b60405180910390a461189f848a8a86868a611dc3565b6118ad848a8a8a8a8a61201c565b505050505050505050565b6118c06112ee565b73ffffffffffffffffffffffffffffffffffffffff166118de610ee8565b73ffffffffffffffffffffffffffffffffffffffff1614611934576040517f08c379a000000000000000000000000000000000000000000000000000000000815260040161192b90613adf565b60405180910390fd5b565b6000603360009054906101000a900473ffffffffffffffffffffffffffffffffffffffff16905081603360006101000a81548173ffffffffffffffffffffffffffffffffffffffff021916908373ffffffffffffffffffffffffffffffffffffffff1602179055508173ffffffffffffffffffffffffffffffffffffffff168173ffffffffffffffffffffffffffffffffffffffff167f8be0079c531659141344cd1fd0a4f28419497f9722a3daafe3b4186f6b6457e060405160405180910390a35050565b600081600001549050919050565b600073ffffffffffffffffffffffffffffffffffffffff168473ffffffffffffffffffffffffffffffffffffffff1603611a79576040517f08c379a0000000000000000000000000000000000000000000000000000000008152600401611a7090613b71565b60405180910390fd5b6000611a836112ee565b90506000611a9085611fa2565b90506000611a9d85611fa2565b9050611aae83600089858589611dbb565b846097600088815260200190815260200160002060008973ffffffffffffffffffffffffffffffffffffffff1673ffffffffffffffffffffffffffffffffffffffff1681526020019081526020016000206000828254611b0e91906139ff565b925050819055508673ffffffffffffffffffffffffffffffffffffffff16600073ffffffffffffffffffffffffffffffffffffffff168473ffffffffffffffffffffffffffffffffffffffff167fc3d58168c5ae7397731d063d5bbf3d657854427343f4c083240f7aacaa2d0f628989604051611b8c929190613a6a565b60405180910390a4611ba383600089858589611dc3565b611bb28360008989898961201c565b50505050505050565b6001816000016000828254019250508190555050565b8173ffffffffffffffffffffffffffffffffffffffff168373ffffffffffffffffffffffffffffffffffffffff1603611c3f576040517f08c379a0000000000000000000000000000000000000000000000000000000008152600401611c3690613c03565b60405180910390fd5b80609860008573ffffffffffffffffffffffffffffffffffffffff1673ffffffffffffffffffffffffffffffffffffffff16815260200190815260200160002060008473ffffffffffffffffffffffffffffffffffffffff1673ffffffffffffffffffffffffffffffffffffffff16815260200190815260200160002060006101000a81548160ff0219169083151502179055508173ffffffffffffffffffffffffffffffffffffffff168373ffffffffffffffffffffffffffffffffffffffff167f17307eab39ab6107e8899845ad3d59bd9653f200f220920489ca2b5937696c3183604051611d309190612413565b60405180910390a3505050565b6000808273ffffffffffffffffffffffffffffffffffffffff163b119050919050565b600060019054906101000a900460ff16611daf576040517f08c379a0000000000000000000000000000000000000000000000000000000008152600401611da690613c95565b60405180910390fd5b611db8816121f3565b50565b505050505050565b505050505050565b611dea8473ffffffffffffffffffffffffffffffffffffffff16611d3d565b15611f9a578373ffffffffffffffffffffffffffffffffffffffff1663bc197c8187878686866040518663ffffffff1660e01b8152600401611e30959493929190613d0a565b6020604051808303816000875af1925050508015611e6c57506040513d601f19601f82011682018060405250810190611e699190613d87565b60015b611f1157611e78613dc1565b806308c379a003611ed45750611e8c613de3565b80611e975750611ed6565b806040517f08c379a0000000000000000000000000000000000000000000000000000000008152600401611ecb91906124eb565b60405180910390fd5b505b6040517f08c379a0000000000000000000000000000000000000000000000000000000008152600401611f0890613ee5565b60405180910390fd5b63bc197c8160e01b7bffffffffffffffffffffffffffffffffffffffffffffffffffffffff1916817bffffffffffffffffffffffffffffffffffffffffffffffffffffffff191614611f98576040517f08c379a0000000000000000000000000000000000000000000000000000000008152600401611f8f90613f77565b60405180910390fd5b505b505050505050565b60606000600167ffffffffffffffff811115611fc157611fc06125a3565b5b604051908082528060200260200182016040528015611fef5781602001602082028036833780820191505090505b509050828160008151811061200757612006612fc0565b5b60200260200101818152505080915050919050565b61203b8473ffffffffffffffffffffffffffffffffffffffff16611d3d565b156121eb578373ffffffffffffffffffffffffffffffffffffffff1663f23a6e6187878686866040518663ffffffff1660e01b8152600401612081959493929190613f97565b6020604051808303816000875af19250505080156120bd57506040513d601f19601f820116820180604052508101906120ba9190613d87565b60015b612162576120c9613dc1565b806308c379a00361212557506120dd613de3565b806120e85750612127565b806040517f08c379a000000000000000000000000000000000000000000000000000000000815260040161211c91906124eb565b60405180910390fd5b505b6040517f08c379a000000000000000000000000000000000000000000000000000000000815260040161215990613ee5565b60405180910390fd5b63f23a6e6160e01b7bffffffffffffffffffffffffffffffffffffffffffffffffffffffff1916817bffffffffffffffffffffffffffffffffffffffffffffffffffffffff1916146121e9576040517f08c379a00000000000000000000000000000000000000000000000000000000081526004016121e090613f77565b60405180910390fd5b505b505050505050565b600060019054906101000a900460ff16612242576040517f08c379a000000000000000000000000000000000000000000000000000000000815260040161223990613c95565b60405180910390fd5b61224b8161224e565b50565b806099908161225d91906135a4565b5050565b6000604051905090565b600080fd5b600080fd5b600073ffffffffffffffffffffffffffffffffffffffff82169050919050565b60006122a082612275565b9050919050565b6122b081612295565b81146122bb57600080fd5b50565b6000813590506122cd816122a7565b92915050565b6000819050919050565b6122e6816122d3565b81146122f157600080fd5b50565b600081359050612303816122dd565b92915050565b600080604083850312156123205761231f61226b565b5b600061232e858286016122be565b925050602061233f858286016122f4565b9150509250929050565b612352816122d3565b82525050565b600060208201905061236d6000830184612349565b92915050565b60007fffffffff0000000000000000000000000000000000000000000000000000000082169050919050565b6123a881612373565b81146123b357600080fd5b50565b6000813590506123c58161239f565b92915050565b6000602082840312156123e1576123e061226b565b5b60006123ef848285016123b6565b91505092915050565b60008115159050919050565b61240d816123f8565b82525050565b60006020820190506124286000830184612404565b92915050565b6000602082840312156124445761244361226b565b5b6000612452848285016122f4565b91505092915050565b600081519050919050565b600082825260208201905092915050565b60005b8381101561249557808201518184015260208101905061247a565b60008484015250505050565b6000601f19601f8301169050919050565b60006124bd8261245b565b6124c78185612466565b93506124d7818560208601612477565b6124e0816124a1565b840191505092915050565b6000602082019050818103600083015261250581846124b2565b905092915050565b6000806000606084860312156125265761252561226b565b5b6000612534868287016122be565b9350506020612545868287016122f4565b9250506040612556868287016122f4565b9150509250925092565b6000606082019050818103600083015261257a81866124b2565b90506125896020830185612349565b6125966040830184612404565b949350505050565b600080fd5b7f4e487b7100000000000000000000000000000000000000000000000000000000600052604160045260246000fd5b6125db826124a1565b810181811067ffffffffffffffff821117156125fa576125f96125a3565b5b80604052505050565b600061260d612261565b905061261982826125d2565b919050565b600067ffffffffffffffff821115612639576126386125a3565b5b602082029050602081019050919050565b600080fd5b600061266261265d8461261e565b612603565b905080838252602082019050602084028301858111156126855761268461264a565b5b835b818110156126ae578061269a88826122f4565b845260208401935050602081019050612687565b5050509392505050565b600082601f8301126126cd576126cc61259e565b5b81356126dd84826020860161264f565b91505092915050565b600080fd5b600067ffffffffffffffff821115612706576127056125a3565b5b61270f826124a1565b9050602081019050919050565b82818337600083830152505050565b600061273e612739846126eb565b612603565b90508281526020810184848401111561275a576127596126e6565b5b61276584828561271c565b509392505050565b600082601f8301126127825761278161259e565b5b813561279284826020860161272b565b91505092915050565b600080600080600060a086880312156127b7576127b661226b565b5b60006127c5888289016122be565b95505060206127d6888289016122be565b945050604086013567ffffffffffffffff8111156127f7576127f6612270565b5b612803888289016126b8565b935050606086013567ffffffffffffffff81111561282457612823612270565b5b612830888289016126b8565b925050608086013567ffffffffffffffff81111561285157612850612270565b5b61285d8882890161276d565b9150509295509295909350565b600067ffffffffffffffff821115612885576128846125a3565b5b602082029050602081019050919050565b60006128a96128a48461286a565b612603565b905080838252602082019050602084028301858111156128cc576128cb61264a565b5b835b818110156128f557806128e188826122be565b8452602084019350506020810190506128ce565b5050509392505050565b600082601f8301126129145761291361259e565b5b8135612924848260208601612896565b91505092915050565b600080604083850312156129445761294361226b565b5b600083013567ffffffffffffffff81111561296257612961612270565b5b61296e858286016128ff565b925050602083013567ffffffffffffffff81111561298f5761298e612270565b5b61299b858286016126b8565b9150509250929050565b600081519050919050565b600082825260208201905092915050565b6000819050602082019050919050565b6129da816122d3565b82525050565b60006129ec83836129d1565b60208301905092915050565b6000602082019050919050565b6000612a10826129a5565b612a1a81856129b0565b9350612a25836129c1565b8060005b83811015612a56578151612a3d88826129e0565b9750612a48836129f8565b925050600181019050612a29565b5085935050505092915050565b60006020820190508181036000830152612a7d8184612a05565b905092915050565b60008060008060808587031215612a9f57612a9e61226b565b5b6000612aad878288016122be565b9450506020612abe878288016122f4565b9350506040612acf878288016122f4565b9250506060612ae0878288016122f4565b91505092959194509250565b600067ffffffffffffffff821115612b0757612b066125a3565b5b612b10826124a1565b9050602081019050919050565b6000612b30612b2b84612aec565b612603565b905082815260208101848484011115612b4c57612b4b6126e6565b5b612b5784828561271c565b509392505050565b600082601f830112612b7457612b7361259e565b5b8135612b84848260208601612b1d565b91505092915050565b60008060008060808587031215612ba757612ba661226b565b5b6000612bb5878288016122f4565b945050602085013567ffffffffffffffff811115612bd657612bd5612270565b5b612be287828801612b5f565b9350506040612bf3878288016122f4565b9250506060612c04878288016122f4565b91505092959194509250565b612c1981612295565b82525050565b6000602082019050612c346000830184612c10565b92915050565b612c43816123f8565b8114612c4e57600080fd5b50565b600081359050612c6081612c3a565b92915050565b60008060408385031215612c7d57612c7c61226b565b5b6000612c8b858286016122be565b9250506020612c9c85828601612c51565b9150509250929050565b600060208284031215612cbc57612cbb61226b565b5b6000612cca848285016122be565b91505092915050565b60008060408385031215612cea57612ce961226b565b5b6000612cf8858286016122be565b9250506020612d09858286016122be565b9150509250929050565b600080600080600060a08688031215612d2f57612d2e61226b565b5b6000612d3d888289016122be565b9550506020612d4e888289016122be565b9450506040612d5f888289016122f4565b9350506060612d70888289016122f4565b925050608086013567ffffffffffffffff811115612d9157612d90612270565b5b612d9d8882890161276d565b9150509295509295909350565b7f455243313135353a2061646472657373207a65726f206973206e6f742061207660008201527f616c6964206f776e657200000000000000000000000000000000000000000000602082015250565b6000612e06602a83612466565b9150612e1182612daa565b604082019050919050565b60006020820190508181036000830152612e3581612df9565b9050919050565b7f4e487b7100000000000000000000000000000000000000000000000000000000600052602260045260246000fd5b60006002820490506001821680612e8357607f821691505b602082108103612e9657612e95612e3c565b5b50919050565b7f455243313135353a2063616c6c6572206973206e6f7420746f6b656e206f776e60008201527f6572206f7220617070726f766564000000000000000000000000000000000000602082015250565b6000612ef8602e83612466565b9150612f0382612e9c565b604082019050919050565b60006020820190508181036000830152612f2781612eeb565b9050919050565b7f455243313135353a206163636f756e747320616e6420696473206c656e67746860008201527f206d69736d617463680000000000000000000000000000000000000000000000602082015250565b6000612f8a602983612466565b9150612f9582612f2e565b604082019050919050565b60006020820190508181036000830152612fb981612f7d565b9050919050565b7f4e487b7100000000000000000000000000000000000000000000000000000000600052603260045260246000fd5b7f4e487b7100000000000000000000000000000000000000000000000000000000600052601160045260246000fd5b6000613029826122d3565b91507fffffffffffffffffffffffffffffffffffffffffffffffffffffffffffffffff820361305b5761305a612fef565b5b600182019050919050565b7f5469636b657420646f6573206e6f742065786973740000000000000000000000600082015250565b600061309c601583612466565b91506130a782613066565b602082019050919050565b600060208201905081810360008301526130cb8161308f565b9050919050565b7f4e6f207469636b65747320617661696c61626c65000000000000000000000000600082015250565b6000613108601483612466565b9150613113826130d2565b602082019050919050565b60006020820190508181036000830152613137816130fb565b9050919050565b7f42757965722073686f756c64206e6f7420626520746865204f7267616e697a6560008201527f7200000000000000000000000000000000000000000000000000000000000000602082015250565b600061319a602183612466565b91506131a58261313e565b604082019050919050565b600060208201905081810360008301526131c98161318d565b9050919050565b60006131db826122d3565b91506131e6836122d3565b92508282026131f4816122d3565b9150828204841483151761320b5761320a612fef565b5b5092915050565b7f42757965722062616c616e636520746f6f206c6f770000000000000000000000600082015250565b6000613248601583612466565b915061325382613212565b602082019050919050565b600060208201905081810360008301526132778161323b565b9050919050565b7f57726f6e67207061796d656e7420616d6f756e74000000000000000000000000600082015250565b60006132b4601483612466565b91506132bf8261327e565b602082019050919050565b600060208201905081810360008301526132e3816132a7565b9050919050565b60006060820190506132ff6000830186612349565b61330c6020830185612349565b6133196040830184612349565b949350505050565b60006040820190506133366000830185612c10565b6133436020830184612349565b9392505050565b60008151905061335981612c3a565b92915050565b6000602082840312156133755761337461226b565b5b60006133838482850161334a565b91505092915050565b7f4576656e7420646f6573206e6f74206578697374000000000000000000000000600082015250565b60006133c2601483612466565b91506133cd8261338c565b602082019050919050565b600060208201905081810360008301526133f1816133b5565b9050919050565b60008190508160005260206000209050919050565b60006020601f8301049050919050565b600082821b905092915050565b60006008830261345a7fffffffffffffffffffffffffffffffffffffffffffffffffffffffffffffffff8261341d565b613464868361341d565b95508019841693508086168417925050509392505050565b6000819050919050565b60006134a161349c613497846122d3565b61347c565b6122d3565b9050919050565b6000819050919050565b6134bb83613486565b6134cf6134c7826134a8565b84845461342a565b825550505050565b600090565b6134e46134d7565b6134ef8184846134b2565b505050565b5b81811015613513576135086000826134dc565b6001810190506134f5565b5050565b601f82111561355857613529816133f8565b6135328461340d565b81016020851015613541578190505b61355561354d8561340d565b8301826134f4565b50505b505050565b600082821c905092915050565b600061357b6000198460080261355d565b1980831691505092915050565b6000613594838361356a565b9150826002028217905092915050565b6135ad8261245b565b67ffffffffffffffff8111156135c6576135c56125a3565b5b6135d08254612e6b565b6135db828285613517565b600060209050601f83116001811461360e57600084156135fc578287015190505b6136068582613588565b86555061366e565b601f19841661361c866133f8565b60005b828110156136445784890151825560018201915060208501945060208101905061361f565b86831015613661578489015161365d601f89168261356a565b8355505b6001600288020188555050505b505050505050565b600060808201905061368b6000830187612349565b818103602083015261369d81866124b2565b90506136ac6040830185612349565b6136b96060830184612349565b95945050505050565b7f496e697469616c697a61626c653a20636f6e747261637420697320616c72656160008201527f647920696e697469616c697a6564000000000000000000000000000000000000602082015250565b600061371e602e83612466565b9150613729826136c2565b604082019050919050565b6000602082019050818103600083015261374d81613711565b9050919050565b6000819050919050565b600060ff82169050919050565b600061378661378161377c84613754565b61347c565b61375e565b9050919050565b6137968161376b565b82525050565b60006020820190506137b1600083018461378d565b92915050565b7f4f776e61626c653a206e6577206f776e657220697320746865207a65726f206160008201527f6464726573730000000000000000000000000000000000000000000000000000602082015250565b6000613813602683612466565b915061381e826137b7565b604082019050919050565b6000602082019050818103600083015261384281613806565b9050919050565b7f455243313135353a2069647320616e6420616d6f756e7473206c656e6774682060008201527f6d69736d61746368000000000000000000000000000000000000000000000000602082015250565b60006138a5602883612466565b91506138b082613849565b604082019050919050565b600060208201905081810360008301526138d481613898565b9050919050565b7f455243313135353a207472616e7366657220746f20746865207a65726f20616460008201527f6472657373000000000000000000000000000000000000000000000000000000602082015250565b6000613937602583612466565b9150613942826138db565b604082019050919050565b600060208201905081810360008301526139668161392a565b9050919050565b7f455243313135353a20696e73756666696369656e742062616c616e636520666f60008201527f72207472616e7366657200000000000000000000000000000000000000000000602082015250565b60006139c9602a83612466565b91506139d48261396d565b604082019050919050565b600060208201905081810360008301526139f8816139bc565b9050919050565b6000613a0a826122d3565b9150613a15836122d3565b9250828201905080821115613a2d57613a2c612fef565b5b92915050565b60006040820190508181036000830152613a4d8185612a05565b90508181036020830152613a618184612a05565b90509392505050565b6000604082019050613a7f6000830185612349565b613a8c6020830184612349565b9392505050565b7f4f776e61626c653a2063616c6c6572206973206e6f7420746865206f776e6572600082015250565b6000613ac9602083612466565b9150613ad482613a93565b602082019050919050565b60006020820190508181036000830152613af881613abc565b9050919050565b7f455243313135353a206d696e7420746f20746865207a65726f2061646472657360008201527f7300000000000000000000000000000000000000000000000000000000000000602082015250565b6000613b5b602183612466565b9150613b6682613aff565b604082019050919050565b60006020820190508181036000830152613b8a81613b4e565b9050919050565b7f455243313135353a2073657474696e6720617070726f76616c2073746174757360008201527f20666f722073656c660000000000000000000000000000000000000000000000602082015250565b6000613bed602983612466565b9150613bf882613b91565b604082019050919050565b60006020820190508181036000830152613c1c81613be0565b9050919050565b7f496e697469616c697a61626c653a20636f6e7472616374206973206e6f74206960008201527f6e697469616c697a696e67000000000000000000000000000000000000000000602082015250565b6000613c7f602b83612466565b9150613c8a82613c23565b604082019050919050565b60006020820190508181036000830152613cae81613c72565b9050919050565b600081519050919050565b600082825260208201905092915050565b6000613cdc82613cb5565b613ce68185613cc0565b9350613cf6818560208601612477565b613cff816124a1565b840191505092915050565b600060a082019050613d1f6000830188612c10565b613d2c6020830187612c10565b8181036040830152613d3e8186612a05565b90508181036060830152613d528185612a05565b90508181036080830152613d668184613cd1565b90509695505050505050565b600081519050613d818161239f565b92915050565b600060208284031215613d9d57613d9c61226b565b5b6000613dab84828501613d72565b91505092915050565b60008160e01c9050919050565b600060033d1115613de05760046000803e613ddd600051613db4565b90505b90565b600060443d10613e7057613df5612261565b60043d036004823e80513d602482011167ffffffffffffffff82111715613e1d575050613e70565b808201805167ffffffffffffffff811115613e3b5750505050613e70565b80602083010160043d038501811115613e58575050505050613e70565b613e67826020018501866125d2565b82955050505050505b90565b7f455243313135353a207472616e7366657220746f206e6f6e2d4552433131353560008201527f526563656976657220696d706c656d656e746572000000000000000000000000602082015250565b6000613ecf603483612466565b9150613eda82613e73565b604082019050919050565b60006020820190508181036000830152613efe81613ec2565b9050919050565b7f455243313135353a204552433131353552656365697665722072656a6563746560008201527f6420746f6b656e73000000000000000000000000000000000000000000000000602082015250565b6000613f61602883612466565b9150613f6c82613f05565b604082019050919050565b60006020820190508181036000830152613f9081613f54565b9050919050565b600060a082019050613fac6000830188612c10565b613fb96020830187612c10565b613fc66040830186612349565b613fd36060830185612349565b8181036080830152613fe58184613cd1565b9050969550505050505056fea264697066735822122003d3bf8ab986aa2d11c539a42044fb0aaf4e0d9964423c3ab8301b6f9518a0f264736f6c63430008110033",
  "immutableReferences": {},
  "source": "// SPDX-License-Identifier: MIT\npragma solidity ^0.8.17;\n\nimport \"@openzeppelin/contracts-upgradeable/access/OwnableUpgradeable.sol\";\nimport \"@openzeppelin/contracts-upgradeable/utils/CountersUpgradeable.sol\";\nimport \"@openzeppelin/contracts-upgradeable/token/ERC1155/ERC1155Upgradeable.sol\";\nimport \"@openzeppelin/contracts-upgradeable/proxy/utils/Initializable.sol\";\nimport \"./Event.sol\";\n\ninterface ITicket {\n    struct TicketStruct {\n        string name;\n        uint256 price;\n        bool is_set;\n    }\n\n    function create_ticket(\n        uint256 _event_id,\n        string memory _name,\n        uint256 _quantity,\n        uint256 _price\n    ) external;\n\n    function buy_ticket(\n        address _organizer_address,\n        uint256 _event_id,\n        uint256 _ticket_id,\n        uint256 _quantity\n    ) external payable;\n\n    function available_tickets(address _organizer_address, uint256 _ticket_id)\n        external\n        view\n        returns (uint256);\n\n    function tickets_length() external view returns (uint256);\n}\n\ncontract Ticket is\n    Initializable,\n    OwnableUpgradeable,\n    ERC1155Upgradeable,\n    ITicket\n{\n    CountersUpgradeable.Counter ticket_id;\n    mapping(address => mapping(uint256 => mapping(uint256 => TicketStruct)))\n        public tickets;\n    uint256[] public ticket_list;\n    IEvent private event_contract;\n\n    event TicketCreated(\n        address indexed _admin,\n        uint256 _ticket_id,\n        string _name,\n        uint256 _quantity,\n        uint256 _price\n    );\n\n    event TicketBought(\n        address indexed _buyer,\n        uint256 _ticket_id,\n        uint256 _quantity,\n        uint256 _price\n    );\n\n    function initialize(address _event_contract) public initializer {\n        event_contract = IEvent(_event_contract);\n        __ERC1155_init(\"\");\n    }\n\n    // Functions\n    function create_ticket(\n        uint256 _event_id,\n        string memory _name,\n        uint256 _quantity,\n        uint256 _price\n    ) external {\n        require(\n            event_contract.is_event(msg.sender, _event_id),\n            \"Event does not exist\"\n        );\n        // require(\n        //     tickets[msg.sender][_event_id].start_datetime < block.timestamp,\n        //     \"Event is passed\"\n        // );\n        tickets[msg.sender][_event_id][\n            CountersUpgradeable.current(ticket_id)\n        ] = TicketStruct(_name, _price, true);\n        ticket_list.push(CountersUpgradeable.current(ticket_id));\n        _mint(\n            msg.sender,\n            CountersUpgradeable.current(ticket_id),\n            _quantity,\n            \"\"\n        );\n        emit TicketCreated(\n            msg.sender,\n            CountersUpgradeable.current(ticket_id),\n            _name,\n            _quantity,\n            _price\n        );\n        CountersUpgradeable.increment(ticket_id);\n    }\n\n    function buy_ticket(\n        address _organizer_address,\n        uint256 _event_id,\n        uint256 _ticket_id,\n        uint256 _quantity\n    ) external payable {\n        require(\n            tickets[_organizer_address][_event_id][_ticket_id].is_set,\n            \"Ticket does not exist\"\n        );\n        require(\n            balanceOf(_organizer_address, _ticket_id) > 0,\n            \"No tickets available\"\n        );\n        require(\n            msg.sender != _organizer_address,\n            \"Buyer should not be the Organizer\"\n        );\n        // require(\n        //     tickets[_organizer_address][_event_id].start_datetime <\n        //         block.timestamp,\n        //     \"Event is passed\"\n        // );\n        uint256 total_price = _quantity *\n            tickets[_organizer_address][_event_id][_ticket_id].price;\n        require(msg.sender.balance >= total_price, \"Buyer balance too low\");\n        require(msg.value == total_price, \"Wrong payment amount\");\n        _safeTransferFrom(\n            _organizer_address,\n            msg.sender,\n            _ticket_id,\n            _quantity,\n            \"\"\n        );\n\n        emit TicketBought(msg.sender, _ticket_id, _quantity, total_price);\n    }\n\n    function available_tickets(address _organizer_address, uint256 _ticket_id)\n        external\n        view\n        returns (uint256)\n    {\n        return balanceOf(_organizer_address, _ticket_id);\n    }\n\n    function tickets_length() external view returns (uint256) {\n        return ticket_list.length;\n    }\n}\n",
  "sourcePath": "/home/flaprimo/Development/decentralized-ticket-sales/backend/contracts/Ticket.sol",
  "compiler": {
    "name": "solc",
    "version": "0.8.17+commit.8df45f5f.Emscripten.clang"
  },
  "schemaVersion": "3.4.10",
  "updatedAt": "2023-01-29T15:10:58.055Z",
  "networkType": "ethereum",
  "devdoc": {
    "kind": "dev",
    "methods": {
      "balanceOf(address,uint256)": {
        "details": "See {IERC1155-balanceOf}. Requirements: - `account` cannot be the zero address."
      },
      "balanceOfBatch(address[],uint256[])": {
        "details": "See {IERC1155-balanceOfBatch}. Requirements: - `accounts` and `ids` must have the same length."
      },
      "isApprovedForAll(address,address)": {
        "details": "See {IERC1155-isApprovedForAll}."
      },
      "owner()": {
        "details": "Returns the address of the current owner."
      },
      "renounceOwnership()": {
        "details": "Leaves the contract without owner. It will not be possible to call `onlyOwner` functions anymore. Can only be called by the current owner. NOTE: Renouncing ownership will leave the contract without an owner, thereby removing any functionality that is only available to the owner."
      },
      "safeBatchTransferFrom(address,address,uint256[],uint256[],bytes)": {
        "details": "See {IERC1155-safeBatchTransferFrom}."
      },
      "safeTransferFrom(address,address,uint256,uint256,bytes)": {
        "details": "See {IERC1155-safeTransferFrom}."
      },
      "setApprovalForAll(address,bool)": {
        "details": "See {IERC1155-setApprovalForAll}."
      },
      "supportsInterface(bytes4)": {
        "details": "See {IERC165-supportsInterface}."
      },
      "transferOwnership(address)": {
        "details": "Transfers ownership of the contract to a new account (`newOwner`). Can only be called by the current owner."
      },
      "uri(uint256)": {
        "details": "See {IERC1155MetadataURI-uri}. This implementation returns the same URI for *all* token types. It relies on the token type ID substitution mechanism https://eips.ethereum.org/EIPS/eip-1155#metadata[defined in the EIP]. Clients calling this function must replace the `\\{id\\}` substring with the actual token type ID."
      }
    },
    "version": 1
  },
  "userdoc": {
    "kind": "user",
    "methods": {},
    "version": 1
  }
}